{
	"contracts/MintAnimalToken.sol": {
		"MintAnimalToken": {
			"abi": [
				{
					"inputs": [],
					"stateMutability": "nonpayable",
					"type": "constructor"
				},
				{
					"inputs": [],
					"name": "ERC721EnumerableForbiddenBatchMint",
					"type": "error"
				},
				{
					"inputs": [
						{
							"internalType": "address",
							"name": "sender",
							"type": "address"
						},
						{
							"internalType": "uint256",
							"name": "tokenId",
							"type": "uint256"
						},
						{
							"internalType": "address",
							"name": "owner",
							"type": "address"
						}
					],
					"name": "ERC721IncorrectOwner",
					"type": "error"
				},
				{
					"inputs": [
						{
							"internalType": "address",
							"name": "operator",
							"type": "address"
						},
						{
							"internalType": "uint256",
							"name": "tokenId",
							"type": "uint256"
						}
					],
					"name": "ERC721InsufficientApproval",
					"type": "error"
				},
				{
					"inputs": [
						{
							"internalType": "address",
							"name": "approver",
							"type": "address"
						}
					],
					"name": "ERC721InvalidApprover",
					"type": "error"
				},
				{
					"inputs": [
						{
							"internalType": "address",
							"name": "operator",
							"type": "address"
						}
					],
					"name": "ERC721InvalidOperator",
					"type": "error"
				},
				{
					"inputs": [
						{
							"internalType": "address",
							"name": "owner",
							"type": "address"
						}
					],
					"name": "ERC721InvalidOwner",
					"type": "error"
				},
				{
					"inputs": [
						{
							"internalType": "address",
							"name": "receiver",
							"type": "address"
						}
					],
					"name": "ERC721InvalidReceiver",
					"type": "error"
				},
				{
					"inputs": [
						{
							"internalType": "address",
							"name": "sender",
							"type": "address"
						}
					],
					"name": "ERC721InvalidSender",
					"type": "error"
				},
				{
					"inputs": [
						{
							"internalType": "uint256",
							"name": "tokenId",
							"type": "uint256"
						}
					],
					"name": "ERC721NonexistentToken",
					"type": "error"
				},
				{
					"inputs": [
						{
							"internalType": "address",
							"name": "owner",
							"type": "address"
						},
						{
							"internalType": "uint256",
							"name": "index",
							"type": "uint256"
						}
					],
					"name": "ERC721OutOfBoundsIndex",
					"type": "error"
				},
				{
					"anonymous": false,
					"inputs": [
						{
							"indexed": true,
							"internalType": "address",
							"name": "owner",
							"type": "address"
						},
						{
							"indexed": true,
							"internalType": "address",
							"name": "approved",
							"type": "address"
						},
						{
							"indexed": true,
							"internalType": "uint256",
							"name": "tokenId",
							"type": "uint256"
						}
					],
					"name": "Approval",
					"type": "event"
				},
				{
					"anonymous": false,
					"inputs": [
						{
							"indexed": true,
							"internalType": "address",
							"name": "owner",
							"type": "address"
						},
						{
							"indexed": true,
							"internalType": "address",
							"name": "operator",
							"type": "address"
						},
						{
							"indexed": false,
							"internalType": "bool",
							"name": "approved",
							"type": "bool"
						}
					],
					"name": "ApprovalForAll",
					"type": "event"
				},
				{
					"anonymous": false,
					"inputs": [
						{
							"indexed": true,
							"internalType": "address",
							"name": "from",
							"type": "address"
						},
						{
							"indexed": true,
							"internalType": "address",
							"name": "to",
							"type": "address"
						},
						{
							"indexed": true,
							"internalType": "uint256",
							"name": "tokenId",
							"type": "uint256"
						}
					],
					"name": "Transfer",
					"type": "event"
				},
				{
					"inputs": [
						{
							"internalType": "uint256",
							"name": "",
							"type": "uint256"
						}
					],
					"name": "animalTypes",
					"outputs": [
						{
							"internalType": "uint256",
							"name": "",
							"type": "uint256"
						}
					],
					"stateMutability": "view",
					"type": "function"
				},
				{
					"inputs": [
						{
							"internalType": "address",
							"name": "to",
							"type": "address"
						},
						{
							"internalType": "uint256",
							"name": "tokenId",
							"type": "uint256"
						}
					],
					"name": "approve",
					"outputs": [],
					"stateMutability": "nonpayable",
					"type": "function"
				},
				{
					"inputs": [
						{
							"internalType": "address",
							"name": "owner",
							"type": "address"
						}
					],
					"name": "balanceOf",
					"outputs": [
						{
							"internalType": "uint256",
							"name": "",
							"type": "uint256"
						}
					],
					"stateMutability": "view",
					"type": "function"
				},
				{
					"inputs": [
						{
							"internalType": "uint256",
							"name": "tokenId",
							"type": "uint256"
						}
					],
					"name": "getApproved",
					"outputs": [
						{
							"internalType": "address",
							"name": "",
							"type": "address"
						}
					],
					"stateMutability": "view",
					"type": "function"
				},
				{
					"inputs": [
						{
							"internalType": "address",
							"name": "owner",
							"type": "address"
						},
						{
							"internalType": "address",
							"name": "operator",
							"type": "address"
						}
					],
					"name": "isApprovedForAll",
					"outputs": [
						{
							"internalType": "bool",
							"name": "",
							"type": "bool"
						}
					],
					"stateMutability": "view",
					"type": "function"
				},
				{
					"inputs": [],
					"name": "mintAnimalToken",
					"outputs": [],
					"stateMutability": "nonpayable",
					"type": "function"
				},
				{
					"inputs": [],
					"name": "name",
					"outputs": [
						{
							"internalType": "string",
							"name": "",
							"type": "string"
						}
					],
					"stateMutability": "view",
					"type": "function"
				},
				{
					"inputs": [
						{
							"internalType": "uint256",
							"name": "tokenId",
							"type": "uint256"
						}
					],
					"name": "ownerOf",
					"outputs": [
						{
							"internalType": "address",
							"name": "",
							"type": "address"
						}
					],
					"stateMutability": "view",
					"type": "function"
				},
				{
					"inputs": [
						{
							"internalType": "address",
							"name": "from",
							"type": "address"
						},
						{
							"internalType": "address",
							"name": "to",
							"type": "address"
						},
						{
							"internalType": "uint256",
							"name": "tokenId",
							"type": "uint256"
						}
					],
					"name": "safeTransferFrom",
					"outputs": [],
					"stateMutability": "nonpayable",
					"type": "function"
				},
				{
					"inputs": [
						{
							"internalType": "address",
							"name": "from",
							"type": "address"
						},
						{
							"internalType": "address",
							"name": "to",
							"type": "address"
						},
						{
							"internalType": "uint256",
							"name": "tokenId",
							"type": "uint256"
						},
						{
							"internalType": "bytes",
							"name": "data",
							"type": "bytes"
						}
					],
					"name": "safeTransferFrom",
					"outputs": [],
					"stateMutability": "nonpayable",
					"type": "function"
				},
				{
					"inputs": [
						{
							"internalType": "address",
							"name": "operator",
							"type": "address"
						},
						{
							"internalType": "bool",
							"name": "approved",
							"type": "bool"
						}
					],
					"name": "setApprovalForAll",
					"outputs": [],
					"stateMutability": "nonpayable",
					"type": "function"
				},
				{
					"inputs": [
						{
							"internalType": "bytes4",
							"name": "interfaceId",
							"type": "bytes4"
						}
					],
					"name": "supportsInterface",
					"outputs": [
						{
							"internalType": "bool",
							"name": "",
							"type": "bool"
						}
					],
					"stateMutability": "view",
					"type": "function"
				},
				{
					"inputs": [],
					"name": "symbol",
					"outputs": [
						{
							"internalType": "string",
							"name": "",
							"type": "string"
						}
					],
					"stateMutability": "view",
					"type": "function"
				},
				{
					"inputs": [
						{
							"internalType": "uint256",
							"name": "index",
							"type": "uint256"
						}
					],
					"name": "tokenByIndex",
					"outputs": [
						{
							"internalType": "uint256",
							"name": "",
							"type": "uint256"
						}
					],
					"stateMutability": "view",
					"type": "function"
				},
				{
					"inputs": [
						{
							"internalType": "address",
							"name": "owner",
							"type": "address"
						},
						{
							"internalType": "uint256",
							"name": "index",
							"type": "uint256"
						}
					],
					"name": "tokenOfOwnerByIndex",
					"outputs": [
						{
							"internalType": "uint256",
							"name": "",
							"type": "uint256"
						}
					],
					"stateMutability": "view",
					"type": "function"
				},
				{
					"inputs": [
						{
							"internalType": "uint256",
							"name": "tokenId",
							"type": "uint256"
						}
					],
					"name": "tokenURI",
					"outputs": [
						{
							"internalType": "string",
							"name": "",
							"type": "string"
						}
					],
					"stateMutability": "view",
					"type": "function"
				},
				{
					"inputs": [],
					"name": "totalSupply",
					"outputs": [
						{
							"internalType": "uint256",
							"name": "",
							"type": "uint256"
						}
					],
					"stateMutability": "view",
					"type": "function"
				},
				{
					"inputs": [
						{
							"internalType": "address",
							"name": "from",
							"type": "address"
						},
						{
							"internalType": "address",
							"name": "to",
							"type": "address"
						},
						{
							"internalType": "uint256",
							"name": "tokenId",
							"type": "uint256"
						}
					],
					"name": "transferFrom",
					"outputs": [],
					"stateMutability": "nonpayable",
					"type": "function"
				}
			],
			"devdoc": {
				"errors": {
					"ERC721EnumerableForbiddenBatchMint()": [
						{
							"details": "Batch mint is not allowed."
						}
					],
					"ERC721IncorrectOwner(address,uint256,address)": [
						{
							"details": "Indicates an error related to the ownership over a particular token. Used in transfers.",
							"params": {
								"owner": "Address of the current owner of a token.",
								"sender": "Address whose tokens are being transferred.",
								"tokenId": "Identifier number of a token."
							}
						}
					],
					"ERC721InsufficientApproval(address,uint256)": [
						{
							"details": "Indicates a failure with the `operator`’s approval. Used in transfers.",
							"params": {
								"operator": "Address that may be allowed to operate on tokens without being their owner.",
								"tokenId": "Identifier number of a token."
							}
						}
					],
					"ERC721InvalidApprover(address)": [
						{
							"details": "Indicates a failure with the `approver` of a token to be approved. Used in approvals.",
							"params": {
								"approver": "Address initiating an approval operation."
							}
						}
					],
					"ERC721InvalidOperator(address)": [
						{
							"details": "Indicates a failure with the `operator` to be approved. Used in approvals.",
							"params": {
								"operator": "Address that may be allowed to operate on tokens without being their owner."
							}
						}
					],
					"ERC721InvalidOwner(address)": [
						{
							"details": "Indicates that an address can't be an owner. For example, `address(0)` is a forbidden owner in EIP-20. Used in balance queries.",
							"params": {
								"owner": "Address of the current owner of a token."
							}
						}
					],
					"ERC721InvalidReceiver(address)": [
						{
							"details": "Indicates a failure with the token `receiver`. Used in transfers.",
							"params": {
								"receiver": "Address to which tokens are being transferred."
							}
						}
					],
					"ERC721InvalidSender(address)": [
						{
							"details": "Indicates a failure with the token `sender`. Used in transfers.",
							"params": {
								"sender": "Address whose tokens are being transferred."
							}
						}
					],
					"ERC721NonexistentToken(uint256)": [
						{
							"details": "Indicates a `tokenId` whose `owner` is the zero address.",
							"params": {
								"tokenId": "Identifier number of a token."
							}
						}
					],
					"ERC721OutOfBoundsIndex(address,uint256)": [
						{
							"details": "An `owner`'s token query was out of bounds for `index`. NOTE: The owner being `address(0)` indicates a global out of bounds index."
						}
					]
				},
				"events": {
					"Approval(address,address,uint256)": {
						"details": "Emitted when `owner` enables `approved` to manage the `tokenId` token."
					},
					"ApprovalForAll(address,address,bool)": {
						"details": "Emitted when `owner` enables or disables (`approved`) `operator` to manage all of its assets."
					},
					"Transfer(address,address,uint256)": {
						"details": "Emitted when `tokenId` token is transferred from `from` to `to`."
					}
				},
				"kind": "dev",
				"methods": {
					"approve(address,uint256)": {
						"details": "See {IERC721-approve}."
					},
					"balanceOf(address)": {
						"details": "See {IERC721-balanceOf}."
					},
					"getApproved(uint256)": {
						"details": "See {IERC721-getApproved}."
					},
					"isApprovedForAll(address,address)": {
						"details": "See {IERC721-isApprovedForAll}."
					},
					"name()": {
						"details": "See {IERC721Metadata-name}."
					},
					"ownerOf(uint256)": {
						"details": "See {IERC721-ownerOf}."
					},
					"safeTransferFrom(address,address,uint256)": {
						"details": "See {IERC721-safeTransferFrom}."
					},
					"safeTransferFrom(address,address,uint256,bytes)": {
						"details": "See {IERC721-safeTransferFrom}."
					},
					"setApprovalForAll(address,bool)": {
						"details": "See {IERC721-setApprovalForAll}."
					},
					"supportsInterface(bytes4)": {
						"details": "See {IERC165-supportsInterface}."
					},
					"symbol()": {
						"details": "See {IERC721Metadata-symbol}."
					},
					"tokenByIndex(uint256)": {
						"details": "See {IERC721Enumerable-tokenByIndex}."
					},
					"tokenOfOwnerByIndex(address,uint256)": {
						"details": "See {IERC721Enumerable-tokenOfOwnerByIndex}."
					},
					"tokenURI(uint256)": {
						"details": "See {IERC721Metadata-tokenURI}."
					},
					"totalSupply()": {
						"details": "See {IERC721Enumerable-totalSupply}."
					},
					"transferFrom(address,address,uint256)": {
						"details": "See {IERC721-transferFrom}."
					}
				},
				"version": 1
			},
			"evm": {
				"assembly": "    /* \"contracts/MintAnimalToken.sol\":146:626  contract MintAnimalToken is ERC721Enumerable {... */\n  mstore(0x40, 0x80)\n    /* \"contracts/MintAnimalToken.sol\":198:247  constructor() ERC721(\"bourgeoisAnimals\", \"BAS\"){} */\n  callvalue\n  dup1\n  iszero\n  tag_1\n  jumpi\n  0x00\n  dup1\n  revert\ntag_1:\n  pop\n    /* \"@openzeppelin/contracts/token/ERC721/ERC721.sol\":1381:1494  constructor(string memory name_, string memory symbol_) {... */\n  mload(0x40)\n  dup1\n  0x40\n  add\n  0x40\n  mstore\n  dup1\n  0x10\n  dup2\n  mstore\n  0x20\n  add\n  0x626f757267656f6973416e696d616c7300000000000000000000000000000000\n  dup2\n  mstore\n  pop\n  mload(0x40)\n  dup1\n  0x40\n  add\n  0x40\n  mstore\n  dup1\n  0x03\n  dup2\n  mstore\n  0x20\n  add\n  0x4241530000000000000000000000000000000000000000000000000000000000\n  dup2\n  mstore\n  pop\n    /* \"@openzeppelin/contracts/token/ERC721/ERC721.sol\":1455:1460  name_ */\n  dup2\n    /* \"@openzeppelin/contracts/token/ERC721/ERC721.sol\":1447:1452  _name */\n  0x00\n    /* \"@openzeppelin/contracts/token/ERC721/ERC721.sol\":1447:1460  _name = name_ */\n  swap1\n  dup2\n  tag_5\n  swap2\n  swap1\n  tag_6\n  jump\t// in\ntag_5:\n  pop\n    /* \"@openzeppelin/contracts/token/ERC721/ERC721.sol\":1480:1487  symbol_ */\n  dup1\n    /* \"@openzeppelin/contracts/token/ERC721/ERC721.sol\":1470:1477  _symbol */\n  0x01\n    /* \"@openzeppelin/contracts/token/ERC721/ERC721.sol\":1470:1487  _symbol = symbol_ */\n  swap1\n  dup2\n  tag_7\n  swap2\n  swap1\n  tag_6\n  jump\t// in\ntag_7:\n  pop\n    /* \"@openzeppelin/contracts/token/ERC721/ERC721.sol\":1381:1494  constructor(string memory name_, string memory symbol_) {... */\n  pop\n  pop\n    /* \"contracts/MintAnimalToken.sol\":146:626  contract MintAnimalToken is ERC721Enumerable {... */\n  jump(tag_9)\n    /* \"#utility.yul\":7:106   */\ntag_10:\n    /* \"#utility.yul\":59:65   */\n  0x00\n    /* \"#utility.yul\":93:98   */\n  dup2\n    /* \"#utility.yul\":87:99   */\n  mload\n    /* \"#utility.yul\":77:99   */\n  swap1\n  pop\n    /* \"#utility.yul\":7:106   */\n  swap2\n  swap1\n  pop\n  jump\t// out\n    /* \"#utility.yul\":112:292   */\ntag_11:\n    /* \"#utility.yul\":160:237   */\n  0x4e487b7100000000000000000000000000000000000000000000000000000000\n    /* \"#utility.yul\":157:158   */\n  0x00\n    /* \"#utility.yul\":150:238   */\n  mstore\n    /* \"#utility.yul\":257:261   */\n  0x41\n    /* \"#utility.yul\":254:255   */\n  0x04\n    /* \"#utility.yul\":247:262   */\n  mstore\n    /* \"#utility.yul\":281:285   */\n  0x24\n    /* \"#utility.yul\":278:279   */\n  0x00\n    /* \"#utility.yul\":271:286   */\n  revert\n    /* \"#utility.yul\":298:478   */\ntag_12:\n    /* \"#utility.yul\":346:423   */\n  0x4e487b7100000000000000000000000000000000000000000000000000000000\n    /* \"#utility.yul\":343:344   */\n  0x00\n    /* \"#utility.yul\":336:424   */\n  mstore\n    /* \"#utility.yul\":443:447   */\n  0x22\n    /* \"#utility.yul\":440:441   */\n  0x04\n    /* \"#utility.yul\":433:448   */\n  mstore\n    /* \"#utility.yul\":467:471   */\n  0x24\n    /* \"#utility.yul\":464:465   */\n  0x00\n    /* \"#utility.yul\":457:472   */\n  revert\n    /* \"#utility.yul\":484:804   */\ntag_13:\n    /* \"#utility.yul\":528:534   */\n  0x00\n    /* \"#utility.yul\":565:566   */\n  0x02\n    /* \"#utility.yul\":559:563   */\n  dup3\n    /* \"#utility.yul\":555:567   */\n  div\n    /* \"#utility.yul\":545:567   */\n  swap1\n  pop\n    /* \"#utility.yul\":612:613   */\n  0x01\n    /* \"#utility.yul\":606:610   */\n  dup3\n    /* \"#utility.yul\":602:614   */\n  and\n    /* \"#utility.yul\":633:651   */\n  dup1\n    /* \"#utility.yul\":623:704   */\n  tag_35\n  jumpi\n    /* \"#utility.yul\":689:693   */\n  0x7f\n    /* \"#utility.yul\":681:687   */\n  dup3\n    /* \"#utility.yul\":677:694   */\n  and\n    /* \"#utility.yul\":667:694   */\n  swap2\n  pop\n    /* \"#utility.yul\":623:704   */\ntag_35:\n    /* \"#utility.yul\":751:753   */\n  0x20\n    /* \"#utility.yul\":743:749   */\n  dup3\n    /* \"#utility.yul\":740:754   */\n  lt\n    /* \"#utility.yul\":720:738   */\n  dup2\n    /* \"#utility.yul\":717:755   */\n  sub\n    /* \"#utility.yul\":714:798   */\n  tag_36\n  jumpi\n    /* \"#utility.yul\":770:788   */\n  tag_37\n  tag_12\n  jump\t// in\ntag_37:\n    /* \"#utility.yul\":714:798   */\ntag_36:\n    /* \"#utility.yul\":535:804   */\n  pop\n    /* \"#utility.yul\":484:804   */\n  swap2\n  swap1\n  pop\n  jump\t// out\n    /* \"#utility.yul\":810:951   */\ntag_14:\n    /* \"#utility.yul\":859:863   */\n  0x00\n    /* \"#utility.yul\":882:885   */\n  dup2\n    /* \"#utility.yul\":874:885   */\n  swap1\n  pop\n    /* \"#utility.yul\":905:908   */\n  dup2\n    /* \"#utility.yul\":902:903   */\n  0x00\n    /* \"#utility.yul\":895:909   */\n  mstore\n    /* \"#utility.yul\":939:943   */\n  0x20\n    /* \"#utility.yul\":936:937   */\n  0x00\n    /* \"#utility.yul\":926:944   */\n  keccak256\n    /* \"#utility.yul\":918:944   */\n  swap1\n  pop\n    /* \"#utility.yul\":810:951   */\n  swap2\n  swap1\n  pop\n  jump\t// out\n    /* \"#utility.yul\":957:1050   */\ntag_15:\n    /* \"#utility.yul\":994:1000   */\n  0x00\n    /* \"#utility.yul\":1041:1043   */\n  0x20\n    /* \"#utility.yul\":1036:1038   */\n  0x1f\n    /* \"#utility.yul\":1029:1034   */\n  dup4\n    /* \"#utility.yul\":1025:1039   */\n  add\n    /* \"#utility.yul\":1021:1044   */\n  div\n    /* \"#utility.yul\":1011:1044   */\n  swap1\n  pop\n    /* \"#utility.yul\":957:1050   */\n  swap2\n  swap1\n  pop\n  jump\t// out\n    /* \"#utility.yul\":1056:1163   */\ntag_16:\n    /* \"#utility.yul\":1100:1108   */\n  0x00\n    /* \"#utility.yul\":1150:1155   */\n  dup3\n    /* \"#utility.yul\":1144:1148   */\n  dup3\n    /* \"#utility.yul\":1140:1156   */\n  shl\n    /* \"#utility.yul\":1119:1156   */\n  swap1\n  pop\n    /* \"#utility.yul\":1056:1163   */\n  swap3\n  swap2\n  pop\n  pop\n  jump\t// out\n    /* \"#utility.yul\":1169:1562   */\ntag_17:\n    /* \"#utility.yul\":1238:1244   */\n  0x00\n    /* \"#utility.yul\":1288:1289   */\n  0x08\n    /* \"#utility.yul\":1276:1286   */\n  dup4\n    /* \"#utility.yul\":1272:1290   */\n  mul\n    /* \"#utility.yul\":1311:1408   */\n  tag_42\n    /* \"#utility.yul\":1341:1407   */\n  0xffffffffffffffffffffffffffffffffffffffffffffffffffffffffffffffff\n    /* \"#utility.yul\":1330:1339   */\n  dup3\n    /* \"#utility.yul\":1311:1408   */\n  tag_16\n  jump\t// in\ntag_42:\n    /* \"#utility.yul\":1429:1468   */\n  tag_43\n    /* \"#utility.yul\":1459:1467   */\n  dup7\n    /* \"#utility.yul\":1448:1457   */\n  dup4\n    /* \"#utility.yul\":1429:1468   */\n  tag_16\n  jump\t// in\ntag_43:\n    /* \"#utility.yul\":1417:1468   */\n  swap6\n  pop\n    /* \"#utility.yul\":1501:1505   */\n  dup1\n    /* \"#utility.yul\":1497:1506   */\n  not\n    /* \"#utility.yul\":1490:1495   */\n  dup5\n    /* \"#utility.yul\":1486:1507   */\n  and\n    /* \"#utility.yul\":1477:1507   */\n  swap4\n  pop\n    /* \"#utility.yul\":1550:1554   */\n  dup1\n    /* \"#utility.yul\":1540:1548   */\n  dup7\n    /* \"#utility.yul\":1536:1555   */\n  and\n    /* \"#utility.yul\":1529:1534   */\n  dup5\n    /* \"#utility.yul\":1526:1556   */\n  or\n    /* \"#utility.yul\":1516:1556   */\n  swap3\n  pop\n    /* \"#utility.yul\":1245:1562   */\n  pop\n  pop\n    /* \"#utility.yul\":1169:1562   */\n  swap4\n  swap3\n  pop\n  pop\n  pop\n  jump\t// out\n    /* \"#utility.yul\":1568:1645   */\ntag_18:\n    /* \"#utility.yul\":1605:1612   */\n  0x00\n    /* \"#utility.yul\":1634:1639   */\n  dup2\n    /* \"#utility.yul\":1623:1639   */\n  swap1\n  pop\n    /* \"#utility.yul\":1568:1645   */\n  swap2\n  swap1\n  pop\n  jump\t// out\n    /* \"#utility.yul\":1651:1711   */\ntag_19:\n    /* \"#utility.yul\":1679:1682   */\n  0x00\n    /* \"#utility.yul\":1700:1705   */\n  dup2\n    /* \"#utility.yul\":1693:1705   */\n  swap1\n  pop\n    /* \"#utility.yul\":1651:1711   */\n  swap2\n  swap1\n  pop\n  jump\t// out\n    /* \"#utility.yul\":1717:1859   */\ntag_20:\n    /* \"#utility.yul\":1767:1776   */\n  0x00\n    /* \"#utility.yul\":1800:1853   */\n  tag_47\n    /* \"#utility.yul\":1818:1852   */\n  tag_48\n    /* \"#utility.yul\":1827:1851   */\n  tag_49\n    /* \"#utility.yul\":1845:1850   */\n  dup5\n    /* \"#utility.yul\":1827:1851   */\n  tag_18\n  jump\t// in\ntag_49:\n    /* \"#utility.yul\":1818:1852   */\n  tag_19\n  jump\t// in\ntag_48:\n    /* \"#utility.yul\":1800:1853   */\n  tag_18\n  jump\t// in\ntag_47:\n    /* \"#utility.yul\":1787:1853   */\n  swap1\n  pop\n    /* \"#utility.yul\":1717:1859   */\n  swap2\n  swap1\n  pop\n  jump\t// out\n    /* \"#utility.yul\":1865:1940   */\ntag_21:\n    /* \"#utility.yul\":1908:1911   */\n  0x00\n    /* \"#utility.yul\":1929:1934   */\n  dup2\n    /* \"#utility.yul\":1922:1934   */\n  swap1\n  pop\n    /* \"#utility.yul\":1865:1940   */\n  swap2\n  swap1\n  pop\n  jump\t// out\n    /* \"#utility.yul\":1946:2215   */\ntag_22:\n    /* \"#utility.yul\":2056:2095   */\n  tag_52\n    /* \"#utility.yul\":2087:2094   */\n  dup4\n    /* \"#utility.yul\":2056:2095   */\n  tag_20\n  jump\t// in\ntag_52:\n    /* \"#utility.yul\":2117:2208   */\n  tag_53\n    /* \"#utility.yul\":2166:2207   */\n  tag_54\n    /* \"#utility.yul\":2190:2206   */\n  dup3\n    /* \"#utility.yul\":2166:2207   */\n  tag_21\n  jump\t// in\ntag_54:\n    /* \"#utility.yul\":2158:2164   */\n  dup5\n    /* \"#utility.yul\":2151:2155   */\n  dup5\n    /* \"#utility.yul\":2145:2156   */\n  sload\n    /* \"#utility.yul\":2117:2208   */\n  tag_17\n  jump\t// in\ntag_53:\n    /* \"#utility.yul\":2111:2115   */\n  dup3\n    /* \"#utility.yul\":2104:2209   */\n  sstore\n    /* \"#utility.yul\":2022:2215   */\n  pop\n    /* \"#utility.yul\":1946:2215   */\n  pop\n  pop\n  pop\n  jump\t// out\n    /* \"#utility.yul\":2221:2294   */\ntag_23:\n    /* \"#utility.yul\":2266:2269   */\n  0x00\n    /* \"#utility.yul\":2221:2294   */\n  swap1\n  jump\t// out\n    /* \"#utility.yul\":2300:2489   */\ntag_24:\n    /* \"#utility.yul\":2377:2409   */\n  tag_57\n  tag_23\n  jump\t// in\ntag_57:\n    /* \"#utility.yul\":2418:2483   */\n  tag_58\n    /* \"#utility.yul\":2476:2482   */\n  dup2\n    /* \"#utility.yul\":2468:2474   */\n  dup5\n    /* \"#utility.yul\":2462:2466   */\n  dup5\n    /* \"#utility.yul\":2418:2483   */\n  tag_22\n  jump\t// in\ntag_58:\n    /* \"#utility.yul\":2353:2489   */\n  pop\n    /* \"#utility.yul\":2300:2489   */\n  pop\n  pop\n  jump\t// out\n    /* \"#utility.yul\":2495:2681   */\ntag_25:\n    /* \"#utility.yul\":2555:2675   */\ntag_60:\n    /* \"#utility.yul\":2572:2575   */\n  dup2\n    /* \"#utility.yul\":2565:2570   */\n  dup2\n    /* \"#utility.yul\":2562:2576   */\n  lt\n    /* \"#utility.yul\":2555:2675   */\n  iszero\n  tag_62\n  jumpi\n    /* \"#utility.yul\":2626:2665   */\n  tag_63\n    /* \"#utility.yul\":2663:2664   */\n  0x00\n    /* \"#utility.yul\":2656:2661   */\n  dup3\n    /* \"#utility.yul\":2626:2665   */\n  tag_24\n  jump\t// in\ntag_63:\n    /* \"#utility.yul\":2599:2600   */\n  0x01\n    /* \"#utility.yul\":2592:2597   */\n  dup2\n    /* \"#utility.yul\":2588:2601   */\n  add\n    /* \"#utility.yul\":2579:2601   */\n  swap1\n  pop\n    /* \"#utility.yul\":2555:2675   */\n  jump(tag_60)\ntag_62:\n    /* \"#utility.yul\":2495:2681   */\n  pop\n  pop\n  jump\t// out\n    /* \"#utility.yul\":2687:3230   */\ntag_26:\n    /* \"#utility.yul\":2788:2790   */\n  0x1f\n    /* \"#utility.yul\":2783:2786   */\n  dup3\n    /* \"#utility.yul\":2780:2791   */\n  gt\n    /* \"#utility.yul\":2777:3223   */\n  iszero\n  tag_65\n  jumpi\n    /* \"#utility.yul\":2822:2860   */\n  tag_66\n    /* \"#utility.yul\":2854:2859   */\n  dup2\n    /* \"#utility.yul\":2822:2860   */\n  tag_14\n  jump\t// in\ntag_66:\n    /* \"#utility.yul\":2906:2935   */\n  tag_67\n    /* \"#utility.yul\":2924:2934   */\n  dup5\n    /* \"#utility.yul\":2906:2935   */\n  tag_15\n  jump\t// in\ntag_67:\n    /* \"#utility.yul\":2896:2904   */\n  dup2\n    /* \"#utility.yul\":2892:2936   */\n  add\n    /* \"#utility.yul\":3089:3091   */\n  0x20\n    /* \"#utility.yul\":3077:3087   */\n  dup6\n    /* \"#utility.yul\":3074:3092   */\n  lt\n    /* \"#utility.yul\":3071:3120   */\n  iszero\n  tag_68\n  jumpi\n    /* \"#utility.yul\":3110:3118   */\n  dup2\n    /* \"#utility.yul\":3095:3118   */\n  swap1\n  pop\n    /* \"#utility.yul\":3071:3120   */\ntag_68:\n    /* \"#utility.yul\":3133:3213   */\n  tag_69\n    /* \"#utility.yul\":3189:3211   */\n  tag_70\n    /* \"#utility.yul\":3207:3210   */\n  dup6\n    /* \"#utility.yul\":3189:3211   */\n  tag_15\n  jump\t// in\ntag_70:\n    /* \"#utility.yul\":3179:3187   */\n  dup4\n    /* \"#utility.yul\":3175:3212   */\n  add\n    /* \"#utility.yul\":3162:3173   */\n  dup3\n    /* \"#utility.yul\":3133:3213   */\n  tag_25\n  jump\t// in\ntag_69:\n    /* \"#utility.yul\":2792:3223   */\n  pop\n  pop\n    /* \"#utility.yul\":2777:3223   */\ntag_65:\n    /* \"#utility.yul\":2687:3230   */\n  pop\n  pop\n  pop\n  jump\t// out\n    /* \"#utility.yul\":3236:3353   */\ntag_27:\n    /* \"#utility.yul\":3290:3298   */\n  0x00\n    /* \"#utility.yul\":3340:3345   */\n  dup3\n    /* \"#utility.yul\":3334:3338   */\n  dup3\n    /* \"#utility.yul\":3330:3346   */\n  shr\n    /* \"#utility.yul\":3309:3346   */\n  swap1\n  pop\n    /* \"#utility.yul\":3236:3353   */\n  swap3\n  swap2\n  pop\n  pop\n  jump\t// out\n    /* \"#utility.yul\":3359:3528   */\ntag_28:\n    /* \"#utility.yul\":3403:3409   */\n  0x00\n    /* \"#utility.yul\":3436:3487   */\n  tag_73\n    /* \"#utility.yul\":3484:3485   */\n  0x00\n    /* \"#utility.yul\":3480:3486   */\n  not\n    /* \"#utility.yul\":3472:3477   */\n  dup5\n    /* \"#utility.yul\":3469:3470   */\n  0x08\n    /* \"#utility.yul\":3465:3478   */\n  mul\n    /* \"#utility.yul\":3436:3487   */\n  tag_27\n  jump\t// in\ntag_73:\n    /* \"#utility.yul\":3432:3488   */\n  not\n    /* \"#utility.yul\":3517:3521   */\n  dup1\n    /* \"#utility.yul\":3511:3515   */\n  dup4\n    /* \"#utility.yul\":3507:3522   */\n  and\n    /* \"#utility.yul\":3497:3522   */\n  swap2\n  pop\n    /* \"#utility.yul\":3410:3528   */\n  pop\n    /* \"#utility.yul\":3359:3528   */\n  swap3\n  swap2\n  pop\n  pop\n  jump\t// out\n    /* \"#utility.yul\":3533:3828   */\ntag_29:\n    /* \"#utility.yul\":3609:3613   */\n  0x00\n    /* \"#utility.yul\":3755:3784   */\n  tag_75\n    /* \"#utility.yul\":3780:3783   */\n  dup4\n    /* \"#utility.yul\":3774:3778   */\n  dup4\n    /* \"#utility.yul\":3755:3784   */\n  tag_28\n  jump\t// in\ntag_75:\n    /* \"#utility.yul\":3747:3784   */\n  swap2\n  pop\n    /* \"#utility.yul\":3817:3820   */\n  dup3\n    /* \"#utility.yul\":3814:3815   */\n  0x02\n    /* \"#utility.yul\":3810:3821   */\n  mul\n    /* \"#utility.yul\":3804:3808   */\n  dup3\n    /* \"#utility.yul\":3801:3822   */\n  or\n    /* \"#utility.yul\":3793:3822   */\n  swap1\n  pop\n    /* \"#utility.yul\":3533:3828   */\n  swap3\n  swap2\n  pop\n  pop\n  jump\t// out\n    /* \"#utility.yul\":3833:5228   */\ntag_6:\n    /* \"#utility.yul\":3950:3987   */\n  tag_77\n    /* \"#utility.yul\":3983:3986   */\n  dup3\n    /* \"#utility.yul\":3950:3987   */\n  tag_10\n  jump\t// in\ntag_77:\n    /* \"#utility.yul\":4052:4070   */\n  0xffffffffffffffff\n    /* \"#utility.yul\":4044:4050   */\n  dup2\n    /* \"#utility.yul\":4041:4071   */\n  gt\n    /* \"#utility.yul\":4038:4094   */\n  iszero\n  tag_78\n  jumpi\n    /* \"#utility.yul\":4074:4092   */\n  tag_79\n  tag_11\n  jump\t// in\ntag_79:\n    /* \"#utility.yul\":4038:4094   */\ntag_78:\n    /* \"#utility.yul\":4118:4156   */\n  tag_80\n    /* \"#utility.yul\":4150:4154   */\n  dup3\n    /* \"#utility.yul\":4144:4155   */\n  sload\n    /* \"#utility.yul\":4118:4156   */\n  tag_13\n  jump\t// in\ntag_80:\n    /* \"#utility.yul\":4203:4270   */\n  tag_81\n    /* \"#utility.yul\":4263:4269   */\n  dup3\n    /* \"#utility.yul\":4255:4261   */\n  dup3\n    /* \"#utility.yul\":4249:4253   */\n  dup6\n    /* \"#utility.yul\":4203:4270   */\n  tag_26\n  jump\t// in\ntag_81:\n    /* \"#utility.yul\":4297:4298   */\n  0x00\n    /* \"#utility.yul\":4321:4325   */\n  0x20\n    /* \"#utility.yul\":4308:4325   */\n  swap1\n  pop\n    /* \"#utility.yul\":4353:4355   */\n  0x1f\n    /* \"#utility.yul\":4345:4351   */\n  dup4\n    /* \"#utility.yul\":4342:4356   */\n  gt\n    /* \"#utility.yul\":4370:4371   */\n  0x01\n    /* \"#utility.yul\":4365:4983   */\n  dup2\n  eq\n  tag_83\n  jumpi\n    /* \"#utility.yul\":5027:5028   */\n  0x00\n    /* \"#utility.yul\":5044:5050   */\n  dup5\n    /* \"#utility.yul\":5041:5118   */\n  iszero\n  tag_84\n  jumpi\n    /* \"#utility.yul\":5093:5102   */\n  dup3\n    /* \"#utility.yul\":5088:5091   */\n  dup8\n    /* \"#utility.yul\":5084:5103   */\n  add\n    /* \"#utility.yul\":5078:5104   */\n  mload\n    /* \"#utility.yul\":5069:5104   */\n  swap1\n  pop\n    /* \"#utility.yul\":5041:5118   */\ntag_84:\n    /* \"#utility.yul\":5144:5211   */\n  tag_85\n    /* \"#utility.yul\":5204:5210   */\n  dup6\n    /* \"#utility.yul\":5197:5202   */\n  dup3\n    /* \"#utility.yul\":5144:5211   */\n  tag_29\n  jump\t// in\ntag_85:\n    /* \"#utility.yul\":5138:5142   */\n  dup7\n    /* \"#utility.yul\":5131:5212   */\n  sstore\n    /* \"#utility.yul\":5000:5222   */\n  pop\n    /* \"#utility.yul\":4335:5222   */\n  jump(tag_82)\n    /* \"#utility.yul\":4365:4983   */\ntag_83:\n    /* \"#utility.yul\":4417:4421   */\n  0x1f\n    /* \"#utility.yul\":4413:4422   */\n  not\n    /* \"#utility.yul\":4405:4411   */\n  dup5\n    /* \"#utility.yul\":4401:4423   */\n  and\n    /* \"#utility.yul\":4451:4488   */\n  tag_86\n    /* \"#utility.yul\":4483:4487   */\n  dup7\n    /* \"#utility.yul\":4451:4488   */\n  tag_14\n  jump\t// in\ntag_86:\n    /* \"#utility.yul\":4510:4511   */\n  0x00\n    /* \"#utility.yul\":4524:4732   */\ntag_87:\n    /* \"#utility.yul\":4538:4545   */\n  dup3\n    /* \"#utility.yul\":4535:4536   */\n  dup2\n    /* \"#utility.yul\":4532:4546   */\n  lt\n    /* \"#utility.yul\":4524:4732   */\n  iszero\n  tag_89\n  jumpi\n    /* \"#utility.yul\":4617:4626   */\n  dup5\n    /* \"#utility.yul\":4612:4615   */\n  dup10\n    /* \"#utility.yul\":4608:4627   */\n  add\n    /* \"#utility.yul\":4602:4628   */\n  mload\n    /* \"#utility.yul\":4594:4600   */\n  dup3\n    /* \"#utility.yul\":4587:4629   */\n  sstore\n    /* \"#utility.yul\":4668:4669   */\n  0x01\n    /* \"#utility.yul\":4660:4666   */\n  dup3\n    /* \"#utility.yul\":4656:4670   */\n  add\n    /* \"#utility.yul\":4646:4670   */\n  swap2\n  pop\n    /* \"#utility.yul\":4715:4717   */\n  0x20\n    /* \"#utility.yul\":4704:4713   */\n  dup6\n    /* \"#utility.yul\":4700:4718   */\n  add\n    /* \"#utility.yul\":4687:4718   */\n  swap5\n  pop\n    /* \"#utility.yul\":4561:4565   */\n  0x20\n    /* \"#utility.yul\":4558:4559   */\n  dup2\n    /* \"#utility.yul\":4554:4566   */\n  add\n    /* \"#utility.yul\":4549:4566   */\n  swap1\n  pop\n    /* \"#utility.yul\":4524:4732   */\n  jump(tag_87)\ntag_89:\n    /* \"#utility.yul\":4760:4766   */\n  dup7\n    /* \"#utility.yul\":4751:4758   */\n  dup4\n    /* \"#utility.yul\":4748:4767   */\n  lt\n    /* \"#utility.yul\":4745:4924   */\n  iszero\n  tag_90\n  jumpi\n    /* \"#utility.yul\":4818:4827   */\n  dup5\n    /* \"#utility.yul\":4813:4816   */\n  dup10\n    /* \"#utility.yul\":4809:4828   */\n  add\n    /* \"#utility.yul\":4803:4829   */\n  mload\n    /* \"#utility.yul\":4861:4909   */\n  tag_91\n    /* \"#utility.yul\":4903:4907   */\n  0x1f\n    /* \"#utility.yul\":4895:4901   */\n  dup10\n    /* \"#utility.yul\":4891:4908   */\n  and\n    /* \"#utility.yul\":4880:4889   */\n  dup3\n    /* \"#utility.yul\":4861:4909   */\n  tag_28\n  jump\t// in\ntag_91:\n    /* \"#utility.yul\":4853:4859   */\n  dup4\n    /* \"#utility.yul\":4846:4910   */\n  sstore\n    /* \"#utility.yul\":4768:4924   */\n  pop\n    /* \"#utility.yul\":4745:4924   */\ntag_90:\n    /* \"#utility.yul\":4970:4971   */\n  0x01\n    /* \"#utility.yul\":4966:4967   */\n  0x02\n    /* \"#utility.yul\":4958:4964   */\n  dup9\n    /* \"#utility.yul\":4954:4968   */\n  mul\n    /* \"#utility.yul\":4950:4972   */\n  add\n    /* \"#utility.yul\":4944:4948   */\n  dup9\n    /* \"#utility.yul\":4937:4973   */\n  sstore\n    /* \"#utility.yul\":4372:4983   */\n  pop\n  pop\n  pop\n    /* \"#utility.yul\":4335:5222   */\ntag_82:\n  pop\n    /* \"#utility.yul\":3925:5228   */\n  pop\n  pop\n  pop\n    /* \"#utility.yul\":3833:5228   */\n  pop\n  pop\n  jump\t// out\n    /* \"contracts/MintAnimalToken.sol\":146:626  contract MintAnimalToken is ERC721Enumerable {... */\ntag_9:\n  dataSize(sub_0)\n  dup1\n  dataOffset(sub_0)\n  0x00\n  codecopy\n  0x00\n  return\nstop\n\nsub_0: assembly {\n        /* \"contracts/MintAnimalToken.sol\":146:626  contract MintAnimalToken is ERC721Enumerable {... */\n      mstore(0x40, 0x80)\n      callvalue\n      dup1\n      iszero\n      tag_1\n      jumpi\n      0x00\n      dup1\n      revert\n    tag_1:\n      pop\n      jumpi(tag_2, lt(calldatasize, 0x04))\n      shr(0xe0, calldataload(0x00))\n      dup1\n      0x4f6ccce7\n      gt\n      tag_21\n      jumpi\n      dup1\n      0x95d89b41\n      gt\n      tag_22\n      jumpi\n      dup1\n      0x95d89b41\n      eq\n      tag_16\n      jumpi\n      dup1\n      0xa22cb465\n      eq\n      tag_17\n      jumpi\n      dup1\n      0xb88d4fde\n      eq\n      tag_18\n      jumpi\n      dup1\n      0xc87b56dd\n      eq\n      tag_19\n      jumpi\n      dup1\n      0xe985e9c5\n      eq\n      tag_20\n      jumpi\n      jump(tag_2)\n    tag_22:\n      dup1\n      0x4f6ccce7\n      eq\n      tag_12\n      jumpi\n      dup1\n      0x62b4c27f\n      eq\n      tag_13\n      jumpi\n      dup1\n      0x6352211e\n      eq\n      tag_14\n      jumpi\n      dup1\n      0x70a08231\n      eq\n      tag_15\n      jumpi\n      jump(tag_2)\n    tag_21:\n      dup1\n      0x18160ddd\n      gt\n      tag_23\n      jumpi\n      dup1\n      0x18160ddd\n      eq\n      tag_7\n      jumpi\n      dup1\n      0x23b872dd\n      eq\n      tag_8\n      jumpi\n      dup1\n      0x2f745c59\n      eq\n      tag_9\n      jumpi\n      dup1\n      0x42842e0e\n      eq\n      tag_10\n      jumpi\n      dup1\n      0x4e7fe41e\n      eq\n      tag_11\n      jumpi\n      jump(tag_2)\n    tag_23:\n      dup1\n      0x01ffc9a7\n      eq\n      tag_3\n      jumpi\n      dup1\n      0x06fdde03\n      eq\n      tag_4\n      jumpi\n      dup1\n      0x081812fc\n      eq\n      tag_5\n      jumpi\n      dup1\n      0x095ea7b3\n      eq\n      tag_6\n      jumpi\n    tag_2:\n      0x00\n      dup1\n      revert\n        /* \"@openzeppelin/contracts/token/ERC721/extensions/ERC721Enumerable.sol\":1435:1657  function supportsInterface(bytes4 interfaceId) public view virtual override(IERC165, ERC721) returns (bool) {... */\n    tag_3:\n      tag_24\n      0x04\n      dup1\n      calldatasize\n      sub\n      dup2\n      add\n      swap1\n      tag_25\n      swap2\n      swap1\n      tag_26\n      jump\t// in\n    tag_25:\n      tag_27\n      jump\t// in\n    tag_24:\n      mload(0x40)\n      tag_28\n      swap2\n      swap1\n      tag_29\n      jump\t// in\n    tag_28:\n      mload(0x40)\n      dup1\n      swap2\n      sub\n      swap1\n      return\n        /* \"@openzeppelin/contracts/token/ERC721/ERC721.sol\":2365:2454  function name() public view virtual returns (string memory) {... */\n    tag_4:\n      tag_30\n      tag_31\n      jump\t// in\n    tag_30:\n      mload(0x40)\n      tag_32\n      swap2\n      swap1\n      tag_33\n      jump\t// in\n    tag_32:\n      mload(0x40)\n      dup1\n      swap2\n      sub\n      swap1\n      return\n        /* \"@openzeppelin/contracts/token/ERC721/ERC721.sol\":3497:3651  function getApproved(uint256 tokenId) public view virtual returns (address) {... */\n    tag_5:\n      tag_34\n      0x04\n      dup1\n      calldatasize\n      sub\n      dup2\n      add\n      swap1\n      tag_35\n      swap2\n      swap1\n      tag_36\n      jump\t// in\n    tag_35:\n      tag_37\n      jump\t// in\n    tag_34:\n      mload(0x40)\n      tag_38\n      swap2\n      swap1\n      tag_39\n      jump\t// in\n    tag_38:\n      mload(0x40)\n      dup1\n      swap2\n      sub\n      swap1\n      return\n        /* \"@openzeppelin/contracts/token/ERC721/ERC721.sol\":3323:3436  function approve(address to, uint256 tokenId) public virtual {... */\n    tag_6:\n      tag_40\n      0x04\n      dup1\n      calldatasize\n      sub\n      dup2\n      add\n      swap1\n      tag_41\n      swap2\n      swap1\n      tag_42\n      jump\t// in\n    tag_41:\n      tag_43\n      jump\t// in\n    tag_40:\n      stop\n        /* \"@openzeppelin/contracts/token/ERC721/extensions/ERC721Enumerable.sol\":2062:2164  function totalSupply() public view virtual returns (uint256) {... */\n    tag_7:\n      tag_44\n      tag_45\n      jump\t// in\n    tag_44:\n      mload(0x40)\n      tag_46\n      swap2\n      swap1\n      tag_47\n      jump\t// in\n    tag_46:\n      mload(0x40)\n      dup1\n      swap2\n      sub\n      swap1\n      return\n        /* \"@openzeppelin/contracts/token/ERC721/ERC721.sol\":4143:4721  function transferFrom(address from, address to, uint256 tokenId) public virtual {... */\n    tag_8:\n      tag_48\n      0x04\n      dup1\n      calldatasize\n      sub\n      dup2\n      add\n      swap1\n      tag_49\n      swap2\n      swap1\n      tag_50\n      jump\t// in\n    tag_49:\n      tag_51\n      jump\t// in\n    tag_48:\n      stop\n        /* \"@openzeppelin/contracts/token/ERC721/extensions/ERC721Enumerable.sol\":1736:1991  function tokenOfOwnerByIndex(address owner, uint256 index) public view virtual returns (uint256) {... */\n    tag_9:\n      tag_52\n      0x04\n      dup1\n      calldatasize\n      sub\n      dup2\n      add\n      swap1\n      tag_53\n      swap2\n      swap1\n      tag_42\n      jump\t// in\n    tag_53:\n      tag_54\n      jump\t// in\n    tag_52:\n      mload(0x40)\n      tag_55\n      swap2\n      swap1\n      tag_47\n      jump\t// in\n    tag_55:\n      mload(0x40)\n      dup1\n      swap2\n      sub\n      swap1\n      return\n        /* \"@openzeppelin/contracts/token/ERC721/ERC721.sol\":4787:4919  function safeTransferFrom(address from, address to, uint256 tokenId) public {... */\n    tag_10:\n      tag_56\n      0x04\n      dup1\n      calldatasize\n      sub\n      dup2\n      add\n      swap1\n      tag_57\n      swap2\n      swap1\n      tag_50\n      jump\t// in\n    tag_57:\n      tag_58\n      jump\t// in\n    tag_56:\n      stop\n        /* \"contracts/MintAnimalToken.sol\":256:302  mapping(uint256 => uint256) public animalTypes */\n    tag_11:\n      tag_59\n      0x04\n      dup1\n      calldatasize\n      sub\n      dup2\n      add\n      swap1\n      tag_60\n      swap2\n      swap1\n      tag_36\n      jump\t// in\n    tag_60:\n      tag_61\n      jump\t// in\n    tag_59:\n      mload(0x40)\n      tag_62\n      swap2\n      swap1\n      tag_47\n      jump\t// in\n    tag_62:\n      mload(0x40)\n      dup1\n      swap2\n      sub\n      swap1\n      return\n        /* \"@openzeppelin/contracts/token/ERC721/extensions/ERC721Enumerable.sol\":2236:2462  function tokenByIndex(uint256 index) public view virtual returns (uint256) {... */\n    tag_12:\n      tag_63\n      0x04\n      dup1\n      calldatasize\n      sub\n      dup2\n      add\n      swap1\n      tag_64\n      swap2\n      swap1\n      tag_36\n      jump\t// in\n    tag_64:\n      tag_65\n      jump\t// in\n    tag_63:\n      mload(0x40)\n      tag_66\n      swap2\n      swap1\n      tag_47\n      jump\t// in\n    tag_66:\n      mload(0x40)\n      dup1\n      swap2\n      sub\n      swap1\n      return\n        /* \"contracts/MintAnimalToken.sol\":311:623  function mintAnimalToken() public { ... */\n    tag_13:\n      tag_67\n      tag_68\n      jump\t// in\n    tag_67:\n      stop\n        /* \"@openzeppelin/contracts/token/ERC721/ERC721.sol\":2185:2303  function ownerOf(uint256 tokenId) public view virtual returns (address) {... */\n    tag_14:\n      tag_69\n      0x04\n      dup1\n      calldatasize\n      sub\n      dup2\n      add\n      swap1\n      tag_70\n      swap2\n      swap1\n      tag_36\n      jump\t// in\n    tag_70:\n      tag_71\n      jump\t// in\n    tag_69:\n      mload(0x40)\n      tag_72\n      swap2\n      swap1\n      tag_39\n      jump\t// in\n    tag_72:\n      mload(0x40)\n      dup1\n      swap2\n      sub\n      swap1\n      return\n        /* \"@openzeppelin/contracts/token/ERC721/ERC721.sol\":1920:2128  function balanceOf(address owner) public view virtual returns (uint256) {... */\n    tag_15:\n      tag_73\n      0x04\n      dup1\n      calldatasize\n      sub\n      dup2\n      add\n      swap1\n      tag_74\n      swap2\n      swap1\n      tag_75\n      jump\t// in\n    tag_74:\n      tag_76\n      jump\t// in\n    tag_73:\n      mload(0x40)\n      tag_77\n      swap2\n      swap1\n      tag_47\n      jump\t// in\n    tag_77:\n      mload(0x40)\n      dup1\n      swap2\n      sub\n      swap1\n      return\n        /* \"@openzeppelin/contracts/token/ERC721/ERC721.sol\":2518:2611  function symbol() public view virtual returns (string memory) {... */\n    tag_16:\n      tag_78\n      tag_79\n      jump\t// in\n    tag_78:\n      mload(0x40)\n      tag_80\n      swap2\n      swap1\n      tag_33\n      jump\t// in\n    tag_80:\n      mload(0x40)\n      dup1\n      swap2\n      sub\n      swap1\n      return\n        /* \"@openzeppelin/contracts/token/ERC721/ERC721.sol\":3718:3862  function setApprovalForAll(address operator, bool approved) public virtual {... */\n    tag_17:\n      tag_81\n      0x04\n      dup1\n      calldatasize\n      sub\n      dup2\n      add\n      swap1\n      tag_82\n      swap2\n      swap1\n      tag_83\n      jump\t// in\n    tag_82:\n      tag_84\n      jump\t// in\n    tag_81:\n      stop\n        /* \"@openzeppelin/contracts/token/ERC721/ERC721.sol\":4985:5193  function safeTransferFrom(address from, address to, uint256 tokenId, bytes memory data) public virtual {... */\n    tag_18:\n      tag_85\n      0x04\n      dup1\n      calldatasize\n      sub\n      dup2\n      add\n      swap1\n      tag_86\n      swap2\n      swap1\n      tag_87\n      jump\t// in\n    tag_86:\n      tag_88\n      jump\t// in\n    tag_85:\n      stop\n        /* \"@openzeppelin/contracts/token/ERC721/ERC721.sol\":2677:2932  function tokenURI(uint256 tokenId) public view virtual returns (string memory) {... */\n    tag_19:\n      tag_89\n      0x04\n      dup1\n      calldatasize\n      sub\n      dup2\n      add\n      swap1\n      tag_90\n      swap2\n      swap1\n      tag_36\n      jump\t// in\n    tag_90:\n      tag_91\n      jump\t// in\n    tag_89:\n      mload(0x40)\n      tag_92\n      swap2\n      swap1\n      tag_33\n      jump\t// in\n    tag_92:\n      mload(0x40)\n      dup1\n      swap2\n      sub\n      swap1\n      return\n        /* \"@openzeppelin/contracts/token/ERC721/ERC721.sol\":3928:4081  function isApprovedForAll(address owner, address operator) public view virtual returns (bool) {... */\n    tag_20:\n      tag_93\n      0x04\n      dup1\n      calldatasize\n      sub\n      dup2\n      add\n      swap1\n      tag_94\n      swap2\n      swap1\n      tag_95\n      jump\t// in\n    tag_94:\n      tag_96\n      jump\t// in\n    tag_93:\n      mload(0x40)\n      tag_97\n      swap2\n      swap1\n      tag_29\n      jump\t// in\n    tag_97:\n      mload(0x40)\n      dup1\n      swap2\n      sub\n      swap1\n      return\n        /* \"@openzeppelin/contracts/token/ERC721/extensions/ERC721Enumerable.sol\":1435:1657  function supportsInterface(bytes4 interfaceId) public view virtual override(IERC165, ERC721) returns (bool) {... */\n    tag_27:\n        /* \"@openzeppelin/contracts/token/ERC721/extensions/ERC721Enumerable.sol\":1537:1541  bool */\n      0x00\n        /* \"@openzeppelin/contracts/token/ERC721/extensions/ERC721Enumerable.sol\":1575:1610  type(IERC721Enumerable).interfaceId */\n      0x780e9d6300000000000000000000000000000000000000000000000000000000\n        /* \"@openzeppelin/contracts/token/ERC721/extensions/ERC721Enumerable.sol\":1560:1610  interfaceId == type(IERC721Enumerable).interfaceId */\n      not(0xffffffffffffffffffffffffffffffffffffffffffffffffffffffff)\n      and\n        /* \"@openzeppelin/contracts/token/ERC721/extensions/ERC721Enumerable.sol\":1560:1571  interfaceId */\n      dup3\n        /* \"@openzeppelin/contracts/token/ERC721/extensions/ERC721Enumerable.sol\":1560:1610  interfaceId == type(IERC721Enumerable).interfaceId */\n      not(0xffffffffffffffffffffffffffffffffffffffffffffffffffffffff)\n      and\n      eq\n        /* \"@openzeppelin/contracts/token/ERC721/extensions/ERC721Enumerable.sol\":1560:1650  interfaceId == type(IERC721Enumerable).interfaceId || super.supportsInterface(interfaceId) */\n      dup1\n      tag_99\n      jumpi\n      pop\n        /* \"@openzeppelin/contracts/token/ERC721/extensions/ERC721Enumerable.sol\":1614:1650  super.supportsInterface(interfaceId) */\n      tag_100\n        /* \"@openzeppelin/contracts/token/ERC721/extensions/ERC721Enumerable.sol\":1638:1649  interfaceId */\n      dup3\n        /* \"@openzeppelin/contracts/token/ERC721/extensions/ERC721Enumerable.sol\":1614:1637  super.supportsInterface */\n      tag_101\n        /* \"@openzeppelin/contracts/token/ERC721/extensions/ERC721Enumerable.sol\":1614:1650  super.supportsInterface(interfaceId) */\n      jump\t// in\n    tag_100:\n        /* \"@openzeppelin/contracts/token/ERC721/extensions/ERC721Enumerable.sol\":1560:1650  interfaceId == type(IERC721Enumerable).interfaceId || super.supportsInterface(interfaceId) */\n    tag_99:\n        /* \"@openzeppelin/contracts/token/ERC721/extensions/ERC721Enumerable.sol\":1553:1650  return interfaceId == type(IERC721Enumerable).interfaceId || super.supportsInterface(interfaceId) */\n      swap1\n      pop\n        /* \"@openzeppelin/contracts/token/ERC721/extensions/ERC721Enumerable.sol\":1435:1657  function supportsInterface(bytes4 interfaceId) public view virtual override(IERC165, ERC721) returns (bool) {... */\n      swap2\n      swap1\n      pop\n      jump\t// out\n        /* \"@openzeppelin/contracts/token/ERC721/ERC721.sol\":2365:2454  function name() public view virtual returns (string memory) {... */\n    tag_31:\n        /* \"@openzeppelin/contracts/token/ERC721/ERC721.sol\":2410:2423  string memory */\n      0x60\n        /* \"@openzeppelin/contracts/token/ERC721/ERC721.sol\":2442:2447  _name */\n      0x00\n        /* \"@openzeppelin/contracts/token/ERC721/ERC721.sol\":2435:2447  return _name */\n      dup1\n      sload\n      tag_103\n      swap1\n      tag_104\n      jump\t// in\n    tag_103:\n      dup1\n      0x1f\n      add\n      0x20\n      dup1\n      swap2\n      div\n      mul\n      0x20\n      add\n      mload(0x40)\n      swap1\n      dup2\n      add\n      0x40\n      mstore\n      dup1\n      swap3\n      swap2\n      swap1\n      dup2\n      dup2\n      mstore\n      0x20\n      add\n      dup3\n      dup1\n      sload\n      tag_105\n      swap1\n      tag_104\n      jump\t// in\n    tag_105:\n      dup1\n      iszero\n      tag_106\n      jumpi\n      dup1\n      0x1f\n      lt\n      tag_107\n      jumpi\n      0x0100\n      dup1\n      dup4\n      sload\n      div\n      mul\n      dup4\n      mstore\n      swap2\n      0x20\n      add\n      swap2\n      jump(tag_106)\n    tag_107:\n      dup3\n      add\n      swap2\n      swap1\n      0x00\n      mstore\n      keccak256(0x00, 0x20)\n      swap1\n    tag_108:\n      dup2\n      sload\n      dup2\n      mstore\n      swap1\n      0x01\n      add\n      swap1\n      0x20\n      add\n      dup1\n      dup4\n      gt\n      tag_108\n      jumpi\n      dup3\n      swap1\n      sub\n      0x1f\n      and\n      dup3\n      add\n      swap2\n    tag_106:\n      pop\n      pop\n      pop\n      pop\n      pop\n      swap1\n      pop\n        /* \"@openzeppelin/contracts/token/ERC721/ERC721.sol\":2365:2454  function name() public view virtual returns (string memory) {... */\n      swap1\n      jump\t// out\n        /* \"@openzeppelin/contracts/token/ERC721/ERC721.sol\":3497:3651  function getApproved(uint256 tokenId) public view virtual returns (address) {... */\n    tag_37:\n        /* \"@openzeppelin/contracts/token/ERC721/ERC721.sol\":3564:3571  address */\n      0x00\n        /* \"@openzeppelin/contracts/token/ERC721/ERC721.sol\":3583:3605  _requireOwned(tokenId) */\n      tag_110\n        /* \"@openzeppelin/contracts/token/ERC721/ERC721.sol\":3597:3604  tokenId */\n      dup3\n        /* \"@openzeppelin/contracts/token/ERC721/ERC721.sol\":3583:3596  _requireOwned */\n      tag_111\n        /* \"@openzeppelin/contracts/token/ERC721/ERC721.sol\":3583:3605  _requireOwned(tokenId) */\n      jump\t// in\n    tag_110:\n      pop\n        /* \"@openzeppelin/contracts/token/ERC721/ERC721.sol\":3623:3644  _getApproved(tokenId) */\n      tag_112\n        /* \"@openzeppelin/contracts/token/ERC721/ERC721.sol\":3636:3643  tokenId */\n      dup3\n        /* \"@openzeppelin/contracts/token/ERC721/ERC721.sol\":3623:3635  _getApproved */\n      tag_113\n        /* \"@openzeppelin/contracts/token/ERC721/ERC721.sol\":3623:3644  _getApproved(tokenId) */\n      jump\t// in\n    tag_112:\n        /* \"@openzeppelin/contracts/token/ERC721/ERC721.sol\":3616:3644  return _getApproved(tokenId) */\n      swap1\n      pop\n        /* \"@openzeppelin/contracts/token/ERC721/ERC721.sol\":3497:3651  function getApproved(uint256 tokenId) public view virtual returns (address) {... */\n      swap2\n      swap1\n      pop\n      jump\t// out\n        /* \"@openzeppelin/contracts/token/ERC721/ERC721.sol\":3323:3436  function approve(address to, uint256 tokenId) public virtual {... */\n    tag_43:\n        /* \"@openzeppelin/contracts/token/ERC721/ERC721.sol\":3394:3429  _approve(to, tokenId, _msgSender()) */\n      tag_115\n        /* \"@openzeppelin/contracts/token/ERC721/ERC721.sol\":3403:3405  to */\n      dup3\n        /* \"@openzeppelin/contracts/token/ERC721/ERC721.sol\":3407:3414  tokenId */\n      dup3\n        /* \"@openzeppelin/contracts/token/ERC721/ERC721.sol\":3416:3428  _msgSender() */\n      tag_116\n        /* \"@openzeppelin/contracts/token/ERC721/ERC721.sol\":3416:3426  _msgSender */\n      tag_117\n        /* \"@openzeppelin/contracts/token/ERC721/ERC721.sol\":3416:3428  _msgSender() */\n      jump\t// in\n    tag_116:\n        /* \"@openzeppelin/contracts/token/ERC721/ERC721.sol\":3394:3402  _approve */\n      tag_118\n        /* \"@openzeppelin/contracts/token/ERC721/ERC721.sol\":3394:3429  _approve(to, tokenId, _msgSender()) */\n      jump\t// in\n    tag_115:\n        /* \"@openzeppelin/contracts/token/ERC721/ERC721.sol\":3323:3436  function approve(address to, uint256 tokenId) public virtual {... */\n      pop\n      pop\n      jump\t// out\n        /* \"@openzeppelin/contracts/token/ERC721/extensions/ERC721Enumerable.sol\":2062:2164  function totalSupply() public view virtual returns (uint256) {... */\n    tag_45:\n        /* \"@openzeppelin/contracts/token/ERC721/extensions/ERC721Enumerable.sol\":2114:2121  uint256 */\n      0x00\n        /* \"@openzeppelin/contracts/token/ERC721/extensions/ERC721Enumerable.sol\":2140:2150  _allTokens */\n      0x08\n        /* \"@openzeppelin/contracts/token/ERC721/extensions/ERC721Enumerable.sol\":2140:2157  _allTokens.length */\n      dup1\n      sload\n      swap1\n      pop\n        /* \"@openzeppelin/contracts/token/ERC721/extensions/ERC721Enumerable.sol\":2133:2157  return _allTokens.length */\n      swap1\n      pop\n        /* \"@openzeppelin/contracts/token/ERC721/extensions/ERC721Enumerable.sol\":2062:2164  function totalSupply() public view virtual returns (uint256) {... */\n      swap1\n      jump\t// out\n        /* \"@openzeppelin/contracts/token/ERC721/ERC721.sol\":4143:4721  function transferFrom(address from, address to, uint256 tokenId) public virtual {... */\n    tag_51:\n        /* \"@openzeppelin/contracts/token/ERC721/ERC721.sol\":4251:4252  0 */\n      0x00\n        /* \"@openzeppelin/contracts/token/ERC721/ERC721.sol\":4237:4253  to == address(0) */\n      0xffffffffffffffffffffffffffffffffffffffff\n      and\n        /* \"@openzeppelin/contracts/token/ERC721/ERC721.sol\":4237:4239  to */\n      dup3\n        /* \"@openzeppelin/contracts/token/ERC721/ERC721.sol\":4237:4253  to == address(0) */\n      0xffffffffffffffffffffffffffffffffffffffff\n      and\n      sub\n        /* \"@openzeppelin/contracts/token/ERC721/ERC721.sol\":4233:4320  if (to == address(0)) {... */\n      tag_121\n      jumpi\n        /* \"@openzeppelin/contracts/token/ERC721/ERC721.sol\":4306:4307  0 */\n      0x00\n        /* \"@openzeppelin/contracts/token/ERC721/ERC721.sol\":4276:4309  ERC721InvalidReceiver(address(0)) */\n      mload(0x40)\n      0x64a0ae9200000000000000000000000000000000000000000000000000000000\n      dup2\n      mstore\n      0x04\n      add\n      tag_122\n      swap2\n      swap1\n      tag_39\n      jump\t// in\n    tag_122:\n      mload(0x40)\n      dup1\n      swap2\n      sub\n      swap1\n      revert\n        /* \"@openzeppelin/contracts/token/ERC721/ERC721.sol\":4233:4320  if (to == address(0)) {... */\n    tag_121:\n        /* \"@openzeppelin/contracts/token/ERC721/ERC721.sol\":4538:4559  address previousOwner */\n      0x00\n        /* \"@openzeppelin/contracts/token/ERC721/ERC721.sol\":4562:4596  _update(to, tokenId, _msgSender()) */\n      tag_123\n        /* \"@openzeppelin/contracts/token/ERC721/ERC721.sol\":4570:4572  to */\n      dup4\n        /* \"@openzeppelin/contracts/token/ERC721/ERC721.sol\":4574:4581  tokenId */\n      dup4\n        /* \"@openzeppelin/contracts/token/ERC721/ERC721.sol\":4583:4595  _msgSender() */\n      tag_124\n        /* \"@openzeppelin/contracts/token/ERC721/ERC721.sol\":4583:4593  _msgSender */\n      tag_117\n        /* \"@openzeppelin/contracts/token/ERC721/ERC721.sol\":4583:4595  _msgSender() */\n      jump\t// in\n    tag_124:\n        /* \"@openzeppelin/contracts/token/ERC721/ERC721.sol\":4562:4569  _update */\n      tag_125\n        /* \"@openzeppelin/contracts/token/ERC721/ERC721.sol\":4562:4596  _update(to, tokenId, _msgSender()) */\n      jump\t// in\n    tag_123:\n        /* \"@openzeppelin/contracts/token/ERC721/ERC721.sol\":4538:4596  address previousOwner = _update(to, tokenId, _msgSender()) */\n      swap1\n      pop\n        /* \"@openzeppelin/contracts/token/ERC721/ERC721.sol\":4627:4631  from */\n      dup4\n        /* \"@openzeppelin/contracts/token/ERC721/ERC721.sol\":4610:4631  previousOwner != from */\n      0xffffffffffffffffffffffffffffffffffffffff\n      and\n        /* \"@openzeppelin/contracts/token/ERC721/ERC721.sol\":4610:4623  previousOwner */\n      dup2\n        /* \"@openzeppelin/contracts/token/ERC721/ERC721.sol\":4610:4631  previousOwner != from */\n      0xffffffffffffffffffffffffffffffffffffffff\n      and\n      eq\n        /* \"@openzeppelin/contracts/token/ERC721/ERC721.sol\":4606:4715  if (previousOwner != from) {... */\n      tag_126\n      jumpi\n        /* \"@openzeppelin/contracts/token/ERC721/ERC721.sol\":4675:4679  from */\n      dup4\n        /* \"@openzeppelin/contracts/token/ERC721/ERC721.sol\":4681:4688  tokenId */\n      dup3\n        /* \"@openzeppelin/contracts/token/ERC721/ERC721.sol\":4690:4703  previousOwner */\n      dup3\n        /* \"@openzeppelin/contracts/token/ERC721/ERC721.sol\":4654:4704  ERC721IncorrectOwner(from, tokenId, previousOwner) */\n      mload(0x40)\n      0x64283d7b00000000000000000000000000000000000000000000000000000000\n      dup2\n      mstore\n      0x04\n      add\n      tag_127\n      swap4\n      swap3\n      swap2\n      swap1\n      tag_128\n      jump\t// in\n    tag_127:\n      mload(0x40)\n      dup1\n      swap2\n      sub\n      swap1\n      revert\n        /* \"@openzeppelin/contracts/token/ERC721/ERC721.sol\":4606:4715  if (previousOwner != from) {... */\n    tag_126:\n        /* \"@openzeppelin/contracts/token/ERC721/ERC721.sol\":4223:4721  {... */\n      pop\n        /* \"@openzeppelin/contracts/token/ERC721/ERC721.sol\":4143:4721  function transferFrom(address from, address to, uint256 tokenId) public virtual {... */\n      pop\n      pop\n      pop\n      jump\t// out\n        /* \"@openzeppelin/contracts/token/ERC721/extensions/ERC721Enumerable.sol\":1736:1991  function tokenOfOwnerByIndex(address owner, uint256 index) public view virtual returns (uint256) {... */\n    tag_54:\n        /* \"@openzeppelin/contracts/token/ERC721/extensions/ERC721Enumerable.sol\":1824:1831  uint256 */\n      0x00\n        /* \"@openzeppelin/contracts/token/ERC721/extensions/ERC721Enumerable.sol\":1856:1872  balanceOf(owner) */\n      tag_130\n        /* \"@openzeppelin/contracts/token/ERC721/extensions/ERC721Enumerable.sol\":1866:1871  owner */\n      dup4\n        /* \"@openzeppelin/contracts/token/ERC721/extensions/ERC721Enumerable.sol\":1856:1865  balanceOf */\n      tag_76\n        /* \"@openzeppelin/contracts/token/ERC721/extensions/ERC721Enumerable.sol\":1856:1872  balanceOf(owner) */\n      jump\t// in\n    tag_130:\n        /* \"@openzeppelin/contracts/token/ERC721/extensions/ERC721Enumerable.sol\":1847:1852  index */\n      dup3\n        /* \"@openzeppelin/contracts/token/ERC721/extensions/ERC721Enumerable.sol\":1847:1872  index >= balanceOf(owner) */\n      lt\n        /* \"@openzeppelin/contracts/token/ERC721/extensions/ERC721Enumerable.sol\":1843:1942  if (index >= balanceOf(owner)) {... */\n      tag_131\n      jumpi\n        /* \"@openzeppelin/contracts/token/ERC721/extensions/ERC721Enumerable.sol\":1918:1923  owner */\n      dup3\n        /* \"@openzeppelin/contracts/token/ERC721/extensions/ERC721Enumerable.sol\":1925:1930  index */\n      dup3\n        /* \"@openzeppelin/contracts/token/ERC721/extensions/ERC721Enumerable.sol\":1895:1931  ERC721OutOfBoundsIndex(owner, index) */\n      mload(0x40)\n      0xa57d13dc00000000000000000000000000000000000000000000000000000000\n      dup2\n      mstore\n      0x04\n      add\n      tag_132\n      swap3\n      swap2\n      swap1\n      tag_133\n      jump\t// in\n    tag_132:\n      mload(0x40)\n      dup1\n      swap2\n      sub\n      swap1\n      revert\n        /* \"@openzeppelin/contracts/token/ERC721/extensions/ERC721Enumerable.sol\":1843:1942  if (index >= balanceOf(owner)) {... */\n    tag_131:\n        /* \"@openzeppelin/contracts/token/ERC721/extensions/ERC721Enumerable.sol\":1958:1970  _ownedTokens */\n      0x06\n        /* \"@openzeppelin/contracts/token/ERC721/extensions/ERC721Enumerable.sol\":1958:1977  _ownedTokens[owner] */\n      0x00\n        /* \"@openzeppelin/contracts/token/ERC721/extensions/ERC721Enumerable.sol\":1971:1976  owner */\n      dup5\n        /* \"@openzeppelin/contracts/token/ERC721/extensions/ERC721Enumerable.sol\":1958:1977  _ownedTokens[owner] */\n      0xffffffffffffffffffffffffffffffffffffffff\n      and\n      0xffffffffffffffffffffffffffffffffffffffff\n      and\n      dup2\n      mstore\n      0x20\n      add\n      swap1\n      dup2\n      mstore\n      0x20\n      add\n      0x00\n      keccak256\n        /* \"@openzeppelin/contracts/token/ERC721/extensions/ERC721Enumerable.sol\":1958:1984  _ownedTokens[owner][index] */\n      0x00\n        /* \"@openzeppelin/contracts/token/ERC721/extensions/ERC721Enumerable.sol\":1978:1983  index */\n      dup4\n        /* \"@openzeppelin/contracts/token/ERC721/extensions/ERC721Enumerable.sol\":1958:1984  _ownedTokens[owner][index] */\n      dup2\n      mstore\n      0x20\n      add\n      swap1\n      dup2\n      mstore\n      0x20\n      add\n      0x00\n      keccak256\n      sload\n        /* \"@openzeppelin/contracts/token/ERC721/extensions/ERC721Enumerable.sol\":1951:1984  return _ownedTokens[owner][index] */\n      swap1\n      pop\n        /* \"@openzeppelin/contracts/token/ERC721/extensions/ERC721Enumerable.sol\":1736:1991  function tokenOfOwnerByIndex(address owner, uint256 index) public view virtual returns (uint256) {... */\n      swap3\n      swap2\n      pop\n      pop\n      jump\t// out\n        /* \"@openzeppelin/contracts/token/ERC721/ERC721.sol\":4787:4919  function safeTransferFrom(address from, address to, uint256 tokenId) public {... */\n    tag_58:\n        /* \"@openzeppelin/contracts/token/ERC721/ERC721.sol\":4873:4912  safeTransferFrom(from, to, tokenId, \"\") */\n      tag_135\n        /* \"@openzeppelin/contracts/token/ERC721/ERC721.sol\":4890:4894  from */\n      dup4\n        /* \"@openzeppelin/contracts/token/ERC721/ERC721.sol\":4896:4898  to */\n      dup4\n        /* \"@openzeppelin/contracts/token/ERC721/ERC721.sol\":4900:4907  tokenId */\n      dup4\n        /* \"@openzeppelin/contracts/token/ERC721/ERC721.sol\":4873:4912  safeTransferFrom(from, to, tokenId, \"\") */\n      mload(0x40)\n      dup1\n      0x20\n      add\n      0x40\n      mstore\n      dup1\n      0x00\n      dup2\n      mstore\n      pop\n        /* \"@openzeppelin/contracts/token/ERC721/ERC721.sol\":4873:4889  safeTransferFrom */\n      tag_88\n        /* \"@openzeppelin/contracts/token/ERC721/ERC721.sol\":4873:4912  safeTransferFrom(from, to, tokenId, \"\") */\n      jump\t// in\n    tag_135:\n        /* \"@openzeppelin/contracts/token/ERC721/ERC721.sol\":4787:4919  function safeTransferFrom(address from, address to, uint256 tokenId) public {... */\n      pop\n      pop\n      pop\n      jump\t// out\n        /* \"contracts/MintAnimalToken.sol\":256:302  mapping(uint256 => uint256) public animalTypes */\n    tag_61:\n      mstore(0x20, 0x0a)\n      dup1\n      0x00\n      mstore\n      keccak256(0x00, 0x40)\n      0x00\n      swap2\n      pop\n      swap1\n      pop\n      sload\n      dup2\n      jump\t// out\n        /* \"@openzeppelin/contracts/token/ERC721/extensions/ERC721Enumerable.sol\":2236:2462  function tokenByIndex(uint256 index) public view virtual returns (uint256) {... */\n    tag_65:\n        /* \"@openzeppelin/contracts/token/ERC721/extensions/ERC721Enumerable.sol\":2302:2309  uint256 */\n      0x00\n        /* \"@openzeppelin/contracts/token/ERC721/extensions/ERC721Enumerable.sol\":2334:2347  totalSupply() */\n      tag_137\n        /* \"@openzeppelin/contracts/token/ERC721/extensions/ERC721Enumerable.sol\":2334:2345  totalSupply */\n      tag_45\n        /* \"@openzeppelin/contracts/token/ERC721/extensions/ERC721Enumerable.sol\":2334:2347  totalSupply() */\n      jump\t// in\n    tag_137:\n        /* \"@openzeppelin/contracts/token/ERC721/extensions/ERC721Enumerable.sol\":2325:2330  index */\n      dup3\n        /* \"@openzeppelin/contracts/token/ERC721/extensions/ERC721Enumerable.sol\":2325:2347  index >= totalSupply() */\n      lt\n        /* \"@openzeppelin/contracts/token/ERC721/extensions/ERC721Enumerable.sol\":2321:2422  if (index >= totalSupply()) {... */\n      tag_138\n      jumpi\n        /* \"@openzeppelin/contracts/token/ERC721/extensions/ERC721Enumerable.sol\":2401:2402  0 */\n      0x00\n        /* \"@openzeppelin/contracts/token/ERC721/extensions/ERC721Enumerable.sol\":2405:2410  index */\n      dup3\n        /* \"@openzeppelin/contracts/token/ERC721/extensions/ERC721Enumerable.sol\":2370:2411  ERC721OutOfBoundsIndex(address(0), index) */\n      mload(0x40)\n      0xa57d13dc00000000000000000000000000000000000000000000000000000000\n      dup2\n      mstore\n      0x04\n      add\n      tag_139\n      swap3\n      swap2\n      swap1\n      tag_133\n      jump\t// in\n    tag_139:\n      mload(0x40)\n      dup1\n      swap2\n      sub\n      swap1\n      revert\n        /* \"@openzeppelin/contracts/token/ERC721/extensions/ERC721Enumerable.sol\":2321:2422  if (index >= totalSupply()) {... */\n    tag_138:\n        /* \"@openzeppelin/contracts/token/ERC721/extensions/ERC721Enumerable.sol\":2438:2448  _allTokens */\n      0x08\n        /* \"@openzeppelin/contracts/token/ERC721/extensions/ERC721Enumerable.sol\":2449:2454  index */\n      dup3\n        /* \"@openzeppelin/contracts/token/ERC721/extensions/ERC721Enumerable.sol\":2438:2455  _allTokens[index] */\n      dup2\n      sload\n      dup2\n      lt\n      tag_140\n      jumpi\n      tag_141\n      tag_142\n      jump\t// in\n    tag_141:\n    tag_140:\n      swap1\n      0x00\n      mstore\n      keccak256(0x00, 0x20)\n      add\n      sload\n        /* \"@openzeppelin/contracts/token/ERC721/extensions/ERC721Enumerable.sol\":2431:2455  return _allTokens[index] */\n      swap1\n      pop\n        /* \"@openzeppelin/contracts/token/ERC721/extensions/ERC721Enumerable.sol\":2236:2462  function tokenByIndex(uint256 index) public view virtual returns (uint256) {... */\n      swap2\n      swap1\n      pop\n      jump\t// out\n        /* \"contracts/MintAnimalToken.sol\":311:623  function mintAnimalToken() public { ... */\n    tag_68:\n        /* \"contracts/MintAnimalToken.sol\":356:377  uint256 animalTokenId */\n      0x00\n        /* \"contracts/MintAnimalToken.sol\":396:397  1 */\n      0x01\n        /* \"contracts/MintAnimalToken.sol\":380:393  totalSupply() */\n      tag_145\n        /* \"contracts/MintAnimalToken.sol\":380:391  totalSupply */\n      tag_45\n        /* \"contracts/MintAnimalToken.sol\":380:393  totalSupply() */\n      jump\t// in\n    tag_145:\n        /* \"contracts/MintAnimalToken.sol\":380:397  totalSupply() + 1 */\n      tag_146\n      swap2\n      swap1\n      tag_147\n      jump\t// in\n    tag_146:\n        /* \"contracts/MintAnimalToken.sol\":356:397  uint256 animalTokenId = totalSupply() + 1 */\n      swap1\n      pop\n        /* \"contracts/MintAnimalToken.sol\":410:428  uint256 animalType */\n      0x00\n        /* \"contracts/MintAnimalToken.sol\":518:519  1 */\n      0x01\n        /* \"contracts/MintAnimalToken.sol\":514:515  5 */\n      0x05\n        /* \"contracts/MintAnimalToken.sol\":466:481  block.timestamp */\n      timestamp\n        /* \"contracts/MintAnimalToken.sol\":483:493  msg.sender */\n      caller\n        /* \"contracts/MintAnimalToken.sol\":495:508  animalTokenId */\n      dup6\n        /* \"contracts/MintAnimalToken.sol\":449:509  abi.encodePacked(block.timestamp, msg.sender, animalTokenId) */\n      add(0x20, mload(0x40))\n      tag_148\n      swap4\n      swap3\n      swap2\n      swap1\n      tag_149\n      jump\t// in\n    tag_148:\n      mload(0x40)\n      0x20\n      dup2\n      dup4\n      sub\n      sub\n      dup2\n      mstore\n      swap1\n      0x40\n      mstore\n        /* \"contracts/MintAnimalToken.sol\":439:510  keccak256(abi.encodePacked(block.timestamp, msg.sender, animalTokenId)) */\n      dup1\n      mload\n      swap1\n      0x20\n      add\n      keccak256\n        /* \"contracts/MintAnimalToken.sol\":431:511  uint256(keccak256(abi.encodePacked(block.timestamp, msg.sender, animalTokenId))) */\n      0x00\n      shr\n        /* \"contracts/MintAnimalToken.sol\":431:515  uint256(keccak256(abi.encodePacked(block.timestamp, msg.sender, animalTokenId))) % 5 */\n      tag_150\n      swap2\n      swap1\n      tag_151\n      jump\t// in\n    tag_150:\n        /* \"contracts/MintAnimalToken.sol\":431:519  uint256(keccak256(abi.encodePacked(block.timestamp, msg.sender, animalTokenId))) % 5 + 1 */\n      tag_152\n      swap2\n      swap1\n      tag_147\n      jump\t// in\n    tag_152:\n        /* \"contracts/MintAnimalToken.sol\":410:519  uint256 animalType = uint256(keccak256(abi.encodePacked(block.timestamp, msg.sender, animalTokenId))) % 5 + 1 */\n      swap1\n      pop\n        /* \"contracts/MintAnimalToken.sol\":560:570  animalType */\n      dup1\n        /* \"contracts/MintAnimalToken.sol\":531:542  animalTypes */\n      0x0a\n        /* \"contracts/MintAnimalToken.sol\":531:557  animalTypes[animalTokenId] */\n      0x00\n        /* \"contracts/MintAnimalToken.sol\":543:556  animalTokenId */\n      dup5\n        /* \"contracts/MintAnimalToken.sol\":531:557  animalTypes[animalTokenId] */\n      dup2\n      mstore\n      0x20\n      add\n      swap1\n      dup2\n      mstore\n      0x20\n      add\n      0x00\n      keccak256\n        /* \"contracts/MintAnimalToken.sol\":531:570  animalTypes[animalTokenId] = animalType */\n      dup2\n      swap1\n      sstore\n      pop\n        /* \"contracts/MintAnimalToken.sol\":582:614  _mint(msg.sender, animalTokenId) */\n      tag_153\n        /* \"contracts/MintAnimalToken.sol\":588:598  msg.sender */\n      caller\n        /* \"contracts/MintAnimalToken.sol\":600:613  animalTokenId */\n      dup4\n        /* \"contracts/MintAnimalToken.sol\":582:587  _mint */\n      tag_154\n        /* \"contracts/MintAnimalToken.sol\":582:614  _mint(msg.sender, animalTokenId) */\n      jump\t// in\n    tag_153:\n        /* \"contracts/MintAnimalToken.sol\":345:623  { ... */\n      pop\n      pop\n        /* \"contracts/MintAnimalToken.sol\":311:623  function mintAnimalToken() public { ... */\n      jump\t// out\n        /* \"@openzeppelin/contracts/token/ERC721/ERC721.sol\":2185:2303  function ownerOf(uint256 tokenId) public view virtual returns (address) {... */\n    tag_71:\n        /* \"@openzeppelin/contracts/token/ERC721/ERC721.sol\":2248:2255  address */\n      0x00\n        /* \"@openzeppelin/contracts/token/ERC721/ERC721.sol\":2274:2296  _requireOwned(tokenId) */\n      tag_156\n        /* \"@openzeppelin/contracts/token/ERC721/ERC721.sol\":2288:2295  tokenId */\n      dup3\n        /* \"@openzeppelin/contracts/token/ERC721/ERC721.sol\":2274:2287  _requireOwned */\n      tag_111\n        /* \"@openzeppelin/contracts/token/ERC721/ERC721.sol\":2274:2296  _requireOwned(tokenId) */\n      jump\t// in\n    tag_156:\n        /* \"@openzeppelin/contracts/token/ERC721/ERC721.sol\":2267:2296  return _requireOwned(tokenId) */\n      swap1\n      pop\n        /* \"@openzeppelin/contracts/token/ERC721/ERC721.sol\":2185:2303  function ownerOf(uint256 tokenId) public view virtual returns (address) {... */\n      swap2\n      swap1\n      pop\n      jump\t// out\n        /* \"@openzeppelin/contracts/token/ERC721/ERC721.sol\":1920:2128  function balanceOf(address owner) public view virtual returns (uint256) {... */\n    tag_76:\n        /* \"@openzeppelin/contracts/token/ERC721/ERC721.sol\":1983:1990  uint256 */\n      0x00\n        /* \"@openzeppelin/contracts/token/ERC721/ERC721.sol\":2023:2024  0 */\n      dup1\n        /* \"@openzeppelin/contracts/token/ERC721/ERC721.sol\":2006:2025  owner == address(0) */\n      0xffffffffffffffffffffffffffffffffffffffff\n      and\n        /* \"@openzeppelin/contracts/token/ERC721/ERC721.sol\":2006:2011  owner */\n      dup3\n        /* \"@openzeppelin/contracts/token/ERC721/ERC721.sol\":2006:2025  owner == address(0) */\n      0xffffffffffffffffffffffffffffffffffffffff\n      and\n      sub\n        /* \"@openzeppelin/contracts/token/ERC721/ERC721.sol\":2002:2089  if (owner == address(0)) {... */\n      tag_158\n      jumpi\n        /* \"@openzeppelin/contracts/token/ERC721/ERC721.sol\":2075:2076  0 */\n      0x00\n        /* \"@openzeppelin/contracts/token/ERC721/ERC721.sol\":2048:2078  ERC721InvalidOwner(address(0)) */\n      mload(0x40)\n      0x89c62b6400000000000000000000000000000000000000000000000000000000\n      dup2\n      mstore\n      0x04\n      add\n      tag_159\n      swap2\n      swap1\n      tag_39\n      jump\t// in\n    tag_159:\n      mload(0x40)\n      dup1\n      swap2\n      sub\n      swap1\n      revert\n        /* \"@openzeppelin/contracts/token/ERC721/ERC721.sol\":2002:2089  if (owner == address(0)) {... */\n    tag_158:\n        /* \"@openzeppelin/contracts/token/ERC721/ERC721.sol\":2105:2114  _balances */\n      0x03\n        /* \"@openzeppelin/contracts/token/ERC721/ERC721.sol\":2105:2121  _balances[owner] */\n      0x00\n        /* \"@openzeppelin/contracts/token/ERC721/ERC721.sol\":2115:2120  owner */\n      dup4\n        /* \"@openzeppelin/contracts/token/ERC721/ERC721.sol\":2105:2121  _balances[owner] */\n      0xffffffffffffffffffffffffffffffffffffffff\n      and\n      0xffffffffffffffffffffffffffffffffffffffff\n      and\n      dup2\n      mstore\n      0x20\n      add\n      swap1\n      dup2\n      mstore\n      0x20\n      add\n      0x00\n      keccak256\n      sload\n        /* \"@openzeppelin/contracts/token/ERC721/ERC721.sol\":2098:2121  return _balances[owner] */\n      swap1\n      pop\n        /* \"@openzeppelin/contracts/token/ERC721/ERC721.sol\":1920:2128  function balanceOf(address owner) public view virtual returns (uint256) {... */\n      swap2\n      swap1\n      pop\n      jump\t// out\n        /* \"@openzeppelin/contracts/token/ERC721/ERC721.sol\":2518:2611  function symbol() public view virtual returns (string memory) {... */\n    tag_79:\n        /* \"@openzeppelin/contracts/token/ERC721/ERC721.sol\":2565:2578  string memory */\n      0x60\n        /* \"@openzeppelin/contracts/token/ERC721/ERC721.sol\":2597:2604  _symbol */\n      0x01\n        /* \"@openzeppelin/contracts/token/ERC721/ERC721.sol\":2590:2604  return _symbol */\n      dup1\n      sload\n      tag_161\n      swap1\n      tag_104\n      jump\t// in\n    tag_161:\n      dup1\n      0x1f\n      add\n      0x20\n      dup1\n      swap2\n      div\n      mul\n      0x20\n      add\n      mload(0x40)\n      swap1\n      dup2\n      add\n      0x40\n      mstore\n      dup1\n      swap3\n      swap2\n      swap1\n      dup2\n      dup2\n      mstore\n      0x20\n      add\n      dup3\n      dup1\n      sload\n      tag_162\n      swap1\n      tag_104\n      jump\t// in\n    tag_162:\n      dup1\n      iszero\n      tag_163\n      jumpi\n      dup1\n      0x1f\n      lt\n      tag_164\n      jumpi\n      0x0100\n      dup1\n      dup4\n      sload\n      div\n      mul\n      dup4\n      mstore\n      swap2\n      0x20\n      add\n      swap2\n      jump(tag_163)\n    tag_164:\n      dup3\n      add\n      swap2\n      swap1\n      0x00\n      mstore\n      keccak256(0x00, 0x20)\n      swap1\n    tag_165:\n      dup2\n      sload\n      dup2\n      mstore\n      swap1\n      0x01\n      add\n      swap1\n      0x20\n      add\n      dup1\n      dup4\n      gt\n      tag_165\n      jumpi\n      dup3\n      swap1\n      sub\n      0x1f\n      and\n      dup3\n      add\n      swap2\n    tag_163:\n      pop\n      pop\n      pop\n      pop\n      pop\n      swap1\n      pop\n        /* \"@openzeppelin/contracts/token/ERC721/ERC721.sol\":2518:2611  function symbol() public view virtual returns (string memory) {... */\n      swap1\n      jump\t// out\n        /* \"@openzeppelin/contracts/token/ERC721/ERC721.sol\":3718:3862  function setApprovalForAll(address operator, bool approved) public virtual {... */\n    tag_84:\n        /* \"@openzeppelin/contracts/token/ERC721/ERC721.sol\":3803:3855  _setApprovalForAll(_msgSender(), operator, approved) */\n      tag_167\n        /* \"@openzeppelin/contracts/token/ERC721/ERC721.sol\":3822:3834  _msgSender() */\n      tag_168\n        /* \"@openzeppelin/contracts/token/ERC721/ERC721.sol\":3822:3832  _msgSender */\n      tag_117\n        /* \"@openzeppelin/contracts/token/ERC721/ERC721.sol\":3822:3834  _msgSender() */\n      jump\t// in\n    tag_168:\n        /* \"@openzeppelin/contracts/token/ERC721/ERC721.sol\":3836:3844  operator */\n      dup4\n        /* \"@openzeppelin/contracts/token/ERC721/ERC721.sol\":3846:3854  approved */\n      dup4\n        /* \"@openzeppelin/contracts/token/ERC721/ERC721.sol\":3803:3821  _setApprovalForAll */\n      tag_169\n        /* \"@openzeppelin/contracts/token/ERC721/ERC721.sol\":3803:3855  _setApprovalForAll(_msgSender(), operator, approved) */\n      jump\t// in\n    tag_167:\n        /* \"@openzeppelin/contracts/token/ERC721/ERC721.sol\":3718:3862  function setApprovalForAll(address operator, bool approved) public virtual {... */\n      pop\n      pop\n      jump\t// out\n        /* \"@openzeppelin/contracts/token/ERC721/ERC721.sol\":4985:5193  function safeTransferFrom(address from, address to, uint256 tokenId, bytes memory data) public virtual {... */\n    tag_88:\n        /* \"@openzeppelin/contracts/token/ERC721/ERC721.sol\":5098:5129  transferFrom(from, to, tokenId) */\n      tag_171\n        /* \"@openzeppelin/contracts/token/ERC721/ERC721.sol\":5111:5115  from */\n      dup5\n        /* \"@openzeppelin/contracts/token/ERC721/ERC721.sol\":5117:5119  to */\n      dup5\n        /* \"@openzeppelin/contracts/token/ERC721/ERC721.sol\":5121:5128  tokenId */\n      dup5\n        /* \"@openzeppelin/contracts/token/ERC721/ERC721.sol\":5098:5110  transferFrom */\n      tag_51\n        /* \"@openzeppelin/contracts/token/ERC721/ERC721.sol\":5098:5129  transferFrom(from, to, tokenId) */\n      jump\t// in\n    tag_171:\n        /* \"@openzeppelin/contracts/token/ERC721/ERC721.sol\":5139:5186  _checkOnERC721Received(from, to, tokenId, data) */\n      tag_172\n        /* \"@openzeppelin/contracts/token/ERC721/ERC721.sol\":5162:5166  from */\n      dup5\n        /* \"@openzeppelin/contracts/token/ERC721/ERC721.sol\":5168:5170  to */\n      dup5\n        /* \"@openzeppelin/contracts/token/ERC721/ERC721.sol\":5172:5179  tokenId */\n      dup5\n        /* \"@openzeppelin/contracts/token/ERC721/ERC721.sol\":5181:5185  data */\n      dup5\n        /* \"@openzeppelin/contracts/token/ERC721/ERC721.sol\":5139:5161  _checkOnERC721Received */\n      tag_173\n        /* \"@openzeppelin/contracts/token/ERC721/ERC721.sol\":5139:5186  _checkOnERC721Received(from, to, tokenId, data) */\n      jump\t// in\n    tag_172:\n        /* \"@openzeppelin/contracts/token/ERC721/ERC721.sol\":4985:5193  function safeTransferFrom(address from, address to, uint256 tokenId, bytes memory data) public virtual {... */\n      pop\n      pop\n      pop\n      pop\n      jump\t// out\n        /* \"@openzeppelin/contracts/token/ERC721/ERC721.sol\":2677:2932  function tokenURI(uint256 tokenId) public view virtual returns (string memory) {... */\n    tag_91:\n        /* \"@openzeppelin/contracts/token/ERC721/ERC721.sol\":2741:2754  string memory */\n      0x60\n        /* \"@openzeppelin/contracts/token/ERC721/ERC721.sol\":2766:2788  _requireOwned(tokenId) */\n      tag_175\n        /* \"@openzeppelin/contracts/token/ERC721/ERC721.sol\":2780:2787  tokenId */\n      dup3\n        /* \"@openzeppelin/contracts/token/ERC721/ERC721.sol\":2766:2779  _requireOwned */\n      tag_111\n        /* \"@openzeppelin/contracts/token/ERC721/ERC721.sol\":2766:2788  _requireOwned(tokenId) */\n      jump\t// in\n    tag_175:\n      pop\n        /* \"@openzeppelin/contracts/token/ERC721/ERC721.sol\":2799:2820  string memory baseURI */\n      0x00\n        /* \"@openzeppelin/contracts/token/ERC721/ERC721.sol\":2823:2833  _baseURI() */\n      tag_176\n        /* \"@openzeppelin/contracts/token/ERC721/ERC721.sol\":2823:2831  _baseURI */\n      tag_177\n        /* \"@openzeppelin/contracts/token/ERC721/ERC721.sol\":2823:2833  _baseURI() */\n      jump\t// in\n    tag_176:\n        /* \"@openzeppelin/contracts/token/ERC721/ERC721.sol\":2799:2833  string memory baseURI = _baseURI() */\n      swap1\n      pop\n        /* \"@openzeppelin/contracts/token/ERC721/ERC721.sol\":2874:2875  0 */\n      0x00\n        /* \"@openzeppelin/contracts/token/ERC721/ERC721.sol\":2856:2863  baseURI */\n      dup2\n        /* \"@openzeppelin/contracts/token/ERC721/ERC721.sol\":2850:2871  bytes(baseURI).length */\n      mload\n        /* \"@openzeppelin/contracts/token/ERC721/ERC721.sol\":2850:2875  bytes(baseURI).length > 0 */\n      gt\n        /* \"@openzeppelin/contracts/token/ERC721/ERC721.sol\":2850:2925  bytes(baseURI).length > 0 ? string.concat(baseURI, tokenId.toString()) : \"\" */\n      tag_178\n      jumpi\n      mload(0x40)\n      dup1\n      0x20\n      add\n      0x40\n      mstore\n      dup1\n      0x00\n      dup2\n      mstore\n      pop\n      jump(tag_179)\n    tag_178:\n        /* \"@openzeppelin/contracts/token/ERC721/ERC721.sol\":2892:2899  baseURI */\n      dup1\n        /* \"@openzeppelin/contracts/token/ERC721/ERC721.sol\":2901:2919  tokenId.toString() */\n      tag_180\n        /* \"@openzeppelin/contracts/token/ERC721/ERC721.sol\":2901:2908  tokenId */\n      dup5\n        /* \"@openzeppelin/contracts/token/ERC721/ERC721.sol\":2901:2917  tokenId.toString */\n      tag_181\n        /* \"@openzeppelin/contracts/token/ERC721/ERC721.sol\":2901:2919  tokenId.toString() */\n      jump\t// in\n    tag_180:\n        /* \"@openzeppelin/contracts/token/ERC721/ERC721.sol\":2878:2920  string.concat(baseURI, tokenId.toString()) */\n      add(0x20, mload(0x40))\n      tag_182\n      swap3\n      swap2\n      swap1\n      tag_183\n      jump\t// in\n    tag_182:\n      mload(0x40)\n      0x20\n      dup2\n      dup4\n      sub\n      sub\n      dup2\n      mstore\n      swap1\n      0x40\n      mstore\n        /* \"@openzeppelin/contracts/token/ERC721/ERC721.sol\":2850:2925  bytes(baseURI).length > 0 ? string.concat(baseURI, tokenId.toString()) : \"\" */\n    tag_179:\n        /* \"@openzeppelin/contracts/token/ERC721/ERC721.sol\":2843:2925  return bytes(baseURI).length > 0 ? string.concat(baseURI, tokenId.toString()) : \"\" */\n      swap2\n      pop\n      pop\n        /* \"@openzeppelin/contracts/token/ERC721/ERC721.sol\":2677:2932  function tokenURI(uint256 tokenId) public view virtual returns (string memory) {... */\n      swap2\n      swap1\n      pop\n      jump\t// out\n        /* \"@openzeppelin/contracts/token/ERC721/ERC721.sol\":3928:4081  function isApprovedForAll(address owner, address operator) public view virtual returns (bool) {... */\n    tag_96:\n        /* \"@openzeppelin/contracts/token/ERC721/ERC721.sol\":4016:4020  bool */\n      0x00\n        /* \"@openzeppelin/contracts/token/ERC721/ERC721.sol\":4039:4057  _operatorApprovals */\n      0x05\n        /* \"@openzeppelin/contracts/token/ERC721/ERC721.sol\":4039:4064  _operatorApprovals[owner] */\n      0x00\n        /* \"@openzeppelin/contracts/token/ERC721/ERC721.sol\":4058:4063  owner */\n      dup5\n        /* \"@openzeppelin/contracts/token/ERC721/ERC721.sol\":4039:4064  _operatorApprovals[owner] */\n      0xffffffffffffffffffffffffffffffffffffffff\n      and\n      0xffffffffffffffffffffffffffffffffffffffff\n      and\n      dup2\n      mstore\n      0x20\n      add\n      swap1\n      dup2\n      mstore\n      0x20\n      add\n      0x00\n      keccak256\n        /* \"@openzeppelin/contracts/token/ERC721/ERC721.sol\":4039:4074  _operatorApprovals[owner][operator] */\n      0x00\n        /* \"@openzeppelin/contracts/token/ERC721/ERC721.sol\":4065:4073  operator */\n      dup4\n        /* \"@openzeppelin/contracts/token/ERC721/ERC721.sol\":4039:4074  _operatorApprovals[owner][operator] */\n      0xffffffffffffffffffffffffffffffffffffffff\n      and\n      0xffffffffffffffffffffffffffffffffffffffff\n      and\n      dup2\n      mstore\n      0x20\n      add\n      swap1\n      dup2\n      mstore\n      0x20\n      add\n      0x00\n      keccak256\n      0x00\n      swap1\n      sload\n      swap1\n      0x0100\n      exp\n      swap1\n      div\n      0xff\n      and\n        /* \"@openzeppelin/contracts/token/ERC721/ERC721.sol\":4032:4074  return _operatorApprovals[owner][operator] */\n      swap1\n      pop\n        /* \"@openzeppelin/contracts/token/ERC721/ERC721.sol\":3928:4081  function isApprovedForAll(address owner, address operator) public view virtual returns (bool) {... */\n      swap3\n      swap2\n      pop\n      pop\n      jump\t// out\n        /* \"@openzeppelin/contracts/token/ERC721/ERC721.sol\":1561:1861  function supportsInterface(bytes4 interfaceId) public view virtual override(ERC165, IERC165) returns (bool) {... */\n    tag_101:\n        /* \"@openzeppelin/contracts/token/ERC721/ERC721.sol\":1663:1667  bool */\n      0x00\n        /* \"@openzeppelin/contracts/token/ERC721/ERC721.sol\":1713:1738  type(IERC721).interfaceId */\n      0x80ac58cd00000000000000000000000000000000000000000000000000000000\n        /* \"@openzeppelin/contracts/token/ERC721/ERC721.sol\":1698:1738  interfaceId == type(IERC721).interfaceId */\n      not(0xffffffffffffffffffffffffffffffffffffffffffffffffffffffff)\n      and\n        /* \"@openzeppelin/contracts/token/ERC721/ERC721.sol\":1698:1709  interfaceId */\n      dup3\n        /* \"@openzeppelin/contracts/token/ERC721/ERC721.sol\":1698:1738  interfaceId == type(IERC721).interfaceId */\n      not(0xffffffffffffffffffffffffffffffffffffffffffffffffffffffff)\n      and\n      eq\n        /* \"@openzeppelin/contracts/token/ERC721/ERC721.sol\":1698:1802  interfaceId == type(IERC721).interfaceId ||... */\n      dup1\n      tag_186\n      jumpi\n      pop\n        /* \"@openzeppelin/contracts/token/ERC721/ERC721.sol\":1769:1802  type(IERC721Metadata).interfaceId */\n      0x5b5e139f00000000000000000000000000000000000000000000000000000000\n        /* \"@openzeppelin/contracts/token/ERC721/ERC721.sol\":1754:1802  interfaceId == type(IERC721Metadata).interfaceId */\n      not(0xffffffffffffffffffffffffffffffffffffffffffffffffffffffff)\n      and\n        /* \"@openzeppelin/contracts/token/ERC721/ERC721.sol\":1754:1765  interfaceId */\n      dup3\n        /* \"@openzeppelin/contracts/token/ERC721/ERC721.sol\":1754:1802  interfaceId == type(IERC721Metadata).interfaceId */\n      not(0xffffffffffffffffffffffffffffffffffffffffffffffffffffffff)\n      and\n      eq\n        /* \"@openzeppelin/contracts/token/ERC721/ERC721.sol\":1698:1802  interfaceId == type(IERC721).interfaceId ||... */\n    tag_186:\n        /* \"@openzeppelin/contracts/token/ERC721/ERC721.sol\":1698:1854  interfaceId == type(IERC721).interfaceId ||... */\n      dup1\n      tag_187\n      jumpi\n      pop\n        /* \"@openzeppelin/contracts/token/ERC721/ERC721.sol\":1818:1854  super.supportsInterface(interfaceId) */\n      tag_188\n        /* \"@openzeppelin/contracts/token/ERC721/ERC721.sol\":1842:1853  interfaceId */\n      dup3\n        /* \"@openzeppelin/contracts/token/ERC721/ERC721.sol\":1818:1841  super.supportsInterface */\n      tag_189\n        /* \"@openzeppelin/contracts/token/ERC721/ERC721.sol\":1818:1854  super.supportsInterface(interfaceId) */\n      jump\t// in\n    tag_188:\n        /* \"@openzeppelin/contracts/token/ERC721/ERC721.sol\":1698:1854  interfaceId == type(IERC721).interfaceId ||... */\n    tag_187:\n        /* \"@openzeppelin/contracts/token/ERC721/ERC721.sol\":1679:1854  return... */\n      swap1\n      pop\n        /* \"@openzeppelin/contracts/token/ERC721/ERC721.sol\":1561:1861  function supportsInterface(bytes4 interfaceId) public view virtual override(ERC165, IERC165) returns (bool) {... */\n      swap2\n      swap1\n      pop\n      jump\t// out\n        /* \"@openzeppelin/contracts/token/ERC721/ERC721.sol\":16138:16379  function _requireOwned(uint256 tokenId) internal view returns (address) {... */\n    tag_111:\n        /* \"@openzeppelin/contracts/token/ERC721/ERC721.sol\":16201:16208  address */\n      0x00\n        /* \"@openzeppelin/contracts/token/ERC721/ERC721.sol\":16220:16233  address owner */\n      dup1\n        /* \"@openzeppelin/contracts/token/ERC721/ERC721.sol\":16236:16253  _ownerOf(tokenId) */\n      tag_191\n        /* \"@openzeppelin/contracts/token/ERC721/ERC721.sol\":16245:16252  tokenId */\n      dup4\n        /* \"@openzeppelin/contracts/token/ERC721/ERC721.sol\":16236:16244  _ownerOf */\n      tag_192\n        /* \"@openzeppelin/contracts/token/ERC721/ERC721.sol\":16236:16253  _ownerOf(tokenId) */\n      jump\t// in\n    tag_191:\n        /* \"@openzeppelin/contracts/token/ERC721/ERC721.sol\":16220:16253  address owner = _ownerOf(tokenId) */\n      swap1\n      pop\n        /* \"@openzeppelin/contracts/token/ERC721/ERC721.sol\":16284:16285  0 */\n      0x00\n        /* \"@openzeppelin/contracts/token/ERC721/ERC721.sol\":16267:16286  owner == address(0) */\n      0xffffffffffffffffffffffffffffffffffffffff\n      and\n        /* \"@openzeppelin/contracts/token/ERC721/ERC721.sol\":16267:16272  owner */\n      dup2\n        /* \"@openzeppelin/contracts/token/ERC721/ERC721.sol\":16267:16286  owner == address(0) */\n      0xffffffffffffffffffffffffffffffffffffffff\n      and\n      sub\n        /* \"@openzeppelin/contracts/token/ERC721/ERC721.sol\":16263:16351  if (owner == address(0)) {... */\n      tag_193\n      jumpi\n        /* \"@openzeppelin/contracts/token/ERC721/ERC721.sol\":16332:16339  tokenId */\n      dup3\n        /* \"@openzeppelin/contracts/token/ERC721/ERC721.sol\":16309:16340  ERC721NonexistentToken(tokenId) */\n      mload(0x40)\n      0x7e27328900000000000000000000000000000000000000000000000000000000\n      dup2\n      mstore\n      0x04\n      add\n      tag_194\n      swap2\n      swap1\n      tag_47\n      jump\t// in\n    tag_194:\n      mload(0x40)\n      dup1\n      swap2\n      sub\n      swap1\n      revert\n        /* \"@openzeppelin/contracts/token/ERC721/ERC721.sol\":16263:16351  if (owner == address(0)) {... */\n    tag_193:\n        /* \"@openzeppelin/contracts/token/ERC721/ERC721.sol\":16367:16372  owner */\n      dup1\n        /* \"@openzeppelin/contracts/token/ERC721/ERC721.sol\":16360:16372  return owner */\n      swap2\n      pop\n      pop\n        /* \"@openzeppelin/contracts/token/ERC721/ERC721.sol\":16138:16379  function _requireOwned(uint256 tokenId) internal view returns (address) {... */\n      swap2\n      swap1\n      pop\n      jump\t// out\n        /* \"@openzeppelin/contracts/token/ERC721/ERC721.sol\":5938:6065  function _getApproved(uint256 tokenId) internal view virtual returns (address) {... */\n    tag_113:\n        /* \"@openzeppelin/contracts/token/ERC721/ERC721.sol\":6008:6015  address */\n      0x00\n        /* \"@openzeppelin/contracts/token/ERC721/ERC721.sol\":6034:6049  _tokenApprovals */\n      0x04\n        /* \"@openzeppelin/contracts/token/ERC721/ERC721.sol\":6034:6058  _tokenApprovals[tokenId] */\n      0x00\n        /* \"@openzeppelin/contracts/token/ERC721/ERC721.sol\":6050:6057  tokenId */\n      dup4\n        /* \"@openzeppelin/contracts/token/ERC721/ERC721.sol\":6034:6058  _tokenApprovals[tokenId] */\n      dup2\n      mstore\n      0x20\n      add\n      swap1\n      dup2\n      mstore\n      0x20\n      add\n      0x00\n      keccak256\n      0x00\n      swap1\n      sload\n      swap1\n      0x0100\n      exp\n      swap1\n      div\n      0xffffffffffffffffffffffffffffffffffffffff\n      and\n        /* \"@openzeppelin/contracts/token/ERC721/ERC721.sol\":6027:6058  return _tokenApprovals[tokenId] */\n      swap1\n      pop\n        /* \"@openzeppelin/contracts/token/ERC721/ERC721.sol\":5938:6065  function _getApproved(uint256 tokenId) internal view virtual returns (address) {... */\n      swap2\n      swap1\n      pop\n      jump\t// out\n        /* \"@openzeppelin/contracts/utils/Context.sol\":656:752  function _msgSender() internal view virtual returns (address) {... */\n    tag_117:\n        /* \"@openzeppelin/contracts/utils/Context.sol\":709:716  address */\n      0x00\n        /* \"@openzeppelin/contracts/utils/Context.sol\":735:745  msg.sender */\n      caller\n        /* \"@openzeppelin/contracts/utils/Context.sol\":728:745  return msg.sender */\n      swap1\n      pop\n        /* \"@openzeppelin/contracts/utils/Context.sol\":656:752  function _msgSender() internal view virtual returns (address) {... */\n      swap1\n      jump\t// out\n        /* \"@openzeppelin/contracts/token/ERC721/ERC721.sol\":14418:14538  function _approve(address to, uint256 tokenId, address auth) internal {... */\n    tag_118:\n        /* \"@openzeppelin/contracts/token/ERC721/ERC721.sol\":14498:14531  _approve(to, tokenId, auth, true) */\n      tag_198\n        /* \"@openzeppelin/contracts/token/ERC721/ERC721.sol\":14507:14509  to */\n      dup4\n        /* \"@openzeppelin/contracts/token/ERC721/ERC721.sol\":14511:14518  tokenId */\n      dup4\n        /* \"@openzeppelin/contracts/token/ERC721/ERC721.sol\":14520:14524  auth */\n      dup4\n        /* \"@openzeppelin/contracts/token/ERC721/ERC721.sol\":14526:14530  true */\n      0x01\n        /* \"@openzeppelin/contracts/token/ERC721/ERC721.sol\":14498:14506  _approve */\n      tag_199\n        /* \"@openzeppelin/contracts/token/ERC721/ERC721.sol\":14498:14531  _approve(to, tokenId, auth, true) */\n      jump\t// in\n    tag_198:\n        /* \"@openzeppelin/contracts/token/ERC721/ERC721.sol\":14418:14538  function _approve(address to, uint256 tokenId, address auth) internal {... */\n      pop\n      pop\n      pop\n      jump\t// out\n        /* \"@openzeppelin/contracts/token/ERC721/extensions/ERC721Enumerable.sol\":2518:3143  function _update(address to, uint256 tokenId, address auth) internal virtual override returns (address) {... */\n    tag_125:\n        /* \"@openzeppelin/contracts/token/ERC721/extensions/ERC721Enumerable.sol\":2613:2620  address */\n      0x00\n        /* \"@openzeppelin/contracts/token/ERC721/extensions/ERC721Enumerable.sol\":2632:2653  address previousOwner */\n      dup1\n        /* \"@openzeppelin/contracts/token/ERC721/extensions/ERC721Enumerable.sol\":2656:2688  super._update(to, tokenId, auth) */\n      tag_201\n        /* \"@openzeppelin/contracts/token/ERC721/extensions/ERC721Enumerable.sol\":2670:2672  to */\n      dup6\n        /* \"@openzeppelin/contracts/token/ERC721/extensions/ERC721Enumerable.sol\":2674:2681  tokenId */\n      dup6\n        /* \"@openzeppelin/contracts/token/ERC721/extensions/ERC721Enumerable.sol\":2683:2687  auth */\n      dup6\n        /* \"@openzeppelin/contracts/token/ERC721/extensions/ERC721Enumerable.sol\":2656:2669  super._update */\n      tag_202\n        /* \"@openzeppelin/contracts/token/ERC721/extensions/ERC721Enumerable.sol\":2656:2688  super._update(to, tokenId, auth) */\n      jump\t// in\n    tag_201:\n        /* \"@openzeppelin/contracts/token/ERC721/extensions/ERC721Enumerable.sol\":2632:2688  address previousOwner = super._update(to, tokenId, auth) */\n      swap1\n      pop\n        /* \"@openzeppelin/contracts/token/ERC721/extensions/ERC721Enumerable.sol\":2728:2729  0 */\n      0x00\n        /* \"@openzeppelin/contracts/token/ERC721/extensions/ERC721Enumerable.sol\":2703:2730  previousOwner == address(0) */\n      0xffffffffffffffffffffffffffffffffffffffff\n      and\n        /* \"@openzeppelin/contracts/token/ERC721/extensions/ERC721Enumerable.sol\":2703:2716  previousOwner */\n      dup2\n        /* \"@openzeppelin/contracts/token/ERC721/extensions/ERC721Enumerable.sol\":2703:2730  previousOwner == address(0) */\n      0xffffffffffffffffffffffffffffffffffffffff\n      and\n      sub\n        /* \"@openzeppelin/contracts/token/ERC721/extensions/ERC721Enumerable.sol\":2699:2909  if (previousOwner == address(0)) {... */\n      tag_203\n      jumpi\n        /* \"@openzeppelin/contracts/token/ERC721/extensions/ERC721Enumerable.sol\":2746:2786  _addTokenToAllTokensEnumeration(tokenId) */\n      tag_204\n        /* \"@openzeppelin/contracts/token/ERC721/extensions/ERC721Enumerable.sol\":2778:2785  tokenId */\n      dup5\n        /* \"@openzeppelin/contracts/token/ERC721/extensions/ERC721Enumerable.sol\":2746:2777  _addTokenToAllTokensEnumeration */\n      tag_205\n        /* \"@openzeppelin/contracts/token/ERC721/extensions/ERC721Enumerable.sol\":2746:2786  _addTokenToAllTokensEnumeration(tokenId) */\n      jump\t// in\n    tag_204:\n        /* \"@openzeppelin/contracts/token/ERC721/extensions/ERC721Enumerable.sol\":2699:2909  if (previousOwner == address(0)) {... */\n      jump(tag_206)\n    tag_203:\n        /* \"@openzeppelin/contracts/token/ERC721/extensions/ERC721Enumerable.sol\":2824:2826  to */\n      dup5\n        /* \"@openzeppelin/contracts/token/ERC721/extensions/ERC721Enumerable.sol\":2807:2826  previousOwner != to */\n      0xffffffffffffffffffffffffffffffffffffffff\n      and\n        /* \"@openzeppelin/contracts/token/ERC721/extensions/ERC721Enumerable.sol\":2807:2820  previousOwner */\n      dup2\n        /* \"@openzeppelin/contracts/token/ERC721/extensions/ERC721Enumerable.sol\":2807:2826  previousOwner != to */\n      0xffffffffffffffffffffffffffffffffffffffff\n      and\n      eq\n        /* \"@openzeppelin/contracts/token/ERC721/extensions/ERC721Enumerable.sol\":2803:2909  if (previousOwner != to) {... */\n      tag_207\n      jumpi\n        /* \"@openzeppelin/contracts/token/ERC721/extensions/ERC721Enumerable.sol\":2842:2898  _removeTokenFromOwnerEnumeration(previousOwner, tokenId) */\n      tag_208\n        /* \"@openzeppelin/contracts/token/ERC721/extensions/ERC721Enumerable.sol\":2875:2888  previousOwner */\n      dup2\n        /* \"@openzeppelin/contracts/token/ERC721/extensions/ERC721Enumerable.sol\":2890:2897  tokenId */\n      dup6\n        /* \"@openzeppelin/contracts/token/ERC721/extensions/ERC721Enumerable.sol\":2842:2874  _removeTokenFromOwnerEnumeration */\n      tag_209\n        /* \"@openzeppelin/contracts/token/ERC721/extensions/ERC721Enumerable.sol\":2842:2898  _removeTokenFromOwnerEnumeration(previousOwner, tokenId) */\n      jump\t// in\n    tag_208:\n        /* \"@openzeppelin/contracts/token/ERC721/extensions/ERC721Enumerable.sol\":2803:2909  if (previousOwner != to) {... */\n    tag_207:\n        /* \"@openzeppelin/contracts/token/ERC721/extensions/ERC721Enumerable.sol\":2699:2909  if (previousOwner == address(0)) {... */\n    tag_206:\n        /* \"@openzeppelin/contracts/token/ERC721/extensions/ERC721Enumerable.sol\":2936:2937  0 */\n      0x00\n        /* \"@openzeppelin/contracts/token/ERC721/extensions/ERC721Enumerable.sol\":2922:2938  to == address(0) */\n      0xffffffffffffffffffffffffffffffffffffffff\n      and\n        /* \"@openzeppelin/contracts/token/ERC721/extensions/ERC721Enumerable.sol\":2922:2924  to */\n      dup6\n        /* \"@openzeppelin/contracts/token/ERC721/extensions/ERC721Enumerable.sol\":2922:2938  to == address(0) */\n      0xffffffffffffffffffffffffffffffffffffffff\n      and\n      sub\n        /* \"@openzeppelin/contracts/token/ERC721/extensions/ERC721Enumerable.sol\":2918:3106  if (to == address(0)) {... */\n      tag_210\n      jumpi\n        /* \"@openzeppelin/contracts/token/ERC721/extensions/ERC721Enumerable.sol\":2954:2999  _removeTokenFromAllTokensEnumeration(tokenId) */\n      tag_211\n        /* \"@openzeppelin/contracts/token/ERC721/extensions/ERC721Enumerable.sol\":2991:2998  tokenId */\n      dup5\n        /* \"@openzeppelin/contracts/token/ERC721/extensions/ERC721Enumerable.sol\":2954:2990  _removeTokenFromAllTokensEnumeration */\n      tag_212\n        /* \"@openzeppelin/contracts/token/ERC721/extensions/ERC721Enumerable.sol\":2954:2999  _removeTokenFromAllTokensEnumeration(tokenId) */\n      jump\t// in\n    tag_211:\n        /* \"@openzeppelin/contracts/token/ERC721/extensions/ERC721Enumerable.sol\":2918:3106  if (to == address(0)) {... */\n      jump(tag_213)\n    tag_210:\n        /* \"@openzeppelin/contracts/token/ERC721/extensions/ERC721Enumerable.sol\":3037:3039  to */\n      dup5\n        /* \"@openzeppelin/contracts/token/ERC721/extensions/ERC721Enumerable.sol\":3020:3039  previousOwner != to */\n      0xffffffffffffffffffffffffffffffffffffffff\n      and\n        /* \"@openzeppelin/contracts/token/ERC721/extensions/ERC721Enumerable.sol\":3020:3033  previousOwner */\n      dup2\n        /* \"@openzeppelin/contracts/token/ERC721/extensions/ERC721Enumerable.sol\":3020:3039  previousOwner != to */\n      0xffffffffffffffffffffffffffffffffffffffff\n      and\n      eq\n        /* \"@openzeppelin/contracts/token/ERC721/extensions/ERC721Enumerable.sol\":3016:3106  if (previousOwner != to) {... */\n      tag_214\n      jumpi\n        /* \"@openzeppelin/contracts/token/ERC721/extensions/ERC721Enumerable.sol\":3055:3095  _addTokenToOwnerEnumeration(to, tokenId) */\n      tag_215\n        /* \"@openzeppelin/contracts/token/ERC721/extensions/ERC721Enumerable.sol\":3083:3085  to */\n      dup6\n        /* \"@openzeppelin/contracts/token/ERC721/extensions/ERC721Enumerable.sol\":3087:3094  tokenId */\n      dup6\n        /* \"@openzeppelin/contracts/token/ERC721/extensions/ERC721Enumerable.sol\":3055:3082  _addTokenToOwnerEnumeration */\n      tag_216\n        /* \"@openzeppelin/contracts/token/ERC721/extensions/ERC721Enumerable.sol\":3055:3095  _addTokenToOwnerEnumeration(to, tokenId) */\n      jump\t// in\n    tag_215:\n        /* \"@openzeppelin/contracts/token/ERC721/extensions/ERC721Enumerable.sol\":3016:3106  if (previousOwner != to) {... */\n    tag_214:\n        /* \"@openzeppelin/contracts/token/ERC721/extensions/ERC721Enumerable.sol\":2918:3106  if (to == address(0)) {... */\n    tag_213:\n        /* \"@openzeppelin/contracts/token/ERC721/extensions/ERC721Enumerable.sol\":3123:3136  previousOwner */\n      dup1\n        /* \"@openzeppelin/contracts/token/ERC721/extensions/ERC721Enumerable.sol\":3116:3136  return previousOwner */\n      swap2\n      pop\n      pop\n        /* \"@openzeppelin/contracts/token/ERC721/extensions/ERC721Enumerable.sol\":2518:3143  function _update(address to, uint256 tokenId, address auth) internal virtual override returns (address) {... */\n      swap4\n      swap3\n      pop\n      pop\n      pop\n      jump\t// out\n        /* \"@openzeppelin/contracts/token/ERC721/ERC721.sol\":9955:10282  function _mint(address to, uint256 tokenId) internal {... */\n    tag_154:\n        /* \"@openzeppelin/contracts/token/ERC721/ERC721.sol\":10036:10037  0 */\n      0x00\n        /* \"@openzeppelin/contracts/token/ERC721/ERC721.sol\":10022:10038  to == address(0) */\n      0xffffffffffffffffffffffffffffffffffffffff\n      and\n        /* \"@openzeppelin/contracts/token/ERC721/ERC721.sol\":10022:10024  to */\n      dup3\n        /* \"@openzeppelin/contracts/token/ERC721/ERC721.sol\":10022:10038  to == address(0) */\n      0xffffffffffffffffffffffffffffffffffffffff\n      and\n      sub\n        /* \"@openzeppelin/contracts/token/ERC721/ERC721.sol\":10018:10105  if (to == address(0)) {... */\n      tag_218\n      jumpi\n        /* \"@openzeppelin/contracts/token/ERC721/ERC721.sol\":10091:10092  0 */\n      0x00\n        /* \"@openzeppelin/contracts/token/ERC721/ERC721.sol\":10061:10094  ERC721InvalidReceiver(address(0)) */\n      mload(0x40)\n      0x64a0ae9200000000000000000000000000000000000000000000000000000000\n      dup2\n      mstore\n      0x04\n      add\n      tag_219\n      swap2\n      swap1\n      tag_39\n      jump\t// in\n    tag_219:\n      mload(0x40)\n      dup1\n      swap2\n      sub\n      swap1\n      revert\n        /* \"@openzeppelin/contracts/token/ERC721/ERC721.sol\":10018:10105  if (to == address(0)) {... */\n    tag_218:\n        /* \"@openzeppelin/contracts/token/ERC721/ERC721.sol\":10114:10135  address previousOwner */\n      0x00\n        /* \"@openzeppelin/contracts/token/ERC721/ERC721.sol\":10138:10170  _update(to, tokenId, address(0)) */\n      tag_220\n        /* \"@openzeppelin/contracts/token/ERC721/ERC721.sol\":10146:10148  to */\n      dup4\n        /* \"@openzeppelin/contracts/token/ERC721/ERC721.sol\":10150:10157  tokenId */\n      dup4\n        /* \"@openzeppelin/contracts/token/ERC721/ERC721.sol\":10167:10168  0 */\n      0x00\n        /* \"@openzeppelin/contracts/token/ERC721/ERC721.sol\":10138:10145  _update */\n      tag_125\n        /* \"@openzeppelin/contracts/token/ERC721/ERC721.sol\":10138:10170  _update(to, tokenId, address(0)) */\n      jump\t// in\n    tag_220:\n        /* \"@openzeppelin/contracts/token/ERC721/ERC721.sol\":10114:10170  address previousOwner = _update(to, tokenId, address(0)) */\n      swap1\n      pop\n        /* \"@openzeppelin/contracts/token/ERC721/ERC721.sol\":10209:10210  0 */\n      0x00\n        /* \"@openzeppelin/contracts/token/ERC721/ERC721.sol\":10184:10211  previousOwner != address(0) */\n      0xffffffffffffffffffffffffffffffffffffffff\n      and\n        /* \"@openzeppelin/contracts/token/ERC721/ERC721.sol\":10184:10197  previousOwner */\n      dup2\n        /* \"@openzeppelin/contracts/token/ERC721/ERC721.sol\":10184:10211  previousOwner != address(0) */\n      0xffffffffffffffffffffffffffffffffffffffff\n      and\n      eq\n        /* \"@openzeppelin/contracts/token/ERC721/ERC721.sol\":10180:10276  if (previousOwner != address(0)) {... */\n      tag_221\n      jumpi\n        /* \"@openzeppelin/contracts/token/ERC721/ERC721.sol\":10262:10263  0 */\n      0x00\n        /* \"@openzeppelin/contracts/token/ERC721/ERC721.sol\":10234:10265  ERC721InvalidSender(address(0)) */\n      mload(0x40)\n      0x73c6ac6e00000000000000000000000000000000000000000000000000000000\n      dup2\n      mstore\n      0x04\n      add\n      tag_222\n      swap2\n      swap1\n      tag_39\n      jump\t// in\n    tag_222:\n      mload(0x40)\n      dup1\n      swap2\n      sub\n      swap1\n      revert\n        /* \"@openzeppelin/contracts/token/ERC721/ERC721.sol\":10180:10276  if (previousOwner != address(0)) {... */\n    tag_221:\n        /* \"@openzeppelin/contracts/token/ERC721/ERC721.sol\":10008:10282  {... */\n      pop\n        /* \"@openzeppelin/contracts/token/ERC721/ERC721.sol\":9955:10282  function _mint(address to, uint256 tokenId) internal {... */\n      pop\n      pop\n      jump\t// out\n        /* \"@openzeppelin/contracts/token/ERC721/ERC721.sol\":15591:15903  function _setApprovalForAll(address owner, address operator, bool approved) internal virtual {... */\n    tag_169:\n        /* \"@openzeppelin/contracts/token/ERC721/ERC721.sol\":15718:15719  0 */\n      0x00\n        /* \"@openzeppelin/contracts/token/ERC721/ERC721.sol\":15698:15720  operator == address(0) */\n      0xffffffffffffffffffffffffffffffffffffffff\n      and\n        /* \"@openzeppelin/contracts/token/ERC721/ERC721.sol\":15698:15706  operator */\n      dup3\n        /* \"@openzeppelin/contracts/token/ERC721/ERC721.sol\":15698:15720  operator == address(0) */\n      0xffffffffffffffffffffffffffffffffffffffff\n      and\n      sub\n        /* \"@openzeppelin/contracts/token/ERC721/ERC721.sol\":15694:15785  if (operator == address(0)) {... */\n      tag_224\n      jumpi\n        /* \"@openzeppelin/contracts/token/ERC721/ERC721.sol\":15765:15773  operator */\n      dup2\n        /* \"@openzeppelin/contracts/token/ERC721/ERC721.sol\":15743:15774  ERC721InvalidOperator(operator) */\n      mload(0x40)\n      0x5b08ba1800000000000000000000000000000000000000000000000000000000\n      dup2\n      mstore\n      0x04\n      add\n      tag_225\n      swap2\n      swap1\n      tag_39\n      jump\t// in\n    tag_225:\n      mload(0x40)\n      dup1\n      swap2\n      sub\n      swap1\n      revert\n        /* \"@openzeppelin/contracts/token/ERC721/ERC721.sol\":15694:15785  if (operator == address(0)) {... */\n    tag_224:\n        /* \"@openzeppelin/contracts/token/ERC721/ERC721.sol\":15832:15840  approved */\n      dup1\n        /* \"@openzeppelin/contracts/token/ERC721/ERC721.sol\":15794:15812  _operatorApprovals */\n      0x05\n        /* \"@openzeppelin/contracts/token/ERC721/ERC721.sol\":15794:15819  _operatorApprovals[owner] */\n      0x00\n        /* \"@openzeppelin/contracts/token/ERC721/ERC721.sol\":15813:15818  owner */\n      dup6\n        /* \"@openzeppelin/contracts/token/ERC721/ERC721.sol\":15794:15819  _operatorApprovals[owner] */\n      0xffffffffffffffffffffffffffffffffffffffff\n      and\n      0xffffffffffffffffffffffffffffffffffffffff\n      and\n      dup2\n      mstore\n      0x20\n      add\n      swap1\n      dup2\n      mstore\n      0x20\n      add\n      0x00\n      keccak256\n        /* \"@openzeppelin/contracts/token/ERC721/ERC721.sol\":15794:15829  _operatorApprovals[owner][operator] */\n      0x00\n        /* \"@openzeppelin/contracts/token/ERC721/ERC721.sol\":15820:15828  operator */\n      dup5\n        /* \"@openzeppelin/contracts/token/ERC721/ERC721.sol\":15794:15829  _operatorApprovals[owner][operator] */\n      0xffffffffffffffffffffffffffffffffffffffff\n      and\n      0xffffffffffffffffffffffffffffffffffffffff\n      and\n      dup2\n      mstore\n      0x20\n      add\n      swap1\n      dup2\n      mstore\n      0x20\n      add\n      0x00\n      keccak256\n      0x00\n        /* \"@openzeppelin/contracts/token/ERC721/ERC721.sol\":15794:15840  _operatorApprovals[owner][operator] = approved */\n      0x0100\n      exp\n      dup2\n      sload\n      dup2\n      0xff\n      mul\n      not\n      and\n      swap1\n      dup4\n      iszero\n      iszero\n      mul\n      or\n      swap1\n      sstore\n      pop\n        /* \"@openzeppelin/contracts/token/ERC721/ERC721.sol\":15877:15885  operator */\n      dup2\n        /* \"@openzeppelin/contracts/token/ERC721/ERC721.sol\":15855:15896  ApprovalForAll(owner, operator, approved) */\n      0xffffffffffffffffffffffffffffffffffffffff\n      and\n        /* \"@openzeppelin/contracts/token/ERC721/ERC721.sol\":15870:15875  owner */\n      dup4\n        /* \"@openzeppelin/contracts/token/ERC721/ERC721.sol\":15855:15896  ApprovalForAll(owner, operator, approved) */\n      0xffffffffffffffffffffffffffffffffffffffff\n      and\n      0x17307eab39ab6107e8899845ad3d59bd9653f200f220920489ca2b5937696c31\n        /* \"@openzeppelin/contracts/token/ERC721/ERC721.sol\":15887:15895  approved */\n      dup4\n        /* \"@openzeppelin/contracts/token/ERC721/ERC721.sol\":15855:15896  ApprovalForAll(owner, operator, approved) */\n      mload(0x40)\n      tag_226\n      swap2\n      swap1\n      tag_29\n      jump\t// in\n    tag_226:\n      mload(0x40)\n      dup1\n      swap2\n      sub\n      swap1\n      log3\n        /* \"@openzeppelin/contracts/token/ERC721/ERC721.sol\":15591:15903  function _setApprovalForAll(address owner, address operator, bool approved) internal virtual {... */\n      pop\n      pop\n      pop\n      jump\t// out\n        /* \"@openzeppelin/contracts/token/ERC721/ERC721.sol\":16918:17700  function _checkOnERC721Received(address from, address to, uint256 tokenId, bytes memory data) private {... */\n    tag_173:\n        /* \"@openzeppelin/contracts/token/ERC721/ERC721.sol\":17051:17052  0 */\n      0x00\n        /* \"@openzeppelin/contracts/token/ERC721/ERC721.sol\":17034:17036  to */\n      dup4\n        /* \"@openzeppelin/contracts/token/ERC721/ERC721.sol\":17034:17048  to.code.length */\n      0xffffffffffffffffffffffffffffffffffffffff\n      and\n      extcodesize\n        /* \"@openzeppelin/contracts/token/ERC721/ERC721.sol\":17034:17052  to.code.length > 0 */\n      gt\n        /* \"@openzeppelin/contracts/token/ERC721/ERC721.sol\":17030:17694  if (to.code.length > 0) {... */\n      iszero\n      tag_228\n      jumpi\n        /* \"@openzeppelin/contracts/token/ERC721/ERC721.sol\":17088:17090  to */\n      dup3\n        /* \"@openzeppelin/contracts/token/ERC721/ERC721.sol\":17072:17108  IERC721Receiver(to).onERC721Received */\n      0xffffffffffffffffffffffffffffffffffffffff\n      and\n      0x150b7a02\n        /* \"@openzeppelin/contracts/token/ERC721/ERC721.sol\":17109:17121  _msgSender() */\n      tag_229\n        /* \"@openzeppelin/contracts/token/ERC721/ERC721.sol\":17109:17119  _msgSender */\n      tag_117\n        /* \"@openzeppelin/contracts/token/ERC721/ERC721.sol\":17109:17121  _msgSender() */\n      jump\t// in\n    tag_229:\n        /* \"@openzeppelin/contracts/token/ERC721/ERC721.sol\":17123:17127  from */\n      dup7\n        /* \"@openzeppelin/contracts/token/ERC721/ERC721.sol\":17129:17136  tokenId */\n      dup6\n        /* \"@openzeppelin/contracts/token/ERC721/ERC721.sol\":17138:17142  data */\n      dup6\n        /* \"@openzeppelin/contracts/token/ERC721/ERC721.sol\":17072:17143  IERC721Receiver(to).onERC721Received(_msgSender(), from, tokenId, data) */\n      mload(0x40)\n      dup6\n      0xffffffff\n      and\n      0xe0\n      shl\n      dup2\n      mstore\n      0x04\n      add\n      tag_230\n      swap5\n      swap4\n      swap3\n      swap2\n      swap1\n      tag_231\n      jump\t// in\n    tag_230:\n      0x20\n      mload(0x40)\n      dup1\n      dup4\n      sub\n      dup2\n      0x00\n      dup8\n      gas\n      call\n      swap3\n      pop\n      pop\n      pop\n      dup1\n      iszero\n      tag_232\n      jumpi\n      pop\n      mload(0x40)\n      returndatasize\n      not(0x1f)\n      0x1f\n      dup3\n      add\n      and\n      dup3\n      add\n      dup1\n      0x40\n      mstore\n      pop\n      dup2\n      add\n      swap1\n      tag_233\n      swap2\n      swap1\n      tag_234\n      jump\t// in\n    tag_233:\n      0x01\n    tag_232:\n        /* \"@openzeppelin/contracts/token/ERC721/ERC721.sol\":17068:17684  try IERC721Receiver(to).onERC721Received(_msgSender(), from, tokenId, data) returns (bytes4 retval) {... */\n      tag_235\n      jumpi\n      returndatasize\n      dup1\n      0x00\n      dup2\n      eq\n      tag_240\n      jumpi\n      mload(0x40)\n      swap2\n      pop\n      and(add(returndatasize, 0x3f), not(0x1f))\n      dup3\n      add\n      0x40\n      mstore\n      returndatasize\n      dup3\n      mstore\n      returndatasize\n      0x00\n      0x20\n      dup5\n      add\n      returndatacopy\n      jump(tag_239)\n    tag_240:\n      0x60\n      swap2\n      pop\n    tag_239:\n      pop\n        /* \"@openzeppelin/contracts/token/ERC721/ERC721.sol\":17398:17399  0 */\n      0x00\n        /* \"@openzeppelin/contracts/token/ERC721/ERC721.sol\":17381:17387  reason */\n      dup2\n        /* \"@openzeppelin/contracts/token/ERC721/ERC721.sol\":17381:17394  reason.length */\n      mload\n        /* \"@openzeppelin/contracts/token/ERC721/ERC721.sol\":17381:17399  reason.length == 0 */\n      sub\n        /* \"@openzeppelin/contracts/token/ERC721/ERC721.sol\":17377:17670  if (reason.length == 0) {... */\n      tag_241\n      jumpi\n        /* \"@openzeppelin/contracts/token/ERC721/ERC721.sol\":17452:17454  to */\n      dup4\n        /* \"@openzeppelin/contracts/token/ERC721/ERC721.sol\":17430:17455  ERC721InvalidReceiver(to) */\n      mload(0x40)\n      0x64a0ae9200000000000000000000000000000000000000000000000000000000\n      dup2\n      mstore\n      0x04\n      add\n      tag_242\n      swap2\n      swap1\n      tag_39\n      jump\t// in\n    tag_242:\n      mload(0x40)\n      dup1\n      swap2\n      sub\n      swap1\n      revert\n        /* \"@openzeppelin/contracts/token/ERC721/ERC721.sol\":17377:17670  if (reason.length == 0) {... */\n    tag_241:\n        /* \"@openzeppelin/contracts/token/ERC721/ERC721.sol\":17622:17628  reason */\n      dup1\n        /* \"@openzeppelin/contracts/token/ERC721/ERC721.sol\":17616:17629  mload(reason) */\n      mload\n        /* \"@openzeppelin/contracts/token/ERC721/ERC721.sol\":17607:17613  reason */\n      dup2\n        /* \"@openzeppelin/contracts/token/ERC721/ERC721.sol\":17603:17605  32 */\n      0x20\n        /* \"@openzeppelin/contracts/token/ERC721/ERC721.sol\":17599:17614  add(32, reason) */\n      add\n        /* \"@openzeppelin/contracts/token/ERC721/ERC721.sol\":17592:17630  revert(add(32, reason), mload(reason)) */\n      revert\n        /* \"@openzeppelin/contracts/token/ERC721/ERC721.sol\":17068:17684  try IERC721Receiver(to).onERC721Received(_msgSender(), from, tokenId, data) returns (bytes4 retval) {... */\n    tag_235:\n        /* \"@openzeppelin/contracts/token/ERC721/ERC721.sol\":17200:17241  IERC721Receiver.onERC721Received.selector */\n      shl(0xe0, 0x150b7a02)\n        /* \"@openzeppelin/contracts/token/ERC721/ERC721.sol\":17190:17241  retval != IERC721Receiver.onERC721Received.selector */\n      not(0xffffffffffffffffffffffffffffffffffffffffffffffffffffffff)\n      and\n        /* \"@openzeppelin/contracts/token/ERC721/ERC721.sol\":17190:17196  retval */\n      dup2\n        /* \"@openzeppelin/contracts/token/ERC721/ERC721.sol\":17190:17241  retval != IERC721Receiver.onERC721Received.selector */\n      not(0xffffffffffffffffffffffffffffffffffffffffffffffffffffffff)\n      and\n      eq\n        /* \"@openzeppelin/contracts/token/ERC721/ERC721.sol\":17186:17316  if (retval != IERC721Receiver.onERC721Received.selector) {... */\n      tag_245\n      jumpi\n        /* \"@openzeppelin/contracts/token/ERC721/ERC721.sol\":17294:17296  to */\n      dup4\n        /* \"@openzeppelin/contracts/token/ERC721/ERC721.sol\":17272:17297  ERC721InvalidReceiver(to) */\n      mload(0x40)\n      0x64a0ae9200000000000000000000000000000000000000000000000000000000\n      dup2\n      mstore\n      0x04\n      add\n      tag_246\n      swap2\n      swap1\n      tag_39\n      jump\t// in\n    tag_246:\n      mload(0x40)\n      dup1\n      swap2\n      sub\n      swap1\n      revert\n        /* \"@openzeppelin/contracts/token/ERC721/ERC721.sol\":17186:17316  if (retval != IERC721Receiver.onERC721Received.selector) {... */\n    tag_245:\n        /* \"@openzeppelin/contracts/token/ERC721/ERC721.sol\":17144:17330  returns (bytes4 retval) {... */\n      pop\n        /* \"@openzeppelin/contracts/token/ERC721/ERC721.sol\":17030:17694  if (to.code.length > 0) {... */\n    tag_228:\n        /* \"@openzeppelin/contracts/token/ERC721/ERC721.sol\":16918:17700  function _checkOnERC721Received(address from, address to, uint256 tokenId, bytes memory data) private {... */\n      pop\n      pop\n      pop\n      pop\n      jump\t// out\n        /* \"@openzeppelin/contracts/token/ERC721/ERC721.sol\":3174:3266  function _baseURI() internal view virtual returns (string memory) {... */\n    tag_177:\n        /* \"@openzeppelin/contracts/token/ERC721/ERC721.sol\":3225:3238  string memory */\n      0x60\n        /* \"@openzeppelin/contracts/token/ERC721/ERC721.sol\":3250:3259  return \"\" */\n      mload(0x40)\n      dup1\n      0x20\n      add\n      0x40\n      mstore\n      dup1\n      0x00\n      dup2\n      mstore\n      pop\n      swap1\n      pop\n        /* \"@openzeppelin/contracts/token/ERC721/ERC721.sol\":3174:3266  function _baseURI() internal view virtual returns (string memory) {... */\n      swap1\n      jump\t// out\n        /* \"@openzeppelin/contracts/utils/Strings.sol\":637:1335  function toString(uint256 value) internal pure returns (string memory) {... */\n    tag_181:\n        /* \"@openzeppelin/contracts/utils/Strings.sol\":693:706  string memory */\n      0x60\n        /* \"@openzeppelin/contracts/utils/Strings.sol\":742:756  uint256 length */\n      0x00\n        /* \"@openzeppelin/contracts/utils/Strings.sol\":779:780  1 */\n      0x01\n        /* \"@openzeppelin/contracts/utils/Strings.sol\":759:776  Math.log10(value) */\n      tag_249\n        /* \"@openzeppelin/contracts/utils/Strings.sol\":770:775  value */\n      dup5\n        /* \"@openzeppelin/contracts/utils/Strings.sol\":759:769  Math.log10 */\n      tag_250\n        /* \"@openzeppelin/contracts/utils/Strings.sol\":759:776  Math.log10(value) */\n      jump\t// in\n    tag_249:\n        /* \"@openzeppelin/contracts/utils/Strings.sol\":759:780  Math.log10(value) + 1 */\n      add\n        /* \"@openzeppelin/contracts/utils/Strings.sol\":742:780  uint256 length = Math.log10(value) + 1 */\n      swap1\n      pop\n        /* \"@openzeppelin/contracts/utils/Strings.sol\":794:814  string memory buffer */\n      0x00\n        /* \"@openzeppelin/contracts/utils/Strings.sol\":828:834  length */\n      dup2\n        /* \"@openzeppelin/contracts/utils/Strings.sol\":817:835  new string(length) */\n      0xffffffffffffffff\n      dup2\n      gt\n      iszero\n      tag_251\n      jumpi\n      tag_252\n      tag_253\n      jump\t// in\n    tag_252:\n    tag_251:\n      mload(0x40)\n      swap1\n      dup1\n      dup3\n      mstore\n      dup1\n      0x1f\n      add\n      not(0x1f)\n      and\n      0x20\n      add\n      dup3\n      add\n      0x40\n      mstore\n      dup1\n      iszero\n      tag_254\n      jumpi\n      dup2\n      0x20\n      add\n      0x01\n      dup3\n      mul\n      dup1\n      calldatasize\n      dup4\n      calldatacopy\n      dup1\n      dup3\n      add\n      swap2\n      pop\n      pop\n      swap1\n      pop\n    tag_254:\n      pop\n        /* \"@openzeppelin/contracts/utils/Strings.sol\":794:835  string memory buffer = new string(length) */\n      swap1\n      pop\n        /* \"@openzeppelin/contracts/utils/Strings.sol\":849:860  uint256 ptr */\n      0x00\n        /* \"@openzeppelin/contracts/utils/Strings.sol\":975:981  length */\n      dup3\n        /* \"@openzeppelin/contracts/utils/Strings.sol\":971:973  32 */\n      0x20\n        /* \"@openzeppelin/contracts/utils/Strings.sol\":967:982  add(32, length) */\n      add\n        /* \"@openzeppelin/contracts/utils/Strings.sol\":959:965  buffer */\n      dup3\n        /* \"@openzeppelin/contracts/utils/Strings.sol\":955:983  add(buffer, add(32, length)) */\n      add\n        /* \"@openzeppelin/contracts/utils/Strings.sol\":948:983  ptr := add(buffer, add(32, length)) */\n      swap1\n      pop\n        /* \"@openzeppelin/contracts/utils/Strings.sol\":1010:1292  while (true) {... */\n    tag_255:\n        /* \"@openzeppelin/contracts/utils/Strings.sol\":1017:1021  true */\n      0x01\n        /* \"@openzeppelin/contracts/utils/Strings.sol\":1010:1292  while (true) {... */\n      iszero\n      tag_256\n      jumpi\n        /* \"@openzeppelin/contracts/utils/Strings.sol\":1041:1046  ptr-- */\n      dup1\n      dup1\n      0x01\n      swap1\n      sub\n      swap2\n      pop\n      pop\n        /* \"@openzeppelin/contracts/utils/Strings.sol\":1180:1190  HEX_DIGITS */\n      0x3031323334353637383961626364656600000000000000000000000000000000\n        /* \"@openzeppelin/contracts/utils/Strings.sol\":1175:1177  10 */\n      0x0a\n        /* \"@openzeppelin/contracts/utils/Strings.sol\":1168:1173  value */\n      dup7\n        /* \"@openzeppelin/contracts/utils/Strings.sol\":1164:1178  mod(value, 10) */\n      mod\n        /* \"@openzeppelin/contracts/utils/Strings.sol\":1159:1191  byte(mod(value, 10), HEX_DIGITS) */\n      byte\n        /* \"@openzeppelin/contracts/utils/Strings.sol\":1154:1157  ptr */\n      dup2\n        /* \"@openzeppelin/contracts/utils/Strings.sol\":1146:1192  mstore8(ptr, byte(mod(value, 10), HEX_DIGITS)) */\n      mstore8\n        /* \"@openzeppelin/contracts/utils/Strings.sol\":1236:1238  10 */\n      0x0a\n        /* \"@openzeppelin/contracts/utils/Strings.sol\":1227:1238  value /= 10 */\n      dup6\n      dup2\n      tag_257\n      jumpi\n      tag_258\n      tag_259\n      jump\t// in\n    tag_258:\n    tag_257:\n      div\n      swap5\n      pop\n        /* \"@openzeppelin/contracts/utils/Strings.sol\":1269:1270  0 */\n      0x00\n        /* \"@openzeppelin/contracts/utils/Strings.sol\":1260:1265  value */\n      dup6\n        /* \"@openzeppelin/contracts/utils/Strings.sol\":1260:1270  value == 0 */\n      sub\n        /* \"@openzeppelin/contracts/utils/Strings.sol\":1010:1292  while (true) {... */\n      tag_255\n        /* \"@openzeppelin/contracts/utils/Strings.sol\":1256:1277  if (value == 0) break */\n      jumpi\n        /* \"@openzeppelin/contracts/utils/Strings.sol\":1010:1292  while (true) {... */\n    tag_256:\n        /* \"@openzeppelin/contracts/utils/Strings.sol\":1312:1318  buffer */\n      dup2\n        /* \"@openzeppelin/contracts/utils/Strings.sol\":1305:1318  return buffer */\n      swap4\n      pop\n      pop\n      pop\n      pop\n        /* \"@openzeppelin/contracts/utils/Strings.sol\":637:1335  function toString(uint256 value) internal pure returns (string memory) {... */\n      swap2\n      swap1\n      pop\n      jump\t// out\n        /* \"@openzeppelin/contracts/utils/introspection/ERC165.sol\":762:908  function supportsInterface(bytes4 interfaceId) public view virtual returns (bool) {... */\n    tag_189:\n        /* \"@openzeppelin/contracts/utils/introspection/ERC165.sol\":838:842  bool */\n      0x00\n        /* \"@openzeppelin/contracts/utils/introspection/ERC165.sol\":876:901  type(IERC165).interfaceId */\n      0x01ffc9a700000000000000000000000000000000000000000000000000000000\n        /* \"@openzeppelin/contracts/utils/introspection/ERC165.sol\":861:901  interfaceId == type(IERC165).interfaceId */\n      not(0xffffffffffffffffffffffffffffffffffffffffffffffffffffffff)\n      and\n        /* \"@openzeppelin/contracts/utils/introspection/ERC165.sol\":861:872  interfaceId */\n      dup3\n        /* \"@openzeppelin/contracts/utils/introspection/ERC165.sol\":861:901  interfaceId == type(IERC165).interfaceId */\n      not(0xffffffffffffffffffffffffffffffffffffffffffffffffffffffff)\n      and\n      eq\n        /* \"@openzeppelin/contracts/utils/introspection/ERC165.sol\":854:901  return interfaceId == type(IERC165).interfaceId */\n      swap1\n      pop\n        /* \"@openzeppelin/contracts/utils/introspection/ERC165.sol\":762:908  function supportsInterface(bytes4 interfaceId) public view virtual returns (bool) {... */\n      swap2\n      swap1\n      pop\n      jump\t// out\n        /* \"@openzeppelin/contracts/token/ERC721/ERC721.sol\":5707:5822  function _ownerOf(uint256 tokenId) internal view virtual returns (address) {... */\n    tag_192:\n        /* \"@openzeppelin/contracts/token/ERC721/ERC721.sol\":5773:5780  address */\n      0x00\n        /* \"@openzeppelin/contracts/token/ERC721/ERC721.sol\":5799:5806  _owners */\n      0x02\n        /* \"@openzeppelin/contracts/token/ERC721/ERC721.sol\":5799:5815  _owners[tokenId] */\n      0x00\n        /* \"@openzeppelin/contracts/token/ERC721/ERC721.sol\":5807:5814  tokenId */\n      dup4\n        /* \"@openzeppelin/contracts/token/ERC721/ERC721.sol\":5799:5815  _owners[tokenId] */\n      dup2\n      mstore\n      0x20\n      add\n      swap1\n      dup2\n      mstore\n      0x20\n      add\n      0x00\n      keccak256\n      0x00\n      swap1\n      sload\n      swap1\n      0x0100\n      exp\n      swap1\n      div\n      0xffffffffffffffffffffffffffffffffffffffff\n      and\n        /* \"@openzeppelin/contracts/token/ERC721/ERC721.sol\":5792:5815  return _owners[tokenId] */\n      swap1\n      pop\n        /* \"@openzeppelin/contracts/token/ERC721/ERC721.sol\":5707:5822  function _ownerOf(uint256 tokenId) internal view virtual returns (address) {... */\n      swap2\n      swap1\n      pop\n      jump\t// out\n        /* \"@openzeppelin/contracts/token/ERC721/ERC721.sol\":14720:15382  function _approve(address to, uint256 tokenId, address auth, bool emitEvent) internal virtual {... */\n    tag_199:\n        /* \"@openzeppelin/contracts/token/ERC721/ERC721.sol\":14880:14889  emitEvent */\n      dup1\n        /* \"@openzeppelin/contracts/token/ERC721/ERC721.sol\":14880:14911  emitEvent || auth != address(0) */\n      dup1\n      tag_264\n      jumpi\n      pop\n        /* \"@openzeppelin/contracts/token/ERC721/ERC721.sol\":14909:14910  0 */\n      0x00\n        /* \"@openzeppelin/contracts/token/ERC721/ERC721.sol\":14893:14911  auth != address(0) */\n      0xffffffffffffffffffffffffffffffffffffffff\n      and\n        /* \"@openzeppelin/contracts/token/ERC721/ERC721.sol\":14893:14897  auth */\n      dup3\n        /* \"@openzeppelin/contracts/token/ERC721/ERC721.sol\":14893:14911  auth != address(0) */\n      0xffffffffffffffffffffffffffffffffffffffff\n      and\n      eq\n      iszero\n        /* \"@openzeppelin/contracts/token/ERC721/ERC721.sol\":14880:14911  emitEvent || auth != address(0) */\n    tag_264:\n        /* \"@openzeppelin/contracts/token/ERC721/ERC721.sol\":14876:15336  if (emitEvent || auth != address(0)) {... */\n      iszero\n      tag_265\n      jumpi\n        /* \"@openzeppelin/contracts/token/ERC721/ERC721.sol\":14927:14940  address owner */\n      0x00\n        /* \"@openzeppelin/contracts/token/ERC721/ERC721.sol\":14943:14965  _requireOwned(tokenId) */\n      tag_266\n        /* \"@openzeppelin/contracts/token/ERC721/ERC721.sol\":14957:14964  tokenId */\n      dup5\n        /* \"@openzeppelin/contracts/token/ERC721/ERC721.sol\":14943:14956  _requireOwned */\n      tag_111\n        /* \"@openzeppelin/contracts/token/ERC721/ERC721.sol\":14943:14965  _requireOwned(tokenId) */\n      jump\t// in\n    tag_266:\n        /* \"@openzeppelin/contracts/token/ERC721/ERC721.sol\":14927:14965  address owner = _requireOwned(tokenId) */\n      swap1\n      pop\n        /* \"@openzeppelin/contracts/token/ERC721/ERC721.sol\":15109:15110  0 */\n      0x00\n        /* \"@openzeppelin/contracts/token/ERC721/ERC721.sol\":15093:15111  auth != address(0) */\n      0xffffffffffffffffffffffffffffffffffffffff\n      and\n        /* \"@openzeppelin/contracts/token/ERC721/ERC721.sol\":15093:15097  auth */\n      dup4\n        /* \"@openzeppelin/contracts/token/ERC721/ERC721.sol\":15093:15111  auth != address(0) */\n      0xffffffffffffffffffffffffffffffffffffffff\n      and\n      eq\n      iszero\n        /* \"@openzeppelin/contracts/token/ERC721/ERC721.sol\":15093:15128  auth != address(0) && owner != auth */\n      dup1\n      iszero\n      tag_267\n      jumpi\n      pop\n        /* \"@openzeppelin/contracts/token/ERC721/ERC721.sol\":15124:15128  auth */\n      dup3\n        /* \"@openzeppelin/contracts/token/ERC721/ERC721.sol\":15115:15128  owner != auth */\n      0xffffffffffffffffffffffffffffffffffffffff\n      and\n        /* \"@openzeppelin/contracts/token/ERC721/ERC721.sol\":15115:15120  owner */\n      dup2\n        /* \"@openzeppelin/contracts/token/ERC721/ERC721.sol\":15115:15128  owner != auth */\n      0xffffffffffffffffffffffffffffffffffffffff\n      and\n      eq\n      iszero\n        /* \"@openzeppelin/contracts/token/ERC721/ERC721.sol\":15093:15128  auth != address(0) && owner != auth */\n    tag_267:\n        /* \"@openzeppelin/contracts/token/ERC721/ERC721.sol\":15093:15162  auth != address(0) && owner != auth && !isApprovedForAll(owner, auth) */\n      dup1\n      iszero\n      tag_268\n      jumpi\n      pop\n        /* \"@openzeppelin/contracts/token/ERC721/ERC721.sol\":15133:15162  isApprovedForAll(owner, auth) */\n      tag_269\n        /* \"@openzeppelin/contracts/token/ERC721/ERC721.sol\":15150:15155  owner */\n      dup2\n        /* \"@openzeppelin/contracts/token/ERC721/ERC721.sol\":15157:15161  auth */\n      dup5\n        /* \"@openzeppelin/contracts/token/ERC721/ERC721.sol\":15133:15149  isApprovedForAll */\n      tag_96\n        /* \"@openzeppelin/contracts/token/ERC721/ERC721.sol\":15133:15162  isApprovedForAll(owner, auth) */\n      jump\t// in\n    tag_269:\n        /* \"@openzeppelin/contracts/token/ERC721/ERC721.sol\":15132:15162  !isApprovedForAll(owner, auth) */\n      iszero\n        /* \"@openzeppelin/contracts/token/ERC721/ERC721.sol\":15093:15162  auth != address(0) && owner != auth && !isApprovedForAll(owner, auth) */\n    tag_268:\n        /* \"@openzeppelin/contracts/token/ERC721/ERC721.sol\":15089:15231  if (auth != address(0) && owner != auth && !isApprovedForAll(owner, auth)) {... */\n      iszero\n      tag_270\n      jumpi\n        /* \"@openzeppelin/contracts/token/ERC721/ERC721.sol\":15211:15215  auth */\n      dup3\n        /* \"@openzeppelin/contracts/token/ERC721/ERC721.sol\":15189:15216  ERC721InvalidApprover(auth) */\n      mload(0x40)\n      0xa9fbf51f00000000000000000000000000000000000000000000000000000000\n      dup2\n      mstore\n      0x04\n      add\n      tag_271\n      swap2\n      swap1\n      tag_39\n      jump\t// in\n    tag_271:\n      mload(0x40)\n      dup1\n      swap2\n      sub\n      swap1\n      revert\n        /* \"@openzeppelin/contracts/token/ERC721/ERC721.sol\":15089:15231  if (auth != address(0) && owner != auth && !isApprovedForAll(owner, auth)) {... */\n    tag_270:\n        /* \"@openzeppelin/contracts/token/ERC721/ERC721.sol\":15249:15258  emitEvent */\n      dup2\n        /* \"@openzeppelin/contracts/token/ERC721/ERC721.sol\":15245:15326  if (emitEvent) {... */\n      iszero\n      tag_272\n      jumpi\n        /* \"@openzeppelin/contracts/token/ERC721/ERC721.sol\":15303:15310  tokenId */\n      dup4\n        /* \"@openzeppelin/contracts/token/ERC721/ERC721.sol\":15299:15301  to */\n      dup6\n        /* \"@openzeppelin/contracts/token/ERC721/ERC721.sol\":15283:15311  Approval(owner, to, tokenId) */\n      0xffffffffffffffffffffffffffffffffffffffff\n      and\n        /* \"@openzeppelin/contracts/token/ERC721/ERC721.sol\":15292:15297  owner */\n      dup3\n        /* \"@openzeppelin/contracts/token/ERC721/ERC721.sol\":15283:15311  Approval(owner, to, tokenId) */\n      0xffffffffffffffffffffffffffffffffffffffff\n      and\n      0x8c5be1e5ebec7d5bd14f71427d1e84f3dd0314c0f7b2291e5b200ac8c7c3b925\n      mload(0x40)\n      mload(0x40)\n      dup1\n      swap2\n      sub\n      swap1\n      log4\n        /* \"@openzeppelin/contracts/token/ERC721/ERC721.sol\":15245:15326  if (emitEvent) {... */\n    tag_272:\n        /* \"@openzeppelin/contracts/token/ERC721/ERC721.sol\":14913:15336  {... */\n      pop\n        /* \"@openzeppelin/contracts/token/ERC721/ERC721.sol\":14876:15336  if (emitEvent || auth != address(0)) {... */\n    tag_265:\n        /* \"@openzeppelin/contracts/token/ERC721/ERC721.sol\":15373:15375  to */\n      dup4\n        /* \"@openzeppelin/contracts/token/ERC721/ERC721.sol\":15346:15361  _tokenApprovals */\n      0x04\n        /* \"@openzeppelin/contracts/token/ERC721/ERC721.sol\":15346:15370  _tokenApprovals[tokenId] */\n      0x00\n        /* \"@openzeppelin/contracts/token/ERC721/ERC721.sol\":15362:15369  tokenId */\n      dup6\n        /* \"@openzeppelin/contracts/token/ERC721/ERC721.sol\":15346:15370  _tokenApprovals[tokenId] */\n      dup2\n      mstore\n      0x20\n      add\n      swap1\n      dup2\n      mstore\n      0x20\n      add\n      0x00\n      keccak256\n      0x00\n        /* \"@openzeppelin/contracts/token/ERC721/ERC721.sol\":15346:15375  _tokenApprovals[tokenId] = to */\n      0x0100\n      exp\n      dup2\n      sload\n      dup2\n      0xffffffffffffffffffffffffffffffffffffffff\n      mul\n      not\n      and\n      swap1\n      dup4\n      0xffffffffffffffffffffffffffffffffffffffff\n      and\n      mul\n      or\n      swap1\n      sstore\n      pop\n        /* \"@openzeppelin/contracts/token/ERC721/ERC721.sol\":14720:15382  function _approve(address to, uint256 tokenId, address auth, bool emitEvent) internal virtual {... */\n      pop\n      pop\n      pop\n      pop\n      jump\t// out\n        /* \"@openzeppelin/contracts/token/ERC721/ERC721.sol\":8838:9633  function _update(address to, uint256 tokenId, address auth) internal virtual returns (address) {... */\n    tag_202:\n        /* \"@openzeppelin/contracts/token/ERC721/ERC721.sol\":8924:8931  address */\n      0x00\n        /* \"@openzeppelin/contracts/token/ERC721/ERC721.sol\":8943:8955  address from */\n      dup1\n        /* \"@openzeppelin/contracts/token/ERC721/ERC721.sol\":8958:8975  _ownerOf(tokenId) */\n      tag_274\n        /* \"@openzeppelin/contracts/token/ERC721/ERC721.sol\":8967:8974  tokenId */\n      dup5\n        /* \"@openzeppelin/contracts/token/ERC721/ERC721.sol\":8958:8966  _ownerOf */\n      tag_192\n        /* \"@openzeppelin/contracts/token/ERC721/ERC721.sol\":8958:8975  _ownerOf(tokenId) */\n      jump\t// in\n    tag_274:\n        /* \"@openzeppelin/contracts/token/ERC721/ERC721.sol\":8943:8975  address from = _ownerOf(tokenId) */\n      swap1\n      pop\n        /* \"@openzeppelin/contracts/token/ERC721/ERC721.sol\":9051:9052  0 */\n      0x00\n        /* \"@openzeppelin/contracts/token/ERC721/ERC721.sol\":9035:9053  auth != address(0) */\n      0xffffffffffffffffffffffffffffffffffffffff\n      and\n        /* \"@openzeppelin/contracts/token/ERC721/ERC721.sol\":9035:9039  auth */\n      dup4\n        /* \"@openzeppelin/contracts/token/ERC721/ERC721.sol\":9035:9053  auth != address(0) */\n      0xffffffffffffffffffffffffffffffffffffffff\n      and\n      eq\n        /* \"@openzeppelin/contracts/token/ERC721/ERC721.sol\":9031:9117  if (auth != address(0)) {... */\n      tag_275\n      jumpi\n        /* \"@openzeppelin/contracts/token/ERC721/ERC721.sol\":9069:9106  _checkAuthorized(from, auth, tokenId) */\n      tag_276\n        /* \"@openzeppelin/contracts/token/ERC721/ERC721.sol\":9086:9090  from */\n      dup2\n        /* \"@openzeppelin/contracts/token/ERC721/ERC721.sol\":9092:9096  auth */\n      dup5\n        /* \"@openzeppelin/contracts/token/ERC721/ERC721.sol\":9098:9105  tokenId */\n      dup7\n        /* \"@openzeppelin/contracts/token/ERC721/ERC721.sol\":9069:9085  _checkAuthorized */\n      tag_277\n        /* \"@openzeppelin/contracts/token/ERC721/ERC721.sol\":9069:9106  _checkAuthorized(from, auth, tokenId) */\n      jump\t// in\n    tag_276:\n        /* \"@openzeppelin/contracts/token/ERC721/ERC721.sol\":9031:9117  if (auth != address(0)) {... */\n    tag_275:\n        /* \"@openzeppelin/contracts/token/ERC721/ERC721.sol\":9177:9178  0 */\n      0x00\n        /* \"@openzeppelin/contracts/token/ERC721/ERC721.sol\":9161:9179  from != address(0) */\n      0xffffffffffffffffffffffffffffffffffffffff\n      and\n        /* \"@openzeppelin/contracts/token/ERC721/ERC721.sol\":9161:9165  from */\n      dup2\n        /* \"@openzeppelin/contracts/token/ERC721/ERC721.sol\":9161:9179  from != address(0) */\n      0xffffffffffffffffffffffffffffffffffffffff\n      and\n      eq\n        /* \"@openzeppelin/contracts/token/ERC721/ERC721.sol\":9157:9413  if (from != address(0)) {... */\n      tag_278\n      jumpi\n        /* \"@openzeppelin/contracts/token/ERC721/ERC721.sol\":9277:9325  _approve(address(0), tokenId, address(0), false) */\n      tag_279\n        /* \"@openzeppelin/contracts/token/ERC721/ERC721.sol\":9294:9295  0 */\n      0x00\n        /* \"@openzeppelin/contracts/token/ERC721/ERC721.sol\":9298:9305  tokenId */\n      dup6\n        /* \"@openzeppelin/contracts/token/ERC721/ERC721.sol\":9315:9316  0 */\n      0x00\n        /* \"@openzeppelin/contracts/token/ERC721/ERC721.sol\":9319:9324  false */\n      dup1\n        /* \"@openzeppelin/contracts/token/ERC721/ERC721.sol\":9277:9285  _approve */\n      tag_199\n        /* \"@openzeppelin/contracts/token/ERC721/ERC721.sol\":9277:9325  _approve(address(0), tokenId, address(0), false) */\n      jump\t// in\n    tag_279:\n        /* \"@openzeppelin/contracts/token/ERC721/ERC721.sol\":9387:9388  1 */\n      0x01\n        /* \"@openzeppelin/contracts/token/ERC721/ERC721.sol\":9368:9377  _balances */\n      0x03\n        /* \"@openzeppelin/contracts/token/ERC721/ERC721.sol\":9368:9383  _balances[from] */\n      0x00\n        /* \"@openzeppelin/contracts/token/ERC721/ERC721.sol\":9378:9382  from */\n      dup4\n        /* \"@openzeppelin/contracts/token/ERC721/ERC721.sol\":9368:9383  _balances[from] */\n      0xffffffffffffffffffffffffffffffffffffffff\n      and\n      0xffffffffffffffffffffffffffffffffffffffff\n      and\n      dup2\n      mstore\n      0x20\n      add\n      swap1\n      dup2\n      mstore\n      0x20\n      add\n      0x00\n      keccak256\n      0x00\n        /* \"@openzeppelin/contracts/token/ERC721/ERC721.sol\":9368:9388  _balances[from] -= 1 */\n      dup3\n      dup3\n      sload\n      sub\n      swap3\n      pop\n      pop\n      dup2\n      swap1\n      sstore\n      pop\n        /* \"@openzeppelin/contracts/token/ERC721/ERC721.sol\":9157:9413  if (from != address(0)) {... */\n    tag_278:\n        /* \"@openzeppelin/contracts/token/ERC721/ERC721.sol\":9441:9442  0 */\n      0x00\n        /* \"@openzeppelin/contracts/token/ERC721/ERC721.sol\":9427:9443  to != address(0) */\n      0xffffffffffffffffffffffffffffffffffffffff\n      and\n        /* \"@openzeppelin/contracts/token/ERC721/ERC721.sol\":9427:9429  to */\n      dup6\n        /* \"@openzeppelin/contracts/token/ERC721/ERC721.sol\":9427:9443  to != address(0) */\n      0xffffffffffffffffffffffffffffffffffffffff\n      and\n      eq\n        /* \"@openzeppelin/contracts/token/ERC721/ERC721.sol\":9423:9530  if (to != address(0)) {... */\n      tag_280\n      jumpi\n        /* \"@openzeppelin/contracts/token/ERC721/ERC721.sol\":9504:9505  1 */\n      0x01\n        /* \"@openzeppelin/contracts/token/ERC721/ERC721.sol\":9487:9496  _balances */\n      0x03\n        /* \"@openzeppelin/contracts/token/ERC721/ERC721.sol\":9487:9500  _balances[to] */\n      0x00\n        /* \"@openzeppelin/contracts/token/ERC721/ERC721.sol\":9497:9499  to */\n      dup8\n        /* \"@openzeppelin/contracts/token/ERC721/ERC721.sol\":9487:9500  _balances[to] */\n      0xffffffffffffffffffffffffffffffffffffffff\n      and\n      0xffffffffffffffffffffffffffffffffffffffff\n      and\n      dup2\n      mstore\n      0x20\n      add\n      swap1\n      dup2\n      mstore\n      0x20\n      add\n      0x00\n      keccak256\n      0x00\n        /* \"@openzeppelin/contracts/token/ERC721/ERC721.sol\":9487:9505  _balances[to] += 1 */\n      dup3\n      dup3\n      sload\n      add\n      swap3\n      pop\n      pop\n      dup2\n      swap1\n      sstore\n      pop\n        /* \"@openzeppelin/contracts/token/ERC721/ERC721.sol\":9423:9530  if (to != address(0)) {... */\n    tag_280:\n        /* \"@openzeppelin/contracts/token/ERC721/ERC721.sol\":9559:9561  to */\n      dup5\n        /* \"@openzeppelin/contracts/token/ERC721/ERC721.sol\":9540:9547  _owners */\n      0x02\n        /* \"@openzeppelin/contracts/token/ERC721/ERC721.sol\":9540:9556  _owners[tokenId] */\n      0x00\n        /* \"@openzeppelin/contracts/token/ERC721/ERC721.sol\":9548:9555  tokenId */\n      dup7\n        /* \"@openzeppelin/contracts/token/ERC721/ERC721.sol\":9540:9556  _owners[tokenId] */\n      dup2\n      mstore\n      0x20\n      add\n      swap1\n      dup2\n      mstore\n      0x20\n      add\n      0x00\n      keccak256\n      0x00\n        /* \"@openzeppelin/contracts/token/ERC721/ERC721.sol\":9540:9561  _owners[tokenId] = to */\n      0x0100\n      exp\n      dup2\n      sload\n      dup2\n      0xffffffffffffffffffffffffffffffffffffffff\n      mul\n      not\n      and\n      swap1\n      dup4\n      0xffffffffffffffffffffffffffffffffffffffff\n      and\n      mul\n      or\n      swap1\n      sstore\n      pop\n        /* \"@openzeppelin/contracts/token/ERC721/ERC721.sol\":9596:9603  tokenId */\n      dup4\n        /* \"@openzeppelin/contracts/token/ERC721/ERC721.sol\":9592:9594  to */\n      dup6\n        /* \"@openzeppelin/contracts/token/ERC721/ERC721.sol\":9577:9604  Transfer(from, to, tokenId) */\n      0xffffffffffffffffffffffffffffffffffffffff\n      and\n        /* \"@openzeppelin/contracts/token/ERC721/ERC721.sol\":9586:9590  from */\n      dup3\n        /* \"@openzeppelin/contracts/token/ERC721/ERC721.sol\":9577:9604  Transfer(from, to, tokenId) */\n      0xffffffffffffffffffffffffffffffffffffffff\n      and\n      0xddf252ad1be2c89b69c2b068fc378daa952ba7f163c4a11628f55a4df523b3ef\n      mload(0x40)\n      mload(0x40)\n      dup1\n      swap2\n      sub\n      swap1\n      log4\n        /* \"@openzeppelin/contracts/token/ERC721/ERC721.sol\":9622:9626  from */\n      dup1\n        /* \"@openzeppelin/contracts/token/ERC721/ERC721.sol\":9615:9626  return from */\n      swap2\n      pop\n      pop\n        /* \"@openzeppelin/contracts/token/ERC721/ERC721.sol\":8838:9633  function _update(address to, uint256 tokenId, address auth) internal virtual returns (address) {... */\n      swap4\n      swap3\n      pop\n      pop\n      pop\n      jump\t// out\n        /* \"@openzeppelin/contracts/token/ERC721/extensions/ERC721Enumerable.sol\":3846:4007  function _addTokenToAllTokensEnumeration(uint256 tokenId) private {... */\n    tag_205:\n        /* \"@openzeppelin/contracts/token/ERC721/extensions/ERC721Enumerable.sol\":3949:3959  _allTokens */\n      0x08\n        /* \"@openzeppelin/contracts/token/ERC721/extensions/ERC721Enumerable.sol\":3949:3966  _allTokens.length */\n      dup1\n      sload\n      swap1\n      pop\n        /* \"@openzeppelin/contracts/token/ERC721/extensions/ERC721Enumerable.sol\":3922:3937  _allTokensIndex */\n      0x09\n        /* \"@openzeppelin/contracts/token/ERC721/extensions/ERC721Enumerable.sol\":3922:3946  _allTokensIndex[tokenId] */\n      0x00\n        /* \"@openzeppelin/contracts/token/ERC721/extensions/ERC721Enumerable.sol\":3938:3945  tokenId */\n      dup4\n        /* \"@openzeppelin/contracts/token/ERC721/extensions/ERC721Enumerable.sol\":3922:3946  _allTokensIndex[tokenId] */\n      dup2\n      mstore\n      0x20\n      add\n      swap1\n      dup2\n      mstore\n      0x20\n      add\n      0x00\n      keccak256\n        /* \"@openzeppelin/contracts/token/ERC721/extensions/ERC721Enumerable.sol\":3922:3966  _allTokensIndex[tokenId] = _allTokens.length */\n      dup2\n      swap1\n      sstore\n      pop\n        /* \"@openzeppelin/contracts/token/ERC721/extensions/ERC721Enumerable.sol\":3976:3986  _allTokens */\n      0x08\n        /* \"@openzeppelin/contracts/token/ERC721/extensions/ERC721Enumerable.sol\":3992:3999  tokenId */\n      dup2\n        /* \"@openzeppelin/contracts/token/ERC721/extensions/ERC721Enumerable.sol\":3976:4000  _allTokens.push(tokenId) */\n      swap1\n      dup1\n      0x01\n      dup2\n      sload\n      add\n      dup1\n      dup3\n      sstore\n      dup1\n      swap2\n      pop\n      pop\n      0x01\n      swap1\n      sub\n      swap1\n      0x00\n      mstore\n      keccak256(0x00, 0x20)\n      add\n      0x00\n      swap1\n      swap2\n      swap1\n      swap2\n      swap1\n      swap2\n      pop\n      sstore\n        /* \"@openzeppelin/contracts/token/ERC721/extensions/ERC721Enumerable.sol\":3846:4007  function _addTokenToAllTokensEnumeration(uint256 tokenId) private {... */\n      pop\n      jump\t// out\n        /* \"@openzeppelin/contracts/token/ERC721/extensions/ERC721Enumerable.sol\":4624:5583  function _removeTokenFromOwnerEnumeration(address from, uint256 tokenId) private {... */\n    tag_209:\n        /* \"@openzeppelin/contracts/token/ERC721/extensions/ERC721Enumerable.sol\":4886:4908  uint256 lastTokenIndex */\n      0x00\n        /* \"@openzeppelin/contracts/token/ERC721/extensions/ERC721Enumerable.sol\":4911:4926  balanceOf(from) */\n      tag_284\n        /* \"@openzeppelin/contracts/token/ERC721/extensions/ERC721Enumerable.sol\":4921:4925  from */\n      dup4\n        /* \"@openzeppelin/contracts/token/ERC721/extensions/ERC721Enumerable.sol\":4911:4920  balanceOf */\n      tag_76\n        /* \"@openzeppelin/contracts/token/ERC721/extensions/ERC721Enumerable.sol\":4911:4926  balanceOf(from) */\n      jump\t// in\n    tag_284:\n        /* \"@openzeppelin/contracts/token/ERC721/extensions/ERC721Enumerable.sol\":4886:4926  uint256 lastTokenIndex = balanceOf(from) */\n      swap1\n      pop\n        /* \"@openzeppelin/contracts/token/ERC721/extensions/ERC721Enumerable.sol\":4936:4954  uint256 tokenIndex */\n      0x00\n        /* \"@openzeppelin/contracts/token/ERC721/extensions/ERC721Enumerable.sol\":4957:4974  _ownedTokensIndex */\n      0x07\n        /* \"@openzeppelin/contracts/token/ERC721/extensions/ERC721Enumerable.sol\":4957:4983  _ownedTokensIndex[tokenId] */\n      0x00\n        /* \"@openzeppelin/contracts/token/ERC721/extensions/ERC721Enumerable.sol\":4975:4982  tokenId */\n      dup5\n        /* \"@openzeppelin/contracts/token/ERC721/extensions/ERC721Enumerable.sol\":4957:4983  _ownedTokensIndex[tokenId] */\n      dup2\n      mstore\n      0x20\n      add\n      swap1\n      dup2\n      mstore\n      0x20\n      add\n      0x00\n      keccak256\n      sload\n        /* \"@openzeppelin/contracts/token/ERC721/extensions/ERC721Enumerable.sol\":4936:4983  uint256 tokenIndex = _ownedTokensIndex[tokenId] */\n      swap1\n      pop\n        /* \"@openzeppelin/contracts/token/ERC721/extensions/ERC721Enumerable.sol\":5101:5115  lastTokenIndex */\n      dup2\n        /* \"@openzeppelin/contracts/token/ERC721/extensions/ERC721Enumerable.sol\":5087:5097  tokenIndex */\n      dup2\n        /* \"@openzeppelin/contracts/token/ERC721/extensions/ERC721Enumerable.sol\":5087:5115  tokenIndex != lastTokenIndex */\n      eq\n        /* \"@openzeppelin/contracts/token/ERC721/extensions/ERC721Enumerable.sol\":5083:5406  if (tokenIndex != lastTokenIndex) {... */\n      tag_285\n      jumpi\n        /* \"@openzeppelin/contracts/token/ERC721/extensions/ERC721Enumerable.sol\":5131:5150  uint256 lastTokenId */\n      0x00\n        /* \"@openzeppelin/contracts/token/ERC721/extensions/ERC721Enumerable.sol\":5153:5165  _ownedTokens */\n      0x06\n        /* \"@openzeppelin/contracts/token/ERC721/extensions/ERC721Enumerable.sol\":5153:5171  _ownedTokens[from] */\n      0x00\n        /* \"@openzeppelin/contracts/token/ERC721/extensions/ERC721Enumerable.sol\":5166:5170  from */\n      dup7\n        /* \"@openzeppelin/contracts/token/ERC721/extensions/ERC721Enumerable.sol\":5153:5171  _ownedTokens[from] */\n      0xffffffffffffffffffffffffffffffffffffffff\n      and\n      0xffffffffffffffffffffffffffffffffffffffff\n      and\n      dup2\n      mstore\n      0x20\n      add\n      swap1\n      dup2\n      mstore\n      0x20\n      add\n      0x00\n      keccak256\n        /* \"@openzeppelin/contracts/token/ERC721/extensions/ERC721Enumerable.sol\":5153:5187  _ownedTokens[from][lastTokenIndex] */\n      0x00\n        /* \"@openzeppelin/contracts/token/ERC721/extensions/ERC721Enumerable.sol\":5172:5186  lastTokenIndex */\n      dup5\n        /* \"@openzeppelin/contracts/token/ERC721/extensions/ERC721Enumerable.sol\":5153:5187  _ownedTokens[from][lastTokenIndex] */\n      dup2\n      mstore\n      0x20\n      add\n      swap1\n      dup2\n      mstore\n      0x20\n      add\n      0x00\n      keccak256\n      sload\n        /* \"@openzeppelin/contracts/token/ERC721/extensions/ERC721Enumerable.sol\":5131:5187  uint256 lastTokenId = _ownedTokens[from][lastTokenIndex] */\n      swap1\n      pop\n        /* \"@openzeppelin/contracts/token/ERC721/extensions/ERC721Enumerable.sol\":5235:5246  lastTokenId */\n      dup1\n        /* \"@openzeppelin/contracts/token/ERC721/extensions/ERC721Enumerable.sol\":5202:5214  _ownedTokens */\n      0x06\n        /* \"@openzeppelin/contracts/token/ERC721/extensions/ERC721Enumerable.sol\":5202:5220  _ownedTokens[from] */\n      0x00\n        /* \"@openzeppelin/contracts/token/ERC721/extensions/ERC721Enumerable.sol\":5215:5219  from */\n      dup8\n        /* \"@openzeppelin/contracts/token/ERC721/extensions/ERC721Enumerable.sol\":5202:5220  _ownedTokens[from] */\n      0xffffffffffffffffffffffffffffffffffffffff\n      and\n      0xffffffffffffffffffffffffffffffffffffffff\n      and\n      dup2\n      mstore\n      0x20\n      add\n      swap1\n      dup2\n      mstore\n      0x20\n      add\n      0x00\n      keccak256\n        /* \"@openzeppelin/contracts/token/ERC721/extensions/ERC721Enumerable.sol\":5202:5232  _ownedTokens[from][tokenIndex] */\n      0x00\n        /* \"@openzeppelin/contracts/token/ERC721/extensions/ERC721Enumerable.sol\":5221:5231  tokenIndex */\n      dup5\n        /* \"@openzeppelin/contracts/token/ERC721/extensions/ERC721Enumerable.sol\":5202:5232  _ownedTokens[from][tokenIndex] */\n      dup2\n      mstore\n      0x20\n      add\n      swap1\n      dup2\n      mstore\n      0x20\n      add\n      0x00\n      keccak256\n        /* \"@openzeppelin/contracts/token/ERC721/extensions/ERC721Enumerable.sol\":5202:5246  _ownedTokens[from][tokenIndex] = lastTokenId */\n      dup2\n      swap1\n      sstore\n      pop\n        /* \"@openzeppelin/contracts/token/ERC721/extensions/ERC721Enumerable.sol\":5351:5361  tokenIndex */\n      dup2\n        /* \"@openzeppelin/contracts/token/ERC721/extensions/ERC721Enumerable.sol\":5318:5335  _ownedTokensIndex */\n      0x07\n        /* \"@openzeppelin/contracts/token/ERC721/extensions/ERC721Enumerable.sol\":5318:5348  _ownedTokensIndex[lastTokenId] */\n      0x00\n        /* \"@openzeppelin/contracts/token/ERC721/extensions/ERC721Enumerable.sol\":5336:5347  lastTokenId */\n      dup4\n        /* \"@openzeppelin/contracts/token/ERC721/extensions/ERC721Enumerable.sol\":5318:5348  _ownedTokensIndex[lastTokenId] */\n      dup2\n      mstore\n      0x20\n      add\n      swap1\n      dup2\n      mstore\n      0x20\n      add\n      0x00\n      keccak256\n        /* \"@openzeppelin/contracts/token/ERC721/extensions/ERC721Enumerable.sol\":5318:5361  _ownedTokensIndex[lastTokenId] = tokenIndex */\n      dup2\n      swap1\n      sstore\n      pop\n        /* \"@openzeppelin/contracts/token/ERC721/extensions/ERC721Enumerable.sol\":5117:5406  {... */\n      pop\n        /* \"@openzeppelin/contracts/token/ERC721/extensions/ERC721Enumerable.sol\":5083:5406  if (tokenIndex != lastTokenIndex) {... */\n    tag_285:\n        /* \"@openzeppelin/contracts/token/ERC721/extensions/ERC721Enumerable.sol\":5499:5516  _ownedTokensIndex */\n      0x07\n        /* \"@openzeppelin/contracts/token/ERC721/extensions/ERC721Enumerable.sol\":5499:5525  _ownedTokensIndex[tokenId] */\n      0x00\n        /* \"@openzeppelin/contracts/token/ERC721/extensions/ERC721Enumerable.sol\":5517:5524  tokenId */\n      dup5\n        /* \"@openzeppelin/contracts/token/ERC721/extensions/ERC721Enumerable.sol\":5499:5525  _ownedTokensIndex[tokenId] */\n      dup2\n      mstore\n      0x20\n      add\n      swap1\n      dup2\n      mstore\n      0x20\n      add\n      0x00\n      keccak256\n        /* \"@openzeppelin/contracts/token/ERC721/extensions/ERC721Enumerable.sol\":5492:5525  delete _ownedTokensIndex[tokenId] */\n      0x00\n      swap1\n      sstore\n        /* \"@openzeppelin/contracts/token/ERC721/extensions/ERC721Enumerable.sol\":5542:5554  _ownedTokens */\n      0x06\n        /* \"@openzeppelin/contracts/token/ERC721/extensions/ERC721Enumerable.sol\":5542:5560  _ownedTokens[from] */\n      0x00\n        /* \"@openzeppelin/contracts/token/ERC721/extensions/ERC721Enumerable.sol\":5555:5559  from */\n      dup6\n        /* \"@openzeppelin/contracts/token/ERC721/extensions/ERC721Enumerable.sol\":5542:5560  _ownedTokens[from] */\n      0xffffffffffffffffffffffffffffffffffffffff\n      and\n      0xffffffffffffffffffffffffffffffffffffffff\n      and\n      dup2\n      mstore\n      0x20\n      add\n      swap1\n      dup2\n      mstore\n      0x20\n      add\n      0x00\n      keccak256\n        /* \"@openzeppelin/contracts/token/ERC721/extensions/ERC721Enumerable.sol\":5542:5576  _ownedTokens[from][lastTokenIndex] */\n      0x00\n        /* \"@openzeppelin/contracts/token/ERC721/extensions/ERC721Enumerable.sol\":5561:5575  lastTokenIndex */\n      dup4\n        /* \"@openzeppelin/contracts/token/ERC721/extensions/ERC721Enumerable.sol\":5542:5576  _ownedTokens[from][lastTokenIndex] */\n      dup2\n      mstore\n      0x20\n      add\n      swap1\n      dup2\n      mstore\n      0x20\n      add\n      0x00\n      keccak256\n        /* \"@openzeppelin/contracts/token/ERC721/extensions/ERC721Enumerable.sol\":5535:5576  delete _ownedTokens[from][lastTokenIndex] */\n      0x00\n      swap1\n      sstore\n        /* \"@openzeppelin/contracts/token/ERC721/extensions/ERC721Enumerable.sol\":4705:5583  {... */\n      pop\n      pop\n        /* \"@openzeppelin/contracts/token/ERC721/extensions/ERC721Enumerable.sol\":4624:5583  function _removeTokenFromOwnerEnumeration(address from, uint256 tokenId) private {... */\n      pop\n      pop\n      jump\t// out\n        /* \"@openzeppelin/contracts/token/ERC721/extensions/ERC721Enumerable.sol\":5871:6932  function _removeTokenFromAllTokensEnumeration(uint256 tokenId) private {... */\n    tag_212:\n        /* \"@openzeppelin/contracts/token/ERC721/extensions/ERC721Enumerable.sol\":6120:6142  uint256 lastTokenIndex */\n      0x00\n        /* \"@openzeppelin/contracts/token/ERC721/extensions/ERC721Enumerable.sol\":6165:6166  1 */\n      0x01\n        /* \"@openzeppelin/contracts/token/ERC721/extensions/ERC721Enumerable.sol\":6145:6155  _allTokens */\n      0x08\n        /* \"@openzeppelin/contracts/token/ERC721/extensions/ERC721Enumerable.sol\":6145:6162  _allTokens.length */\n      dup1\n      sload\n      swap1\n      pop\n        /* \"@openzeppelin/contracts/token/ERC721/extensions/ERC721Enumerable.sol\":6145:6166  _allTokens.length - 1 */\n      tag_287\n      swap2\n      swap1\n      tag_288\n      jump\t// in\n    tag_287:\n        /* \"@openzeppelin/contracts/token/ERC721/extensions/ERC721Enumerable.sol\":6120:6166  uint256 lastTokenIndex = _allTokens.length - 1 */\n      swap1\n      pop\n        /* \"@openzeppelin/contracts/token/ERC721/extensions/ERC721Enumerable.sol\":6176:6194  uint256 tokenIndex */\n      0x00\n        /* \"@openzeppelin/contracts/token/ERC721/extensions/ERC721Enumerable.sol\":6197:6212  _allTokensIndex */\n      0x09\n        /* \"@openzeppelin/contracts/token/ERC721/extensions/ERC721Enumerable.sol\":6197:6221  _allTokensIndex[tokenId] */\n      0x00\n        /* \"@openzeppelin/contracts/token/ERC721/extensions/ERC721Enumerable.sol\":6213:6220  tokenId */\n      dup5\n        /* \"@openzeppelin/contracts/token/ERC721/extensions/ERC721Enumerable.sol\":6197:6221  _allTokensIndex[tokenId] */\n      dup2\n      mstore\n      0x20\n      add\n      swap1\n      dup2\n      mstore\n      0x20\n      add\n      0x00\n      keccak256\n      sload\n        /* \"@openzeppelin/contracts/token/ERC721/extensions/ERC721Enumerable.sol\":6176:6221  uint256 tokenIndex = _allTokensIndex[tokenId] */\n      swap1\n      pop\n        /* \"@openzeppelin/contracts/token/ERC721/extensions/ERC721Enumerable.sol\":6543:6562  uint256 lastTokenId */\n      0x00\n        /* \"@openzeppelin/contracts/token/ERC721/extensions/ERC721Enumerable.sol\":6565:6575  _allTokens */\n      0x08\n        /* \"@openzeppelin/contracts/token/ERC721/extensions/ERC721Enumerable.sol\":6576:6590  lastTokenIndex */\n      dup4\n        /* \"@openzeppelin/contracts/token/ERC721/extensions/ERC721Enumerable.sol\":6565:6591  _allTokens[lastTokenIndex] */\n      dup2\n      sload\n      dup2\n      lt\n      tag_289\n      jumpi\n      tag_290\n      tag_142\n      jump\t// in\n    tag_290:\n    tag_289:\n      swap1\n      0x00\n      mstore\n      keccak256(0x00, 0x20)\n      add\n      sload\n        /* \"@openzeppelin/contracts/token/ERC721/extensions/ERC721Enumerable.sol\":6543:6591  uint256 lastTokenId = _allTokens[lastTokenIndex] */\n      swap1\n      pop\n        /* \"@openzeppelin/contracts/token/ERC721/extensions/ERC721Enumerable.sol\":6627:6638  lastTokenId */\n      dup1\n        /* \"@openzeppelin/contracts/token/ERC721/extensions/ERC721Enumerable.sol\":6602:6612  _allTokens */\n      0x08\n        /* \"@openzeppelin/contracts/token/ERC721/extensions/ERC721Enumerable.sol\":6613:6623  tokenIndex */\n      dup4\n        /* \"@openzeppelin/contracts/token/ERC721/extensions/ERC721Enumerable.sol\":6602:6624  _allTokens[tokenIndex] */\n      dup2\n      sload\n      dup2\n      lt\n      tag_292\n      jumpi\n      tag_293\n      tag_142\n      jump\t// in\n    tag_293:\n    tag_292:\n      swap1\n      0x00\n      mstore\n      keccak256(0x00, 0x20)\n      add\n        /* \"@openzeppelin/contracts/token/ERC721/extensions/ERC721Enumerable.sol\":6602:6638  _allTokens[tokenIndex] = lastTokenId */\n      dup2\n      swap1\n      sstore\n      pop\n        /* \"@openzeppelin/contracts/token/ERC721/extensions/ERC721Enumerable.sol\":6737:6747  tokenIndex */\n      dup2\n        /* \"@openzeppelin/contracts/token/ERC721/extensions/ERC721Enumerable.sol\":6706:6721  _allTokensIndex */\n      0x09\n        /* \"@openzeppelin/contracts/token/ERC721/extensions/ERC721Enumerable.sol\":6706:6734  _allTokensIndex[lastTokenId] */\n      0x00\n        /* \"@openzeppelin/contracts/token/ERC721/extensions/ERC721Enumerable.sol\":6722:6733  lastTokenId */\n      dup4\n        /* \"@openzeppelin/contracts/token/ERC721/extensions/ERC721Enumerable.sol\":6706:6734  _allTokensIndex[lastTokenId] */\n      dup2\n      mstore\n      0x20\n      add\n      swap1\n      dup2\n      mstore\n      0x20\n      add\n      0x00\n      keccak256\n        /* \"@openzeppelin/contracts/token/ERC721/extensions/ERC721Enumerable.sol\":6706:6747  _allTokensIndex[lastTokenId] = tokenIndex */\n      dup2\n      swap1\n      sstore\n      pop\n        /* \"@openzeppelin/contracts/token/ERC721/extensions/ERC721Enumerable.sol\":6875:6890  _allTokensIndex */\n      0x09\n        /* \"@openzeppelin/contracts/token/ERC721/extensions/ERC721Enumerable.sol\":6875:6899  _allTokensIndex[tokenId] */\n      0x00\n        /* \"@openzeppelin/contracts/token/ERC721/extensions/ERC721Enumerable.sol\":6891:6898  tokenId */\n      dup6\n        /* \"@openzeppelin/contracts/token/ERC721/extensions/ERC721Enumerable.sol\":6875:6899  _allTokensIndex[tokenId] */\n      dup2\n      mstore\n      0x20\n      add\n      swap1\n      dup2\n      mstore\n      0x20\n      add\n      0x00\n      keccak256\n        /* \"@openzeppelin/contracts/token/ERC721/extensions/ERC721Enumerable.sol\":6868:6899  delete _allTokensIndex[tokenId] */\n      0x00\n      swap1\n      sstore\n        /* \"@openzeppelin/contracts/token/ERC721/extensions/ERC721Enumerable.sol\":6909:6919  _allTokens */\n      0x08\n        /* \"@openzeppelin/contracts/token/ERC721/extensions/ERC721Enumerable.sol\":6909:6925  _allTokens.pop() */\n      dup1\n      sload\n      dup1\n      tag_295\n      jumpi\n      tag_296\n      tag_297\n      jump\t// in\n    tag_296:\n    tag_295:\n      0x01\n      swap1\n      sub\n      dup2\n      dup2\n      swap1\n      0x00\n      mstore\n      keccak256(0x00, 0x20)\n      add\n      0x00\n      swap1\n      sstore\n      swap1\n      sstore\n        /* \"@openzeppelin/contracts/token/ERC721/extensions/ERC721Enumerable.sol\":5942:6932  {... */\n      pop\n      pop\n      pop\n        /* \"@openzeppelin/contracts/token/ERC721/extensions/ERC721Enumerable.sol\":5871:6932  function _removeTokenFromAllTokensEnumeration(uint256 tokenId) private {... */\n      pop\n      jump\t// out\n        /* \"@openzeppelin/contracts/token/ERC721/extensions/ERC721Enumerable.sol\":3437:3651  function _addTokenToOwnerEnumeration(address to, uint256 tokenId) private {... */\n    tag_216:\n        /* \"@openzeppelin/contracts/token/ERC721/extensions/ERC721Enumerable.sol\":3521:3535  uint256 length */\n      0x00\n        /* \"@openzeppelin/contracts/token/ERC721/extensions/ERC721Enumerable.sol\":3554:3555  1 */\n      0x01\n        /* \"@openzeppelin/contracts/token/ERC721/extensions/ERC721Enumerable.sol\":3538:3551  balanceOf(to) */\n      tag_300\n        /* \"@openzeppelin/contracts/token/ERC721/extensions/ERC721Enumerable.sol\":3548:3550  to */\n      dup5\n        /* \"@openzeppelin/contracts/token/ERC721/extensions/ERC721Enumerable.sol\":3538:3547  balanceOf */\n      tag_76\n        /* \"@openzeppelin/contracts/token/ERC721/extensions/ERC721Enumerable.sol\":3538:3551  balanceOf(to) */\n      jump\t// in\n    tag_300:\n        /* \"@openzeppelin/contracts/token/ERC721/extensions/ERC721Enumerable.sol\":3538:3555  balanceOf(to) - 1 */\n      tag_301\n      swap2\n      swap1\n      tag_288\n      jump\t// in\n    tag_301:\n        /* \"@openzeppelin/contracts/token/ERC721/extensions/ERC721Enumerable.sol\":3521:3555  uint256 length = balanceOf(to) - 1 */\n      swap1\n      pop\n        /* \"@openzeppelin/contracts/token/ERC721/extensions/ERC721Enumerable.sol\":3592:3599  tokenId */\n      dup2\n        /* \"@openzeppelin/contracts/token/ERC721/extensions/ERC721Enumerable.sol\":3565:3577  _ownedTokens */\n      0x06\n        /* \"@openzeppelin/contracts/token/ERC721/extensions/ERC721Enumerable.sol\":3565:3581  _ownedTokens[to] */\n      0x00\n        /* \"@openzeppelin/contracts/token/ERC721/extensions/ERC721Enumerable.sol\":3578:3580  to */\n      dup6\n        /* \"@openzeppelin/contracts/token/ERC721/extensions/ERC721Enumerable.sol\":3565:3581  _ownedTokens[to] */\n      0xffffffffffffffffffffffffffffffffffffffff\n      and\n      0xffffffffffffffffffffffffffffffffffffffff\n      and\n      dup2\n      mstore\n      0x20\n      add\n      swap1\n      dup2\n      mstore\n      0x20\n      add\n      0x00\n      keccak256\n        /* \"@openzeppelin/contracts/token/ERC721/extensions/ERC721Enumerable.sol\":3565:3589  _ownedTokens[to][length] */\n      0x00\n        /* \"@openzeppelin/contracts/token/ERC721/extensions/ERC721Enumerable.sol\":3582:3588  length */\n      dup4\n        /* \"@openzeppelin/contracts/token/ERC721/extensions/ERC721Enumerable.sol\":3565:3589  _ownedTokens[to][length] */\n      dup2\n      mstore\n      0x20\n      add\n      swap1\n      dup2\n      mstore\n      0x20\n      add\n      0x00\n      keccak256\n        /* \"@openzeppelin/contracts/token/ERC721/extensions/ERC721Enumerable.sol\":3565:3599  _ownedTokens[to][length] = tokenId */\n      dup2\n      swap1\n      sstore\n      pop\n        /* \"@openzeppelin/contracts/token/ERC721/extensions/ERC721Enumerable.sol\":3638:3644  length */\n      dup1\n        /* \"@openzeppelin/contracts/token/ERC721/extensions/ERC721Enumerable.sol\":3609:3626  _ownedTokensIndex */\n      0x07\n        /* \"@openzeppelin/contracts/token/ERC721/extensions/ERC721Enumerable.sol\":3609:3635  _ownedTokensIndex[tokenId] */\n      0x00\n        /* \"@openzeppelin/contracts/token/ERC721/extensions/ERC721Enumerable.sol\":3627:3634  tokenId */\n      dup5\n        /* \"@openzeppelin/contracts/token/ERC721/extensions/ERC721Enumerable.sol\":3609:3635  _ownedTokensIndex[tokenId] */\n      dup2\n      mstore\n      0x20\n      add\n      swap1\n      dup2\n      mstore\n      0x20\n      add\n      0x00\n      keccak256\n        /* \"@openzeppelin/contracts/token/ERC721/extensions/ERC721Enumerable.sol\":3609:3644  _ownedTokensIndex[tokenId] = length */\n      dup2\n      swap1\n      sstore\n      pop\n        /* \"@openzeppelin/contracts/token/ERC721/extensions/ERC721Enumerable.sol\":3511:3651  {... */\n      pop\n        /* \"@openzeppelin/contracts/token/ERC721/extensions/ERC721Enumerable.sol\":3437:3651  function _addTokenToOwnerEnumeration(address to, uint256 tokenId) private {... */\n      pop\n      pop\n      jump\t// out\n        /* \"@openzeppelin/contracts/utils/math/Math.sol\":12214:13130  function log10(uint256 value) internal pure returns (uint256) {... */\n    tag_250:\n        /* \"@openzeppelin/contracts/utils/math/Math.sol\":12267:12274  uint256 */\n      0x00\n        /* \"@openzeppelin/contracts/utils/math/Math.sol\":12286:12300  uint256 result */\n      dup1\n        /* \"@openzeppelin/contracts/utils/math/Math.sol\":12303:12304  0 */\n      0x00\n        /* \"@openzeppelin/contracts/utils/math/Math.sol\":12286:12304  uint256 result = 0 */\n      swap1\n      pop\n        /* \"@openzeppelin/contracts/utils/math/Math.sol\":12351:12359  10 ** 64 */\n      0x184f03e93ff9f4daa797ed6e38ed64bf6a1f010000000000000000\n        /* \"@openzeppelin/contracts/utils/math/Math.sol\":12342:12347  value */\n      dup4\n        /* \"@openzeppelin/contracts/utils/math/Math.sol\":12342:12359  value >= 10 ** 64 */\n      lt\n        /* \"@openzeppelin/contracts/utils/math/Math.sol\":12338:12441  if (value >= 10 ** 64) {... */\n      tag_303\n      jumpi\n        /* \"@openzeppelin/contracts/utils/math/Math.sol\":12388:12396  10 ** 64 */\n      0x184f03e93ff9f4daa797ed6e38ed64bf6a1f010000000000000000\n        /* \"@openzeppelin/contracts/utils/math/Math.sol\":12379:12396  value /= 10 ** 64 */\n      dup4\n      dup2\n      tag_304\n      jumpi\n      tag_305\n      tag_259\n      jump\t// in\n    tag_305:\n    tag_304:\n      div\n      swap3\n      pop\n        /* \"@openzeppelin/contracts/utils/math/Math.sol\":12424:12426  64 */\n      0x40\n        /* \"@openzeppelin/contracts/utils/math/Math.sol\":12414:12426  result += 64 */\n      dup2\n      add\n      swap1\n      pop\n        /* \"@openzeppelin/contracts/utils/math/Math.sol\":12338:12441  if (value >= 10 ** 64) {... */\n    tag_303:\n        /* \"@openzeppelin/contracts/utils/math/Math.sol\":12467:12475  10 ** 32 */\n      0x04ee2d6d415b85acef8100000000\n        /* \"@openzeppelin/contracts/utils/math/Math.sol\":12458:12463  value */\n      dup4\n        /* \"@openzeppelin/contracts/utils/math/Math.sol\":12458:12475  value >= 10 ** 32 */\n      lt\n        /* \"@openzeppelin/contracts/utils/math/Math.sol\":12454:12557  if (value >= 10 ** 32) {... */\n      tag_306\n      jumpi\n        /* \"@openzeppelin/contracts/utils/math/Math.sol\":12504:12512  10 ** 32 */\n      0x04ee2d6d415b85acef8100000000\n        /* \"@openzeppelin/contracts/utils/math/Math.sol\":12495:12512  value /= 10 ** 32 */\n      dup4\n      dup2\n      tag_307\n      jumpi\n      tag_308\n      tag_259\n      jump\t// in\n    tag_308:\n    tag_307:\n      div\n      swap3\n      pop\n        /* \"@openzeppelin/contracts/utils/math/Math.sol\":12540:12542  32 */\n      0x20\n        /* \"@openzeppelin/contracts/utils/math/Math.sol\":12530:12542  result += 32 */\n      dup2\n      add\n      swap1\n      pop\n        /* \"@openzeppelin/contracts/utils/math/Math.sol\":12454:12557  if (value >= 10 ** 32) {... */\n    tag_306:\n        /* \"@openzeppelin/contracts/utils/math/Math.sol\":12583:12591  10 ** 16 */\n      0x2386f26fc10000\n        /* \"@openzeppelin/contracts/utils/math/Math.sol\":12574:12579  value */\n      dup4\n        /* \"@openzeppelin/contracts/utils/math/Math.sol\":12574:12591  value >= 10 ** 16 */\n      lt\n        /* \"@openzeppelin/contracts/utils/math/Math.sol\":12570:12673  if (value >= 10 ** 16) {... */\n      tag_309\n      jumpi\n        /* \"@openzeppelin/contracts/utils/math/Math.sol\":12620:12628  10 ** 16 */\n      0x2386f26fc10000\n        /* \"@openzeppelin/contracts/utils/math/Math.sol\":12611:12628  value /= 10 ** 16 */\n      dup4\n      dup2\n      tag_310\n      jumpi\n      tag_311\n      tag_259\n      jump\t// in\n    tag_311:\n    tag_310:\n      div\n      swap3\n      pop\n        /* \"@openzeppelin/contracts/utils/math/Math.sol\":12656:12658  16 */\n      0x10\n        /* \"@openzeppelin/contracts/utils/math/Math.sol\":12646:12658  result += 16 */\n      dup2\n      add\n      swap1\n      pop\n        /* \"@openzeppelin/contracts/utils/math/Math.sol\":12570:12673  if (value >= 10 ** 16) {... */\n    tag_309:\n        /* \"@openzeppelin/contracts/utils/math/Math.sol\":12699:12706  10 ** 8 */\n      0x05f5e100\n        /* \"@openzeppelin/contracts/utils/math/Math.sol\":12690:12695  value */\n      dup4\n        /* \"@openzeppelin/contracts/utils/math/Math.sol\":12690:12706  value >= 10 ** 8 */\n      lt\n        /* \"@openzeppelin/contracts/utils/math/Math.sol\":12686:12786  if (value >= 10 ** 8) {... */\n      tag_312\n      jumpi\n        /* \"@openzeppelin/contracts/utils/math/Math.sol\":12735:12742  10 ** 8 */\n      0x05f5e100\n        /* \"@openzeppelin/contracts/utils/math/Math.sol\":12726:12742  value /= 10 ** 8 */\n      dup4\n      dup2\n      tag_313\n      jumpi\n      tag_314\n      tag_259\n      jump\t// in\n    tag_314:\n    tag_313:\n      div\n      swap3\n      pop\n        /* \"@openzeppelin/contracts/utils/math/Math.sol\":12770:12771  8 */\n      0x08\n        /* \"@openzeppelin/contracts/utils/math/Math.sol\":12760:12771  result += 8 */\n      dup2\n      add\n      swap1\n      pop\n        /* \"@openzeppelin/contracts/utils/math/Math.sol\":12686:12786  if (value >= 10 ** 8) {... */\n    tag_312:\n        /* \"@openzeppelin/contracts/utils/math/Math.sol\":12812:12819  10 ** 4 */\n      0x2710\n        /* \"@openzeppelin/contracts/utils/math/Math.sol\":12803:12808  value */\n      dup4\n        /* \"@openzeppelin/contracts/utils/math/Math.sol\":12803:12819  value >= 10 ** 4 */\n      lt\n        /* \"@openzeppelin/contracts/utils/math/Math.sol\":12799:12899  if (value >= 10 ** 4) {... */\n      tag_315\n      jumpi\n        /* \"@openzeppelin/contracts/utils/math/Math.sol\":12848:12855  10 ** 4 */\n      0x2710\n        /* \"@openzeppelin/contracts/utils/math/Math.sol\":12839:12855  value /= 10 ** 4 */\n      dup4\n      dup2\n      tag_316\n      jumpi\n      tag_317\n      tag_259\n      jump\t// in\n    tag_317:\n    tag_316:\n      div\n      swap3\n      pop\n        /* \"@openzeppelin/contracts/utils/math/Math.sol\":12883:12884  4 */\n      0x04\n        /* \"@openzeppelin/contracts/utils/math/Math.sol\":12873:12884  result += 4 */\n      dup2\n      add\n      swap1\n      pop\n        /* \"@openzeppelin/contracts/utils/math/Math.sol\":12799:12899  if (value >= 10 ** 4) {... */\n    tag_315:\n        /* \"@openzeppelin/contracts/utils/math/Math.sol\":12925:12932  10 ** 2 */\n      0x64\n        /* \"@openzeppelin/contracts/utils/math/Math.sol\":12916:12921  value */\n      dup4\n        /* \"@openzeppelin/contracts/utils/math/Math.sol\":12916:12932  value >= 10 ** 2 */\n      lt\n        /* \"@openzeppelin/contracts/utils/math/Math.sol\":12912:13012  if (value >= 10 ** 2) {... */\n      tag_318\n      jumpi\n        /* \"@openzeppelin/contracts/utils/math/Math.sol\":12961:12968  10 ** 2 */\n      0x64\n        /* \"@openzeppelin/contracts/utils/math/Math.sol\":12952:12968  value /= 10 ** 2 */\n      dup4\n      dup2\n      tag_319\n      jumpi\n      tag_320\n      tag_259\n      jump\t// in\n    tag_320:\n    tag_319:\n      div\n      swap3\n      pop\n        /* \"@openzeppelin/contracts/utils/math/Math.sol\":12996:12997  2 */\n      0x02\n        /* \"@openzeppelin/contracts/utils/math/Math.sol\":12986:12997  result += 2 */\n      dup2\n      add\n      swap1\n      pop\n        /* \"@openzeppelin/contracts/utils/math/Math.sol\":12912:13012  if (value >= 10 ** 2) {... */\n    tag_318:\n        /* \"@openzeppelin/contracts/utils/math/Math.sol\":13038:13045  10 ** 1 */\n      0x0a\n        /* \"@openzeppelin/contracts/utils/math/Math.sol\":13029:13034  value */\n      dup4\n        /* \"@openzeppelin/contracts/utils/math/Math.sol\":13029:13045  value >= 10 ** 1 */\n      lt\n        /* \"@openzeppelin/contracts/utils/math/Math.sol\":13025:13091  if (value >= 10 ** 1) {... */\n      tag_321\n      jumpi\n        /* \"@openzeppelin/contracts/utils/math/Math.sol\":13075:13076  1 */\n      0x01\n        /* \"@openzeppelin/contracts/utils/math/Math.sol\":13065:13076  result += 1 */\n      dup2\n      add\n      swap1\n      pop\n        /* \"@openzeppelin/contracts/utils/math/Math.sol\":13025:13091  if (value >= 10 ** 1) {... */\n    tag_321:\n        /* \"@openzeppelin/contracts/utils/math/Math.sol\":13117:13123  result */\n      dup1\n        /* \"@openzeppelin/contracts/utils/math/Math.sol\":13110:13123  return result */\n      swap2\n      pop\n      pop\n        /* \"@openzeppelin/contracts/utils/math/Math.sol\":12214:13130  function log10(uint256 value) internal pure returns (uint256) {... */\n      swap2\n      swap1\n      pop\n      jump\t// out\n        /* \"@openzeppelin/contracts/token/ERC721/ERC721.sol\":7082:7450  function _checkAuthorized(address owner, address spender, uint256 tokenId) internal view virtual {... */\n    tag_277:\n        /* \"@openzeppelin/contracts/token/ERC721/ERC721.sol\":7194:7232  _isAuthorized(owner, spender, tokenId) */\n      tag_323\n        /* \"@openzeppelin/contracts/token/ERC721/ERC721.sol\":7208:7213  owner */\n      dup4\n        /* \"@openzeppelin/contracts/token/ERC721/ERC721.sol\":7215:7222  spender */\n      dup4\n        /* \"@openzeppelin/contracts/token/ERC721/ERC721.sol\":7224:7231  tokenId */\n      dup4\n        /* \"@openzeppelin/contracts/token/ERC721/ERC721.sol\":7194:7207  _isAuthorized */\n      tag_324\n        /* \"@openzeppelin/contracts/token/ERC721/ERC721.sol\":7194:7232  _isAuthorized(owner, spender, tokenId) */\n      jump\t// in\n    tag_323:\n        /* \"@openzeppelin/contracts/token/ERC721/ERC721.sol\":7189:7444  if (!_isAuthorized(owner, spender, tokenId)) {... */\n      tag_325\n      jumpi\n        /* \"@openzeppelin/contracts/token/ERC721/ERC721.sol\":7269:7270  0 */\n      0x00\n        /* \"@openzeppelin/contracts/token/ERC721/ERC721.sol\":7252:7271  owner == address(0) */\n      0xffffffffffffffffffffffffffffffffffffffff\n      and\n        /* \"@openzeppelin/contracts/token/ERC721/ERC721.sol\":7252:7257  owner */\n      dup4\n        /* \"@openzeppelin/contracts/token/ERC721/ERC721.sol\":7252:7271  owner == address(0) */\n      0xffffffffffffffffffffffffffffffffffffffff\n      and\n      sub\n        /* \"@openzeppelin/contracts/token/ERC721/ERC721.sol\":7248:7434  if (owner == address(0)) {... */\n      tag_326\n      jumpi\n        /* \"@openzeppelin/contracts/token/ERC721/ERC721.sol\":7321:7328  tokenId */\n      dup1\n        /* \"@openzeppelin/contracts/token/ERC721/ERC721.sol\":7298:7329  ERC721NonexistentToken(tokenId) */\n      mload(0x40)\n      0x7e27328900000000000000000000000000000000000000000000000000000000\n      dup2\n      mstore\n      0x04\n      add\n      tag_327\n      swap2\n      swap1\n      tag_47\n      jump\t// in\n    tag_327:\n      mload(0x40)\n      dup1\n      swap2\n      sub\n      swap1\n      revert\n        /* \"@openzeppelin/contracts/token/ERC721/ERC721.sol\":7248:7434  if (owner == address(0)) {... */\n    tag_326:\n        /* \"@openzeppelin/contracts/token/ERC721/ERC721.sol\":7402:7409  spender */\n      dup2\n        /* \"@openzeppelin/contracts/token/ERC721/ERC721.sol\":7411:7418  tokenId */\n      dup2\n        /* \"@openzeppelin/contracts/token/ERC721/ERC721.sol\":7375:7419  ERC721InsufficientApproval(spender, tokenId) */\n      mload(0x40)\n      0x177e802f00000000000000000000000000000000000000000000000000000000\n      dup2\n      mstore\n      0x04\n      add\n      tag_329\n      swap3\n      swap2\n      swap1\n      tag_133\n      jump\t// in\n    tag_329:\n      mload(0x40)\n      dup1\n      swap2\n      sub\n      swap1\n      revert\n        /* \"@openzeppelin/contracts/token/ERC721/ERC721.sol\":7189:7444  if (!_isAuthorized(owner, spender, tokenId)) {... */\n    tag_325:\n        /* \"@openzeppelin/contracts/token/ERC721/ERC721.sol\":7082:7450  function _checkAuthorized(address owner, address spender, uint256 tokenId) internal view virtual {... */\n      pop\n      pop\n      pop\n      jump\t// out\n        /* \"@openzeppelin/contracts/token/ERC721/ERC721.sol\":6376:6648  function _isAuthorized(address owner, address spender, uint256 tokenId) internal view virtual returns (bool) {... */\n    tag_324:\n        /* \"@openzeppelin/contracts/token/ERC721/ERC721.sol\":6479:6483  bool */\n      0x00\n        /* \"@openzeppelin/contracts/token/ERC721/ERC721.sol\":6533:6534  0 */\n      dup1\n        /* \"@openzeppelin/contracts/token/ERC721/ERC721.sol\":6514:6535  spender != address(0) */\n      0xffffffffffffffffffffffffffffffffffffffff\n      and\n        /* \"@openzeppelin/contracts/token/ERC721/ERC721.sol\":6514:6521  spender */\n      dup4\n        /* \"@openzeppelin/contracts/token/ERC721/ERC721.sol\":6514:6535  spender != address(0) */\n      0xffffffffffffffffffffffffffffffffffffffff\n      and\n      eq\n      iszero\n        /* \"@openzeppelin/contracts/token/ERC721/ERC721.sol\":6514:6641  spender != address(0) &&... */\n      dup1\n      iszero\n      tag_331\n      jumpi\n      pop\n        /* \"@openzeppelin/contracts/token/ERC721/ERC721.sol\":6561:6568  spender */\n      dup3\n        /* \"@openzeppelin/contracts/token/ERC721/ERC721.sol\":6552:6568  owner == spender */\n      0xffffffffffffffffffffffffffffffffffffffff\n      and\n        /* \"@openzeppelin/contracts/token/ERC721/ERC721.sol\":6552:6557  owner */\n      dup5\n        /* \"@openzeppelin/contracts/token/ERC721/ERC721.sol\":6552:6568  owner == spender */\n      0xffffffffffffffffffffffffffffffffffffffff\n      and\n      eq\n        /* \"@openzeppelin/contracts/token/ERC721/ERC721.sol\":6552:6604  owner == spender || isApprovedForAll(owner, spender) */\n      dup1\n      tag_332\n      jumpi\n      pop\n        /* \"@openzeppelin/contracts/token/ERC721/ERC721.sol\":6572:6604  isApprovedForAll(owner, spender) */\n      tag_333\n        /* \"@openzeppelin/contracts/token/ERC721/ERC721.sol\":6589:6594  owner */\n      dup5\n        /* \"@openzeppelin/contracts/token/ERC721/ERC721.sol\":6596:6603  spender */\n      dup5\n        /* \"@openzeppelin/contracts/token/ERC721/ERC721.sol\":6572:6588  isApprovedForAll */\n      tag_96\n        /* \"@openzeppelin/contracts/token/ERC721/ERC721.sol\":6572:6604  isApprovedForAll(owner, spender) */\n      jump\t// in\n    tag_333:\n        /* \"@openzeppelin/contracts/token/ERC721/ERC721.sol\":6552:6604  owner == spender || isApprovedForAll(owner, spender) */\n    tag_332:\n        /* \"@openzeppelin/contracts/token/ERC721/ERC721.sol\":6552:6640  owner == spender || isApprovedForAll(owner, spender) || _getApproved(tokenId) == spender */\n      dup1\n      tag_334\n      jumpi\n      pop\n        /* \"@openzeppelin/contracts/token/ERC721/ERC721.sol\":6633:6640  spender */\n      dup3\n        /* \"@openzeppelin/contracts/token/ERC721/ERC721.sol\":6608:6640  _getApproved(tokenId) == spender */\n      0xffffffffffffffffffffffffffffffffffffffff\n      and\n        /* \"@openzeppelin/contracts/token/ERC721/ERC721.sol\":6608:6629  _getApproved(tokenId) */\n      tag_335\n        /* \"@openzeppelin/contracts/token/ERC721/ERC721.sol\":6621:6628  tokenId */\n      dup4\n        /* \"@openzeppelin/contracts/token/ERC721/ERC721.sol\":6608:6620  _getApproved */\n      tag_113\n        /* \"@openzeppelin/contracts/token/ERC721/ERC721.sol\":6608:6629  _getApproved(tokenId) */\n      jump\t// in\n    tag_335:\n        /* \"@openzeppelin/contracts/token/ERC721/ERC721.sol\":6608:6640  _getApproved(tokenId) == spender */\n      0xffffffffffffffffffffffffffffffffffffffff\n      and\n      eq\n        /* \"@openzeppelin/contracts/token/ERC721/ERC721.sol\":6552:6640  owner == spender || isApprovedForAll(owner, spender) || _getApproved(tokenId) == spender */\n    tag_334:\n        /* \"@openzeppelin/contracts/token/ERC721/ERC721.sol\":6514:6641  spender != address(0) &&... */\n    tag_331:\n        /* \"@openzeppelin/contracts/token/ERC721/ERC721.sol\":6495:6641  return... */\n      swap1\n      pop\n        /* \"@openzeppelin/contracts/token/ERC721/ERC721.sol\":6376:6648  function _isAuthorized(address owner, address spender, uint256 tokenId) internal view virtual returns (bool) {... */\n      swap4\n      swap3\n      pop\n      pop\n      pop\n      jump\t// out\n        /* \"#utility.yul\":7:82   */\n    tag_336:\n        /* \"#utility.yul\":40:46   */\n      0x00\n        /* \"#utility.yul\":73:75   */\n      0x40\n        /* \"#utility.yul\":67:76   */\n      mload\n        /* \"#utility.yul\":57:76   */\n      swap1\n      pop\n        /* \"#utility.yul\":7:82   */\n      swap1\n      jump\t// out\n        /* \"#utility.yul\":88:205   */\n    tag_337:\n        /* \"#utility.yul\":197:198   */\n      0x00\n        /* \"#utility.yul\":194:195   */\n      dup1\n        /* \"#utility.yul\":187:199   */\n      revert\n        /* \"#utility.yul\":211:328   */\n    tag_338:\n        /* \"#utility.yul\":320:321   */\n      0x00\n        /* \"#utility.yul\":317:318   */\n      dup1\n        /* \"#utility.yul\":310:322   */\n      revert\n        /* \"#utility.yul\":334:483   */\n    tag_339:\n        /* \"#utility.yul\":370:377   */\n      0x00\n        /* \"#utility.yul\":410:476   */\n      0xffffffff00000000000000000000000000000000000000000000000000000000\n        /* \"#utility.yul\":403:408   */\n      dup3\n        /* \"#utility.yul\":399:477   */\n      and\n        /* \"#utility.yul\":388:477   */\n      swap1\n      pop\n        /* \"#utility.yul\":334:483   */\n      swap2\n      swap1\n      pop\n      jump\t// out\n        /* \"#utility.yul\":489:609   */\n    tag_340:\n        /* \"#utility.yul\":561:584   */\n      tag_388\n        /* \"#utility.yul\":578:583   */\n      dup2\n        /* \"#utility.yul\":561:584   */\n      tag_339\n      jump\t// in\n    tag_388:\n        /* \"#utility.yul\":554:559   */\n      dup2\n        /* \"#utility.yul\":551:585   */\n      eq\n        /* \"#utility.yul\":541:603   */\n      tag_389\n      jumpi\n        /* \"#utility.yul\":599:600   */\n      0x00\n        /* \"#utility.yul\":596:597   */\n      dup1\n        /* \"#utility.yul\":589:601   */\n      revert\n        /* \"#utility.yul\":541:603   */\n    tag_389:\n        /* \"#utility.yul\":489:609   */\n      pop\n      jump\t// out\n        /* \"#utility.yul\":615:752   */\n    tag_341:\n        /* \"#utility.yul\":660:665   */\n      0x00\n        /* \"#utility.yul\":698:704   */\n      dup2\n        /* \"#utility.yul\":685:705   */\n      calldataload\n        /* \"#utility.yul\":676:705   */\n      swap1\n      pop\n        /* \"#utility.yul\":714:746   */\n      tag_391\n        /* \"#utility.yul\":740:745   */\n      dup2\n        /* \"#utility.yul\":714:746   */\n      tag_340\n      jump\t// in\n    tag_391:\n        /* \"#utility.yul\":615:752   */\n      swap3\n      swap2\n      pop\n      pop\n      jump\t// out\n        /* \"#utility.yul\":758:1085   */\n    tag_26:\n        /* \"#utility.yul\":816:822   */\n      0x00\n        /* \"#utility.yul\":865:867   */\n      0x20\n        /* \"#utility.yul\":853:862   */\n      dup3\n        /* \"#utility.yul\":844:851   */\n      dup5\n        /* \"#utility.yul\":840:863   */\n      sub\n        /* \"#utility.yul\":836:868   */\n      slt\n        /* \"#utility.yul\":833:952   */\n      iszero\n      tag_393\n      jumpi\n        /* \"#utility.yul\":871:950   */\n      tag_394\n      tag_337\n      jump\t// in\n    tag_394:\n        /* \"#utility.yul\":833:952   */\n    tag_393:\n        /* \"#utility.yul\":991:992   */\n      0x00\n        /* \"#utility.yul\":1016:1068   */\n      tag_395\n        /* \"#utility.yul\":1060:1067   */\n      dup5\n        /* \"#utility.yul\":1051:1057   */\n      dup3\n        /* \"#utility.yul\":1040:1049   */\n      dup6\n        /* \"#utility.yul\":1036:1058   */\n      add\n        /* \"#utility.yul\":1016:1068   */\n      tag_341\n      jump\t// in\n    tag_395:\n        /* \"#utility.yul\":1006:1068   */\n      swap2\n      pop\n        /* \"#utility.yul\":962:1078   */\n      pop\n        /* \"#utility.yul\":758:1085   */\n      swap3\n      swap2\n      pop\n      pop\n      jump\t// out\n        /* \"#utility.yul\":1091:1181   */\n    tag_342:\n        /* \"#utility.yul\":1125:1132   */\n      0x00\n        /* \"#utility.yul\":1168:1173   */\n      dup2\n        /* \"#utility.yul\":1161:1174   */\n      iszero\n        /* \"#utility.yul\":1154:1175   */\n      iszero\n        /* \"#utility.yul\":1143:1175   */\n      swap1\n      pop\n        /* \"#utility.yul\":1091:1181   */\n      swap2\n      swap1\n      pop\n      jump\t// out\n        /* \"#utility.yul\":1187:1296   */\n    tag_343:\n        /* \"#utility.yul\":1268:1289   */\n      tag_398\n        /* \"#utility.yul\":1283:1288   */\n      dup2\n        /* \"#utility.yul\":1268:1289   */\n      tag_342\n      jump\t// in\n    tag_398:\n        /* \"#utility.yul\":1263:1266   */\n      dup3\n        /* \"#utility.yul\":1256:1290   */\n      mstore\n        /* \"#utility.yul\":1187:1296   */\n      pop\n      pop\n      jump\t// out\n        /* \"#utility.yul\":1302:1512   */\n    tag_29:\n        /* \"#utility.yul\":1389:1393   */\n      0x00\n        /* \"#utility.yul\":1427:1429   */\n      0x20\n        /* \"#utility.yul\":1416:1425   */\n      dup3\n        /* \"#utility.yul\":1412:1430   */\n      add\n        /* \"#utility.yul\":1404:1430   */\n      swap1\n      pop\n        /* \"#utility.yul\":1440:1505   */\n      tag_400\n        /* \"#utility.yul\":1502:1503   */\n      0x00\n        /* \"#utility.yul\":1491:1500   */\n      dup4\n        /* \"#utility.yul\":1487:1504   */\n      add\n        /* \"#utility.yul\":1478:1484   */\n      dup5\n        /* \"#utility.yul\":1440:1505   */\n      tag_343\n      jump\t// in\n    tag_400:\n        /* \"#utility.yul\":1302:1512   */\n      swap3\n      swap2\n      pop\n      pop\n      jump\t// out\n        /* \"#utility.yul\":1518:1617   */\n    tag_344:\n        /* \"#utility.yul\":1570:1576   */\n      0x00\n        /* \"#utility.yul\":1604:1609   */\n      dup2\n        /* \"#utility.yul\":1598:1610   */\n      mload\n        /* \"#utility.yul\":1588:1610   */\n      swap1\n      pop\n        /* \"#utility.yul\":1518:1617   */\n      swap2\n      swap1\n      pop\n      jump\t// out\n        /* \"#utility.yul\":1623:1792   */\n    tag_345:\n        /* \"#utility.yul\":1707:1718   */\n      0x00\n        /* \"#utility.yul\":1741:1747   */\n      dup3\n        /* \"#utility.yul\":1736:1739   */\n      dup3\n        /* \"#utility.yul\":1729:1748   */\n      mstore\n        /* \"#utility.yul\":1781:1785   */\n      0x20\n        /* \"#utility.yul\":1776:1779   */\n      dup3\n        /* \"#utility.yul\":1772:1786   */\n      add\n        /* \"#utility.yul\":1757:1786   */\n      swap1\n      pop\n        /* \"#utility.yul\":1623:1792   */\n      swap3\n      swap2\n      pop\n      pop\n      jump\t// out\n        /* \"#utility.yul\":1798:2046   */\n    tag_346:\n        /* \"#utility.yul\":1880:1881   */\n      0x00\n        /* \"#utility.yul\":1890:2003   */\n    tag_404:\n        /* \"#utility.yul\":1904:1910   */\n      dup4\n        /* \"#utility.yul\":1901:1902   */\n      dup2\n        /* \"#utility.yul\":1898:1911   */\n      lt\n        /* \"#utility.yul\":1890:2003   */\n      iszero\n      tag_406\n      jumpi\n        /* \"#utility.yul\":1989:1990   */\n      dup1\n        /* \"#utility.yul\":1984:1987   */\n      dup3\n        /* \"#utility.yul\":1980:1991   */\n      add\n        /* \"#utility.yul\":1974:1992   */\n      mload\n        /* \"#utility.yul\":1970:1971   */\n      dup2\n        /* \"#utility.yul\":1965:1968   */\n      dup5\n        /* \"#utility.yul\":1961:1972   */\n      add\n        /* \"#utility.yul\":1954:1993   */\n      mstore\n        /* \"#utility.yul\":1926:1928   */\n      0x20\n        /* \"#utility.yul\":1923:1924   */\n      dup2\n        /* \"#utility.yul\":1919:1929   */\n      add\n        /* \"#utility.yul\":1914:1929   */\n      swap1\n      pop\n        /* \"#utility.yul\":1890:2003   */\n      jump(tag_404)\n    tag_406:\n        /* \"#utility.yul\":2037:2038   */\n      0x00\n        /* \"#utility.yul\":2028:2034   */\n      dup5\n        /* \"#utility.yul\":2023:2026   */\n      dup5\n        /* \"#utility.yul\":2019:2035   */\n      add\n        /* \"#utility.yul\":2012:2039   */\n      mstore\n        /* \"#utility.yul\":1860:2046   */\n      pop\n        /* \"#utility.yul\":1798:2046   */\n      pop\n      pop\n      pop\n      jump\t// out\n        /* \"#utility.yul\":2052:2154   */\n    tag_347:\n        /* \"#utility.yul\":2093:2099   */\n      0x00\n        /* \"#utility.yul\":2144:2146   */\n      0x1f\n        /* \"#utility.yul\":2140:2147   */\n      not\n        /* \"#utility.yul\":2135:2137   */\n      0x1f\n        /* \"#utility.yul\":2128:2133   */\n      dup4\n        /* \"#utility.yul\":2124:2138   */\n      add\n        /* \"#utility.yul\":2120:2148   */\n      and\n        /* \"#utility.yul\":2110:2148   */\n      swap1\n      pop\n        /* \"#utility.yul\":2052:2154   */\n      swap2\n      swap1\n      pop\n      jump\t// out\n        /* \"#utility.yul\":2160:2537   */\n    tag_348:\n        /* \"#utility.yul\":2248:2251   */\n      0x00\n        /* \"#utility.yul\":2276:2315   */\n      tag_409\n        /* \"#utility.yul\":2309:2314   */\n      dup3\n        /* \"#utility.yul\":2276:2315   */\n      tag_344\n      jump\t// in\n    tag_409:\n        /* \"#utility.yul\":2331:2402   */\n      tag_410\n        /* \"#utility.yul\":2395:2401   */\n      dup2\n        /* \"#utility.yul\":2390:2393   */\n      dup6\n        /* \"#utility.yul\":2331:2402   */\n      tag_345\n      jump\t// in\n    tag_410:\n        /* \"#utility.yul\":2324:2402   */\n      swap4\n      pop\n        /* \"#utility.yul\":2411:2476   */\n      tag_411\n        /* \"#utility.yul\":2469:2475   */\n      dup2\n        /* \"#utility.yul\":2464:2467   */\n      dup6\n        /* \"#utility.yul\":2457:2461   */\n      0x20\n        /* \"#utility.yul\":2450:2455   */\n      dup7\n        /* \"#utility.yul\":2446:2462   */\n      add\n        /* \"#utility.yul\":2411:2476   */\n      tag_346\n      jump\t// in\n    tag_411:\n        /* \"#utility.yul\":2501:2530   */\n      tag_412\n        /* \"#utility.yul\":2523:2529   */\n      dup2\n        /* \"#utility.yul\":2501:2530   */\n      tag_347\n      jump\t// in\n    tag_412:\n        /* \"#utility.yul\":2496:2499   */\n      dup5\n        /* \"#utility.yul\":2492:2531   */\n      add\n        /* \"#utility.yul\":2485:2531   */\n      swap2\n      pop\n        /* \"#utility.yul\":2252:2537   */\n      pop\n        /* \"#utility.yul\":2160:2537   */\n      swap3\n      swap2\n      pop\n      pop\n      jump\t// out\n        /* \"#utility.yul\":2543:2856   */\n    tag_33:\n        /* \"#utility.yul\":2656:2660   */\n      0x00\n        /* \"#utility.yul\":2694:2696   */\n      0x20\n        /* \"#utility.yul\":2683:2692   */\n      dup3\n        /* \"#utility.yul\":2679:2697   */\n      add\n        /* \"#utility.yul\":2671:2697   */\n      swap1\n      pop\n        /* \"#utility.yul\":2743:2752   */\n      dup2\n        /* \"#utility.yul\":2737:2741   */\n      dup2\n        /* \"#utility.yul\":2733:2753   */\n      sub\n        /* \"#utility.yul\":2729:2730   */\n      0x00\n        /* \"#utility.yul\":2718:2727   */\n      dup4\n        /* \"#utility.yul\":2714:2731   */\n      add\n        /* \"#utility.yul\":2707:2754   */\n      mstore\n        /* \"#utility.yul\":2771:2849   */\n      tag_414\n        /* \"#utility.yul\":2844:2848   */\n      dup2\n        /* \"#utility.yul\":2835:2841   */\n      dup5\n        /* \"#utility.yul\":2771:2849   */\n      tag_348\n      jump\t// in\n    tag_414:\n        /* \"#utility.yul\":2763:2849   */\n      swap1\n      pop\n        /* \"#utility.yul\":2543:2856   */\n      swap3\n      swap2\n      pop\n      pop\n      jump\t// out\n        /* \"#utility.yul\":2862:2939   */\n    tag_349:\n        /* \"#utility.yul\":2899:2906   */\n      0x00\n        /* \"#utility.yul\":2928:2933   */\n      dup2\n        /* \"#utility.yul\":2917:2933   */\n      swap1\n      pop\n        /* \"#utility.yul\":2862:2939   */\n      swap2\n      swap1\n      pop\n      jump\t// out\n        /* \"#utility.yul\":2945:3067   */\n    tag_350:\n        /* \"#utility.yul\":3018:3042   */\n      tag_417\n        /* \"#utility.yul\":3036:3041   */\n      dup2\n        /* \"#utility.yul\":3018:3042   */\n      tag_349\n      jump\t// in\n    tag_417:\n        /* \"#utility.yul\":3011:3016   */\n      dup2\n        /* \"#utility.yul\":3008:3043   */\n      eq\n        /* \"#utility.yul\":2998:3061   */\n      tag_418\n      jumpi\n        /* \"#utility.yul\":3057:3058   */\n      0x00\n        /* \"#utility.yul\":3054:3055   */\n      dup1\n        /* \"#utility.yul\":3047:3059   */\n      revert\n        /* \"#utility.yul\":2998:3061   */\n    tag_418:\n        /* \"#utility.yul\":2945:3067   */\n      pop\n      jump\t// out\n        /* \"#utility.yul\":3073:3212   */\n    tag_351:\n        /* \"#utility.yul\":3119:3124   */\n      0x00\n        /* \"#utility.yul\":3157:3163   */\n      dup2\n        /* \"#utility.yul\":3144:3164   */\n      calldataload\n        /* \"#utility.yul\":3135:3164   */\n      swap1\n      pop\n        /* \"#utility.yul\":3173:3206   */\n      tag_420\n        /* \"#utility.yul\":3200:3205   */\n      dup2\n        /* \"#utility.yul\":3173:3206   */\n      tag_350\n      jump\t// in\n    tag_420:\n        /* \"#utility.yul\":3073:3212   */\n      swap3\n      swap2\n      pop\n      pop\n      jump\t// out\n        /* \"#utility.yul\":3218:3547   */\n    tag_36:\n        /* \"#utility.yul\":3277:3283   */\n      0x00\n        /* \"#utility.yul\":3326:3328   */\n      0x20\n        /* \"#utility.yul\":3314:3323   */\n      dup3\n        /* \"#utility.yul\":3305:3312   */\n      dup5\n        /* \"#utility.yul\":3301:3324   */\n      sub\n        /* \"#utility.yul\":3297:3329   */\n      slt\n        /* \"#utility.yul\":3294:3413   */\n      iszero\n      tag_422\n      jumpi\n        /* \"#utility.yul\":3332:3411   */\n      tag_423\n      tag_337\n      jump\t// in\n    tag_423:\n        /* \"#utility.yul\":3294:3413   */\n    tag_422:\n        /* \"#utility.yul\":3452:3453   */\n      0x00\n        /* \"#utility.yul\":3477:3530   */\n      tag_424\n        /* \"#utility.yul\":3522:3529   */\n      dup5\n        /* \"#utility.yul\":3513:3519   */\n      dup3\n        /* \"#utility.yul\":3502:3511   */\n      dup6\n        /* \"#utility.yul\":3498:3520   */\n      add\n        /* \"#utility.yul\":3477:3530   */\n      tag_351\n      jump\t// in\n    tag_424:\n        /* \"#utility.yul\":3467:3530   */\n      swap2\n      pop\n        /* \"#utility.yul\":3423:3540   */\n      pop\n        /* \"#utility.yul\":3218:3547   */\n      swap3\n      swap2\n      pop\n      pop\n      jump\t// out\n        /* \"#utility.yul\":3553:3679   */\n    tag_352:\n        /* \"#utility.yul\":3590:3597   */\n      0x00\n        /* \"#utility.yul\":3630:3672   */\n      0xffffffffffffffffffffffffffffffffffffffff\n        /* \"#utility.yul\":3623:3628   */\n      dup3\n        /* \"#utility.yul\":3619:3673   */\n      and\n        /* \"#utility.yul\":3608:3673   */\n      swap1\n      pop\n        /* \"#utility.yul\":3553:3679   */\n      swap2\n      swap1\n      pop\n      jump\t// out\n        /* \"#utility.yul\":3685:3781   */\n    tag_353:\n        /* \"#utility.yul\":3722:3729   */\n      0x00\n        /* \"#utility.yul\":3751:3775   */\n      tag_427\n        /* \"#utility.yul\":3769:3774   */\n      dup3\n        /* \"#utility.yul\":3751:3775   */\n      tag_352\n      jump\t// in\n    tag_427:\n        /* \"#utility.yul\":3740:3775   */\n      swap1\n      pop\n        /* \"#utility.yul\":3685:3781   */\n      swap2\n      swap1\n      pop\n      jump\t// out\n        /* \"#utility.yul\":3787:3905   */\n    tag_354:\n        /* \"#utility.yul\":3874:3898   */\n      tag_429\n        /* \"#utility.yul\":3892:3897   */\n      dup2\n        /* \"#utility.yul\":3874:3898   */\n      tag_353\n      jump\t// in\n    tag_429:\n        /* \"#utility.yul\":3869:3872   */\n      dup3\n        /* \"#utility.yul\":3862:3899   */\n      mstore\n        /* \"#utility.yul\":3787:3905   */\n      pop\n      pop\n      jump\t// out\n        /* \"#utility.yul\":3911:4133   */\n    tag_39:\n        /* \"#utility.yul\":4004:4008   */\n      0x00\n        /* \"#utility.yul\":4042:4044   */\n      0x20\n        /* \"#utility.yul\":4031:4040   */\n      dup3\n        /* \"#utility.yul\":4027:4045   */\n      add\n        /* \"#utility.yul\":4019:4045   */\n      swap1\n      pop\n        /* \"#utility.yul\":4055:4126   */\n      tag_431\n        /* \"#utility.yul\":4123:4124   */\n      0x00\n        /* \"#utility.yul\":4112:4121   */\n      dup4\n        /* \"#utility.yul\":4108:4125   */\n      add\n        /* \"#utility.yul\":4099:4105   */\n      dup5\n        /* \"#utility.yul\":4055:4126   */\n      tag_354\n      jump\t// in\n    tag_431:\n        /* \"#utility.yul\":3911:4133   */\n      swap3\n      swap2\n      pop\n      pop\n      jump\t// out\n        /* \"#utility.yul\":4139:4261   */\n    tag_355:\n        /* \"#utility.yul\":4212:4236   */\n      tag_433\n        /* \"#utility.yul\":4230:4235   */\n      dup2\n        /* \"#utility.yul\":4212:4236   */\n      tag_353\n      jump\t// in\n    tag_433:\n        /* \"#utility.yul\":4205:4210   */\n      dup2\n        /* \"#utility.yul\":4202:4237   */\n      eq\n        /* \"#utility.yul\":4192:4255   */\n      tag_434\n      jumpi\n        /* \"#utility.yul\":4251:4252   */\n      0x00\n        /* \"#utility.yul\":4248:4249   */\n      dup1\n        /* \"#utility.yul\":4241:4253   */\n      revert\n        /* \"#utility.yul\":4192:4255   */\n    tag_434:\n        /* \"#utility.yul\":4139:4261   */\n      pop\n      jump\t// out\n        /* \"#utility.yul\":4267:4406   */\n    tag_356:\n        /* \"#utility.yul\":4313:4318   */\n      0x00\n        /* \"#utility.yul\":4351:4357   */\n      dup2\n        /* \"#utility.yul\":4338:4358   */\n      calldataload\n        /* \"#utility.yul\":4329:4358   */\n      swap1\n      pop\n        /* \"#utility.yul\":4367:4400   */\n      tag_436\n        /* \"#utility.yul\":4394:4399   */\n      dup2\n        /* \"#utility.yul\":4367:4400   */\n      tag_355\n      jump\t// in\n    tag_436:\n        /* \"#utility.yul\":4267:4406   */\n      swap3\n      swap2\n      pop\n      pop\n      jump\t// out\n        /* \"#utility.yul\":4412:4886   */\n    tag_42:\n        /* \"#utility.yul\":4480:4486   */\n      0x00\n        /* \"#utility.yul\":4488:4494   */\n      dup1\n        /* \"#utility.yul\":4537:4539   */\n      0x40\n        /* \"#utility.yul\":4525:4534   */\n      dup4\n        /* \"#utility.yul\":4516:4523   */\n      dup6\n        /* \"#utility.yul\":4512:4535   */\n      sub\n        /* \"#utility.yul\":4508:4540   */\n      slt\n        /* \"#utility.yul\":4505:4624   */\n      iszero\n      tag_438\n      jumpi\n        /* \"#utility.yul\":4543:4622   */\n      tag_439\n      tag_337\n      jump\t// in\n    tag_439:\n        /* \"#utility.yul\":4505:4624   */\n    tag_438:\n        /* \"#utility.yul\":4663:4664   */\n      0x00\n        /* \"#utility.yul\":4688:4741   */\n      tag_440\n        /* \"#utility.yul\":4733:4740   */\n      dup6\n        /* \"#utility.yul\":4724:4730   */\n      dup3\n        /* \"#utility.yul\":4713:4722   */\n      dup7\n        /* \"#utility.yul\":4709:4731   */\n      add\n        /* \"#utility.yul\":4688:4741   */\n      tag_356\n      jump\t// in\n    tag_440:\n        /* \"#utility.yul\":4678:4741   */\n      swap3\n      pop\n        /* \"#utility.yul\":4634:4751   */\n      pop\n        /* \"#utility.yul\":4790:4792   */\n      0x20\n        /* \"#utility.yul\":4816:4869   */\n      tag_441\n        /* \"#utility.yul\":4861:4868   */\n      dup6\n        /* \"#utility.yul\":4852:4858   */\n      dup3\n        /* \"#utility.yul\":4841:4850   */\n      dup7\n        /* \"#utility.yul\":4837:4859   */\n      add\n        /* \"#utility.yul\":4816:4869   */\n      tag_351\n      jump\t// in\n    tag_441:\n        /* \"#utility.yul\":4806:4869   */\n      swap2\n      pop\n        /* \"#utility.yul\":4761:4879   */\n      pop\n        /* \"#utility.yul\":4412:4886   */\n      swap3\n      pop\n      swap3\n      swap1\n      pop\n      jump\t// out\n        /* \"#utility.yul\":4892:5010   */\n    tag_357:\n        /* \"#utility.yul\":4979:5003   */\n      tag_443\n        /* \"#utility.yul\":4997:5002   */\n      dup2\n        /* \"#utility.yul\":4979:5003   */\n      tag_349\n      jump\t// in\n    tag_443:\n        /* \"#utility.yul\":4974:4977   */\n      dup3\n        /* \"#utility.yul\":4967:5004   */\n      mstore\n        /* \"#utility.yul\":4892:5010   */\n      pop\n      pop\n      jump\t// out\n        /* \"#utility.yul\":5016:5238   */\n    tag_47:\n        /* \"#utility.yul\":5109:5113   */\n      0x00\n        /* \"#utility.yul\":5147:5149   */\n      0x20\n        /* \"#utility.yul\":5136:5145   */\n      dup3\n        /* \"#utility.yul\":5132:5150   */\n      add\n        /* \"#utility.yul\":5124:5150   */\n      swap1\n      pop\n        /* \"#utility.yul\":5160:5231   */\n      tag_445\n        /* \"#utility.yul\":5228:5229   */\n      0x00\n        /* \"#utility.yul\":5217:5226   */\n      dup4\n        /* \"#utility.yul\":5213:5230   */\n      add\n        /* \"#utility.yul\":5204:5210   */\n      dup5\n        /* \"#utility.yul\":5160:5231   */\n      tag_357\n      jump\t// in\n    tag_445:\n        /* \"#utility.yul\":5016:5238   */\n      swap3\n      swap2\n      pop\n      pop\n      jump\t// out\n        /* \"#utility.yul\":5244:5863   */\n    tag_50:\n        /* \"#utility.yul\":5321:5327   */\n      0x00\n        /* \"#utility.yul\":5329:5335   */\n      dup1\n        /* \"#utility.yul\":5337:5343   */\n      0x00\n        /* \"#utility.yul\":5386:5388   */\n      0x60\n        /* \"#utility.yul\":5374:5383   */\n      dup5\n        /* \"#utility.yul\":5365:5372   */\n      dup7\n        /* \"#utility.yul\":5361:5384   */\n      sub\n        /* \"#utility.yul\":5357:5389   */\n      slt\n        /* \"#utility.yul\":5354:5473   */\n      iszero\n      tag_447\n      jumpi\n        /* \"#utility.yul\":5392:5471   */\n      tag_448\n      tag_337\n      jump\t// in\n    tag_448:\n        /* \"#utility.yul\":5354:5473   */\n    tag_447:\n        /* \"#utility.yul\":5512:5513   */\n      0x00\n        /* \"#utility.yul\":5537:5590   */\n      tag_449\n        /* \"#utility.yul\":5582:5589   */\n      dup7\n        /* \"#utility.yul\":5573:5579   */\n      dup3\n        /* \"#utility.yul\":5562:5571   */\n      dup8\n        /* \"#utility.yul\":5558:5580   */\n      add\n        /* \"#utility.yul\":5537:5590   */\n      tag_356\n      jump\t// in\n    tag_449:\n        /* \"#utility.yul\":5527:5590   */\n      swap4\n      pop\n        /* \"#utility.yul\":5483:5600   */\n      pop\n        /* \"#utility.yul\":5639:5641   */\n      0x20\n        /* \"#utility.yul\":5665:5718   */\n      tag_450\n        /* \"#utility.yul\":5710:5717   */\n      dup7\n        /* \"#utility.yul\":5701:5707   */\n      dup3\n        /* \"#utility.yul\":5690:5699   */\n      dup8\n        /* \"#utility.yul\":5686:5708   */\n      add\n        /* \"#utility.yul\":5665:5718   */\n      tag_356\n      jump\t// in\n    tag_450:\n        /* \"#utility.yul\":5655:5718   */\n      swap3\n      pop\n        /* \"#utility.yul\":5610:5728   */\n      pop\n        /* \"#utility.yul\":5767:5769   */\n      0x40\n        /* \"#utility.yul\":5793:5846   */\n      tag_451\n        /* \"#utility.yul\":5838:5845   */\n      dup7\n        /* \"#utility.yul\":5829:5835   */\n      dup3\n        /* \"#utility.yul\":5818:5827   */\n      dup8\n        /* \"#utility.yul\":5814:5836   */\n      add\n        /* \"#utility.yul\":5793:5846   */\n      tag_351\n      jump\t// in\n    tag_451:\n        /* \"#utility.yul\":5783:5846   */\n      swap2\n      pop\n        /* \"#utility.yul\":5738:5856   */\n      pop\n        /* \"#utility.yul\":5244:5863   */\n      swap3\n      pop\n      swap3\n      pop\n      swap3\n      jump\t// out\n        /* \"#utility.yul\":5869:6198   */\n    tag_75:\n        /* \"#utility.yul\":5928:5934   */\n      0x00\n        /* \"#utility.yul\":5977:5979   */\n      0x20\n        /* \"#utility.yul\":5965:5974   */\n      dup3\n        /* \"#utility.yul\":5956:5963   */\n      dup5\n        /* \"#utility.yul\":5952:5975   */\n      sub\n        /* \"#utility.yul\":5948:5980   */\n      slt\n        /* \"#utility.yul\":5945:6064   */\n      iszero\n      tag_453\n      jumpi\n        /* \"#utility.yul\":5983:6062   */\n      tag_454\n      tag_337\n      jump\t// in\n    tag_454:\n        /* \"#utility.yul\":5945:6064   */\n    tag_453:\n        /* \"#utility.yul\":6103:6104   */\n      0x00\n        /* \"#utility.yul\":6128:6181   */\n      tag_455\n        /* \"#utility.yul\":6173:6180   */\n      dup5\n        /* \"#utility.yul\":6164:6170   */\n      dup3\n        /* \"#utility.yul\":6153:6162   */\n      dup6\n        /* \"#utility.yul\":6149:6171   */\n      add\n        /* \"#utility.yul\":6128:6181   */\n      tag_356\n      jump\t// in\n    tag_455:\n        /* \"#utility.yul\":6118:6181   */\n      swap2\n      pop\n        /* \"#utility.yul\":6074:6191   */\n      pop\n        /* \"#utility.yul\":5869:6198   */\n      swap3\n      swap2\n      pop\n      pop\n      jump\t// out\n        /* \"#utility.yul\":6204:6320   */\n    tag_358:\n        /* \"#utility.yul\":6274:6295   */\n      tag_457\n        /* \"#utility.yul\":6289:6294   */\n      dup2\n        /* \"#utility.yul\":6274:6295   */\n      tag_342\n      jump\t// in\n    tag_457:\n        /* \"#utility.yul\":6267:6272   */\n      dup2\n        /* \"#utility.yul\":6264:6296   */\n      eq\n        /* \"#utility.yul\":6254:6314   */\n      tag_458\n      jumpi\n        /* \"#utility.yul\":6310:6311   */\n      0x00\n        /* \"#utility.yul\":6307:6308   */\n      dup1\n        /* \"#utility.yul\":6300:6312   */\n      revert\n        /* \"#utility.yul\":6254:6314   */\n    tag_458:\n        /* \"#utility.yul\":6204:6320   */\n      pop\n      jump\t// out\n        /* \"#utility.yul\":6326:6459   */\n    tag_359:\n        /* \"#utility.yul\":6369:6374   */\n      0x00\n        /* \"#utility.yul\":6407:6413   */\n      dup2\n        /* \"#utility.yul\":6394:6414   */\n      calldataload\n        /* \"#utility.yul\":6385:6414   */\n      swap1\n      pop\n        /* \"#utility.yul\":6423:6453   */\n      tag_460\n        /* \"#utility.yul\":6447:6452   */\n      dup2\n        /* \"#utility.yul\":6423:6453   */\n      tag_358\n      jump\t// in\n    tag_460:\n        /* \"#utility.yul\":6326:6459   */\n      swap3\n      swap2\n      pop\n      pop\n      jump\t// out\n        /* \"#utility.yul\":6465:6933   */\n    tag_83:\n        /* \"#utility.yul\":6530:6536   */\n      0x00\n        /* \"#utility.yul\":6538:6544   */\n      dup1\n        /* \"#utility.yul\":6587:6589   */\n      0x40\n        /* \"#utility.yul\":6575:6584   */\n      dup4\n        /* \"#utility.yul\":6566:6573   */\n      dup6\n        /* \"#utility.yul\":6562:6585   */\n      sub\n        /* \"#utility.yul\":6558:6590   */\n      slt\n        /* \"#utility.yul\":6555:6674   */\n      iszero\n      tag_462\n      jumpi\n        /* \"#utility.yul\":6593:6672   */\n      tag_463\n      tag_337\n      jump\t// in\n    tag_463:\n        /* \"#utility.yul\":6555:6674   */\n    tag_462:\n        /* \"#utility.yul\":6713:6714   */\n      0x00\n        /* \"#utility.yul\":6738:6791   */\n      tag_464\n        /* \"#utility.yul\":6783:6790   */\n      dup6\n        /* \"#utility.yul\":6774:6780   */\n      dup3\n        /* \"#utility.yul\":6763:6772   */\n      dup7\n        /* \"#utility.yul\":6759:6781   */\n      add\n        /* \"#utility.yul\":6738:6791   */\n      tag_356\n      jump\t// in\n    tag_464:\n        /* \"#utility.yul\":6728:6791   */\n      swap3\n      pop\n        /* \"#utility.yul\":6684:6801   */\n      pop\n        /* \"#utility.yul\":6840:6842   */\n      0x20\n        /* \"#utility.yul\":6866:6916   */\n      tag_465\n        /* \"#utility.yul\":6908:6915   */\n      dup6\n        /* \"#utility.yul\":6899:6905   */\n      dup3\n        /* \"#utility.yul\":6888:6897   */\n      dup7\n        /* \"#utility.yul\":6884:6906   */\n      add\n        /* \"#utility.yul\":6866:6916   */\n      tag_359\n      jump\t// in\n    tag_465:\n        /* \"#utility.yul\":6856:6916   */\n      swap2\n      pop\n        /* \"#utility.yul\":6811:6926   */\n      pop\n        /* \"#utility.yul\":6465:6933   */\n      swap3\n      pop\n      swap3\n      swap1\n      pop\n      jump\t// out\n        /* \"#utility.yul\":6939:7056   */\n    tag_360:\n        /* \"#utility.yul\":7048:7049   */\n      0x00\n        /* \"#utility.yul\":7045:7046   */\n      dup1\n        /* \"#utility.yul\":7038:7050   */\n      revert\n        /* \"#utility.yul\":7062:7179   */\n    tag_361:\n        /* \"#utility.yul\":7171:7172   */\n      0x00\n        /* \"#utility.yul\":7168:7169   */\n      dup1\n        /* \"#utility.yul\":7161:7173   */\n      revert\n        /* \"#utility.yul\":7185:7365   */\n    tag_253:\n        /* \"#utility.yul\":7233:7310   */\n      0x4e487b7100000000000000000000000000000000000000000000000000000000\n        /* \"#utility.yul\":7230:7231   */\n      0x00\n        /* \"#utility.yul\":7223:7311   */\n      mstore\n        /* \"#utility.yul\":7330:7334   */\n      0x41\n        /* \"#utility.yul\":7327:7328   */\n      0x04\n        /* \"#utility.yul\":7320:7335   */\n      mstore\n        /* \"#utility.yul\":7354:7358   */\n      0x24\n        /* \"#utility.yul\":7351:7352   */\n      0x00\n        /* \"#utility.yul\":7344:7359   */\n      revert\n        /* \"#utility.yul\":7371:7652   */\n    tag_362:\n        /* \"#utility.yul\":7454:7481   */\n      tag_470\n        /* \"#utility.yul\":7476:7480   */\n      dup3\n        /* \"#utility.yul\":7454:7481   */\n      tag_347\n      jump\t// in\n    tag_470:\n        /* \"#utility.yul\":7446:7452   */\n      dup2\n        /* \"#utility.yul\":7442:7482   */\n      add\n        /* \"#utility.yul\":7584:7590   */\n      dup2\n        /* \"#utility.yul\":7572:7582   */\n      dup2\n        /* \"#utility.yul\":7569:7591   */\n      lt\n        /* \"#utility.yul\":7548:7566   */\n      0xffffffffffffffff\n        /* \"#utility.yul\":7536:7546   */\n      dup3\n        /* \"#utility.yul\":7533:7567   */\n      gt\n        /* \"#utility.yul\":7530:7592   */\n      or\n        /* \"#utility.yul\":7527:7615   */\n      iszero\n      tag_471\n      jumpi\n        /* \"#utility.yul\":7595:7613   */\n      tag_472\n      tag_253\n      jump\t// in\n    tag_472:\n        /* \"#utility.yul\":7527:7615   */\n    tag_471:\n        /* \"#utility.yul\":7635:7645   */\n      dup1\n        /* \"#utility.yul\":7631:7633   */\n      0x40\n        /* \"#utility.yul\":7624:7646   */\n      mstore\n        /* \"#utility.yul\":7414:7652   */\n      pop\n        /* \"#utility.yul\":7371:7652   */\n      pop\n      pop\n      jump\t// out\n        /* \"#utility.yul\":7658:7787   */\n    tag_363:\n        /* \"#utility.yul\":7692:7698   */\n      0x00\n        /* \"#utility.yul\":7719:7739   */\n      tag_474\n      tag_336\n      jump\t// in\n    tag_474:\n        /* \"#utility.yul\":7709:7739   */\n      swap1\n      pop\n        /* \"#utility.yul\":7748:7781   */\n      tag_475\n        /* \"#utility.yul\":7776:7780   */\n      dup3\n        /* \"#utility.yul\":7768:7774   */\n      dup3\n        /* \"#utility.yul\":7748:7781   */\n      tag_362\n      jump\t// in\n    tag_475:\n        /* \"#utility.yul\":7658:7787   */\n      swap2\n      swap1\n      pop\n      jump\t// out\n        /* \"#utility.yul\":7793:8100   */\n    tag_364:\n        /* \"#utility.yul\":7854:7858   */\n      0x00\n        /* \"#utility.yul\":7944:7962   */\n      0xffffffffffffffff\n        /* \"#utility.yul\":7936:7942   */\n      dup3\n        /* \"#utility.yul\":7933:7963   */\n      gt\n        /* \"#utility.yul\":7930:7986   */\n      iszero\n      tag_477\n      jumpi\n        /* \"#utility.yul\":7966:7984   */\n      tag_478\n      tag_253\n      jump\t// in\n    tag_478:\n        /* \"#utility.yul\":7930:7986   */\n    tag_477:\n        /* \"#utility.yul\":8004:8033   */\n      tag_479\n        /* \"#utility.yul\":8026:8032   */\n      dup3\n        /* \"#utility.yul\":8004:8033   */\n      tag_347\n      jump\t// in\n    tag_479:\n        /* \"#utility.yul\":7996:8033   */\n      swap1\n      pop\n        /* \"#utility.yul\":8088:8092   */\n      0x20\n        /* \"#utility.yul\":8082:8086   */\n      dup2\n        /* \"#utility.yul\":8078:8093   */\n      add\n        /* \"#utility.yul\":8070:8093   */\n      swap1\n      pop\n        /* \"#utility.yul\":7793:8100   */\n      swap2\n      swap1\n      pop\n      jump\t// out\n        /* \"#utility.yul\":8106:8254   */\n    tag_365:\n        /* \"#utility.yul\":8204:8210   */\n      dup3\n        /* \"#utility.yul\":8199:8202   */\n      dup2\n        /* \"#utility.yul\":8194:8197   */\n      dup4\n        /* \"#utility.yul\":8181:8211   */\n      calldatacopy\n        /* \"#utility.yul\":8245:8246   */\n      0x00\n        /* \"#utility.yul\":8236:8242   */\n      dup4\n        /* \"#utility.yul\":8231:8234   */\n      dup4\n        /* \"#utility.yul\":8227:8243   */\n      add\n        /* \"#utility.yul\":8220:8247   */\n      mstore\n        /* \"#utility.yul\":8106:8254   */\n      pop\n      pop\n      pop\n      jump\t// out\n        /* \"#utility.yul\":8260:8683   */\n    tag_366:\n        /* \"#utility.yul\":8337:8342   */\n      0x00\n        /* \"#utility.yul\":8362:8427   */\n      tag_482\n        /* \"#utility.yul\":8378:8426   */\n      tag_483\n        /* \"#utility.yul\":8419:8425   */\n      dup5\n        /* \"#utility.yul\":8378:8426   */\n      tag_364\n      jump\t// in\n    tag_483:\n        /* \"#utility.yul\":8362:8427   */\n      tag_363\n      jump\t// in\n    tag_482:\n        /* \"#utility.yul\":8353:8427   */\n      swap1\n      pop\n        /* \"#utility.yul\":8450:8456   */\n      dup3\n        /* \"#utility.yul\":8443:8448   */\n      dup2\n        /* \"#utility.yul\":8436:8457   */\n      mstore\n        /* \"#utility.yul\":8488:8492   */\n      0x20\n        /* \"#utility.yul\":8481:8486   */\n      dup2\n        /* \"#utility.yul\":8477:8493   */\n      add\n        /* \"#utility.yul\":8526:8529   */\n      dup5\n        /* \"#utility.yul\":8517:8523   */\n      dup5\n        /* \"#utility.yul\":8512:8515   */\n      dup5\n        /* \"#utility.yul\":8508:8524   */\n      add\n        /* \"#utility.yul\":8505:8530   */\n      gt\n        /* \"#utility.yul\":8502:8614   */\n      iszero\n      tag_484\n      jumpi\n        /* \"#utility.yul\":8533:8612   */\n      tag_485\n      tag_361\n      jump\t// in\n    tag_485:\n        /* \"#utility.yul\":8502:8614   */\n    tag_484:\n        /* \"#utility.yul\":8623:8677   */\n      tag_486\n        /* \"#utility.yul\":8670:8676   */\n      dup5\n        /* \"#utility.yul\":8665:8668   */\n      dup3\n        /* \"#utility.yul\":8660:8663   */\n      dup6\n        /* \"#utility.yul\":8623:8677   */\n      tag_365\n      jump\t// in\n    tag_486:\n        /* \"#utility.yul\":8343:8683   */\n      pop\n        /* \"#utility.yul\":8260:8683   */\n      swap4\n      swap3\n      pop\n      pop\n      pop\n      jump\t// out\n        /* \"#utility.yul\":8702:9040   */\n    tag_367:\n        /* \"#utility.yul\":8757:8762   */\n      0x00\n        /* \"#utility.yul\":8806:8809   */\n      dup3\n        /* \"#utility.yul\":8799:8803   */\n      0x1f\n        /* \"#utility.yul\":8791:8797   */\n      dup4\n        /* \"#utility.yul\":8787:8804   */\n      add\n        /* \"#utility.yul\":8783:8810   */\n      slt\n        /* \"#utility.yul\":8773:8895   */\n      tag_488\n      jumpi\n        /* \"#utility.yul\":8814:8893   */\n      tag_489\n      tag_360\n      jump\t// in\n    tag_489:\n        /* \"#utility.yul\":8773:8895   */\n    tag_488:\n        /* \"#utility.yul\":8931:8937   */\n      dup2\n        /* \"#utility.yul\":8918:8938   */\n      calldataload\n        /* \"#utility.yul\":8956:9034   */\n      tag_490\n        /* \"#utility.yul\":9030:9033   */\n      dup5\n        /* \"#utility.yul\":9022:9028   */\n      dup3\n        /* \"#utility.yul\":9015:9019   */\n      0x20\n        /* \"#utility.yul\":9007:9013   */\n      dup7\n        /* \"#utility.yul\":9003:9020   */\n      add\n        /* \"#utility.yul\":8956:9034   */\n      tag_366\n      jump\t// in\n    tag_490:\n        /* \"#utility.yul\":8947:9034   */\n      swap2\n      pop\n        /* \"#utility.yul\":8763:9040   */\n      pop\n        /* \"#utility.yul\":8702:9040   */\n      swap3\n      swap2\n      pop\n      pop\n      jump\t// out\n        /* \"#utility.yul\":9046:9989   */\n    tag_87:\n        /* \"#utility.yul\":9141:9147   */\n      0x00\n        /* \"#utility.yul\":9149:9155   */\n      dup1\n        /* \"#utility.yul\":9157:9163   */\n      0x00\n        /* \"#utility.yul\":9165:9171   */\n      dup1\n        /* \"#utility.yul\":9214:9217   */\n      0x80\n        /* \"#utility.yul\":9202:9211   */\n      dup6\n        /* \"#utility.yul\":9193:9200   */\n      dup8\n        /* \"#utility.yul\":9189:9212   */\n      sub\n        /* \"#utility.yul\":9185:9218   */\n      slt\n        /* \"#utility.yul\":9182:9302   */\n      iszero\n      tag_492\n      jumpi\n        /* \"#utility.yul\":9221:9300   */\n      tag_493\n      tag_337\n      jump\t// in\n    tag_493:\n        /* \"#utility.yul\":9182:9302   */\n    tag_492:\n        /* \"#utility.yul\":9341:9342   */\n      0x00\n        /* \"#utility.yul\":9366:9419   */\n      tag_494\n        /* \"#utility.yul\":9411:9418   */\n      dup8\n        /* \"#utility.yul\":9402:9408   */\n      dup3\n        /* \"#utility.yul\":9391:9400   */\n      dup9\n        /* \"#utility.yul\":9387:9409   */\n      add\n        /* \"#utility.yul\":9366:9419   */\n      tag_356\n      jump\t// in\n    tag_494:\n        /* \"#utility.yul\":9356:9419   */\n      swap5\n      pop\n        /* \"#utility.yul\":9312:9429   */\n      pop\n        /* \"#utility.yul\":9468:9470   */\n      0x20\n        /* \"#utility.yul\":9494:9547   */\n      tag_495\n        /* \"#utility.yul\":9539:9546   */\n      dup8\n        /* \"#utility.yul\":9530:9536   */\n      dup3\n        /* \"#utility.yul\":9519:9528   */\n      dup9\n        /* \"#utility.yul\":9515:9537   */\n      add\n        /* \"#utility.yul\":9494:9547   */\n      tag_356\n      jump\t// in\n    tag_495:\n        /* \"#utility.yul\":9484:9547   */\n      swap4\n      pop\n        /* \"#utility.yul\":9439:9557   */\n      pop\n        /* \"#utility.yul\":9596:9598   */\n      0x40\n        /* \"#utility.yul\":9622:9675   */\n      tag_496\n        /* \"#utility.yul\":9667:9674   */\n      dup8\n        /* \"#utility.yul\":9658:9664   */\n      dup3\n        /* \"#utility.yul\":9647:9656   */\n      dup9\n        /* \"#utility.yul\":9643:9665   */\n      add\n        /* \"#utility.yul\":9622:9675   */\n      tag_351\n      jump\t// in\n    tag_496:\n        /* \"#utility.yul\":9612:9675   */\n      swap3\n      pop\n        /* \"#utility.yul\":9567:9685   */\n      pop\n        /* \"#utility.yul\":9752:9754   */\n      0x60\n        /* \"#utility.yul\":9741:9750   */\n      dup6\n        /* \"#utility.yul\":9737:9755   */\n      add\n        /* \"#utility.yul\":9724:9756   */\n      calldataload\n        /* \"#utility.yul\":9783:9801   */\n      0xffffffffffffffff\n        /* \"#utility.yul\":9775:9781   */\n      dup2\n        /* \"#utility.yul\":9772:9802   */\n      gt\n        /* \"#utility.yul\":9769:9886   */\n      iszero\n      tag_497\n      jumpi\n        /* \"#utility.yul\":9805:9884   */\n      tag_498\n      tag_338\n      jump\t// in\n    tag_498:\n        /* \"#utility.yul\":9769:9886   */\n    tag_497:\n        /* \"#utility.yul\":9910:9972   */\n      tag_499\n        /* \"#utility.yul\":9964:9971   */\n      dup8\n        /* \"#utility.yul\":9955:9961   */\n      dup3\n        /* \"#utility.yul\":9944:9953   */\n      dup9\n        /* \"#utility.yul\":9940:9962   */\n      add\n        /* \"#utility.yul\":9910:9972   */\n      tag_367\n      jump\t// in\n    tag_499:\n        /* \"#utility.yul\":9900:9972   */\n      swap2\n      pop\n        /* \"#utility.yul\":9695:9982   */\n      pop\n        /* \"#utility.yul\":9046:9989   */\n      swap3\n      swap6\n      swap2\n      swap5\n      pop\n      swap3\n      pop\n      jump\t// out\n        /* \"#utility.yul\":9995:10469   */\n    tag_95:\n        /* \"#utility.yul\":10063:10069   */\n      0x00\n        /* \"#utility.yul\":10071:10077   */\n      dup1\n        /* \"#utility.yul\":10120:10122   */\n      0x40\n        /* \"#utility.yul\":10108:10117   */\n      dup4\n        /* \"#utility.yul\":10099:10106   */\n      dup6\n        /* \"#utility.yul\":10095:10118   */\n      sub\n        /* \"#utility.yul\":10091:10123   */\n      slt\n        /* \"#utility.yul\":10088:10207   */\n      iszero\n      tag_501\n      jumpi\n        /* \"#utility.yul\":10126:10205   */\n      tag_502\n      tag_337\n      jump\t// in\n    tag_502:\n        /* \"#utility.yul\":10088:10207   */\n    tag_501:\n        /* \"#utility.yul\":10246:10247   */\n      0x00\n        /* \"#utility.yul\":10271:10324   */\n      tag_503\n        /* \"#utility.yul\":10316:10323   */\n      dup6\n        /* \"#utility.yul\":10307:10313   */\n      dup3\n        /* \"#utility.yul\":10296:10305   */\n      dup7\n        /* \"#utility.yul\":10292:10314   */\n      add\n        /* \"#utility.yul\":10271:10324   */\n      tag_356\n      jump\t// in\n    tag_503:\n        /* \"#utility.yul\":10261:10324   */\n      swap3\n      pop\n        /* \"#utility.yul\":10217:10334   */\n      pop\n        /* \"#utility.yul\":10373:10375   */\n      0x20\n        /* \"#utility.yul\":10399:10452   */\n      tag_504\n        /* \"#utility.yul\":10444:10451   */\n      dup6\n        /* \"#utility.yul\":10435:10441   */\n      dup3\n        /* \"#utility.yul\":10424:10433   */\n      dup7\n        /* \"#utility.yul\":10420:10442   */\n      add\n        /* \"#utility.yul\":10399:10452   */\n      tag_356\n      jump\t// in\n    tag_504:\n        /* \"#utility.yul\":10389:10452   */\n      swap2\n      pop\n        /* \"#utility.yul\":10344:10462   */\n      pop\n        /* \"#utility.yul\":9995:10469   */\n      swap3\n      pop\n      swap3\n      swap1\n      pop\n      jump\t// out\n        /* \"#utility.yul\":10475:10655   */\n    tag_368:\n        /* \"#utility.yul\":10523:10600   */\n      0x4e487b7100000000000000000000000000000000000000000000000000000000\n        /* \"#utility.yul\":10520:10521   */\n      0x00\n        /* \"#utility.yul\":10513:10601   */\n      mstore\n        /* \"#utility.yul\":10620:10624   */\n      0x22\n        /* \"#utility.yul\":10617:10618   */\n      0x04\n        /* \"#utility.yul\":10610:10625   */\n      mstore\n        /* \"#utility.yul\":10644:10648   */\n      0x24\n        /* \"#utility.yul\":10641:10642   */\n      0x00\n        /* \"#utility.yul\":10634:10649   */\n      revert\n        /* \"#utility.yul\":10661:10981   */\n    tag_104:\n        /* \"#utility.yul\":10705:10711   */\n      0x00\n        /* \"#utility.yul\":10742:10743   */\n      0x02\n        /* \"#utility.yul\":10736:10740   */\n      dup3\n        /* \"#utility.yul\":10732:10744   */\n      div\n        /* \"#utility.yul\":10722:10744   */\n      swap1\n      pop\n        /* \"#utility.yul\":10789:10790   */\n      0x01\n        /* \"#utility.yul\":10783:10787   */\n      dup3\n        /* \"#utility.yul\":10779:10791   */\n      and\n        /* \"#utility.yul\":10810:10828   */\n      dup1\n        /* \"#utility.yul\":10800:10881   */\n      tag_507\n      jumpi\n        /* \"#utility.yul\":10866:10870   */\n      0x7f\n        /* \"#utility.yul\":10858:10864   */\n      dup3\n        /* \"#utility.yul\":10854:10871   */\n      and\n        /* \"#utility.yul\":10844:10871   */\n      swap2\n      pop\n        /* \"#utility.yul\":10800:10881   */\n    tag_507:\n        /* \"#utility.yul\":10928:10930   */\n      0x20\n        /* \"#utility.yul\":10920:10926   */\n      dup3\n        /* \"#utility.yul\":10917:10931   */\n      lt\n        /* \"#utility.yul\":10897:10915   */\n      dup2\n        /* \"#utility.yul\":10894:10932   */\n      sub\n        /* \"#utility.yul\":10891:10975   */\n      tag_508\n      jumpi\n        /* \"#utility.yul\":10947:10965   */\n      tag_509\n      tag_368\n      jump\t// in\n    tag_509:\n        /* \"#utility.yul\":10891:10975   */\n    tag_508:\n        /* \"#utility.yul\":10712:10981   */\n      pop\n        /* \"#utility.yul\":10661:10981   */\n      swap2\n      swap1\n      pop\n      jump\t// out\n        /* \"#utility.yul\":10987:11429   */\n    tag_128:\n        /* \"#utility.yul\":11136:11140   */\n      0x00\n        /* \"#utility.yul\":11174:11176   */\n      0x60\n        /* \"#utility.yul\":11163:11172   */\n      dup3\n        /* \"#utility.yul\":11159:11177   */\n      add\n        /* \"#utility.yul\":11151:11177   */\n      swap1\n      pop\n        /* \"#utility.yul\":11187:11258   */\n      tag_511\n        /* \"#utility.yul\":11255:11256   */\n      0x00\n        /* \"#utility.yul\":11244:11253   */\n      dup4\n        /* \"#utility.yul\":11240:11257   */\n      add\n        /* \"#utility.yul\":11231:11237   */\n      dup7\n        /* \"#utility.yul\":11187:11258   */\n      tag_354\n      jump\t// in\n    tag_511:\n        /* \"#utility.yul\":11268:11340   */\n      tag_512\n        /* \"#utility.yul\":11336:11338   */\n      0x20\n        /* \"#utility.yul\":11325:11334   */\n      dup4\n        /* \"#utility.yul\":11321:11339   */\n      add\n        /* \"#utility.yul\":11312:11318   */\n      dup6\n        /* \"#utility.yul\":11268:11340   */\n      tag_357\n      jump\t// in\n    tag_512:\n        /* \"#utility.yul\":11350:11422   */\n      tag_513\n        /* \"#utility.yul\":11418:11420   */\n      0x40\n        /* \"#utility.yul\":11407:11416   */\n      dup4\n        /* \"#utility.yul\":11403:11421   */\n      add\n        /* \"#utility.yul\":11394:11400   */\n      dup5\n        /* \"#utility.yul\":11350:11422   */\n      tag_354\n      jump\t// in\n    tag_513:\n        /* \"#utility.yul\":10987:11429   */\n      swap5\n      swap4\n      pop\n      pop\n      pop\n      pop\n      jump\t// out\n        /* \"#utility.yul\":11435:11767   */\n    tag_133:\n        /* \"#utility.yul\":11556:11560   */\n      0x00\n        /* \"#utility.yul\":11594:11596   */\n      0x40\n        /* \"#utility.yul\":11583:11592   */\n      dup3\n        /* \"#utility.yul\":11579:11597   */\n      add\n        /* \"#utility.yul\":11571:11597   */\n      swap1\n      pop\n        /* \"#utility.yul\":11607:11678   */\n      tag_515\n        /* \"#utility.yul\":11675:11676   */\n      0x00\n        /* \"#utility.yul\":11664:11673   */\n      dup4\n        /* \"#utility.yul\":11660:11677   */\n      add\n        /* \"#utility.yul\":11651:11657   */\n      dup6\n        /* \"#utility.yul\":11607:11678   */\n      tag_354\n      jump\t// in\n    tag_515:\n        /* \"#utility.yul\":11688:11760   */\n      tag_516\n        /* \"#utility.yul\":11756:11758   */\n      0x20\n        /* \"#utility.yul\":11745:11754   */\n      dup4\n        /* \"#utility.yul\":11741:11759   */\n      add\n        /* \"#utility.yul\":11732:11738   */\n      dup5\n        /* \"#utility.yul\":11688:11760   */\n      tag_357\n      jump\t// in\n    tag_516:\n        /* \"#utility.yul\":11435:11767   */\n      swap4\n      swap3\n      pop\n      pop\n      pop\n      jump\t// out\n        /* \"#utility.yul\":11773:11953   */\n    tag_142:\n        /* \"#utility.yul\":11821:11898   */\n      0x4e487b7100000000000000000000000000000000000000000000000000000000\n        /* \"#utility.yul\":11818:11819   */\n      0x00\n        /* \"#utility.yul\":11811:11899   */\n      mstore\n        /* \"#utility.yul\":11918:11922   */\n      0x32\n        /* \"#utility.yul\":11915:11916   */\n      0x04\n        /* \"#utility.yul\":11908:11923   */\n      mstore\n        /* \"#utility.yul\":11942:11946   */\n      0x24\n        /* \"#utility.yul\":11939:11940   */\n      0x00\n        /* \"#utility.yul\":11932:11947   */\n      revert\n        /* \"#utility.yul\":11959:12139   */\n    tag_369:\n        /* \"#utility.yul\":12007:12084   */\n      0x4e487b7100000000000000000000000000000000000000000000000000000000\n        /* \"#utility.yul\":12004:12005   */\n      0x00\n        /* \"#utility.yul\":11997:12085   */\n      mstore\n        /* \"#utility.yul\":12104:12108   */\n      0x11\n        /* \"#utility.yul\":12101:12102   */\n      0x04\n        /* \"#utility.yul\":12094:12109   */\n      mstore\n        /* \"#utility.yul\":12128:12132   */\n      0x24\n        /* \"#utility.yul\":12125:12126   */\n      0x00\n        /* \"#utility.yul\":12118:12133   */\n      revert\n        /* \"#utility.yul\":12145:12336   */\n    tag_147:\n        /* \"#utility.yul\":12185:12188   */\n      0x00\n        /* \"#utility.yul\":12204:12224   */\n      tag_520\n        /* \"#utility.yul\":12222:12223   */\n      dup3\n        /* \"#utility.yul\":12204:12224   */\n      tag_349\n      jump\t// in\n    tag_520:\n        /* \"#utility.yul\":12199:12224   */\n      swap2\n      pop\n        /* \"#utility.yul\":12238:12258   */\n      tag_521\n        /* \"#utility.yul\":12256:12257   */\n      dup4\n        /* \"#utility.yul\":12238:12258   */\n      tag_349\n      jump\t// in\n    tag_521:\n        /* \"#utility.yul\":12233:12258   */\n      swap3\n      pop\n        /* \"#utility.yul\":12281:12282   */\n      dup3\n        /* \"#utility.yul\":12278:12279   */\n      dup3\n        /* \"#utility.yul\":12274:12283   */\n      add\n        /* \"#utility.yul\":12267:12283   */\n      swap1\n      pop\n        /* \"#utility.yul\":12302:12305   */\n      dup1\n        /* \"#utility.yul\":12299:12300   */\n      dup3\n        /* \"#utility.yul\":12296:12306   */\n      gt\n        /* \"#utility.yul\":12293:12329   */\n      iszero\n      tag_522\n      jumpi\n        /* \"#utility.yul\":12309:12327   */\n      tag_523\n      tag_369\n      jump\t// in\n    tag_523:\n        /* \"#utility.yul\":12293:12329   */\n    tag_522:\n        /* \"#utility.yul\":12145:12336   */\n      swap3\n      swap2\n      pop\n      pop\n      jump\t// out\n        /* \"#utility.yul\":12342:12421   */\n    tag_370:\n        /* \"#utility.yul\":12381:12388   */\n      0x00\n        /* \"#utility.yul\":12410:12415   */\n      dup2\n        /* \"#utility.yul\":12399:12415   */\n      swap1\n      pop\n        /* \"#utility.yul\":12342:12421   */\n      swap2\n      swap1\n      pop\n      jump\t// out\n        /* \"#utility.yul\":12427:12584   */\n    tag_371:\n        /* \"#utility.yul\":12532:12577   */\n      tag_526\n        /* \"#utility.yul\":12552:12576   */\n      tag_527\n        /* \"#utility.yul\":12570:12575   */\n      dup3\n        /* \"#utility.yul\":12552:12576   */\n      tag_349\n      jump\t// in\n    tag_527:\n        /* \"#utility.yul\":12532:12577   */\n      tag_370\n      jump\t// in\n    tag_526:\n        /* \"#utility.yul\":12527:12530   */\n      dup3\n        /* \"#utility.yul\":12520:12578   */\n      mstore\n        /* \"#utility.yul\":12427:12584   */\n      pop\n      pop\n      jump\t// out\n        /* \"#utility.yul\":12590:12684   */\n    tag_372:\n        /* \"#utility.yul\":12623:12631   */\n      0x00\n        /* \"#utility.yul\":12671:12676   */\n      dup2\n        /* \"#utility.yul\":12667:12669   */\n      0x60\n        /* \"#utility.yul\":12663:12677   */\n      shl\n        /* \"#utility.yul\":12642:12677   */\n      swap1\n      pop\n        /* \"#utility.yul\":12590:12684   */\n      swap2\n      swap1\n      pop\n      jump\t// out\n        /* \"#utility.yul\":12690:12784   */\n    tag_373:\n        /* \"#utility.yul\":12729:12736   */\n      0x00\n        /* \"#utility.yul\":12758:12778   */\n      tag_530\n        /* \"#utility.yul\":12772:12777   */\n      dup3\n        /* \"#utility.yul\":12758:12778   */\n      tag_372\n      jump\t// in\n    tag_530:\n        /* \"#utility.yul\":12747:12778   */\n      swap1\n      pop\n        /* \"#utility.yul\":12690:12784   */\n      swap2\n      swap1\n      pop\n      jump\t// out\n        /* \"#utility.yul\":12790:12890   */\n    tag_374:\n        /* \"#utility.yul\":12829:12836   */\n      0x00\n        /* \"#utility.yul\":12858:12884   */\n      tag_532\n        /* \"#utility.yul\":12878:12883   */\n      dup3\n        /* \"#utility.yul\":12858:12884   */\n      tag_373\n      jump\t// in\n    tag_532:\n        /* \"#utility.yul\":12847:12884   */\n      swap1\n      pop\n        /* \"#utility.yul\":12790:12890   */\n      swap2\n      swap1\n      pop\n      jump\t// out\n        /* \"#utility.yul\":12896:13053   */\n    tag_375:\n        /* \"#utility.yul\":13001:13046   */\n      tag_534\n        /* \"#utility.yul\":13021:13045   */\n      tag_535\n        /* \"#utility.yul\":13039:13044   */\n      dup3\n        /* \"#utility.yul\":13021:13045   */\n      tag_353\n      jump\t// in\n    tag_535:\n        /* \"#utility.yul\":13001:13046   */\n      tag_374\n      jump\t// in\n    tag_534:\n        /* \"#utility.yul\":12996:12999   */\n      dup3\n        /* \"#utility.yul\":12989:13047   */\n      mstore\n        /* \"#utility.yul\":12896:13053   */\n      pop\n      pop\n      jump\t// out\n        /* \"#utility.yul\":13059:13597   */\n    tag_149:\n        /* \"#utility.yul\":13227:13230   */\n      0x00\n        /* \"#utility.yul\":13242:13317   */\n      tag_537\n        /* \"#utility.yul\":13313:13316   */\n      dup3\n        /* \"#utility.yul\":13304:13310   */\n      dup7\n        /* \"#utility.yul\":13242:13317   */\n      tag_371\n      jump\t// in\n    tag_537:\n        /* \"#utility.yul\":13342:13344   */\n      0x20\n        /* \"#utility.yul\":13337:13340   */\n      dup3\n        /* \"#utility.yul\":13333:13345   */\n      add\n        /* \"#utility.yul\":13326:13345   */\n      swap2\n      pop\n        /* \"#utility.yul\":13355:13430   */\n      tag_538\n        /* \"#utility.yul\":13426:13429   */\n      dup3\n        /* \"#utility.yul\":13417:13423   */\n      dup6\n        /* \"#utility.yul\":13355:13430   */\n      tag_375\n      jump\t// in\n    tag_538:\n        /* \"#utility.yul\":13455:13457   */\n      0x14\n        /* \"#utility.yul\":13450:13453   */\n      dup3\n        /* \"#utility.yul\":13446:13458   */\n      add\n        /* \"#utility.yul\":13439:13458   */\n      swap2\n      pop\n        /* \"#utility.yul\":13468:13543   */\n      tag_539\n        /* \"#utility.yul\":13539:13542   */\n      dup3\n        /* \"#utility.yul\":13530:13536   */\n      dup5\n        /* \"#utility.yul\":13468:13543   */\n      tag_371\n      jump\t// in\n    tag_539:\n        /* \"#utility.yul\":13568:13570   */\n      0x20\n        /* \"#utility.yul\":13563:13566   */\n      dup3\n        /* \"#utility.yul\":13559:13571   */\n      add\n        /* \"#utility.yul\":13552:13571   */\n      swap2\n      pop\n        /* \"#utility.yul\":13588:13591   */\n      dup2\n        /* \"#utility.yul\":13581:13591   */\n      swap1\n      pop\n        /* \"#utility.yul\":13059:13597   */\n      swap5\n      swap4\n      pop\n      pop\n      pop\n      pop\n      jump\t// out\n        /* \"#utility.yul\":13603:13783   */\n    tag_259:\n        /* \"#utility.yul\":13651:13728   */\n      0x4e487b7100000000000000000000000000000000000000000000000000000000\n        /* \"#utility.yul\":13648:13649   */\n      0x00\n        /* \"#utility.yul\":13641:13729   */\n      mstore\n        /* \"#utility.yul\":13748:13752   */\n      0x12\n        /* \"#utility.yul\":13745:13746   */\n      0x04\n        /* \"#utility.yul\":13738:13753   */\n      mstore\n        /* \"#utility.yul\":13772:13776   */\n      0x24\n        /* \"#utility.yul\":13769:13770   */\n      0x00\n        /* \"#utility.yul\":13762:13777   */\n      revert\n        /* \"#utility.yul\":13789:13965   */\n    tag_151:\n        /* \"#utility.yul\":13821:13822   */\n      0x00\n        /* \"#utility.yul\":13838:13858   */\n      tag_542\n        /* \"#utility.yul\":13856:13857   */\n      dup3\n        /* \"#utility.yul\":13838:13858   */\n      tag_349\n      jump\t// in\n    tag_542:\n        /* \"#utility.yul\":13833:13858   */\n      swap2\n      pop\n        /* \"#utility.yul\":13872:13892   */\n      tag_543\n        /* \"#utility.yul\":13890:13891   */\n      dup4\n        /* \"#utility.yul\":13872:13892   */\n      tag_349\n      jump\t// in\n    tag_543:\n        /* \"#utility.yul\":13867:13892   */\n      swap3\n      pop\n        /* \"#utility.yul\":13911:13912   */\n      dup3\n        /* \"#utility.yul\":13901:13936   */\n      tag_544\n      jumpi\n        /* \"#utility.yul\":13916:13934   */\n      tag_545\n      tag_259\n      jump\t// in\n    tag_545:\n        /* \"#utility.yul\":13901:13936   */\n    tag_544:\n        /* \"#utility.yul\":13957:13958   */\n      dup3\n        /* \"#utility.yul\":13954:13955   */\n      dup3\n        /* \"#utility.yul\":13950:13959   */\n      mod\n        /* \"#utility.yul\":13945:13959   */\n      swap1\n      pop\n        /* \"#utility.yul\":13789:13965   */\n      swap3\n      swap2\n      pop\n      pop\n      jump\t// out\n        /* \"#utility.yul\":13971:14119   */\n    tag_376:\n        /* \"#utility.yul\":14073:14084   */\n      0x00\n        /* \"#utility.yul\":14110:14113   */\n      dup2\n        /* \"#utility.yul\":14095:14113   */\n      swap1\n      pop\n        /* \"#utility.yul\":13971:14119   */\n      swap3\n      swap2\n      pop\n      pop\n      jump\t// out\n        /* \"#utility.yul\":14125:14515   */\n    tag_377:\n        /* \"#utility.yul\":14231:14234   */\n      0x00\n        /* \"#utility.yul\":14259:14298   */\n      tag_548\n        /* \"#utility.yul\":14292:14297   */\n      dup3\n        /* \"#utility.yul\":14259:14298   */\n      tag_344\n      jump\t// in\n    tag_548:\n        /* \"#utility.yul\":14314:14403   */\n      tag_549\n        /* \"#utility.yul\":14396:14402   */\n      dup2\n        /* \"#utility.yul\":14391:14394   */\n      dup6\n        /* \"#utility.yul\":14314:14403   */\n      tag_376\n      jump\t// in\n    tag_549:\n        /* \"#utility.yul\":14307:14403   */\n      swap4\n      pop\n        /* \"#utility.yul\":14412:14477   */\n      tag_550\n        /* \"#utility.yul\":14470:14476   */\n      dup2\n        /* \"#utility.yul\":14465:14468   */\n      dup6\n        /* \"#utility.yul\":14458:14462   */\n      0x20\n        /* \"#utility.yul\":14451:14456   */\n      dup7\n        /* \"#utility.yul\":14447:14463   */\n      add\n        /* \"#utility.yul\":14412:14477   */\n      tag_346\n      jump\t// in\n    tag_550:\n        /* \"#utility.yul\":14502:14508   */\n      dup1\n        /* \"#utility.yul\":14497:14500   */\n      dup5\n        /* \"#utility.yul\":14493:14509   */\n      add\n        /* \"#utility.yul\":14486:14509   */\n      swap2\n      pop\n        /* \"#utility.yul\":14235:14515   */\n      pop\n        /* \"#utility.yul\":14125:14515   */\n      swap3\n      swap2\n      pop\n      pop\n      jump\t// out\n        /* \"#utility.yul\":14521:14956   */\n    tag_183:\n        /* \"#utility.yul\":14701:14704   */\n      0x00\n        /* \"#utility.yul\":14723:14818   */\n      tag_552\n        /* \"#utility.yul\":14814:14817   */\n      dup3\n        /* \"#utility.yul\":14805:14811   */\n      dup6\n        /* \"#utility.yul\":14723:14818   */\n      tag_377\n      jump\t// in\n    tag_552:\n        /* \"#utility.yul\":14716:14818   */\n      swap2\n      pop\n        /* \"#utility.yul\":14835:14930   */\n      tag_553\n        /* \"#utility.yul\":14926:14929   */\n      dup3\n        /* \"#utility.yul\":14917:14923   */\n      dup5\n        /* \"#utility.yul\":14835:14930   */\n      tag_377\n      jump\t// in\n    tag_553:\n        /* \"#utility.yul\":14828:14930   */\n      swap2\n      pop\n        /* \"#utility.yul\":14947:14950   */\n      dup2\n        /* \"#utility.yul\":14940:14950   */\n      swap1\n      pop\n        /* \"#utility.yul\":14521:14956   */\n      swap4\n      swap3\n      pop\n      pop\n      pop\n      jump\t// out\n        /* \"#utility.yul\":14962:15060   */\n    tag_378:\n        /* \"#utility.yul\":15013:15019   */\n      0x00\n        /* \"#utility.yul\":15047:15052   */\n      dup2\n        /* \"#utility.yul\":15041:15053   */\n      mload\n        /* \"#utility.yul\":15031:15053   */\n      swap1\n      pop\n        /* \"#utility.yul\":14962:15060   */\n      swap2\n      swap1\n      pop\n      jump\t// out\n        /* \"#utility.yul\":15066:15234   */\n    tag_379:\n        /* \"#utility.yul\":15149:15160   */\n      0x00\n        /* \"#utility.yul\":15183:15189   */\n      dup3\n        /* \"#utility.yul\":15178:15181   */\n      dup3\n        /* \"#utility.yul\":15171:15190   */\n      mstore\n        /* \"#utility.yul\":15223:15227   */\n      0x20\n        /* \"#utility.yul\":15218:15221   */\n      dup3\n        /* \"#utility.yul\":15214:15228   */\n      add\n        /* \"#utility.yul\":15199:15228   */\n      swap1\n      pop\n        /* \"#utility.yul\":15066:15234   */\n      swap3\n      swap2\n      pop\n      pop\n      jump\t// out\n        /* \"#utility.yul\":15240:15613   */\n    tag_380:\n        /* \"#utility.yul\":15326:15329   */\n      0x00\n        /* \"#utility.yul\":15354:15392   */\n      tag_557\n        /* \"#utility.yul\":15386:15391   */\n      dup3\n        /* \"#utility.yul\":15354:15392   */\n      tag_378\n      jump\t// in\n    tag_557:\n        /* \"#utility.yul\":15408:15478   */\n      tag_558\n        /* \"#utility.yul\":15471:15477   */\n      dup2\n        /* \"#utility.yul\":15466:15469   */\n      dup6\n        /* \"#utility.yul\":15408:15478   */\n      tag_379\n      jump\t// in\n    tag_558:\n        /* \"#utility.yul\":15401:15478   */\n      swap4\n      pop\n        /* \"#utility.yul\":15487:15552   */\n      tag_559\n        /* \"#utility.yul\":15545:15551   */\n      dup2\n        /* \"#utility.yul\":15540:15543   */\n      dup6\n        /* \"#utility.yul\":15533:15537   */\n      0x20\n        /* \"#utility.yul\":15526:15531   */\n      dup7\n        /* \"#utility.yul\":15522:15538   */\n      add\n        /* \"#utility.yul\":15487:15552   */\n      tag_346\n      jump\t// in\n    tag_559:\n        /* \"#utility.yul\":15577:15606   */\n      tag_560\n        /* \"#utility.yul\":15599:15605   */\n      dup2\n        /* \"#utility.yul\":15577:15606   */\n      tag_347\n      jump\t// in\n    tag_560:\n        /* \"#utility.yul\":15572:15575   */\n      dup5\n        /* \"#utility.yul\":15568:15607   */\n      add\n        /* \"#utility.yul\":15561:15607   */\n      swap2\n      pop\n        /* \"#utility.yul\":15330:15613   */\n      pop\n        /* \"#utility.yul\":15240:15613   */\n      swap3\n      swap2\n      pop\n      pop\n      jump\t// out\n        /* \"#utility.yul\":15619:16259   */\n    tag_231:\n        /* \"#utility.yul\":15814:15818   */\n      0x00\n        /* \"#utility.yul\":15852:15855   */\n      0x80\n        /* \"#utility.yul\":15841:15850   */\n      dup3\n        /* \"#utility.yul\":15837:15856   */\n      add\n        /* \"#utility.yul\":15829:15856   */\n      swap1\n      pop\n        /* \"#utility.yul\":15866:15937   */\n      tag_562\n        /* \"#utility.yul\":15934:15935   */\n      0x00\n        /* \"#utility.yul\":15923:15932   */\n      dup4\n        /* \"#utility.yul\":15919:15936   */\n      add\n        /* \"#utility.yul\":15910:15916   */\n      dup8\n        /* \"#utility.yul\":15866:15937   */\n      tag_354\n      jump\t// in\n    tag_562:\n        /* \"#utility.yul\":15947:16019   */\n      tag_563\n        /* \"#utility.yul\":16015:16017   */\n      0x20\n        /* \"#utility.yul\":16004:16013   */\n      dup4\n        /* \"#utility.yul\":16000:16018   */\n      add\n        /* \"#utility.yul\":15991:15997   */\n      dup7\n        /* \"#utility.yul\":15947:16019   */\n      tag_354\n      jump\t// in\n    tag_563:\n        /* \"#utility.yul\":16029:16101   */\n      tag_564\n        /* \"#utility.yul\":16097:16099   */\n      0x40\n        /* \"#utility.yul\":16086:16095   */\n      dup4\n        /* \"#utility.yul\":16082:16100   */\n      add\n        /* \"#utility.yul\":16073:16079   */\n      dup6\n        /* \"#utility.yul\":16029:16101   */\n      tag_357\n      jump\t// in\n    tag_564:\n        /* \"#utility.yul\":16148:16157   */\n      dup2\n        /* \"#utility.yul\":16142:16146   */\n      dup2\n        /* \"#utility.yul\":16138:16158   */\n      sub\n        /* \"#utility.yul\":16133:16135   */\n      0x60\n        /* \"#utility.yul\":16122:16131   */\n      dup4\n        /* \"#utility.yul\":16118:16136   */\n      add\n        /* \"#utility.yul\":16111:16159   */\n      mstore\n        /* \"#utility.yul\":16176:16252   */\n      tag_565\n        /* \"#utility.yul\":16247:16251   */\n      dup2\n        /* \"#utility.yul\":16238:16244   */\n      dup5\n        /* \"#utility.yul\":16176:16252   */\n      tag_380\n      jump\t// in\n    tag_565:\n        /* \"#utility.yul\":16168:16252   */\n      swap1\n      pop\n        /* \"#utility.yul\":15619:16259   */\n      swap6\n      swap5\n      pop\n      pop\n      pop\n      pop\n      pop\n      jump\t// out\n        /* \"#utility.yul\":16265:16406   */\n    tag_381:\n        /* \"#utility.yul\":16321:16326   */\n      0x00\n        /* \"#utility.yul\":16352:16358   */\n      dup2\n        /* \"#utility.yul\":16346:16359   */\n      mload\n        /* \"#utility.yul\":16337:16359   */\n      swap1\n      pop\n        /* \"#utility.yul\":16368:16400   */\n      tag_567\n        /* \"#utility.yul\":16394:16399   */\n      dup2\n        /* \"#utility.yul\":16368:16400   */\n      tag_340\n      jump\t// in\n    tag_567:\n        /* \"#utility.yul\":16265:16406   */\n      swap3\n      swap2\n      pop\n      pop\n      jump\t// out\n        /* \"#utility.yul\":16412:16761   */\n    tag_234:\n        /* \"#utility.yul\":16481:16487   */\n      0x00\n        /* \"#utility.yul\":16530:16532   */\n      0x20\n        /* \"#utility.yul\":16518:16527   */\n      dup3\n        /* \"#utility.yul\":16509:16516   */\n      dup5\n        /* \"#utility.yul\":16505:16528   */\n      sub\n        /* \"#utility.yul\":16501:16533   */\n      slt\n        /* \"#utility.yul\":16498:16617   */\n      iszero\n      tag_569\n      jumpi\n        /* \"#utility.yul\":16536:16615   */\n      tag_570\n      tag_337\n      jump\t// in\n    tag_570:\n        /* \"#utility.yul\":16498:16617   */\n    tag_569:\n        /* \"#utility.yul\":16656:16657   */\n      0x00\n        /* \"#utility.yul\":16681:16744   */\n      tag_571\n        /* \"#utility.yul\":16736:16743   */\n      dup5\n        /* \"#utility.yul\":16727:16733   */\n      dup3\n        /* \"#utility.yul\":16716:16725   */\n      dup6\n        /* \"#utility.yul\":16712:16734   */\n      add\n        /* \"#utility.yul\":16681:16744   */\n      tag_381\n      jump\t// in\n    tag_571:\n        /* \"#utility.yul\":16671:16744   */\n      swap2\n      pop\n        /* \"#utility.yul\":16627:16754   */\n      pop\n        /* \"#utility.yul\":16412:16761   */\n      swap3\n      swap2\n      pop\n      pop\n      jump\t// out\n        /* \"#utility.yul\":16767:16961   */\n    tag_288:\n        /* \"#utility.yul\":16807:16811   */\n      0x00\n        /* \"#utility.yul\":16827:16847   */\n      tag_573\n        /* \"#utility.yul\":16845:16846   */\n      dup3\n        /* \"#utility.yul\":16827:16847   */\n      tag_349\n      jump\t// in\n    tag_573:\n        /* \"#utility.yul\":16822:16847   */\n      swap2\n      pop\n        /* \"#utility.yul\":16861:16881   */\n      tag_574\n        /* \"#utility.yul\":16879:16880   */\n      dup4\n        /* \"#utility.yul\":16861:16881   */\n      tag_349\n      jump\t// in\n    tag_574:\n        /* \"#utility.yul\":16856:16881   */\n      swap3\n      pop\n        /* \"#utility.yul\":16905:16906   */\n      dup3\n        /* \"#utility.yul\":16902:16903   */\n      dup3\n        /* \"#utility.yul\":16898:16907   */\n      sub\n        /* \"#utility.yul\":16890:16907   */\n      swap1\n      pop\n        /* \"#utility.yul\":16929:16930   */\n      dup2\n        /* \"#utility.yul\":16923:16927   */\n      dup2\n        /* \"#utility.yul\":16920:16931   */\n      gt\n        /* \"#utility.yul\":16917:16954   */\n      iszero\n      tag_575\n      jumpi\n        /* \"#utility.yul\":16934:16952   */\n      tag_576\n      tag_369\n      jump\t// in\n    tag_576:\n        /* \"#utility.yul\":16917:16954   */\n    tag_575:\n        /* \"#utility.yul\":16767:16961   */\n      swap3\n      swap2\n      pop\n      pop\n      jump\t// out\n        /* \"#utility.yul\":16967:17147   */\n    tag_297:\n        /* \"#utility.yul\":17015:17092   */\n      0x4e487b7100000000000000000000000000000000000000000000000000000000\n        /* \"#utility.yul\":17012:17013   */\n      0x00\n        /* \"#utility.yul\":17005:17093   */\n      mstore\n        /* \"#utility.yul\":17112:17116   */\n      0x31\n        /* \"#utility.yul\":17109:17110   */\n      0x04\n        /* \"#utility.yul\":17102:17117   */\n      mstore\n        /* \"#utility.yul\":17136:17140   */\n      0x24\n        /* \"#utility.yul\":17133:17134   */\n      0x00\n        /* \"#utility.yul\":17126:17141   */\n      revert\n\n    auxdata: 0xa264697066735822122035e7c45e186f98e758d55c0a8928f07d9061e557d09c0f1eb394754be880b32564736f6c634300081a0033\n}\n",
				"bytecode": {
					"linkReferences": {},
					"object": "608060405234801561001057600080fd5b506040518060400160405280601081526020017f626f757267656f6973416e696d616c73000000000000000000000000000000008152506040518060400160405280600381526020017f4241530000000000000000000000000000000000000000000000000000000000815250816000908161008c91906102f4565b50806001908161009c91906102f4565b5050506103c6565b600081519050919050565b7f4e487b7100000000000000000000000000000000000000000000000000000000600052604160045260246000fd5b7f4e487b7100000000000000000000000000000000000000000000000000000000600052602260045260246000fd5b6000600282049050600182168061012557607f821691505b602082108103610138576101376100de565b5b50919050565b60008190508160005260206000209050919050565b60006020601f8301049050919050565b600082821b905092915050565b6000600883026101a07fffffffffffffffffffffffffffffffffffffffffffffffffffffffffffffffff82610163565b6101aa8683610163565b95508019841693508086168417925050509392505050565b6000819050919050565b6000819050919050565b60006101f16101ec6101e7846101c2565b6101cc565b6101c2565b9050919050565b6000819050919050565b61020b836101d6565b61021f610217826101f8565b848454610170565b825550505050565b600090565b610234610227565b61023f818484610202565b505050565b5b818110156102635761025860008261022c565b600181019050610245565b5050565b601f8211156102a8576102798161013e565b61028284610153565b81016020851015610291578190505b6102a561029d85610153565b830182610244565b50505b505050565b600082821c905092915050565b60006102cb600019846008026102ad565b1980831691505092915050565b60006102e483836102ba565b9150826002028217905092915050565b6102fd826100a4565b67ffffffffffffffff811115610316576103156100af565b5b610320825461010d565b61032b828285610267565b600060209050601f83116001811461035e576000841561034c578287015190505b61035685826102d8565b8655506103be565b601f19841661036c8661013e565b60005b828110156103945784890151825560018201915060208501945060208101905061036f565b868310156103b157848901516103ad601f8916826102ba565b8355505b6001600288020188555050505b505050505050565b6126a9806103d56000396000f3fe608060405234801561001057600080fd5b50600436106101165760003560e01c80634f6ccce7116100a257806395d89b411161007157806395d89b4114610305578063a22cb46514610323578063b88d4fde1461033f578063c87b56dd1461035b578063e985e9c51461038b57610116565b80634f6ccce71461026b57806362b4c27f1461029b5780636352211e146102a557806370a08231146102d557610116565b806318160ddd116100e957806318160ddd146101b557806323b872dd146101d35780632f745c59146101ef57806342842e0e1461021f5780634e7fe41e1461023b57610116565b806301ffc9a71461011b57806306fdde031461014b578063081812fc14610169578063095ea7b314610199575b600080fd5b61013560048036038101906101309190611d27565b6103bb565b6040516101429190611d6f565b60405180910390f35b610153610435565b6040516101609190611e1a565b60405180910390f35b610183600480360381019061017e9190611e72565b6104c7565b6040516101909190611ee0565b60405180910390f35b6101b360048036038101906101ae9190611f27565b6104e3565b005b6101bd6104f9565b6040516101ca9190611f76565b60405180910390f35b6101ed60048036038101906101e89190611f91565b610506565b005b61020960048036038101906102049190611f27565b610608565b6040516102169190611f76565b60405180910390f35b61023960048036038101906102349190611f91565b6106b1565b005b61025560048036038101906102509190611e72565b6106d1565b6040516102629190611f76565b60405180910390f35b61028560048036038101906102809190611e72565b6106e9565b6040516102929190611f76565b60405180910390f35b6102a361075f565b005b6102bf60048036038101906102ba9190611e72565b6107e7565b6040516102cc9190611ee0565b60405180910390f35b6102ef60048036038101906102ea9190611fe4565b6107f9565b6040516102fc9190611f76565b60405180910390f35b61030d6108b3565b60405161031a9190611e1a565b60405180910390f35b61033d6004803603810190610338919061203d565b610945565b005b610359600480360381019061035491906121b2565b61095b565b005b61037560048036038101906103709190611e72565b610978565b6040516103829190611e1a565b60405180910390f35b6103a560048036038101906103a09190612235565b6109e1565b6040516103b29190611d6f565b60405180910390f35b60007f780e9d63000000000000000000000000000000000000000000000000000000007bffffffffffffffffffffffffffffffffffffffffffffffffffffffff1916827bffffffffffffffffffffffffffffffffffffffffffffffffffffffff1916148061042e575061042d82610a75565b5b9050919050565b606060008054610444906122a4565b80601f0160208091040260200160405190810160405280929190818152602001828054610470906122a4565b80156104bd5780601f10610492576101008083540402835291602001916104bd565b820191906000526020600020905b8154815290600101906020018083116104a057829003601f168201915b5050505050905090565b60006104d282610b57565b506104dc82610bdf565b9050919050565b6104f582826104f0610c1c565b610c24565b5050565b6000600880549050905090565b600073ffffffffffffffffffffffffffffffffffffffff168273ffffffffffffffffffffffffffffffffffffffff16036105785760006040517f64a0ae9200000000000000000000000000000000000000000000000000000000815260040161056f9190611ee0565b60405180910390fd5b600061058c8383610587610c1c565b610c36565b90508373ffffffffffffffffffffffffffffffffffffffff168173ffffffffffffffffffffffffffffffffffffffff1614610602578382826040517f64283d7b0000000000000000000000000000000000000000000000000000000081526004016105f9939291906122d5565b60405180910390fd5b50505050565b6000610613836107f9565b82106106585782826040517fa57d13dc00000000000000000000000000000000000000000000000000000000815260040161064f92919061230c565b60405180910390fd5b600660008473ffffffffffffffffffffffffffffffffffffffff1673ffffffffffffffffffffffffffffffffffffffff168152602001908152602001600020600083815260200190815260200160002054905092915050565b6106cc8383836040518060200160405280600081525061095b565b505050565b600a6020528060005260406000206000915090505481565b60006106f36104f9565b8210610739576000826040517fa57d13dc00000000000000000000000000000000000000000000000000000000815260040161073092919061230c565b60405180910390fd5b6008828154811061074d5761074c612335565b5b90600052602060002001549050919050565b6000600161076b6104f9565b6107759190612393565b905060006001600542338560405160200161079293929190612430565b6040516020818303038152906040528051906020012060001c6107b5919061249c565b6107bf9190612393565b905080600a6000848152602001908152602001600020819055506107e33383610d53565b5050565b60006107f282610b57565b9050919050565b60008073ffffffffffffffffffffffffffffffffffffffff168273ffffffffffffffffffffffffffffffffffffffff160361086c5760006040517f89c62b640000000000000000000000000000000000000000000000000000000081526004016108639190611ee0565b60405180910390fd5b600360008373ffffffffffffffffffffffffffffffffffffffff1673ffffffffffffffffffffffffffffffffffffffff168152602001908152602001600020549050919050565b6060600180546108c2906122a4565b80601f01602080910402602001604051908101604052809291908181526020018280546108ee906122a4565b801561093b5780601f106109105761010080835404028352916020019161093b565b820191906000526020600020905b81548152906001019060200180831161091e57829003601f168201915b5050505050905090565b610957610950610c1c565b8383610e4c565b5050565b610966848484610506565b61097284848484610fbb565b50505050565b606061098382610b57565b50600061098e611172565b905060008151116109ae57604051806020016040528060008152506109d9565b806109b884611189565b6040516020016109c9929190612509565b6040516020818303038152906040525b915050919050565b6000600560008473ffffffffffffffffffffffffffffffffffffffff1673ffffffffffffffffffffffffffffffffffffffff16815260200190815260200160002060008373ffffffffffffffffffffffffffffffffffffffff1673ffffffffffffffffffffffffffffffffffffffff16815260200190815260200160002060009054906101000a900460ff16905092915050565b60007f80ac58cd000000000000000000000000000000000000000000000000000000007bffffffffffffffffffffffffffffffffffffffffffffffffffffffff1916827bffffffffffffffffffffffffffffffffffffffffffffffffffffffff19161480610b4057507f5b5e139f000000000000000000000000000000000000000000000000000000007bffffffffffffffffffffffffffffffffffffffffffffffffffffffff1916827bffffffffffffffffffffffffffffffffffffffffffffffffffffffff1916145b80610b505750610b4f82611257565b5b9050919050565b600080610b63836112c1565b9050600073ffffffffffffffffffffffffffffffffffffffff168173ffffffffffffffffffffffffffffffffffffffff1603610bd657826040517f7e273289000000000000000000000000000000000000000000000000000000008152600401610bcd9190611f76565b60405180910390fd5b80915050919050565b60006004600083815260200190815260200160002060009054906101000a900473ffffffffffffffffffffffffffffffffffffffff169050919050565b600033905090565b610c3183838360016112fe565b505050565b600080610c448585856114c3565b9050600073ffffffffffffffffffffffffffffffffffffffff168173ffffffffffffffffffffffffffffffffffffffff1603610c8857610c83846116dd565b610cc7565b8473ffffffffffffffffffffffffffffffffffffffff168173ffffffffffffffffffffffffffffffffffffffff1614610cc657610cc58185611726565b5b5b600073ffffffffffffffffffffffffffffffffffffffff168573ffffffffffffffffffffffffffffffffffffffff1603610d0957610d0484611887565b610d48565b8473ffffffffffffffffffffffffffffffffffffffff168173ffffffffffffffffffffffffffffffffffffffff1614610d4757610d468585611958565b5b5b809150509392505050565b600073ffffffffffffffffffffffffffffffffffffffff168273ffffffffffffffffffffffffffffffffffffffff1603610dc55760006040517f64a0ae92000000000000000000000000000000000000000000000000000000008152600401610dbc9190611ee0565b60405180910390fd5b6000610dd383836000610c36565b9050600073ffffffffffffffffffffffffffffffffffffffff168173ffffffffffffffffffffffffffffffffffffffff1614610e475760006040517f73c6ac6e000000000000000000000000000000000000000000000000000000008152600401610e3e9190611ee0565b60405180910390fd5b505050565b600073ffffffffffffffffffffffffffffffffffffffff168273ffffffffffffffffffffffffffffffffffffffff1603610ebd57816040517f5b08ba18000000000000000000000000000000000000000000000000000000008152600401610eb49190611ee0565b60405180910390fd5b80600560008573ffffffffffffffffffffffffffffffffffffffff1673ffffffffffffffffffffffffffffffffffffffff16815260200190815260200160002060008473ffffffffffffffffffffffffffffffffffffffff1673ffffffffffffffffffffffffffffffffffffffff16815260200190815260200160002060006101000a81548160ff0219169083151502179055508173ffffffffffffffffffffffffffffffffffffffff168373ffffffffffffffffffffffffffffffffffffffff167f17307eab39ab6107e8899845ad3d59bd9653f200f220920489ca2b5937696c3183604051610fae9190611d6f565b60405180910390a3505050565b60008373ffffffffffffffffffffffffffffffffffffffff163b111561116c578273ffffffffffffffffffffffffffffffffffffffff1663150b7a02610fff610c1c565b8685856040518563ffffffff1660e01b81526004016110219493929190612582565b6020604051808303816000875af192505050801561105d57506040513d601f19601f8201168201806040525081019061105a91906125e3565b60015b6110e1573d806000811461108d576040519150601f19603f3d011682016040523d82523d6000602084013e611092565b606091505b5060008151036110d957836040517f64a0ae920000000000000000000000000000000000000000000000000000000081526004016110d09190611ee0565b60405180910390fd5b805181602001fd5b63150b7a0260e01b7bffffffffffffffffffffffffffffffffffffffffffffffffffffffff1916817bffffffffffffffffffffffffffffffffffffffffffffffffffffffff19161461116a57836040517f64a0ae920000000000000000000000000000000000000000000000000000000081526004016111619190611ee0565b60405180910390fd5b505b50505050565b606060405180602001604052806000815250905090565b606060006001611198846119e3565b01905060008167ffffffffffffffff8111156111b7576111b6612087565b5b6040519080825280601f01601f1916602001820160405280156111e95781602001600182028036833780820191505090505b509050600082602001820190505b60011561124c578080600190039150507f3031323334353637383961626364656600000000000000000000000000000000600a86061a8153600a85816112405761123f61246d565b5b049450600085036111f7575b819350505050919050565b60007f01ffc9a7000000000000000000000000000000000000000000000000000000007bffffffffffffffffffffffffffffffffffffffffffffffffffffffff1916827bffffffffffffffffffffffffffffffffffffffffffffffffffffffff1916149050919050565b60006002600083815260200190815260200160002060009054906101000a900473ffffffffffffffffffffffffffffffffffffffff169050919050565b80806113375750600073ffffffffffffffffffffffffffffffffffffffff168273ffffffffffffffffffffffffffffffffffffffff1614155b1561146b57600061134784610b57565b9050600073ffffffffffffffffffffffffffffffffffffffff168373ffffffffffffffffffffffffffffffffffffffff16141580156113b257508273ffffffffffffffffffffffffffffffffffffffff168173ffffffffffffffffffffffffffffffffffffffff1614155b80156113c557506113c381846109e1565b155b1561140757826040517fa9fbf51f0000000000000000000000000000000000000000000000000000000081526004016113fe9190611ee0565b60405180910390fd5b811561146957838573ffffffffffffffffffffffffffffffffffffffff168273ffffffffffffffffffffffffffffffffffffffff167f8c5be1e5ebec7d5bd14f71427d1e84f3dd0314c0f7b2291e5b200ac8c7c3b92560405160405180910390a45b505b836004600085815260200190815260200160002060006101000a81548173ffffffffffffffffffffffffffffffffffffffff021916908373ffffffffffffffffffffffffffffffffffffffff16021790555050505050565b6000806114cf846112c1565b9050600073ffffffffffffffffffffffffffffffffffffffff168373ffffffffffffffffffffffffffffffffffffffff161461151157611510818486611b36565b5b600073ffffffffffffffffffffffffffffffffffffffff168173ffffffffffffffffffffffffffffffffffffffff16146115a2576115536000856000806112fe565b6001600360008373ffffffffffffffffffffffffffffffffffffffff1673ffffffffffffffffffffffffffffffffffffffff168152602001908152602001600020600082825403925050819055505b600073ffffffffffffffffffffffffffffffffffffffff168573ffffffffffffffffffffffffffffffffffffffff1614611625576001600360008773ffffffffffffffffffffffffffffffffffffffff1673ffffffffffffffffffffffffffffffffffffffff168152602001908152602001600020600082825401925050819055505b846002600086815260200190815260200160002060006101000a81548173ffffffffffffffffffffffffffffffffffffffff021916908373ffffffffffffffffffffffffffffffffffffffff160217905550838573ffffffffffffffffffffffffffffffffffffffff168273ffffffffffffffffffffffffffffffffffffffff167fddf252ad1be2c89b69c2b068fc378daa952ba7f163c4a11628f55a4df523b3ef60405160405180910390a4809150509392505050565b6008805490506009600083815260200190815260200160002081905550600881908060018154018082558091505060019003906000526020600020016000909190919091505550565b6000611731836107f9565b9050600060076000848152602001908152602001600020549050818114611816576000600660008673ffffffffffffffffffffffffffffffffffffffff1673ffffffffffffffffffffffffffffffffffffffff168152602001908152602001600020600084815260200190815260200160002054905080600660008773ffffffffffffffffffffffffffffffffffffffff1673ffffffffffffffffffffffffffffffffffffffff168152602001908152602001600020600084815260200190815260200160002081905550816007600083815260200190815260200160002081905550505b6007600084815260200190815260200160002060009055600660008573ffffffffffffffffffffffffffffffffffffffff1673ffffffffffffffffffffffffffffffffffffffff16815260200190815260200160002060008381526020019081526020016000206000905550505050565b6000600160088054905061189b9190612610565b90506000600960008481526020019081526020016000205490506000600883815481106118cb576118ca612335565b5b9060005260206000200154905080600883815481106118ed576118ec612335565b5b90600052602060002001819055508160096000838152602001908152602001600020819055506009600085815260200190815260200160002060009055600880548061193c5761193b612644565b5b6001900381819060005260206000200160009055905550505050565b60006001611965846107f9565b61196f9190612610565b905081600660008573ffffffffffffffffffffffffffffffffffffffff1673ffffffffffffffffffffffffffffffffffffffff168152602001908152602001600020600083815260200190815260200160002081905550806007600084815260200190815260200160002081905550505050565b600080600090507a184f03e93ff9f4daa797ed6e38ed64bf6a1f0100000000000000008310611a41577a184f03e93ff9f4daa797ed6e38ed64bf6a1f0100000000000000008381611a3757611a3661246d565b5b0492506040810190505b6d04ee2d6d415b85acef81000000008310611a7e576d04ee2d6d415b85acef81000000008381611a7457611a7361246d565b5b0492506020810190505b662386f26fc100008310611aad57662386f26fc100008381611aa357611aa261246d565b5b0492506010810190505b6305f5e1008310611ad6576305f5e1008381611acc57611acb61246d565b5b0492506008810190505b6127108310611afb576127108381611af157611af061246d565b5b0492506004810190505b60648310611b1e5760648381611b1457611b1361246d565b5b0492506002810190505b600a8310611b2d576001810190505b80915050919050565b611b41838383611bfa565b611bf557600073ffffffffffffffffffffffffffffffffffffffff168373ffffffffffffffffffffffffffffffffffffffff1603611bb657806040517f7e273289000000000000000000000000000000000000000000000000000000008152600401611bad9190611f76565b60405180910390fd5b81816040517f177e802f000000000000000000000000000000000000000000000000000000008152600401611bec92919061230c565b60405180910390fd5b505050565b60008073ffffffffffffffffffffffffffffffffffffffff168373ffffffffffffffffffffffffffffffffffffffff1614158015611cb257508273ffffffffffffffffffffffffffffffffffffffff168473ffffffffffffffffffffffffffffffffffffffff161480611c735750611c7284846109e1565b5b80611cb157508273ffffffffffffffffffffffffffffffffffffffff16611c9983610bdf565b73ffffffffffffffffffffffffffffffffffffffff16145b5b90509392505050565b6000604051905090565b600080fd5b600080fd5b60007fffffffff0000000000000000000000000000000000000000000000000000000082169050919050565b611d0481611ccf565b8114611d0f57600080fd5b50565b600081359050611d2181611cfb565b92915050565b600060208284031215611d3d57611d3c611cc5565b5b6000611d4b84828501611d12565b91505092915050565b60008115159050919050565b611d6981611d54565b82525050565b6000602082019050611d846000830184611d60565b92915050565b600081519050919050565b600082825260208201905092915050565b60005b83811015611dc4578082015181840152602081019050611da9565b60008484015250505050565b6000601f19601f8301169050919050565b6000611dec82611d8a565b611df68185611d95565b9350611e06818560208601611da6565b611e0f81611dd0565b840191505092915050565b60006020820190508181036000830152611e348184611de1565b905092915050565b6000819050919050565b611e4f81611e3c565b8114611e5a57600080fd5b50565b600081359050611e6c81611e46565b92915050565b600060208284031215611e8857611e87611cc5565b5b6000611e9684828501611e5d565b91505092915050565b600073ffffffffffffffffffffffffffffffffffffffff82169050919050565b6000611eca82611e9f565b9050919050565b611eda81611ebf565b82525050565b6000602082019050611ef56000830184611ed1565b92915050565b611f0481611ebf565b8114611f0f57600080fd5b50565b600081359050611f2181611efb565b92915050565b60008060408385031215611f3e57611f3d611cc5565b5b6000611f4c85828601611f12565b9250506020611f5d85828601611e5d565b9150509250929050565b611f7081611e3c565b82525050565b6000602082019050611f8b6000830184611f67565b92915050565b600080600060608486031215611faa57611fa9611cc5565b5b6000611fb886828701611f12565b9350506020611fc986828701611f12565b9250506040611fda86828701611e5d565b9150509250925092565b600060208284031215611ffa57611ff9611cc5565b5b600061200884828501611f12565b91505092915050565b61201a81611d54565b811461202557600080fd5b50565b60008135905061203781612011565b92915050565b6000806040838503121561205457612053611cc5565b5b600061206285828601611f12565b925050602061207385828601612028565b9150509250929050565b600080fd5b600080fd5b7f4e487b7100000000000000000000000000000000000000000000000000000000600052604160045260246000fd5b6120bf82611dd0565b810181811067ffffffffffffffff821117156120de576120dd612087565b5b80604052505050565b60006120f1611cbb565b90506120fd82826120b6565b919050565b600067ffffffffffffffff82111561211d5761211c612087565b5b61212682611dd0565b9050602081019050919050565b82818337600083830152505050565b600061215561215084612102565b6120e7565b90508281526020810184848401111561217157612170612082565b5b61217c848285612133565b509392505050565b600082601f8301126121995761219861207d565b5b81356121a9848260208601612142565b91505092915050565b600080600080608085870312156121cc576121cb611cc5565b5b60006121da87828801611f12565b94505060206121eb87828801611f12565b93505060406121fc87828801611e5d565b925050606085013567ffffffffffffffff81111561221d5761221c611cca565b5b61222987828801612184565b91505092959194509250565b6000806040838503121561224c5761224b611cc5565b5b600061225a85828601611f12565b925050602061226b85828601611f12565b9150509250929050565b7f4e487b7100000000000000000000000000000000000000000000000000000000600052602260045260246000fd5b600060028204905060018216806122bc57607f821691505b6020821081036122cf576122ce612275565b5b50919050565b60006060820190506122ea6000830186611ed1565b6122f76020830185611f67565b6123046040830184611ed1565b949350505050565b60006040820190506123216000830185611ed1565b61232e6020830184611f67565b9392505050565b7f4e487b7100000000000000000000000000000000000000000000000000000000600052603260045260246000fd5b7f4e487b7100000000000000000000000000000000000000000000000000000000600052601160045260246000fd5b600061239e82611e3c565b91506123a983611e3c565b92508282019050808211156123c1576123c0612364565b5b92915050565b6000819050919050565b6123e26123dd82611e3c565b6123c7565b82525050565b60008160601b9050919050565b6000612400826123e8565b9050919050565b6000612412826123f5565b9050919050565b61242a61242582611ebf565b612407565b82525050565b600061243c82866123d1565b60208201915061244c8285612419565b60148201915061245c82846123d1565b602082019150819050949350505050565b7f4e487b7100000000000000000000000000000000000000000000000000000000600052601260045260246000fd5b60006124a782611e3c565b91506124b283611e3c565b9250826124c2576124c161246d565b5b828206905092915050565b600081905092915050565b60006124e382611d8a565b6124ed81856124cd565b93506124fd818560208601611da6565b80840191505092915050565b600061251582856124d8565b915061252182846124d8565b91508190509392505050565b600081519050919050565b600082825260208201905092915050565b60006125548261252d565b61255e8185612538565b935061256e818560208601611da6565b61257781611dd0565b840191505092915050565b60006080820190506125976000830187611ed1565b6125a46020830186611ed1565b6125b16040830185611f67565b81810360608301526125c38184612549565b905095945050505050565b6000815190506125dd81611cfb565b92915050565b6000602082840312156125f9576125f8611cc5565b5b6000612607848285016125ce565b91505092915050565b600061261b82611e3c565b915061262683611e3c565b925082820390508181111561263e5761263d612364565b5b92915050565b7f4e487b7100000000000000000000000000000000000000000000000000000000600052603160045260246000fdfea264697066735822122035e7c45e186f98e758d55c0a8928f07d9061e557d09c0f1eb394754be880b32564736f6c634300081a0033",
					"opcodes": "PUSH1 0x80 PUSH1 0x40 MSTORE CALLVALUE DUP1 ISZERO PUSH2 0x10 JUMPI PUSH1 0x0 DUP1 REVERT JUMPDEST POP PUSH1 0x40 MLOAD DUP1 PUSH1 0x40 ADD PUSH1 0x40 MSTORE DUP1 PUSH1 0x10 DUP2 MSTORE PUSH1 0x20 ADD PUSH32 0x626F757267656F6973416E696D616C7300000000000000000000000000000000 DUP2 MSTORE POP PUSH1 0x40 MLOAD DUP1 PUSH1 0x40 ADD PUSH1 0x40 MSTORE DUP1 PUSH1 0x3 DUP2 MSTORE PUSH1 0x20 ADD PUSH32 0x4241530000000000000000000000000000000000000000000000000000000000 DUP2 MSTORE POP DUP2 PUSH1 0x0 SWAP1 DUP2 PUSH2 0x8C SWAP2 SWAP1 PUSH2 0x2F4 JUMP JUMPDEST POP DUP1 PUSH1 0x1 SWAP1 DUP2 PUSH2 0x9C SWAP2 SWAP1 PUSH2 0x2F4 JUMP JUMPDEST POP POP POP PUSH2 0x3C6 JUMP JUMPDEST PUSH1 0x0 DUP2 MLOAD SWAP1 POP SWAP2 SWAP1 POP JUMP JUMPDEST PUSH32 0x4E487B7100000000000000000000000000000000000000000000000000000000 PUSH1 0x0 MSTORE PUSH1 0x41 PUSH1 0x4 MSTORE PUSH1 0x24 PUSH1 0x0 REVERT JUMPDEST PUSH32 0x4E487B7100000000000000000000000000000000000000000000000000000000 PUSH1 0x0 MSTORE PUSH1 0x22 PUSH1 0x4 MSTORE PUSH1 0x24 PUSH1 0x0 REVERT JUMPDEST PUSH1 0x0 PUSH1 0x2 DUP3 DIV SWAP1 POP PUSH1 0x1 DUP3 AND DUP1 PUSH2 0x125 JUMPI PUSH1 0x7F DUP3 AND SWAP2 POP JUMPDEST PUSH1 0x20 DUP3 LT DUP2 SUB PUSH2 0x138 JUMPI PUSH2 0x137 PUSH2 0xDE JUMP JUMPDEST JUMPDEST POP SWAP2 SWAP1 POP JUMP JUMPDEST PUSH1 0x0 DUP2 SWAP1 POP DUP2 PUSH1 0x0 MSTORE PUSH1 0x20 PUSH1 0x0 KECCAK256 SWAP1 POP SWAP2 SWAP1 POP JUMP JUMPDEST PUSH1 0x0 PUSH1 0x20 PUSH1 0x1F DUP4 ADD DIV SWAP1 POP SWAP2 SWAP1 POP JUMP JUMPDEST PUSH1 0x0 DUP3 DUP3 SHL SWAP1 POP SWAP3 SWAP2 POP POP JUMP JUMPDEST PUSH1 0x0 PUSH1 0x8 DUP4 MUL PUSH2 0x1A0 PUSH32 0xFFFFFFFFFFFFFFFFFFFFFFFFFFFFFFFFFFFFFFFFFFFFFFFFFFFFFFFFFFFFFFFF DUP3 PUSH2 0x163 JUMP JUMPDEST PUSH2 0x1AA DUP7 DUP4 PUSH2 0x163 JUMP JUMPDEST SWAP6 POP DUP1 NOT DUP5 AND SWAP4 POP DUP1 DUP7 AND DUP5 OR SWAP3 POP POP POP SWAP4 SWAP3 POP POP POP JUMP JUMPDEST PUSH1 0x0 DUP2 SWAP1 POP SWAP2 SWAP1 POP JUMP JUMPDEST PUSH1 0x0 DUP2 SWAP1 POP SWAP2 SWAP1 POP JUMP JUMPDEST PUSH1 0x0 PUSH2 0x1F1 PUSH2 0x1EC PUSH2 0x1E7 DUP5 PUSH2 0x1C2 JUMP JUMPDEST PUSH2 0x1CC JUMP JUMPDEST PUSH2 0x1C2 JUMP JUMPDEST SWAP1 POP SWAP2 SWAP1 POP JUMP JUMPDEST PUSH1 0x0 DUP2 SWAP1 POP SWAP2 SWAP1 POP JUMP JUMPDEST PUSH2 0x20B DUP4 PUSH2 0x1D6 JUMP JUMPDEST PUSH2 0x21F PUSH2 0x217 DUP3 PUSH2 0x1F8 JUMP JUMPDEST DUP5 DUP5 SLOAD PUSH2 0x170 JUMP JUMPDEST DUP3 SSTORE POP POP POP POP JUMP JUMPDEST PUSH1 0x0 SWAP1 JUMP JUMPDEST PUSH2 0x234 PUSH2 0x227 JUMP JUMPDEST PUSH2 0x23F DUP2 DUP5 DUP5 PUSH2 0x202 JUMP JUMPDEST POP POP POP JUMP JUMPDEST JUMPDEST DUP2 DUP2 LT ISZERO PUSH2 0x263 JUMPI PUSH2 0x258 PUSH1 0x0 DUP3 PUSH2 0x22C JUMP JUMPDEST PUSH1 0x1 DUP2 ADD SWAP1 POP PUSH2 0x245 JUMP JUMPDEST POP POP JUMP JUMPDEST PUSH1 0x1F DUP3 GT ISZERO PUSH2 0x2A8 JUMPI PUSH2 0x279 DUP2 PUSH2 0x13E JUMP JUMPDEST PUSH2 0x282 DUP5 PUSH2 0x153 JUMP JUMPDEST DUP2 ADD PUSH1 0x20 DUP6 LT ISZERO PUSH2 0x291 JUMPI DUP2 SWAP1 POP JUMPDEST PUSH2 0x2A5 PUSH2 0x29D DUP6 PUSH2 0x153 JUMP JUMPDEST DUP4 ADD DUP3 PUSH2 0x244 JUMP JUMPDEST POP POP JUMPDEST POP POP POP JUMP JUMPDEST PUSH1 0x0 DUP3 DUP3 SHR SWAP1 POP SWAP3 SWAP2 POP POP JUMP JUMPDEST PUSH1 0x0 PUSH2 0x2CB PUSH1 0x0 NOT DUP5 PUSH1 0x8 MUL PUSH2 0x2AD JUMP JUMPDEST NOT DUP1 DUP4 AND SWAP2 POP POP SWAP3 SWAP2 POP POP JUMP JUMPDEST PUSH1 0x0 PUSH2 0x2E4 DUP4 DUP4 PUSH2 0x2BA JUMP JUMPDEST SWAP2 POP DUP3 PUSH1 0x2 MUL DUP3 OR SWAP1 POP SWAP3 SWAP2 POP POP JUMP JUMPDEST PUSH2 0x2FD DUP3 PUSH2 0xA4 JUMP JUMPDEST PUSH8 0xFFFFFFFFFFFFFFFF DUP2 GT ISZERO PUSH2 0x316 JUMPI PUSH2 0x315 PUSH2 0xAF JUMP JUMPDEST JUMPDEST PUSH2 0x320 DUP3 SLOAD PUSH2 0x10D JUMP JUMPDEST PUSH2 0x32B DUP3 DUP3 DUP6 PUSH2 0x267 JUMP JUMPDEST PUSH1 0x0 PUSH1 0x20 SWAP1 POP PUSH1 0x1F DUP4 GT PUSH1 0x1 DUP2 EQ PUSH2 0x35E JUMPI PUSH1 0x0 DUP5 ISZERO PUSH2 0x34C JUMPI DUP3 DUP8 ADD MLOAD SWAP1 POP JUMPDEST PUSH2 0x356 DUP6 DUP3 PUSH2 0x2D8 JUMP JUMPDEST DUP7 SSTORE POP PUSH2 0x3BE JUMP JUMPDEST PUSH1 0x1F NOT DUP5 AND PUSH2 0x36C DUP7 PUSH2 0x13E JUMP JUMPDEST PUSH1 0x0 JUMPDEST DUP3 DUP2 LT ISZERO PUSH2 0x394 JUMPI DUP5 DUP10 ADD MLOAD DUP3 SSTORE PUSH1 0x1 DUP3 ADD SWAP2 POP PUSH1 0x20 DUP6 ADD SWAP5 POP PUSH1 0x20 DUP2 ADD SWAP1 POP PUSH2 0x36F JUMP JUMPDEST DUP7 DUP4 LT ISZERO PUSH2 0x3B1 JUMPI DUP5 DUP10 ADD MLOAD PUSH2 0x3AD PUSH1 0x1F DUP10 AND DUP3 PUSH2 0x2BA JUMP JUMPDEST DUP4 SSTORE POP JUMPDEST PUSH1 0x1 PUSH1 0x2 DUP9 MUL ADD DUP9 SSTORE POP POP POP JUMPDEST POP POP POP POP POP POP JUMP JUMPDEST PUSH2 0x26A9 DUP1 PUSH2 0x3D5 PUSH1 0x0 CODECOPY PUSH1 0x0 RETURN INVALID PUSH1 0x80 PUSH1 0x40 MSTORE CALLVALUE DUP1 ISZERO PUSH2 0x10 JUMPI PUSH1 0x0 DUP1 REVERT JUMPDEST POP PUSH1 0x4 CALLDATASIZE LT PUSH2 0x116 JUMPI PUSH1 0x0 CALLDATALOAD PUSH1 0xE0 SHR DUP1 PUSH4 0x4F6CCCE7 GT PUSH2 0xA2 JUMPI DUP1 PUSH4 0x95D89B41 GT PUSH2 0x71 JUMPI DUP1 PUSH4 0x95D89B41 EQ PUSH2 0x305 JUMPI DUP1 PUSH4 0xA22CB465 EQ PUSH2 0x323 JUMPI DUP1 PUSH4 0xB88D4FDE EQ PUSH2 0x33F JUMPI DUP1 PUSH4 0xC87B56DD EQ PUSH2 0x35B JUMPI DUP1 PUSH4 0xE985E9C5 EQ PUSH2 0x38B JUMPI PUSH2 0x116 JUMP JUMPDEST DUP1 PUSH4 0x4F6CCCE7 EQ PUSH2 0x26B JUMPI DUP1 PUSH4 0x62B4C27F EQ PUSH2 0x29B JUMPI DUP1 PUSH4 0x6352211E EQ PUSH2 0x2A5 JUMPI DUP1 PUSH4 0x70A08231 EQ PUSH2 0x2D5 JUMPI PUSH2 0x116 JUMP JUMPDEST DUP1 PUSH4 0x18160DDD GT PUSH2 0xE9 JUMPI DUP1 PUSH4 0x18160DDD EQ PUSH2 0x1B5 JUMPI DUP1 PUSH4 0x23B872DD EQ PUSH2 0x1D3 JUMPI DUP1 PUSH4 0x2F745C59 EQ PUSH2 0x1EF JUMPI DUP1 PUSH4 0x42842E0E EQ PUSH2 0x21F JUMPI DUP1 PUSH4 0x4E7FE41E EQ PUSH2 0x23B JUMPI PUSH2 0x116 JUMP JUMPDEST DUP1 PUSH4 0x1FFC9A7 EQ PUSH2 0x11B JUMPI DUP1 PUSH4 0x6FDDE03 EQ PUSH2 0x14B JUMPI DUP1 PUSH4 0x81812FC EQ PUSH2 0x169 JUMPI DUP1 PUSH4 0x95EA7B3 EQ PUSH2 0x199 JUMPI JUMPDEST PUSH1 0x0 DUP1 REVERT JUMPDEST PUSH2 0x135 PUSH1 0x4 DUP1 CALLDATASIZE SUB DUP2 ADD SWAP1 PUSH2 0x130 SWAP2 SWAP1 PUSH2 0x1D27 JUMP JUMPDEST PUSH2 0x3BB JUMP JUMPDEST PUSH1 0x40 MLOAD PUSH2 0x142 SWAP2 SWAP1 PUSH2 0x1D6F JUMP JUMPDEST PUSH1 0x40 MLOAD DUP1 SWAP2 SUB SWAP1 RETURN JUMPDEST PUSH2 0x153 PUSH2 0x435 JUMP JUMPDEST PUSH1 0x40 MLOAD PUSH2 0x160 SWAP2 SWAP1 PUSH2 0x1E1A JUMP JUMPDEST PUSH1 0x40 MLOAD DUP1 SWAP2 SUB SWAP1 RETURN JUMPDEST PUSH2 0x183 PUSH1 0x4 DUP1 CALLDATASIZE SUB DUP2 ADD SWAP1 PUSH2 0x17E SWAP2 SWAP1 PUSH2 0x1E72 JUMP JUMPDEST PUSH2 0x4C7 JUMP JUMPDEST PUSH1 0x40 MLOAD PUSH2 0x190 SWAP2 SWAP1 PUSH2 0x1EE0 JUMP JUMPDEST PUSH1 0x40 MLOAD DUP1 SWAP2 SUB SWAP1 RETURN JUMPDEST PUSH2 0x1B3 PUSH1 0x4 DUP1 CALLDATASIZE SUB DUP2 ADD SWAP1 PUSH2 0x1AE SWAP2 SWAP1 PUSH2 0x1F27 JUMP JUMPDEST PUSH2 0x4E3 JUMP JUMPDEST STOP JUMPDEST PUSH2 0x1BD PUSH2 0x4F9 JUMP JUMPDEST PUSH1 0x40 MLOAD PUSH2 0x1CA SWAP2 SWAP1 PUSH2 0x1F76 JUMP JUMPDEST PUSH1 0x40 MLOAD DUP1 SWAP2 SUB SWAP1 RETURN JUMPDEST PUSH2 0x1ED PUSH1 0x4 DUP1 CALLDATASIZE SUB DUP2 ADD SWAP1 PUSH2 0x1E8 SWAP2 SWAP1 PUSH2 0x1F91 JUMP JUMPDEST PUSH2 0x506 JUMP JUMPDEST STOP JUMPDEST PUSH2 0x209 PUSH1 0x4 DUP1 CALLDATASIZE SUB DUP2 ADD SWAP1 PUSH2 0x204 SWAP2 SWAP1 PUSH2 0x1F27 JUMP JUMPDEST PUSH2 0x608 JUMP JUMPDEST PUSH1 0x40 MLOAD PUSH2 0x216 SWAP2 SWAP1 PUSH2 0x1F76 JUMP JUMPDEST PUSH1 0x40 MLOAD DUP1 SWAP2 SUB SWAP1 RETURN JUMPDEST PUSH2 0x239 PUSH1 0x4 DUP1 CALLDATASIZE SUB DUP2 ADD SWAP1 PUSH2 0x234 SWAP2 SWAP1 PUSH2 0x1F91 JUMP JUMPDEST PUSH2 0x6B1 JUMP JUMPDEST STOP JUMPDEST PUSH2 0x255 PUSH1 0x4 DUP1 CALLDATASIZE SUB DUP2 ADD SWAP1 PUSH2 0x250 SWAP2 SWAP1 PUSH2 0x1E72 JUMP JUMPDEST PUSH2 0x6D1 JUMP JUMPDEST PUSH1 0x40 MLOAD PUSH2 0x262 SWAP2 SWAP1 PUSH2 0x1F76 JUMP JUMPDEST PUSH1 0x40 MLOAD DUP1 SWAP2 SUB SWAP1 RETURN JUMPDEST PUSH2 0x285 PUSH1 0x4 DUP1 CALLDATASIZE SUB DUP2 ADD SWAP1 PUSH2 0x280 SWAP2 SWAP1 PUSH2 0x1E72 JUMP JUMPDEST PUSH2 0x6E9 JUMP JUMPDEST PUSH1 0x40 MLOAD PUSH2 0x292 SWAP2 SWAP1 PUSH2 0x1F76 JUMP JUMPDEST PUSH1 0x40 MLOAD DUP1 SWAP2 SUB SWAP1 RETURN JUMPDEST PUSH2 0x2A3 PUSH2 0x75F JUMP JUMPDEST STOP JUMPDEST PUSH2 0x2BF PUSH1 0x4 DUP1 CALLDATASIZE SUB DUP2 ADD SWAP1 PUSH2 0x2BA SWAP2 SWAP1 PUSH2 0x1E72 JUMP JUMPDEST PUSH2 0x7E7 JUMP JUMPDEST PUSH1 0x40 MLOAD PUSH2 0x2CC SWAP2 SWAP1 PUSH2 0x1EE0 JUMP JUMPDEST PUSH1 0x40 MLOAD DUP1 SWAP2 SUB SWAP1 RETURN JUMPDEST PUSH2 0x2EF PUSH1 0x4 DUP1 CALLDATASIZE SUB DUP2 ADD SWAP1 PUSH2 0x2EA SWAP2 SWAP1 PUSH2 0x1FE4 JUMP JUMPDEST PUSH2 0x7F9 JUMP JUMPDEST PUSH1 0x40 MLOAD PUSH2 0x2FC SWAP2 SWAP1 PUSH2 0x1F76 JUMP JUMPDEST PUSH1 0x40 MLOAD DUP1 SWAP2 SUB SWAP1 RETURN JUMPDEST PUSH2 0x30D PUSH2 0x8B3 JUMP JUMPDEST PUSH1 0x40 MLOAD PUSH2 0x31A SWAP2 SWAP1 PUSH2 0x1E1A JUMP JUMPDEST PUSH1 0x40 MLOAD DUP1 SWAP2 SUB SWAP1 RETURN JUMPDEST PUSH2 0x33D PUSH1 0x4 DUP1 CALLDATASIZE SUB DUP2 ADD SWAP1 PUSH2 0x338 SWAP2 SWAP1 PUSH2 0x203D JUMP JUMPDEST PUSH2 0x945 JUMP JUMPDEST STOP JUMPDEST PUSH2 0x359 PUSH1 0x4 DUP1 CALLDATASIZE SUB DUP2 ADD SWAP1 PUSH2 0x354 SWAP2 SWAP1 PUSH2 0x21B2 JUMP JUMPDEST PUSH2 0x95B JUMP JUMPDEST STOP JUMPDEST PUSH2 0x375 PUSH1 0x4 DUP1 CALLDATASIZE SUB DUP2 ADD SWAP1 PUSH2 0x370 SWAP2 SWAP1 PUSH2 0x1E72 JUMP JUMPDEST PUSH2 0x978 JUMP JUMPDEST PUSH1 0x40 MLOAD PUSH2 0x382 SWAP2 SWAP1 PUSH2 0x1E1A JUMP JUMPDEST PUSH1 0x40 MLOAD DUP1 SWAP2 SUB SWAP1 RETURN JUMPDEST PUSH2 0x3A5 PUSH1 0x4 DUP1 CALLDATASIZE SUB DUP2 ADD SWAP1 PUSH2 0x3A0 SWAP2 SWAP1 PUSH2 0x2235 JUMP JUMPDEST PUSH2 0x9E1 JUMP JUMPDEST PUSH1 0x40 MLOAD PUSH2 0x3B2 SWAP2 SWAP1 PUSH2 0x1D6F JUMP JUMPDEST PUSH1 0x40 MLOAD DUP1 SWAP2 SUB SWAP1 RETURN JUMPDEST PUSH1 0x0 PUSH32 0x780E9D6300000000000000000000000000000000000000000000000000000000 PUSH28 0xFFFFFFFFFFFFFFFFFFFFFFFFFFFFFFFFFFFFFFFFFFFFFFFFFFFFFFFF NOT AND DUP3 PUSH28 0xFFFFFFFFFFFFFFFFFFFFFFFFFFFFFFFFFFFFFFFFFFFFFFFFFFFFFFFF NOT AND EQ DUP1 PUSH2 0x42E JUMPI POP PUSH2 0x42D DUP3 PUSH2 0xA75 JUMP JUMPDEST JUMPDEST SWAP1 POP SWAP2 SWAP1 POP JUMP JUMPDEST PUSH1 0x60 PUSH1 0x0 DUP1 SLOAD PUSH2 0x444 SWAP1 PUSH2 0x22A4 JUMP JUMPDEST DUP1 PUSH1 0x1F ADD PUSH1 0x20 DUP1 SWAP2 DIV MUL PUSH1 0x20 ADD PUSH1 0x40 MLOAD SWAP1 DUP2 ADD PUSH1 0x40 MSTORE DUP1 SWAP3 SWAP2 SWAP1 DUP2 DUP2 MSTORE PUSH1 0x20 ADD DUP3 DUP1 SLOAD PUSH2 0x470 SWAP1 PUSH2 0x22A4 JUMP JUMPDEST DUP1 ISZERO PUSH2 0x4BD JUMPI DUP1 PUSH1 0x1F LT PUSH2 0x492 JUMPI PUSH2 0x100 DUP1 DUP4 SLOAD DIV MUL DUP4 MSTORE SWAP2 PUSH1 0x20 ADD SWAP2 PUSH2 0x4BD JUMP JUMPDEST DUP3 ADD SWAP2 SWAP1 PUSH1 0x0 MSTORE PUSH1 0x20 PUSH1 0x0 KECCAK256 SWAP1 JUMPDEST DUP2 SLOAD DUP2 MSTORE SWAP1 PUSH1 0x1 ADD SWAP1 PUSH1 0x20 ADD DUP1 DUP4 GT PUSH2 0x4A0 JUMPI DUP3 SWAP1 SUB PUSH1 0x1F AND DUP3 ADD SWAP2 JUMPDEST POP POP POP POP POP SWAP1 POP SWAP1 JUMP JUMPDEST PUSH1 0x0 PUSH2 0x4D2 DUP3 PUSH2 0xB57 JUMP JUMPDEST POP PUSH2 0x4DC DUP3 PUSH2 0xBDF JUMP JUMPDEST SWAP1 POP SWAP2 SWAP1 POP JUMP JUMPDEST PUSH2 0x4F5 DUP3 DUP3 PUSH2 0x4F0 PUSH2 0xC1C JUMP JUMPDEST PUSH2 0xC24 JUMP JUMPDEST POP POP JUMP JUMPDEST PUSH1 0x0 PUSH1 0x8 DUP1 SLOAD SWAP1 POP SWAP1 POP SWAP1 JUMP JUMPDEST PUSH1 0x0 PUSH20 0xFFFFFFFFFFFFFFFFFFFFFFFFFFFFFFFFFFFFFFFF AND DUP3 PUSH20 0xFFFFFFFFFFFFFFFFFFFFFFFFFFFFFFFFFFFFFFFF AND SUB PUSH2 0x578 JUMPI PUSH1 0x0 PUSH1 0x40 MLOAD PUSH32 0x64A0AE9200000000000000000000000000000000000000000000000000000000 DUP2 MSTORE PUSH1 0x4 ADD PUSH2 0x56F SWAP2 SWAP1 PUSH2 0x1EE0 JUMP JUMPDEST PUSH1 0x40 MLOAD DUP1 SWAP2 SUB SWAP1 REVERT JUMPDEST PUSH1 0x0 PUSH2 0x58C DUP4 DUP4 PUSH2 0x587 PUSH2 0xC1C JUMP JUMPDEST PUSH2 0xC36 JUMP JUMPDEST SWAP1 POP DUP4 PUSH20 0xFFFFFFFFFFFFFFFFFFFFFFFFFFFFFFFFFFFFFFFF AND DUP2 PUSH20 0xFFFFFFFFFFFFFFFFFFFFFFFFFFFFFFFFFFFFFFFF AND EQ PUSH2 0x602 JUMPI DUP4 DUP3 DUP3 PUSH1 0x40 MLOAD PUSH32 0x64283D7B00000000000000000000000000000000000000000000000000000000 DUP2 MSTORE PUSH1 0x4 ADD PUSH2 0x5F9 SWAP4 SWAP3 SWAP2 SWAP1 PUSH2 0x22D5 JUMP JUMPDEST PUSH1 0x40 MLOAD DUP1 SWAP2 SUB SWAP1 REVERT JUMPDEST POP POP POP POP JUMP JUMPDEST PUSH1 0x0 PUSH2 0x613 DUP4 PUSH2 0x7F9 JUMP JUMPDEST DUP3 LT PUSH2 0x658 JUMPI DUP3 DUP3 PUSH1 0x40 MLOAD PUSH32 0xA57D13DC00000000000000000000000000000000000000000000000000000000 DUP2 MSTORE PUSH1 0x4 ADD PUSH2 0x64F SWAP3 SWAP2 SWAP1 PUSH2 0x230C JUMP JUMPDEST PUSH1 0x40 MLOAD DUP1 SWAP2 SUB SWAP1 REVERT JUMPDEST PUSH1 0x6 PUSH1 0x0 DUP5 PUSH20 0xFFFFFFFFFFFFFFFFFFFFFFFFFFFFFFFFFFFFFFFF AND PUSH20 0xFFFFFFFFFFFFFFFFFFFFFFFFFFFFFFFFFFFFFFFF AND DUP2 MSTORE PUSH1 0x20 ADD SWAP1 DUP2 MSTORE PUSH1 0x20 ADD PUSH1 0x0 KECCAK256 PUSH1 0x0 DUP4 DUP2 MSTORE PUSH1 0x20 ADD SWAP1 DUP2 MSTORE PUSH1 0x20 ADD PUSH1 0x0 KECCAK256 SLOAD SWAP1 POP SWAP3 SWAP2 POP POP JUMP JUMPDEST PUSH2 0x6CC DUP4 DUP4 DUP4 PUSH1 0x40 MLOAD DUP1 PUSH1 0x20 ADD PUSH1 0x40 MSTORE DUP1 PUSH1 0x0 DUP2 MSTORE POP PUSH2 0x95B JUMP JUMPDEST POP POP POP JUMP JUMPDEST PUSH1 0xA PUSH1 0x20 MSTORE DUP1 PUSH1 0x0 MSTORE PUSH1 0x40 PUSH1 0x0 KECCAK256 PUSH1 0x0 SWAP2 POP SWAP1 POP SLOAD DUP2 JUMP JUMPDEST PUSH1 0x0 PUSH2 0x6F3 PUSH2 0x4F9 JUMP JUMPDEST DUP3 LT PUSH2 0x739 JUMPI PUSH1 0x0 DUP3 PUSH1 0x40 MLOAD PUSH32 0xA57D13DC00000000000000000000000000000000000000000000000000000000 DUP2 MSTORE PUSH1 0x4 ADD PUSH2 0x730 SWAP3 SWAP2 SWAP1 PUSH2 0x230C JUMP JUMPDEST PUSH1 0x40 MLOAD DUP1 SWAP2 SUB SWAP1 REVERT JUMPDEST PUSH1 0x8 DUP3 DUP2 SLOAD DUP2 LT PUSH2 0x74D JUMPI PUSH2 0x74C PUSH2 0x2335 JUMP JUMPDEST JUMPDEST SWAP1 PUSH1 0x0 MSTORE PUSH1 0x20 PUSH1 0x0 KECCAK256 ADD SLOAD SWAP1 POP SWAP2 SWAP1 POP JUMP JUMPDEST PUSH1 0x0 PUSH1 0x1 PUSH2 0x76B PUSH2 0x4F9 JUMP JUMPDEST PUSH2 0x775 SWAP2 SWAP1 PUSH2 0x2393 JUMP JUMPDEST SWAP1 POP PUSH1 0x0 PUSH1 0x1 PUSH1 0x5 TIMESTAMP CALLER DUP6 PUSH1 0x40 MLOAD PUSH1 0x20 ADD PUSH2 0x792 SWAP4 SWAP3 SWAP2 SWAP1 PUSH2 0x2430 JUMP JUMPDEST PUSH1 0x40 MLOAD PUSH1 0x20 DUP2 DUP4 SUB SUB DUP2 MSTORE SWAP1 PUSH1 0x40 MSTORE DUP1 MLOAD SWAP1 PUSH1 0x20 ADD KECCAK256 PUSH1 0x0 SHR PUSH2 0x7B5 SWAP2 SWAP1 PUSH2 0x249C JUMP JUMPDEST PUSH2 0x7BF SWAP2 SWAP1 PUSH2 0x2393 JUMP JUMPDEST SWAP1 POP DUP1 PUSH1 0xA PUSH1 0x0 DUP5 DUP2 MSTORE PUSH1 0x20 ADD SWAP1 DUP2 MSTORE PUSH1 0x20 ADD PUSH1 0x0 KECCAK256 DUP2 SWAP1 SSTORE POP PUSH2 0x7E3 CALLER DUP4 PUSH2 0xD53 JUMP JUMPDEST POP POP JUMP JUMPDEST PUSH1 0x0 PUSH2 0x7F2 DUP3 PUSH2 0xB57 JUMP JUMPDEST SWAP1 POP SWAP2 SWAP1 POP JUMP JUMPDEST PUSH1 0x0 DUP1 PUSH20 0xFFFFFFFFFFFFFFFFFFFFFFFFFFFFFFFFFFFFFFFF AND DUP3 PUSH20 0xFFFFFFFFFFFFFFFFFFFFFFFFFFFFFFFFFFFFFFFF AND SUB PUSH2 0x86C JUMPI PUSH1 0x0 PUSH1 0x40 MLOAD PUSH32 0x89C62B6400000000000000000000000000000000000000000000000000000000 DUP2 MSTORE PUSH1 0x4 ADD PUSH2 0x863 SWAP2 SWAP1 PUSH2 0x1EE0 JUMP JUMPDEST PUSH1 0x40 MLOAD DUP1 SWAP2 SUB SWAP1 REVERT JUMPDEST PUSH1 0x3 PUSH1 0x0 DUP4 PUSH20 0xFFFFFFFFFFFFFFFFFFFFFFFFFFFFFFFFFFFFFFFF AND PUSH20 0xFFFFFFFFFFFFFFFFFFFFFFFFFFFFFFFFFFFFFFFF AND DUP2 MSTORE PUSH1 0x20 ADD SWAP1 DUP2 MSTORE PUSH1 0x20 ADD PUSH1 0x0 KECCAK256 SLOAD SWAP1 POP SWAP2 SWAP1 POP JUMP JUMPDEST PUSH1 0x60 PUSH1 0x1 DUP1 SLOAD PUSH2 0x8C2 SWAP1 PUSH2 0x22A4 JUMP JUMPDEST DUP1 PUSH1 0x1F ADD PUSH1 0x20 DUP1 SWAP2 DIV MUL PUSH1 0x20 ADD PUSH1 0x40 MLOAD SWAP1 DUP2 ADD PUSH1 0x40 MSTORE DUP1 SWAP3 SWAP2 SWAP1 DUP2 DUP2 MSTORE PUSH1 0x20 ADD DUP3 DUP1 SLOAD PUSH2 0x8EE SWAP1 PUSH2 0x22A4 JUMP JUMPDEST DUP1 ISZERO PUSH2 0x93B JUMPI DUP1 PUSH1 0x1F LT PUSH2 0x910 JUMPI PUSH2 0x100 DUP1 DUP4 SLOAD DIV MUL DUP4 MSTORE SWAP2 PUSH1 0x20 ADD SWAP2 PUSH2 0x93B JUMP JUMPDEST DUP3 ADD SWAP2 SWAP1 PUSH1 0x0 MSTORE PUSH1 0x20 PUSH1 0x0 KECCAK256 SWAP1 JUMPDEST DUP2 SLOAD DUP2 MSTORE SWAP1 PUSH1 0x1 ADD SWAP1 PUSH1 0x20 ADD DUP1 DUP4 GT PUSH2 0x91E JUMPI DUP3 SWAP1 SUB PUSH1 0x1F AND DUP3 ADD SWAP2 JUMPDEST POP POP POP POP POP SWAP1 POP SWAP1 JUMP JUMPDEST PUSH2 0x957 PUSH2 0x950 PUSH2 0xC1C JUMP JUMPDEST DUP4 DUP4 PUSH2 0xE4C JUMP JUMPDEST POP POP JUMP JUMPDEST PUSH2 0x966 DUP5 DUP5 DUP5 PUSH2 0x506 JUMP JUMPDEST PUSH2 0x972 DUP5 DUP5 DUP5 DUP5 PUSH2 0xFBB JUMP JUMPDEST POP POP POP POP JUMP JUMPDEST PUSH1 0x60 PUSH2 0x983 DUP3 PUSH2 0xB57 JUMP JUMPDEST POP PUSH1 0x0 PUSH2 0x98E PUSH2 0x1172 JUMP JUMPDEST SWAP1 POP PUSH1 0x0 DUP2 MLOAD GT PUSH2 0x9AE JUMPI PUSH1 0x40 MLOAD DUP1 PUSH1 0x20 ADD PUSH1 0x40 MSTORE DUP1 PUSH1 0x0 DUP2 MSTORE POP PUSH2 0x9D9 JUMP JUMPDEST DUP1 PUSH2 0x9B8 DUP5 PUSH2 0x1189 JUMP JUMPDEST PUSH1 0x40 MLOAD PUSH1 0x20 ADD PUSH2 0x9C9 SWAP3 SWAP2 SWAP1 PUSH2 0x2509 JUMP JUMPDEST PUSH1 0x40 MLOAD PUSH1 0x20 DUP2 DUP4 SUB SUB DUP2 MSTORE SWAP1 PUSH1 0x40 MSTORE JUMPDEST SWAP2 POP POP SWAP2 SWAP1 POP JUMP JUMPDEST PUSH1 0x0 PUSH1 0x5 PUSH1 0x0 DUP5 PUSH20 0xFFFFFFFFFFFFFFFFFFFFFFFFFFFFFFFFFFFFFFFF AND PUSH20 0xFFFFFFFFFFFFFFFFFFFFFFFFFFFFFFFFFFFFFFFF AND DUP2 MSTORE PUSH1 0x20 ADD SWAP1 DUP2 MSTORE PUSH1 0x20 ADD PUSH1 0x0 KECCAK256 PUSH1 0x0 DUP4 PUSH20 0xFFFFFFFFFFFFFFFFFFFFFFFFFFFFFFFFFFFFFFFF AND PUSH20 0xFFFFFFFFFFFFFFFFFFFFFFFFFFFFFFFFFFFFFFFF AND DUP2 MSTORE PUSH1 0x20 ADD SWAP1 DUP2 MSTORE PUSH1 0x20 ADD PUSH1 0x0 KECCAK256 PUSH1 0x0 SWAP1 SLOAD SWAP1 PUSH2 0x100 EXP SWAP1 DIV PUSH1 0xFF AND SWAP1 POP SWAP3 SWAP2 POP POP JUMP JUMPDEST PUSH1 0x0 PUSH32 0x80AC58CD00000000000000000000000000000000000000000000000000000000 PUSH28 0xFFFFFFFFFFFFFFFFFFFFFFFFFFFFFFFFFFFFFFFFFFFFFFFFFFFFFFFF NOT AND DUP3 PUSH28 0xFFFFFFFFFFFFFFFFFFFFFFFFFFFFFFFFFFFFFFFFFFFFFFFFFFFFFFFF NOT AND EQ DUP1 PUSH2 0xB40 JUMPI POP PUSH32 0x5B5E139F00000000000000000000000000000000000000000000000000000000 PUSH28 0xFFFFFFFFFFFFFFFFFFFFFFFFFFFFFFFFFFFFFFFFFFFFFFFFFFFFFFFF NOT AND DUP3 PUSH28 0xFFFFFFFFFFFFFFFFFFFFFFFFFFFFFFFFFFFFFFFFFFFFFFFFFFFFFFFF NOT AND EQ JUMPDEST DUP1 PUSH2 0xB50 JUMPI POP PUSH2 0xB4F DUP3 PUSH2 0x1257 JUMP JUMPDEST JUMPDEST SWAP1 POP SWAP2 SWAP1 POP JUMP JUMPDEST PUSH1 0x0 DUP1 PUSH2 0xB63 DUP4 PUSH2 0x12C1 JUMP JUMPDEST SWAP1 POP PUSH1 0x0 PUSH20 0xFFFFFFFFFFFFFFFFFFFFFFFFFFFFFFFFFFFFFFFF AND DUP2 PUSH20 0xFFFFFFFFFFFFFFFFFFFFFFFFFFFFFFFFFFFFFFFF AND SUB PUSH2 0xBD6 JUMPI DUP3 PUSH1 0x40 MLOAD PUSH32 0x7E27328900000000000000000000000000000000000000000000000000000000 DUP2 MSTORE PUSH1 0x4 ADD PUSH2 0xBCD SWAP2 SWAP1 PUSH2 0x1F76 JUMP JUMPDEST PUSH1 0x40 MLOAD DUP1 SWAP2 SUB SWAP1 REVERT JUMPDEST DUP1 SWAP2 POP POP SWAP2 SWAP1 POP JUMP JUMPDEST PUSH1 0x0 PUSH1 0x4 PUSH1 0x0 DUP4 DUP2 MSTORE PUSH1 0x20 ADD SWAP1 DUP2 MSTORE PUSH1 0x20 ADD PUSH1 0x0 KECCAK256 PUSH1 0x0 SWAP1 SLOAD SWAP1 PUSH2 0x100 EXP SWAP1 DIV PUSH20 0xFFFFFFFFFFFFFFFFFFFFFFFFFFFFFFFFFFFFFFFF AND SWAP1 POP SWAP2 SWAP1 POP JUMP JUMPDEST PUSH1 0x0 CALLER SWAP1 POP SWAP1 JUMP JUMPDEST PUSH2 0xC31 DUP4 DUP4 DUP4 PUSH1 0x1 PUSH2 0x12FE JUMP JUMPDEST POP POP POP JUMP JUMPDEST PUSH1 0x0 DUP1 PUSH2 0xC44 DUP6 DUP6 DUP6 PUSH2 0x14C3 JUMP JUMPDEST SWAP1 POP PUSH1 0x0 PUSH20 0xFFFFFFFFFFFFFFFFFFFFFFFFFFFFFFFFFFFFFFFF AND DUP2 PUSH20 0xFFFFFFFFFFFFFFFFFFFFFFFFFFFFFFFFFFFFFFFF AND SUB PUSH2 0xC88 JUMPI PUSH2 0xC83 DUP5 PUSH2 0x16DD JUMP JUMPDEST PUSH2 0xCC7 JUMP JUMPDEST DUP5 PUSH20 0xFFFFFFFFFFFFFFFFFFFFFFFFFFFFFFFFFFFFFFFF AND DUP2 PUSH20 0xFFFFFFFFFFFFFFFFFFFFFFFFFFFFFFFFFFFFFFFF AND EQ PUSH2 0xCC6 JUMPI PUSH2 0xCC5 DUP2 DUP6 PUSH2 0x1726 JUMP JUMPDEST JUMPDEST JUMPDEST PUSH1 0x0 PUSH20 0xFFFFFFFFFFFFFFFFFFFFFFFFFFFFFFFFFFFFFFFF AND DUP6 PUSH20 0xFFFFFFFFFFFFFFFFFFFFFFFFFFFFFFFFFFFFFFFF AND SUB PUSH2 0xD09 JUMPI PUSH2 0xD04 DUP5 PUSH2 0x1887 JUMP JUMPDEST PUSH2 0xD48 JUMP JUMPDEST DUP5 PUSH20 0xFFFFFFFFFFFFFFFFFFFFFFFFFFFFFFFFFFFFFFFF AND DUP2 PUSH20 0xFFFFFFFFFFFFFFFFFFFFFFFFFFFFFFFFFFFFFFFF AND EQ PUSH2 0xD47 JUMPI PUSH2 0xD46 DUP6 DUP6 PUSH2 0x1958 JUMP JUMPDEST JUMPDEST JUMPDEST DUP1 SWAP2 POP POP SWAP4 SWAP3 POP POP POP JUMP JUMPDEST PUSH1 0x0 PUSH20 0xFFFFFFFFFFFFFFFFFFFFFFFFFFFFFFFFFFFFFFFF AND DUP3 PUSH20 0xFFFFFFFFFFFFFFFFFFFFFFFFFFFFFFFFFFFFFFFF AND SUB PUSH2 0xDC5 JUMPI PUSH1 0x0 PUSH1 0x40 MLOAD PUSH32 0x64A0AE9200000000000000000000000000000000000000000000000000000000 DUP2 MSTORE PUSH1 0x4 ADD PUSH2 0xDBC SWAP2 SWAP1 PUSH2 0x1EE0 JUMP JUMPDEST PUSH1 0x40 MLOAD DUP1 SWAP2 SUB SWAP1 REVERT JUMPDEST PUSH1 0x0 PUSH2 0xDD3 DUP4 DUP4 PUSH1 0x0 PUSH2 0xC36 JUMP JUMPDEST SWAP1 POP PUSH1 0x0 PUSH20 0xFFFFFFFFFFFFFFFFFFFFFFFFFFFFFFFFFFFFFFFF AND DUP2 PUSH20 0xFFFFFFFFFFFFFFFFFFFFFFFFFFFFFFFFFFFFFFFF AND EQ PUSH2 0xE47 JUMPI PUSH1 0x0 PUSH1 0x40 MLOAD PUSH32 0x73C6AC6E00000000000000000000000000000000000000000000000000000000 DUP2 MSTORE PUSH1 0x4 ADD PUSH2 0xE3E SWAP2 SWAP1 PUSH2 0x1EE0 JUMP JUMPDEST PUSH1 0x40 MLOAD DUP1 SWAP2 SUB SWAP1 REVERT JUMPDEST POP POP POP JUMP JUMPDEST PUSH1 0x0 PUSH20 0xFFFFFFFFFFFFFFFFFFFFFFFFFFFFFFFFFFFFFFFF AND DUP3 PUSH20 0xFFFFFFFFFFFFFFFFFFFFFFFFFFFFFFFFFFFFFFFF AND SUB PUSH2 0xEBD JUMPI DUP2 PUSH1 0x40 MLOAD PUSH32 0x5B08BA1800000000000000000000000000000000000000000000000000000000 DUP2 MSTORE PUSH1 0x4 ADD PUSH2 0xEB4 SWAP2 SWAP1 PUSH2 0x1EE0 JUMP JUMPDEST PUSH1 0x40 MLOAD DUP1 SWAP2 SUB SWAP1 REVERT JUMPDEST DUP1 PUSH1 0x5 PUSH1 0x0 DUP6 PUSH20 0xFFFFFFFFFFFFFFFFFFFFFFFFFFFFFFFFFFFFFFFF AND PUSH20 0xFFFFFFFFFFFFFFFFFFFFFFFFFFFFFFFFFFFFFFFF AND DUP2 MSTORE PUSH1 0x20 ADD SWAP1 DUP2 MSTORE PUSH1 0x20 ADD PUSH1 0x0 KECCAK256 PUSH1 0x0 DUP5 PUSH20 0xFFFFFFFFFFFFFFFFFFFFFFFFFFFFFFFFFFFFFFFF AND PUSH20 0xFFFFFFFFFFFFFFFFFFFFFFFFFFFFFFFFFFFFFFFF AND DUP2 MSTORE PUSH1 0x20 ADD SWAP1 DUP2 MSTORE PUSH1 0x20 ADD PUSH1 0x0 KECCAK256 PUSH1 0x0 PUSH2 0x100 EXP DUP2 SLOAD DUP2 PUSH1 0xFF MUL NOT AND SWAP1 DUP4 ISZERO ISZERO MUL OR SWAP1 SSTORE POP DUP2 PUSH20 0xFFFFFFFFFFFFFFFFFFFFFFFFFFFFFFFFFFFFFFFF AND DUP4 PUSH20 0xFFFFFFFFFFFFFFFFFFFFFFFFFFFFFFFFFFFFFFFF AND PUSH32 0x17307EAB39AB6107E8899845AD3D59BD9653F200F220920489CA2B5937696C31 DUP4 PUSH1 0x40 MLOAD PUSH2 0xFAE SWAP2 SWAP1 PUSH2 0x1D6F JUMP JUMPDEST PUSH1 0x40 MLOAD DUP1 SWAP2 SUB SWAP1 LOG3 POP POP POP JUMP JUMPDEST PUSH1 0x0 DUP4 PUSH20 0xFFFFFFFFFFFFFFFFFFFFFFFFFFFFFFFFFFFFFFFF AND EXTCODESIZE GT ISZERO PUSH2 0x116C JUMPI DUP3 PUSH20 0xFFFFFFFFFFFFFFFFFFFFFFFFFFFFFFFFFFFFFFFF AND PUSH4 0x150B7A02 PUSH2 0xFFF PUSH2 0xC1C JUMP JUMPDEST DUP7 DUP6 DUP6 PUSH1 0x40 MLOAD DUP6 PUSH4 0xFFFFFFFF AND PUSH1 0xE0 SHL DUP2 MSTORE PUSH1 0x4 ADD PUSH2 0x1021 SWAP5 SWAP4 SWAP3 SWAP2 SWAP1 PUSH2 0x2582 JUMP JUMPDEST PUSH1 0x20 PUSH1 0x40 MLOAD DUP1 DUP4 SUB DUP2 PUSH1 0x0 DUP8 GAS CALL SWAP3 POP POP POP DUP1 ISZERO PUSH2 0x105D JUMPI POP PUSH1 0x40 MLOAD RETURNDATASIZE PUSH1 0x1F NOT PUSH1 0x1F DUP3 ADD AND DUP3 ADD DUP1 PUSH1 0x40 MSTORE POP DUP2 ADD SWAP1 PUSH2 0x105A SWAP2 SWAP1 PUSH2 0x25E3 JUMP JUMPDEST PUSH1 0x1 JUMPDEST PUSH2 0x10E1 JUMPI RETURNDATASIZE DUP1 PUSH1 0x0 DUP2 EQ PUSH2 0x108D JUMPI PUSH1 0x40 MLOAD SWAP2 POP PUSH1 0x1F NOT PUSH1 0x3F RETURNDATASIZE ADD AND DUP3 ADD PUSH1 0x40 MSTORE RETURNDATASIZE DUP3 MSTORE RETURNDATASIZE PUSH1 0x0 PUSH1 0x20 DUP5 ADD RETURNDATACOPY PUSH2 0x1092 JUMP JUMPDEST PUSH1 0x60 SWAP2 POP JUMPDEST POP PUSH1 0x0 DUP2 MLOAD SUB PUSH2 0x10D9 JUMPI DUP4 PUSH1 0x40 MLOAD PUSH32 0x64A0AE9200000000000000000000000000000000000000000000000000000000 DUP2 MSTORE PUSH1 0x4 ADD PUSH2 0x10D0 SWAP2 SWAP1 PUSH2 0x1EE0 JUMP JUMPDEST PUSH1 0x40 MLOAD DUP1 SWAP2 SUB SWAP1 REVERT JUMPDEST DUP1 MLOAD DUP2 PUSH1 0x20 ADD REVERT JUMPDEST PUSH4 0x150B7A02 PUSH1 0xE0 SHL PUSH28 0xFFFFFFFFFFFFFFFFFFFFFFFFFFFFFFFFFFFFFFFFFFFFFFFFFFFFFFFF NOT AND DUP2 PUSH28 0xFFFFFFFFFFFFFFFFFFFFFFFFFFFFFFFFFFFFFFFFFFFFFFFFFFFFFFFF NOT AND EQ PUSH2 0x116A JUMPI DUP4 PUSH1 0x40 MLOAD PUSH32 0x64A0AE9200000000000000000000000000000000000000000000000000000000 DUP2 MSTORE PUSH1 0x4 ADD PUSH2 0x1161 SWAP2 SWAP1 PUSH2 0x1EE0 JUMP JUMPDEST PUSH1 0x40 MLOAD DUP1 SWAP2 SUB SWAP1 REVERT JUMPDEST POP JUMPDEST POP POP POP POP JUMP JUMPDEST PUSH1 0x60 PUSH1 0x40 MLOAD DUP1 PUSH1 0x20 ADD PUSH1 0x40 MSTORE DUP1 PUSH1 0x0 DUP2 MSTORE POP SWAP1 POP SWAP1 JUMP JUMPDEST PUSH1 0x60 PUSH1 0x0 PUSH1 0x1 PUSH2 0x1198 DUP5 PUSH2 0x19E3 JUMP JUMPDEST ADD SWAP1 POP PUSH1 0x0 DUP2 PUSH8 0xFFFFFFFFFFFFFFFF DUP2 GT ISZERO PUSH2 0x11B7 JUMPI PUSH2 0x11B6 PUSH2 0x2087 JUMP JUMPDEST JUMPDEST PUSH1 0x40 MLOAD SWAP1 DUP1 DUP3 MSTORE DUP1 PUSH1 0x1F ADD PUSH1 0x1F NOT AND PUSH1 0x20 ADD DUP3 ADD PUSH1 0x40 MSTORE DUP1 ISZERO PUSH2 0x11E9 JUMPI DUP2 PUSH1 0x20 ADD PUSH1 0x1 DUP3 MUL DUP1 CALLDATASIZE DUP4 CALLDATACOPY DUP1 DUP3 ADD SWAP2 POP POP SWAP1 POP JUMPDEST POP SWAP1 POP PUSH1 0x0 DUP3 PUSH1 0x20 ADD DUP3 ADD SWAP1 POP JUMPDEST PUSH1 0x1 ISZERO PUSH2 0x124C JUMPI DUP1 DUP1 PUSH1 0x1 SWAP1 SUB SWAP2 POP POP PUSH32 0x3031323334353637383961626364656600000000000000000000000000000000 PUSH1 0xA DUP7 MOD BYTE DUP2 MSTORE8 PUSH1 0xA DUP6 DUP2 PUSH2 0x1240 JUMPI PUSH2 0x123F PUSH2 0x246D JUMP JUMPDEST JUMPDEST DIV SWAP5 POP PUSH1 0x0 DUP6 SUB PUSH2 0x11F7 JUMPI JUMPDEST DUP2 SWAP4 POP POP POP POP SWAP2 SWAP1 POP JUMP JUMPDEST PUSH1 0x0 PUSH32 0x1FFC9A700000000000000000000000000000000000000000000000000000000 PUSH28 0xFFFFFFFFFFFFFFFFFFFFFFFFFFFFFFFFFFFFFFFFFFFFFFFFFFFFFFFF NOT AND DUP3 PUSH28 0xFFFFFFFFFFFFFFFFFFFFFFFFFFFFFFFFFFFFFFFFFFFFFFFFFFFFFFFF NOT AND EQ SWAP1 POP SWAP2 SWAP1 POP JUMP JUMPDEST PUSH1 0x0 PUSH1 0x2 PUSH1 0x0 DUP4 DUP2 MSTORE PUSH1 0x20 ADD SWAP1 DUP2 MSTORE PUSH1 0x20 ADD PUSH1 0x0 KECCAK256 PUSH1 0x0 SWAP1 SLOAD SWAP1 PUSH2 0x100 EXP SWAP1 DIV PUSH20 0xFFFFFFFFFFFFFFFFFFFFFFFFFFFFFFFFFFFFFFFF AND SWAP1 POP SWAP2 SWAP1 POP JUMP JUMPDEST DUP1 DUP1 PUSH2 0x1337 JUMPI POP PUSH1 0x0 PUSH20 0xFFFFFFFFFFFFFFFFFFFFFFFFFFFFFFFFFFFFFFFF AND DUP3 PUSH20 0xFFFFFFFFFFFFFFFFFFFFFFFFFFFFFFFFFFFFFFFF AND EQ ISZERO JUMPDEST ISZERO PUSH2 0x146B JUMPI PUSH1 0x0 PUSH2 0x1347 DUP5 PUSH2 0xB57 JUMP JUMPDEST SWAP1 POP PUSH1 0x0 PUSH20 0xFFFFFFFFFFFFFFFFFFFFFFFFFFFFFFFFFFFFFFFF AND DUP4 PUSH20 0xFFFFFFFFFFFFFFFFFFFFFFFFFFFFFFFFFFFFFFFF AND EQ ISZERO DUP1 ISZERO PUSH2 0x13B2 JUMPI POP DUP3 PUSH20 0xFFFFFFFFFFFFFFFFFFFFFFFFFFFFFFFFFFFFFFFF AND DUP2 PUSH20 0xFFFFFFFFFFFFFFFFFFFFFFFFFFFFFFFFFFFFFFFF AND EQ ISZERO JUMPDEST DUP1 ISZERO PUSH2 0x13C5 JUMPI POP PUSH2 0x13C3 DUP2 DUP5 PUSH2 0x9E1 JUMP JUMPDEST ISZERO JUMPDEST ISZERO PUSH2 0x1407 JUMPI DUP3 PUSH1 0x40 MLOAD PUSH32 0xA9FBF51F00000000000000000000000000000000000000000000000000000000 DUP2 MSTORE PUSH1 0x4 ADD PUSH2 0x13FE SWAP2 SWAP1 PUSH2 0x1EE0 JUMP JUMPDEST PUSH1 0x40 MLOAD DUP1 SWAP2 SUB SWAP1 REVERT JUMPDEST DUP2 ISZERO PUSH2 0x1469 JUMPI DUP4 DUP6 PUSH20 0xFFFFFFFFFFFFFFFFFFFFFFFFFFFFFFFFFFFFFFFF AND DUP3 PUSH20 0xFFFFFFFFFFFFFFFFFFFFFFFFFFFFFFFFFFFFFFFF AND PUSH32 0x8C5BE1E5EBEC7D5BD14F71427D1E84F3DD0314C0F7B2291E5B200AC8C7C3B925 PUSH1 0x40 MLOAD PUSH1 0x40 MLOAD DUP1 SWAP2 SUB SWAP1 LOG4 JUMPDEST POP JUMPDEST DUP4 PUSH1 0x4 PUSH1 0x0 DUP6 DUP2 MSTORE PUSH1 0x20 ADD SWAP1 DUP2 MSTORE PUSH1 0x20 ADD PUSH1 0x0 KECCAK256 PUSH1 0x0 PUSH2 0x100 EXP DUP2 SLOAD DUP2 PUSH20 0xFFFFFFFFFFFFFFFFFFFFFFFFFFFFFFFFFFFFFFFF MUL NOT AND SWAP1 DUP4 PUSH20 0xFFFFFFFFFFFFFFFFFFFFFFFFFFFFFFFFFFFFFFFF AND MUL OR SWAP1 SSTORE POP POP POP POP POP JUMP JUMPDEST PUSH1 0x0 DUP1 PUSH2 0x14CF DUP5 PUSH2 0x12C1 JUMP JUMPDEST SWAP1 POP PUSH1 0x0 PUSH20 0xFFFFFFFFFFFFFFFFFFFFFFFFFFFFFFFFFFFFFFFF AND DUP4 PUSH20 0xFFFFFFFFFFFFFFFFFFFFFFFFFFFFFFFFFFFFFFFF AND EQ PUSH2 0x1511 JUMPI PUSH2 0x1510 DUP2 DUP5 DUP7 PUSH2 0x1B36 JUMP JUMPDEST JUMPDEST PUSH1 0x0 PUSH20 0xFFFFFFFFFFFFFFFFFFFFFFFFFFFFFFFFFFFFFFFF AND DUP2 PUSH20 0xFFFFFFFFFFFFFFFFFFFFFFFFFFFFFFFFFFFFFFFF AND EQ PUSH2 0x15A2 JUMPI PUSH2 0x1553 PUSH1 0x0 DUP6 PUSH1 0x0 DUP1 PUSH2 0x12FE JUMP JUMPDEST PUSH1 0x1 PUSH1 0x3 PUSH1 0x0 DUP4 PUSH20 0xFFFFFFFFFFFFFFFFFFFFFFFFFFFFFFFFFFFFFFFF AND PUSH20 0xFFFFFFFFFFFFFFFFFFFFFFFFFFFFFFFFFFFFFFFF AND DUP2 MSTORE PUSH1 0x20 ADD SWAP1 DUP2 MSTORE PUSH1 0x20 ADD PUSH1 0x0 KECCAK256 PUSH1 0x0 DUP3 DUP3 SLOAD SUB SWAP3 POP POP DUP2 SWAP1 SSTORE POP JUMPDEST PUSH1 0x0 PUSH20 0xFFFFFFFFFFFFFFFFFFFFFFFFFFFFFFFFFFFFFFFF AND DUP6 PUSH20 0xFFFFFFFFFFFFFFFFFFFFFFFFFFFFFFFFFFFFFFFF AND EQ PUSH2 0x1625 JUMPI PUSH1 0x1 PUSH1 0x3 PUSH1 0x0 DUP8 PUSH20 0xFFFFFFFFFFFFFFFFFFFFFFFFFFFFFFFFFFFFFFFF AND PUSH20 0xFFFFFFFFFFFFFFFFFFFFFFFFFFFFFFFFFFFFFFFF AND DUP2 MSTORE PUSH1 0x20 ADD SWAP1 DUP2 MSTORE PUSH1 0x20 ADD PUSH1 0x0 KECCAK256 PUSH1 0x0 DUP3 DUP3 SLOAD ADD SWAP3 POP POP DUP2 SWAP1 SSTORE POP JUMPDEST DUP5 PUSH1 0x2 PUSH1 0x0 DUP7 DUP2 MSTORE PUSH1 0x20 ADD SWAP1 DUP2 MSTORE PUSH1 0x20 ADD PUSH1 0x0 KECCAK256 PUSH1 0x0 PUSH2 0x100 EXP DUP2 SLOAD DUP2 PUSH20 0xFFFFFFFFFFFFFFFFFFFFFFFFFFFFFFFFFFFFFFFF MUL NOT AND SWAP1 DUP4 PUSH20 0xFFFFFFFFFFFFFFFFFFFFFFFFFFFFFFFFFFFFFFFF AND MUL OR SWAP1 SSTORE POP DUP4 DUP6 PUSH20 0xFFFFFFFFFFFFFFFFFFFFFFFFFFFFFFFFFFFFFFFF AND DUP3 PUSH20 0xFFFFFFFFFFFFFFFFFFFFFFFFFFFFFFFFFFFFFFFF AND PUSH32 0xDDF252AD1BE2C89B69C2B068FC378DAA952BA7F163C4A11628F55A4DF523B3EF PUSH1 0x40 MLOAD PUSH1 0x40 MLOAD DUP1 SWAP2 SUB SWAP1 LOG4 DUP1 SWAP2 POP POP SWAP4 SWAP3 POP POP POP JUMP JUMPDEST PUSH1 0x8 DUP1 SLOAD SWAP1 POP PUSH1 0x9 PUSH1 0x0 DUP4 DUP2 MSTORE PUSH1 0x20 ADD SWAP1 DUP2 MSTORE PUSH1 0x20 ADD PUSH1 0x0 KECCAK256 DUP2 SWAP1 SSTORE POP PUSH1 0x8 DUP2 SWAP1 DUP1 PUSH1 0x1 DUP2 SLOAD ADD DUP1 DUP3 SSTORE DUP1 SWAP2 POP POP PUSH1 0x1 SWAP1 SUB SWAP1 PUSH1 0x0 MSTORE PUSH1 0x20 PUSH1 0x0 KECCAK256 ADD PUSH1 0x0 SWAP1 SWAP2 SWAP1 SWAP2 SWAP1 SWAP2 POP SSTORE POP JUMP JUMPDEST PUSH1 0x0 PUSH2 0x1731 DUP4 PUSH2 0x7F9 JUMP JUMPDEST SWAP1 POP PUSH1 0x0 PUSH1 0x7 PUSH1 0x0 DUP5 DUP2 MSTORE PUSH1 0x20 ADD SWAP1 DUP2 MSTORE PUSH1 0x20 ADD PUSH1 0x0 KECCAK256 SLOAD SWAP1 POP DUP2 DUP2 EQ PUSH2 0x1816 JUMPI PUSH1 0x0 PUSH1 0x6 PUSH1 0x0 DUP7 PUSH20 0xFFFFFFFFFFFFFFFFFFFFFFFFFFFFFFFFFFFFFFFF AND PUSH20 0xFFFFFFFFFFFFFFFFFFFFFFFFFFFFFFFFFFFFFFFF AND DUP2 MSTORE PUSH1 0x20 ADD SWAP1 DUP2 MSTORE PUSH1 0x20 ADD PUSH1 0x0 KECCAK256 PUSH1 0x0 DUP5 DUP2 MSTORE PUSH1 0x20 ADD SWAP1 DUP2 MSTORE PUSH1 0x20 ADD PUSH1 0x0 KECCAK256 SLOAD SWAP1 POP DUP1 PUSH1 0x6 PUSH1 0x0 DUP8 PUSH20 0xFFFFFFFFFFFFFFFFFFFFFFFFFFFFFFFFFFFFFFFF AND PUSH20 0xFFFFFFFFFFFFFFFFFFFFFFFFFFFFFFFFFFFFFFFF AND DUP2 MSTORE PUSH1 0x20 ADD SWAP1 DUP2 MSTORE PUSH1 0x20 ADD PUSH1 0x0 KECCAK256 PUSH1 0x0 DUP5 DUP2 MSTORE PUSH1 0x20 ADD SWAP1 DUP2 MSTORE PUSH1 0x20 ADD PUSH1 0x0 KECCAK256 DUP2 SWAP1 SSTORE POP DUP2 PUSH1 0x7 PUSH1 0x0 DUP4 DUP2 MSTORE PUSH1 0x20 ADD SWAP1 DUP2 MSTORE PUSH1 0x20 ADD PUSH1 0x0 KECCAK256 DUP2 SWAP1 SSTORE POP POP JUMPDEST PUSH1 0x7 PUSH1 0x0 DUP5 DUP2 MSTORE PUSH1 0x20 ADD SWAP1 DUP2 MSTORE PUSH1 0x20 ADD PUSH1 0x0 KECCAK256 PUSH1 0x0 SWAP1 SSTORE PUSH1 0x6 PUSH1 0x0 DUP6 PUSH20 0xFFFFFFFFFFFFFFFFFFFFFFFFFFFFFFFFFFFFFFFF AND PUSH20 0xFFFFFFFFFFFFFFFFFFFFFFFFFFFFFFFFFFFFFFFF AND DUP2 MSTORE PUSH1 0x20 ADD SWAP1 DUP2 MSTORE PUSH1 0x20 ADD PUSH1 0x0 KECCAK256 PUSH1 0x0 DUP4 DUP2 MSTORE PUSH1 0x20 ADD SWAP1 DUP2 MSTORE PUSH1 0x20 ADD PUSH1 0x0 KECCAK256 PUSH1 0x0 SWAP1 SSTORE POP POP POP POP JUMP JUMPDEST PUSH1 0x0 PUSH1 0x1 PUSH1 0x8 DUP1 SLOAD SWAP1 POP PUSH2 0x189B SWAP2 SWAP1 PUSH2 0x2610 JUMP JUMPDEST SWAP1 POP PUSH1 0x0 PUSH1 0x9 PUSH1 0x0 DUP5 DUP2 MSTORE PUSH1 0x20 ADD SWAP1 DUP2 MSTORE PUSH1 0x20 ADD PUSH1 0x0 KECCAK256 SLOAD SWAP1 POP PUSH1 0x0 PUSH1 0x8 DUP4 DUP2 SLOAD DUP2 LT PUSH2 0x18CB JUMPI PUSH2 0x18CA PUSH2 0x2335 JUMP JUMPDEST JUMPDEST SWAP1 PUSH1 0x0 MSTORE PUSH1 0x20 PUSH1 0x0 KECCAK256 ADD SLOAD SWAP1 POP DUP1 PUSH1 0x8 DUP4 DUP2 SLOAD DUP2 LT PUSH2 0x18ED JUMPI PUSH2 0x18EC PUSH2 0x2335 JUMP JUMPDEST JUMPDEST SWAP1 PUSH1 0x0 MSTORE PUSH1 0x20 PUSH1 0x0 KECCAK256 ADD DUP2 SWAP1 SSTORE POP DUP2 PUSH1 0x9 PUSH1 0x0 DUP4 DUP2 MSTORE PUSH1 0x20 ADD SWAP1 DUP2 MSTORE PUSH1 0x20 ADD PUSH1 0x0 KECCAK256 DUP2 SWAP1 SSTORE POP PUSH1 0x9 PUSH1 0x0 DUP6 DUP2 MSTORE PUSH1 0x20 ADD SWAP1 DUP2 MSTORE PUSH1 0x20 ADD PUSH1 0x0 KECCAK256 PUSH1 0x0 SWAP1 SSTORE PUSH1 0x8 DUP1 SLOAD DUP1 PUSH2 0x193C JUMPI PUSH2 0x193B PUSH2 0x2644 JUMP JUMPDEST JUMPDEST PUSH1 0x1 SWAP1 SUB DUP2 DUP2 SWAP1 PUSH1 0x0 MSTORE PUSH1 0x20 PUSH1 0x0 KECCAK256 ADD PUSH1 0x0 SWAP1 SSTORE SWAP1 SSTORE POP POP POP POP JUMP JUMPDEST PUSH1 0x0 PUSH1 0x1 PUSH2 0x1965 DUP5 PUSH2 0x7F9 JUMP JUMPDEST PUSH2 0x196F SWAP2 SWAP1 PUSH2 0x2610 JUMP JUMPDEST SWAP1 POP DUP2 PUSH1 0x6 PUSH1 0x0 DUP6 PUSH20 0xFFFFFFFFFFFFFFFFFFFFFFFFFFFFFFFFFFFFFFFF AND PUSH20 0xFFFFFFFFFFFFFFFFFFFFFFFFFFFFFFFFFFFFFFFF AND DUP2 MSTORE PUSH1 0x20 ADD SWAP1 DUP2 MSTORE PUSH1 0x20 ADD PUSH1 0x0 KECCAK256 PUSH1 0x0 DUP4 DUP2 MSTORE PUSH1 0x20 ADD SWAP1 DUP2 MSTORE PUSH1 0x20 ADD PUSH1 0x0 KECCAK256 DUP2 SWAP1 SSTORE POP DUP1 PUSH1 0x7 PUSH1 0x0 DUP5 DUP2 MSTORE PUSH1 0x20 ADD SWAP1 DUP2 MSTORE PUSH1 0x20 ADD PUSH1 0x0 KECCAK256 DUP2 SWAP1 SSTORE POP POP POP POP JUMP JUMPDEST PUSH1 0x0 DUP1 PUSH1 0x0 SWAP1 POP PUSH27 0x184F03E93FF9F4DAA797ED6E38ED64BF6A1F010000000000000000 DUP4 LT PUSH2 0x1A41 JUMPI PUSH27 0x184F03E93FF9F4DAA797ED6E38ED64BF6A1F010000000000000000 DUP4 DUP2 PUSH2 0x1A37 JUMPI PUSH2 0x1A36 PUSH2 0x246D JUMP JUMPDEST JUMPDEST DIV SWAP3 POP PUSH1 0x40 DUP2 ADD SWAP1 POP JUMPDEST PUSH14 0x4EE2D6D415B85ACEF8100000000 DUP4 LT PUSH2 0x1A7E JUMPI PUSH14 0x4EE2D6D415B85ACEF8100000000 DUP4 DUP2 PUSH2 0x1A74 JUMPI PUSH2 0x1A73 PUSH2 0x246D JUMP JUMPDEST JUMPDEST DIV SWAP3 POP PUSH1 0x20 DUP2 ADD SWAP1 POP JUMPDEST PUSH7 0x2386F26FC10000 DUP4 LT PUSH2 0x1AAD JUMPI PUSH7 0x2386F26FC10000 DUP4 DUP2 PUSH2 0x1AA3 JUMPI PUSH2 0x1AA2 PUSH2 0x246D JUMP JUMPDEST JUMPDEST DIV SWAP3 POP PUSH1 0x10 DUP2 ADD SWAP1 POP JUMPDEST PUSH4 0x5F5E100 DUP4 LT PUSH2 0x1AD6 JUMPI PUSH4 0x5F5E100 DUP4 DUP2 PUSH2 0x1ACC JUMPI PUSH2 0x1ACB PUSH2 0x246D JUMP JUMPDEST JUMPDEST DIV SWAP3 POP PUSH1 0x8 DUP2 ADD SWAP1 POP JUMPDEST PUSH2 0x2710 DUP4 LT PUSH2 0x1AFB JUMPI PUSH2 0x2710 DUP4 DUP2 PUSH2 0x1AF1 JUMPI PUSH2 0x1AF0 PUSH2 0x246D JUMP JUMPDEST JUMPDEST DIV SWAP3 POP PUSH1 0x4 DUP2 ADD SWAP1 POP JUMPDEST PUSH1 0x64 DUP4 LT PUSH2 0x1B1E JUMPI PUSH1 0x64 DUP4 DUP2 PUSH2 0x1B14 JUMPI PUSH2 0x1B13 PUSH2 0x246D JUMP JUMPDEST JUMPDEST DIV SWAP3 POP PUSH1 0x2 DUP2 ADD SWAP1 POP JUMPDEST PUSH1 0xA DUP4 LT PUSH2 0x1B2D JUMPI PUSH1 0x1 DUP2 ADD SWAP1 POP JUMPDEST DUP1 SWAP2 POP POP SWAP2 SWAP1 POP JUMP JUMPDEST PUSH2 0x1B41 DUP4 DUP4 DUP4 PUSH2 0x1BFA JUMP JUMPDEST PUSH2 0x1BF5 JUMPI PUSH1 0x0 PUSH20 0xFFFFFFFFFFFFFFFFFFFFFFFFFFFFFFFFFFFFFFFF AND DUP4 PUSH20 0xFFFFFFFFFFFFFFFFFFFFFFFFFFFFFFFFFFFFFFFF AND SUB PUSH2 0x1BB6 JUMPI DUP1 PUSH1 0x40 MLOAD PUSH32 0x7E27328900000000000000000000000000000000000000000000000000000000 DUP2 MSTORE PUSH1 0x4 ADD PUSH2 0x1BAD SWAP2 SWAP1 PUSH2 0x1F76 JUMP JUMPDEST PUSH1 0x40 MLOAD DUP1 SWAP2 SUB SWAP1 REVERT JUMPDEST DUP2 DUP2 PUSH1 0x40 MLOAD PUSH32 0x177E802F00000000000000000000000000000000000000000000000000000000 DUP2 MSTORE PUSH1 0x4 ADD PUSH2 0x1BEC SWAP3 SWAP2 SWAP1 PUSH2 0x230C JUMP JUMPDEST PUSH1 0x40 MLOAD DUP1 SWAP2 SUB SWAP1 REVERT JUMPDEST POP POP POP JUMP JUMPDEST PUSH1 0x0 DUP1 PUSH20 0xFFFFFFFFFFFFFFFFFFFFFFFFFFFFFFFFFFFFFFFF AND DUP4 PUSH20 0xFFFFFFFFFFFFFFFFFFFFFFFFFFFFFFFFFFFFFFFF AND EQ ISZERO DUP1 ISZERO PUSH2 0x1CB2 JUMPI POP DUP3 PUSH20 0xFFFFFFFFFFFFFFFFFFFFFFFFFFFFFFFFFFFFFFFF AND DUP5 PUSH20 0xFFFFFFFFFFFFFFFFFFFFFFFFFFFFFFFFFFFFFFFF AND EQ DUP1 PUSH2 0x1C73 JUMPI POP PUSH2 0x1C72 DUP5 DUP5 PUSH2 0x9E1 JUMP JUMPDEST JUMPDEST DUP1 PUSH2 0x1CB1 JUMPI POP DUP3 PUSH20 0xFFFFFFFFFFFFFFFFFFFFFFFFFFFFFFFFFFFFFFFF AND PUSH2 0x1C99 DUP4 PUSH2 0xBDF JUMP JUMPDEST PUSH20 0xFFFFFFFFFFFFFFFFFFFFFFFFFFFFFFFFFFFFFFFF AND EQ JUMPDEST JUMPDEST SWAP1 POP SWAP4 SWAP3 POP POP POP JUMP JUMPDEST PUSH1 0x0 PUSH1 0x40 MLOAD SWAP1 POP SWAP1 JUMP JUMPDEST PUSH1 0x0 DUP1 REVERT JUMPDEST PUSH1 0x0 DUP1 REVERT JUMPDEST PUSH1 0x0 PUSH32 0xFFFFFFFF00000000000000000000000000000000000000000000000000000000 DUP3 AND SWAP1 POP SWAP2 SWAP1 POP JUMP JUMPDEST PUSH2 0x1D04 DUP2 PUSH2 0x1CCF JUMP JUMPDEST DUP2 EQ PUSH2 0x1D0F JUMPI PUSH1 0x0 DUP1 REVERT JUMPDEST POP JUMP JUMPDEST PUSH1 0x0 DUP2 CALLDATALOAD SWAP1 POP PUSH2 0x1D21 DUP2 PUSH2 0x1CFB JUMP JUMPDEST SWAP3 SWAP2 POP POP JUMP JUMPDEST PUSH1 0x0 PUSH1 0x20 DUP3 DUP5 SUB SLT ISZERO PUSH2 0x1D3D JUMPI PUSH2 0x1D3C PUSH2 0x1CC5 JUMP JUMPDEST JUMPDEST PUSH1 0x0 PUSH2 0x1D4B DUP5 DUP3 DUP6 ADD PUSH2 0x1D12 JUMP JUMPDEST SWAP2 POP POP SWAP3 SWAP2 POP POP JUMP JUMPDEST PUSH1 0x0 DUP2 ISZERO ISZERO SWAP1 POP SWAP2 SWAP1 POP JUMP JUMPDEST PUSH2 0x1D69 DUP2 PUSH2 0x1D54 JUMP JUMPDEST DUP3 MSTORE POP POP JUMP JUMPDEST PUSH1 0x0 PUSH1 0x20 DUP3 ADD SWAP1 POP PUSH2 0x1D84 PUSH1 0x0 DUP4 ADD DUP5 PUSH2 0x1D60 JUMP JUMPDEST SWAP3 SWAP2 POP POP JUMP JUMPDEST PUSH1 0x0 DUP2 MLOAD SWAP1 POP SWAP2 SWAP1 POP JUMP JUMPDEST PUSH1 0x0 DUP3 DUP3 MSTORE PUSH1 0x20 DUP3 ADD SWAP1 POP SWAP3 SWAP2 POP POP JUMP JUMPDEST PUSH1 0x0 JUMPDEST DUP4 DUP2 LT ISZERO PUSH2 0x1DC4 JUMPI DUP1 DUP3 ADD MLOAD DUP2 DUP5 ADD MSTORE PUSH1 0x20 DUP2 ADD SWAP1 POP PUSH2 0x1DA9 JUMP JUMPDEST PUSH1 0x0 DUP5 DUP5 ADD MSTORE POP POP POP POP JUMP JUMPDEST PUSH1 0x0 PUSH1 0x1F NOT PUSH1 0x1F DUP4 ADD AND SWAP1 POP SWAP2 SWAP1 POP JUMP JUMPDEST PUSH1 0x0 PUSH2 0x1DEC DUP3 PUSH2 0x1D8A JUMP JUMPDEST PUSH2 0x1DF6 DUP2 DUP6 PUSH2 0x1D95 JUMP JUMPDEST SWAP4 POP PUSH2 0x1E06 DUP2 DUP6 PUSH1 0x20 DUP7 ADD PUSH2 0x1DA6 JUMP JUMPDEST PUSH2 0x1E0F DUP2 PUSH2 0x1DD0 JUMP JUMPDEST DUP5 ADD SWAP2 POP POP SWAP3 SWAP2 POP POP JUMP JUMPDEST PUSH1 0x0 PUSH1 0x20 DUP3 ADD SWAP1 POP DUP2 DUP2 SUB PUSH1 0x0 DUP4 ADD MSTORE PUSH2 0x1E34 DUP2 DUP5 PUSH2 0x1DE1 JUMP JUMPDEST SWAP1 POP SWAP3 SWAP2 POP POP JUMP JUMPDEST PUSH1 0x0 DUP2 SWAP1 POP SWAP2 SWAP1 POP JUMP JUMPDEST PUSH2 0x1E4F DUP2 PUSH2 0x1E3C JUMP JUMPDEST DUP2 EQ PUSH2 0x1E5A JUMPI PUSH1 0x0 DUP1 REVERT JUMPDEST POP JUMP JUMPDEST PUSH1 0x0 DUP2 CALLDATALOAD SWAP1 POP PUSH2 0x1E6C DUP2 PUSH2 0x1E46 JUMP JUMPDEST SWAP3 SWAP2 POP POP JUMP JUMPDEST PUSH1 0x0 PUSH1 0x20 DUP3 DUP5 SUB SLT ISZERO PUSH2 0x1E88 JUMPI PUSH2 0x1E87 PUSH2 0x1CC5 JUMP JUMPDEST JUMPDEST PUSH1 0x0 PUSH2 0x1E96 DUP5 DUP3 DUP6 ADD PUSH2 0x1E5D JUMP JUMPDEST SWAP2 POP POP SWAP3 SWAP2 POP POP JUMP JUMPDEST PUSH1 0x0 PUSH20 0xFFFFFFFFFFFFFFFFFFFFFFFFFFFFFFFFFFFFFFFF DUP3 AND SWAP1 POP SWAP2 SWAP1 POP JUMP JUMPDEST PUSH1 0x0 PUSH2 0x1ECA DUP3 PUSH2 0x1E9F JUMP JUMPDEST SWAP1 POP SWAP2 SWAP1 POP JUMP JUMPDEST PUSH2 0x1EDA DUP2 PUSH2 0x1EBF JUMP JUMPDEST DUP3 MSTORE POP POP JUMP JUMPDEST PUSH1 0x0 PUSH1 0x20 DUP3 ADD SWAP1 POP PUSH2 0x1EF5 PUSH1 0x0 DUP4 ADD DUP5 PUSH2 0x1ED1 JUMP JUMPDEST SWAP3 SWAP2 POP POP JUMP JUMPDEST PUSH2 0x1F04 DUP2 PUSH2 0x1EBF JUMP JUMPDEST DUP2 EQ PUSH2 0x1F0F JUMPI PUSH1 0x0 DUP1 REVERT JUMPDEST POP JUMP JUMPDEST PUSH1 0x0 DUP2 CALLDATALOAD SWAP1 POP PUSH2 0x1F21 DUP2 PUSH2 0x1EFB JUMP JUMPDEST SWAP3 SWAP2 POP POP JUMP JUMPDEST PUSH1 0x0 DUP1 PUSH1 0x40 DUP4 DUP6 SUB SLT ISZERO PUSH2 0x1F3E JUMPI PUSH2 0x1F3D PUSH2 0x1CC5 JUMP JUMPDEST JUMPDEST PUSH1 0x0 PUSH2 0x1F4C DUP6 DUP3 DUP7 ADD PUSH2 0x1F12 JUMP JUMPDEST SWAP3 POP POP PUSH1 0x20 PUSH2 0x1F5D DUP6 DUP3 DUP7 ADD PUSH2 0x1E5D JUMP JUMPDEST SWAP2 POP POP SWAP3 POP SWAP3 SWAP1 POP JUMP JUMPDEST PUSH2 0x1F70 DUP2 PUSH2 0x1E3C JUMP JUMPDEST DUP3 MSTORE POP POP JUMP JUMPDEST PUSH1 0x0 PUSH1 0x20 DUP3 ADD SWAP1 POP PUSH2 0x1F8B PUSH1 0x0 DUP4 ADD DUP5 PUSH2 0x1F67 JUMP JUMPDEST SWAP3 SWAP2 POP POP JUMP JUMPDEST PUSH1 0x0 DUP1 PUSH1 0x0 PUSH1 0x60 DUP5 DUP7 SUB SLT ISZERO PUSH2 0x1FAA JUMPI PUSH2 0x1FA9 PUSH2 0x1CC5 JUMP JUMPDEST JUMPDEST PUSH1 0x0 PUSH2 0x1FB8 DUP7 DUP3 DUP8 ADD PUSH2 0x1F12 JUMP JUMPDEST SWAP4 POP POP PUSH1 0x20 PUSH2 0x1FC9 DUP7 DUP3 DUP8 ADD PUSH2 0x1F12 JUMP JUMPDEST SWAP3 POP POP PUSH1 0x40 PUSH2 0x1FDA DUP7 DUP3 DUP8 ADD PUSH2 0x1E5D JUMP JUMPDEST SWAP2 POP POP SWAP3 POP SWAP3 POP SWAP3 JUMP JUMPDEST PUSH1 0x0 PUSH1 0x20 DUP3 DUP5 SUB SLT ISZERO PUSH2 0x1FFA JUMPI PUSH2 0x1FF9 PUSH2 0x1CC5 JUMP JUMPDEST JUMPDEST PUSH1 0x0 PUSH2 0x2008 DUP5 DUP3 DUP6 ADD PUSH2 0x1F12 JUMP JUMPDEST SWAP2 POP POP SWAP3 SWAP2 POP POP JUMP JUMPDEST PUSH2 0x201A DUP2 PUSH2 0x1D54 JUMP JUMPDEST DUP2 EQ PUSH2 0x2025 JUMPI PUSH1 0x0 DUP1 REVERT JUMPDEST POP JUMP JUMPDEST PUSH1 0x0 DUP2 CALLDATALOAD SWAP1 POP PUSH2 0x2037 DUP2 PUSH2 0x2011 JUMP JUMPDEST SWAP3 SWAP2 POP POP JUMP JUMPDEST PUSH1 0x0 DUP1 PUSH1 0x40 DUP4 DUP6 SUB SLT ISZERO PUSH2 0x2054 JUMPI PUSH2 0x2053 PUSH2 0x1CC5 JUMP JUMPDEST JUMPDEST PUSH1 0x0 PUSH2 0x2062 DUP6 DUP3 DUP7 ADD PUSH2 0x1F12 JUMP JUMPDEST SWAP3 POP POP PUSH1 0x20 PUSH2 0x2073 DUP6 DUP3 DUP7 ADD PUSH2 0x2028 JUMP JUMPDEST SWAP2 POP POP SWAP3 POP SWAP3 SWAP1 POP JUMP JUMPDEST PUSH1 0x0 DUP1 REVERT JUMPDEST PUSH1 0x0 DUP1 REVERT JUMPDEST PUSH32 0x4E487B7100000000000000000000000000000000000000000000000000000000 PUSH1 0x0 MSTORE PUSH1 0x41 PUSH1 0x4 MSTORE PUSH1 0x24 PUSH1 0x0 REVERT JUMPDEST PUSH2 0x20BF DUP3 PUSH2 0x1DD0 JUMP JUMPDEST DUP2 ADD DUP2 DUP2 LT PUSH8 0xFFFFFFFFFFFFFFFF DUP3 GT OR ISZERO PUSH2 0x20DE JUMPI PUSH2 0x20DD PUSH2 0x2087 JUMP JUMPDEST JUMPDEST DUP1 PUSH1 0x40 MSTORE POP POP POP JUMP JUMPDEST PUSH1 0x0 PUSH2 0x20F1 PUSH2 0x1CBB JUMP JUMPDEST SWAP1 POP PUSH2 0x20FD DUP3 DUP3 PUSH2 0x20B6 JUMP JUMPDEST SWAP2 SWAP1 POP JUMP JUMPDEST PUSH1 0x0 PUSH8 0xFFFFFFFFFFFFFFFF DUP3 GT ISZERO PUSH2 0x211D JUMPI PUSH2 0x211C PUSH2 0x2087 JUMP JUMPDEST JUMPDEST PUSH2 0x2126 DUP3 PUSH2 0x1DD0 JUMP JUMPDEST SWAP1 POP PUSH1 0x20 DUP2 ADD SWAP1 POP SWAP2 SWAP1 POP JUMP JUMPDEST DUP3 DUP2 DUP4 CALLDATACOPY PUSH1 0x0 DUP4 DUP4 ADD MSTORE POP POP POP JUMP JUMPDEST PUSH1 0x0 PUSH2 0x2155 PUSH2 0x2150 DUP5 PUSH2 0x2102 JUMP JUMPDEST PUSH2 0x20E7 JUMP JUMPDEST SWAP1 POP DUP3 DUP2 MSTORE PUSH1 0x20 DUP2 ADD DUP5 DUP5 DUP5 ADD GT ISZERO PUSH2 0x2171 JUMPI PUSH2 0x2170 PUSH2 0x2082 JUMP JUMPDEST JUMPDEST PUSH2 0x217C DUP5 DUP3 DUP6 PUSH2 0x2133 JUMP JUMPDEST POP SWAP4 SWAP3 POP POP POP JUMP JUMPDEST PUSH1 0x0 DUP3 PUSH1 0x1F DUP4 ADD SLT PUSH2 0x2199 JUMPI PUSH2 0x2198 PUSH2 0x207D JUMP JUMPDEST JUMPDEST DUP2 CALLDATALOAD PUSH2 0x21A9 DUP5 DUP3 PUSH1 0x20 DUP7 ADD PUSH2 0x2142 JUMP JUMPDEST SWAP2 POP POP SWAP3 SWAP2 POP POP JUMP JUMPDEST PUSH1 0x0 DUP1 PUSH1 0x0 DUP1 PUSH1 0x80 DUP6 DUP8 SUB SLT ISZERO PUSH2 0x21CC JUMPI PUSH2 0x21CB PUSH2 0x1CC5 JUMP JUMPDEST JUMPDEST PUSH1 0x0 PUSH2 0x21DA DUP8 DUP3 DUP9 ADD PUSH2 0x1F12 JUMP JUMPDEST SWAP5 POP POP PUSH1 0x20 PUSH2 0x21EB DUP8 DUP3 DUP9 ADD PUSH2 0x1F12 JUMP JUMPDEST SWAP4 POP POP PUSH1 0x40 PUSH2 0x21FC DUP8 DUP3 DUP9 ADD PUSH2 0x1E5D JUMP JUMPDEST SWAP3 POP POP PUSH1 0x60 DUP6 ADD CALLDATALOAD PUSH8 0xFFFFFFFFFFFFFFFF DUP2 GT ISZERO PUSH2 0x221D JUMPI PUSH2 0x221C PUSH2 0x1CCA JUMP JUMPDEST JUMPDEST PUSH2 0x2229 DUP8 DUP3 DUP9 ADD PUSH2 0x2184 JUMP JUMPDEST SWAP2 POP POP SWAP3 SWAP6 SWAP2 SWAP5 POP SWAP3 POP JUMP JUMPDEST PUSH1 0x0 DUP1 PUSH1 0x40 DUP4 DUP6 SUB SLT ISZERO PUSH2 0x224C JUMPI PUSH2 0x224B PUSH2 0x1CC5 JUMP JUMPDEST JUMPDEST PUSH1 0x0 PUSH2 0x225A DUP6 DUP3 DUP7 ADD PUSH2 0x1F12 JUMP JUMPDEST SWAP3 POP POP PUSH1 0x20 PUSH2 0x226B DUP6 DUP3 DUP7 ADD PUSH2 0x1F12 JUMP JUMPDEST SWAP2 POP POP SWAP3 POP SWAP3 SWAP1 POP JUMP JUMPDEST PUSH32 0x4E487B7100000000000000000000000000000000000000000000000000000000 PUSH1 0x0 MSTORE PUSH1 0x22 PUSH1 0x4 MSTORE PUSH1 0x24 PUSH1 0x0 REVERT JUMPDEST PUSH1 0x0 PUSH1 0x2 DUP3 DIV SWAP1 POP PUSH1 0x1 DUP3 AND DUP1 PUSH2 0x22BC JUMPI PUSH1 0x7F DUP3 AND SWAP2 POP JUMPDEST PUSH1 0x20 DUP3 LT DUP2 SUB PUSH2 0x22CF JUMPI PUSH2 0x22CE PUSH2 0x2275 JUMP JUMPDEST JUMPDEST POP SWAP2 SWAP1 POP JUMP JUMPDEST PUSH1 0x0 PUSH1 0x60 DUP3 ADD SWAP1 POP PUSH2 0x22EA PUSH1 0x0 DUP4 ADD DUP7 PUSH2 0x1ED1 JUMP JUMPDEST PUSH2 0x22F7 PUSH1 0x20 DUP4 ADD DUP6 PUSH2 0x1F67 JUMP JUMPDEST PUSH2 0x2304 PUSH1 0x40 DUP4 ADD DUP5 PUSH2 0x1ED1 JUMP JUMPDEST SWAP5 SWAP4 POP POP POP POP JUMP JUMPDEST PUSH1 0x0 PUSH1 0x40 DUP3 ADD SWAP1 POP PUSH2 0x2321 PUSH1 0x0 DUP4 ADD DUP6 PUSH2 0x1ED1 JUMP JUMPDEST PUSH2 0x232E PUSH1 0x20 DUP4 ADD DUP5 PUSH2 0x1F67 JUMP JUMPDEST SWAP4 SWAP3 POP POP POP JUMP JUMPDEST PUSH32 0x4E487B7100000000000000000000000000000000000000000000000000000000 PUSH1 0x0 MSTORE PUSH1 0x32 PUSH1 0x4 MSTORE PUSH1 0x24 PUSH1 0x0 REVERT JUMPDEST PUSH32 0x4E487B7100000000000000000000000000000000000000000000000000000000 PUSH1 0x0 MSTORE PUSH1 0x11 PUSH1 0x4 MSTORE PUSH1 0x24 PUSH1 0x0 REVERT JUMPDEST PUSH1 0x0 PUSH2 0x239E DUP3 PUSH2 0x1E3C JUMP JUMPDEST SWAP2 POP PUSH2 0x23A9 DUP4 PUSH2 0x1E3C JUMP JUMPDEST SWAP3 POP DUP3 DUP3 ADD SWAP1 POP DUP1 DUP3 GT ISZERO PUSH2 0x23C1 JUMPI PUSH2 0x23C0 PUSH2 0x2364 JUMP JUMPDEST JUMPDEST SWAP3 SWAP2 POP POP JUMP JUMPDEST PUSH1 0x0 DUP2 SWAP1 POP SWAP2 SWAP1 POP JUMP JUMPDEST PUSH2 0x23E2 PUSH2 0x23DD DUP3 PUSH2 0x1E3C JUMP JUMPDEST PUSH2 0x23C7 JUMP JUMPDEST DUP3 MSTORE POP POP JUMP JUMPDEST PUSH1 0x0 DUP2 PUSH1 0x60 SHL SWAP1 POP SWAP2 SWAP1 POP JUMP JUMPDEST PUSH1 0x0 PUSH2 0x2400 DUP3 PUSH2 0x23E8 JUMP JUMPDEST SWAP1 POP SWAP2 SWAP1 POP JUMP JUMPDEST PUSH1 0x0 PUSH2 0x2412 DUP3 PUSH2 0x23F5 JUMP JUMPDEST SWAP1 POP SWAP2 SWAP1 POP JUMP JUMPDEST PUSH2 0x242A PUSH2 0x2425 DUP3 PUSH2 0x1EBF JUMP JUMPDEST PUSH2 0x2407 JUMP JUMPDEST DUP3 MSTORE POP POP JUMP JUMPDEST PUSH1 0x0 PUSH2 0x243C DUP3 DUP7 PUSH2 0x23D1 JUMP JUMPDEST PUSH1 0x20 DUP3 ADD SWAP2 POP PUSH2 0x244C DUP3 DUP6 PUSH2 0x2419 JUMP JUMPDEST PUSH1 0x14 DUP3 ADD SWAP2 POP PUSH2 0x245C DUP3 DUP5 PUSH2 0x23D1 JUMP JUMPDEST PUSH1 0x20 DUP3 ADD SWAP2 POP DUP2 SWAP1 POP SWAP5 SWAP4 POP POP POP POP JUMP JUMPDEST PUSH32 0x4E487B7100000000000000000000000000000000000000000000000000000000 PUSH1 0x0 MSTORE PUSH1 0x12 PUSH1 0x4 MSTORE PUSH1 0x24 PUSH1 0x0 REVERT JUMPDEST PUSH1 0x0 PUSH2 0x24A7 DUP3 PUSH2 0x1E3C JUMP JUMPDEST SWAP2 POP PUSH2 0x24B2 DUP4 PUSH2 0x1E3C JUMP JUMPDEST SWAP3 POP DUP3 PUSH2 0x24C2 JUMPI PUSH2 0x24C1 PUSH2 0x246D JUMP JUMPDEST JUMPDEST DUP3 DUP3 MOD SWAP1 POP SWAP3 SWAP2 POP POP JUMP JUMPDEST PUSH1 0x0 DUP2 SWAP1 POP SWAP3 SWAP2 POP POP JUMP JUMPDEST PUSH1 0x0 PUSH2 0x24E3 DUP3 PUSH2 0x1D8A JUMP JUMPDEST PUSH2 0x24ED DUP2 DUP6 PUSH2 0x24CD JUMP JUMPDEST SWAP4 POP PUSH2 0x24FD DUP2 DUP6 PUSH1 0x20 DUP7 ADD PUSH2 0x1DA6 JUMP JUMPDEST DUP1 DUP5 ADD SWAP2 POP POP SWAP3 SWAP2 POP POP JUMP JUMPDEST PUSH1 0x0 PUSH2 0x2515 DUP3 DUP6 PUSH2 0x24D8 JUMP JUMPDEST SWAP2 POP PUSH2 0x2521 DUP3 DUP5 PUSH2 0x24D8 JUMP JUMPDEST SWAP2 POP DUP2 SWAP1 POP SWAP4 SWAP3 POP POP POP JUMP JUMPDEST PUSH1 0x0 DUP2 MLOAD SWAP1 POP SWAP2 SWAP1 POP JUMP JUMPDEST PUSH1 0x0 DUP3 DUP3 MSTORE PUSH1 0x20 DUP3 ADD SWAP1 POP SWAP3 SWAP2 POP POP JUMP JUMPDEST PUSH1 0x0 PUSH2 0x2554 DUP3 PUSH2 0x252D JUMP JUMPDEST PUSH2 0x255E DUP2 DUP6 PUSH2 0x2538 JUMP JUMPDEST SWAP4 POP PUSH2 0x256E DUP2 DUP6 PUSH1 0x20 DUP7 ADD PUSH2 0x1DA6 JUMP JUMPDEST PUSH2 0x2577 DUP2 PUSH2 0x1DD0 JUMP JUMPDEST DUP5 ADD SWAP2 POP POP SWAP3 SWAP2 POP POP JUMP JUMPDEST PUSH1 0x0 PUSH1 0x80 DUP3 ADD SWAP1 POP PUSH2 0x2597 PUSH1 0x0 DUP4 ADD DUP8 PUSH2 0x1ED1 JUMP JUMPDEST PUSH2 0x25A4 PUSH1 0x20 DUP4 ADD DUP7 PUSH2 0x1ED1 JUMP JUMPDEST PUSH2 0x25B1 PUSH1 0x40 DUP4 ADD DUP6 PUSH2 0x1F67 JUMP JUMPDEST DUP2 DUP2 SUB PUSH1 0x60 DUP4 ADD MSTORE PUSH2 0x25C3 DUP2 DUP5 PUSH2 0x2549 JUMP JUMPDEST SWAP1 POP SWAP6 SWAP5 POP POP POP POP POP JUMP JUMPDEST PUSH1 0x0 DUP2 MLOAD SWAP1 POP PUSH2 0x25DD DUP2 PUSH2 0x1CFB JUMP JUMPDEST SWAP3 SWAP2 POP POP JUMP JUMPDEST PUSH1 0x0 PUSH1 0x20 DUP3 DUP5 SUB SLT ISZERO PUSH2 0x25F9 JUMPI PUSH2 0x25F8 PUSH2 0x1CC5 JUMP JUMPDEST JUMPDEST PUSH1 0x0 PUSH2 0x2607 DUP5 DUP3 DUP6 ADD PUSH2 0x25CE JUMP JUMPDEST SWAP2 POP POP SWAP3 SWAP2 POP POP JUMP JUMPDEST PUSH1 0x0 PUSH2 0x261B DUP3 PUSH2 0x1E3C JUMP JUMPDEST SWAP2 POP PUSH2 0x2626 DUP4 PUSH2 0x1E3C JUMP JUMPDEST SWAP3 POP DUP3 DUP3 SUB SWAP1 POP DUP2 DUP2 GT ISZERO PUSH2 0x263E JUMPI PUSH2 0x263D PUSH2 0x2364 JUMP JUMPDEST JUMPDEST SWAP3 SWAP2 POP POP JUMP JUMPDEST PUSH32 0x4E487B7100000000000000000000000000000000000000000000000000000000 PUSH1 0x0 MSTORE PUSH1 0x31 PUSH1 0x4 MSTORE PUSH1 0x24 PUSH1 0x0 REVERT INVALID LOG2 PUSH5 0x6970667358 0x22 SLT KECCAK256 CALLDATALOAD 0xE7 0xC4 MCOPY XOR PUSH16 0x98E758D55C0A8928F07D9061E557D09C 0xF 0x1E 0xB3 SWAP5 PUSH22 0x4BE880B32564736F6C634300081A0033000000000000 "
				},
				"gasEstimates": {
					"creation": {
						"codeDepositCost": "1979400",
						"executionCost": "infinite",
						"totalCost": "infinite"
					},
					"external": {
						"animalTypes(uint256)": "infinite",
						"approve(address,uint256)": "infinite",
						"balanceOf(address)": "infinite",
						"getApproved(uint256)": "infinite",
						"isApprovedForAll(address,address)": "infinite",
						"mintAnimalToken()": "infinite",
						"name()": "infinite",
						"ownerOf(uint256)": "infinite",
						"safeTransferFrom(address,address,uint256)": "infinite",
						"safeTransferFrom(address,address,uint256,bytes)": "infinite",
						"setApprovalForAll(address,bool)": "infinite",
						"supportsInterface(bytes4)": "886",
						"symbol()": "infinite",
						"tokenByIndex(uint256)": "infinite",
						"tokenOfOwnerByIndex(address,uint256)": "infinite",
						"tokenURI(uint256)": "infinite",
						"totalSupply()": "2468",
						"transferFrom(address,address,uint256)": "infinite"
					}
				},
				"methodIdentifiers": {
					"animalTypes(uint256)": "4e7fe41e",
					"approve(address,uint256)": "095ea7b3",
					"balanceOf(address)": "70a08231",
					"getApproved(uint256)": "081812fc",
					"isApprovedForAll(address,address)": "e985e9c5",
					"mintAnimalToken()": "62b4c27f",
					"name()": "06fdde03",
					"ownerOf(uint256)": "6352211e",
					"safeTransferFrom(address,address,uint256)": "42842e0e",
					"safeTransferFrom(address,address,uint256,bytes)": "b88d4fde",
					"setApprovalForAll(address,bool)": "a22cb465",
					"supportsInterface(bytes4)": "01ffc9a7",
					"symbol()": "95d89b41",
					"tokenByIndex(uint256)": "4f6ccce7",
					"tokenOfOwnerByIndex(address,uint256)": "2f745c59",
					"tokenURI(uint256)": "c87b56dd",
					"totalSupply()": "18160ddd",
					"transferFrom(address,address,uint256)": "23b872dd"
				}
			},
			"storageLayout": {
				"storage": [
					{
						"astId": 169,
						"contract": "contracts/MintAnimalToken.sol:MintAnimalToken",
						"label": "_name",
						"offset": 0,
						"slot": "0",
						"type": "t_string_storage"
					},
					{
						"astId": 171,
						"contract": "contracts/MintAnimalToken.sol:MintAnimalToken",
						"label": "_symbol",
						"offset": 0,
						"slot": "1",
						"type": "t_string_storage"
					},
					{
						"astId": 175,
						"contract": "contracts/MintAnimalToken.sol:MintAnimalToken",
						"label": "_owners",
						"offset": 0,
						"slot": "2",
						"type": "t_mapping(t_uint256,t_address)"
					},
					{
						"astId": 179,
						"contract": "contracts/MintAnimalToken.sol:MintAnimalToken",
						"label": "_balances",
						"offset": 0,
						"slot": "3",
						"type": "t_mapping(t_address,t_uint256)"
					},
					{
						"astId": 183,
						"contract": "contracts/MintAnimalToken.sol:MintAnimalToken",
						"label": "_tokenApprovals",
						"offset": 0,
						"slot": "4",
						"type": "t_mapping(t_uint256,t_address)"
					},
					{
						"astId": 189,
						"contract": "contracts/MintAnimalToken.sol:MintAnimalToken",
						"label": "_operatorApprovals",
						"offset": 0,
						"slot": "5",
						"type": "t_mapping(t_address,t_mapping(t_address,t_bool))"
					},
					{
						"astId": 1299,
						"contract": "contracts/MintAnimalToken.sol:MintAnimalToken",
						"label": "_ownedTokens",
						"offset": 0,
						"slot": "6",
						"type": "t_mapping(t_address,t_mapping(t_uint256,t_uint256))"
					},
					{
						"astId": 1303,
						"contract": "contracts/MintAnimalToken.sol:MintAnimalToken",
						"label": "_ownedTokensIndex",
						"offset": 0,
						"slot": "7",
						"type": "t_mapping(t_uint256,t_uint256)"
					},
					{
						"astId": 1306,
						"contract": "contracts/MintAnimalToken.sol:MintAnimalToken",
						"label": "_allTokens",
						"offset": 0,
						"slot": "8",
						"type": "t_array(t_uint256)dyn_storage"
					},
					{
						"astId": 1310,
						"contract": "contracts/MintAnimalToken.sol:MintAnimalToken",
						"label": "_allTokensIndex",
						"offset": 0,
						"slot": "9",
						"type": "t_mapping(t_uint256,t_uint256)"
					},
					{
						"astId": 3221,
						"contract": "contracts/MintAnimalToken.sol:MintAnimalToken",
						"label": "animalTypes",
						"offset": 0,
						"slot": "10",
						"type": "t_mapping(t_uint256,t_uint256)"
					}
				],
				"types": {
					"t_address": {
						"encoding": "inplace",
						"label": "address",
						"numberOfBytes": "20"
					},
					"t_array(t_uint256)dyn_storage": {
						"base": "t_uint256",
						"encoding": "dynamic_array",
						"label": "uint256[]",
						"numberOfBytes": "32"
					},
					"t_bool": {
						"encoding": "inplace",
						"label": "bool",
						"numberOfBytes": "1"
					},
					"t_mapping(t_address,t_bool)": {
						"encoding": "mapping",
						"key": "t_address",
						"label": "mapping(address => bool)",
						"numberOfBytes": "32",
						"value": "t_bool"
					},
					"t_mapping(t_address,t_mapping(t_address,t_bool))": {
						"encoding": "mapping",
						"key": "t_address",
						"label": "mapping(address => mapping(address => bool))",
						"numberOfBytes": "32",
						"value": "t_mapping(t_address,t_bool)"
					},
					"t_mapping(t_address,t_mapping(t_uint256,t_uint256))": {
						"encoding": "mapping",
						"key": "t_address",
						"label": "mapping(address => mapping(uint256 => uint256))",
						"numberOfBytes": "32",
						"value": "t_mapping(t_uint256,t_uint256)"
					},
					"t_mapping(t_address,t_uint256)": {
						"encoding": "mapping",
						"key": "t_address",
						"label": "mapping(address => uint256)",
						"numberOfBytes": "32",
						"value": "t_uint256"
					},
					"t_mapping(t_uint256,t_address)": {
						"encoding": "mapping",
						"key": "t_uint256",
						"label": "mapping(uint256 => address)",
						"numberOfBytes": "32",
						"value": "t_address"
					},
					"t_mapping(t_uint256,t_uint256)": {
						"encoding": "mapping",
						"key": "t_uint256",
						"label": "mapping(uint256 => uint256)",
						"numberOfBytes": "32",
						"value": "t_uint256"
					},
					"t_string_storage": {
						"encoding": "bytes",
						"label": "string",
						"numberOfBytes": "32"
					},
					"t_uint256": {
						"encoding": "inplace",
						"label": "uint256",
						"numberOfBytes": "32"
					}
				}
			},
			"userdoc": {
				"kind": "user",
				"methods": {},
				"version": 1
			}
		}
	}
}